:020000040800F2
:100000000050002059770008914900089D490008D8
:10001000A3490008A9490008AF49000800000000F2
:10002000000000000000000000000000B5490008CA
:10003000C149000800000000CD490008D949000866
:10004000A1770008A1770008A1770008A177000830
:10005000A1770008A1770008A1770008A177000820
:10006000A1770008A1770008A1770008E5490008FA
:10007000A1770008A1770008A1770008A177000800
:10008000A1770008A1770008A1770008A1770008F0
:10009000F9490008A1770008A1770008A1770008B6
:1000A000A1770008A1770008A1770008A1770008D0
:1000B000114A000859520008A1770008A1770008EA
:1000C000A1770008A1770008A1770008A1770008B0
:1000D000A1770008A1770008A1770008A1770008A0
:1000E000A1770008A1770008A177000800000000B0
:1000F0000000000000000000000000000000000000
:0C01000000000000000000005FF808F1A3
:1001100010B5054C237833B9044B13B10448AFF341
:1001200000800123237010BD640200200000000045
:1001300004DC000808B5034B1BB103490348AFF3C7
:10014000008008BD000000006802002004DC0008F8
:10015000034613F8012B002AFBD1181A0138704707
:1001600081F0004102E000BF83F0004330B54FEA68
:1001700041044FEA430594EA050F08BF90EA020FD5
:100180001FBF54EA000C55EA020C7FEA645C7FEA68
:10019000655C00F0E2804FEA5454D4EB5555B8BF8B
:1001A0006D420CDD2C4480EA020281EA030382EAFC
:1001B000000083EA010180EA020281EA0303362D8E
:1001C00088BF30BD11F0004F4FEA01314FF4801C61
:1001D0004CEA113102D0404261EB410113F0004F73
:1001E0004FEA03334CEA133302D0524263EB43032A
:1001F00094EA050F00F0A780A4F10104D5F1200EC8
:100200000DDB02FA0EFC22FA05F2801841F1000122
:1002100003FA0EF2801843FA05F359410EE0A5F1F6
:1002200020050EF1200E012A03FA0EFC28BF4CF027
:10023000020C43FA05F3C01851EBE37101F00045DD
:1002400007D54FF0000EDCF1000C7EEB00006EEBEA
:100250000101B1F5801F1BD3B1F5001F0CD3490874
:100260005FEA30004FEA3C0C04F101044FEA4452CB
:1002700012F5800F80F09A80BCF1004F08BF5FEA52
:10028000500C50F1000041EB045141EA050130BD32
:100290005FEA4C0C404141EB010111F4801FA4F1D5
:1002A0000104E9D191F0000F04BF01460020B1FA2A
:1002B00081F308BF2033A3F10B03B3F120020CDA62
:1002C0000C3208DD02F1140CC2F10C0201FA0CF040
:1002D00021FA02F10CE002F11402D8BFC2F1200CA5
:1002E00001FA02F120FA0CFCDCBF41EA0C0190405B
:1002F000E41AA2BF01EB0451294330BD6FEA0404A4
:100300001F3C1CDA0C340EDC04F11404C4F120028E
:1003100020FA04F001FA02F340EA030021FA04F3A0
:1003200045EA030130BDC4F10C04C4F1200220FAF7
:1003300002F001FA04F340EA0300294630BD21FA35
:1003400004F0294630BD94F0000F83F4801306BFFB
:1003500081F480110134013D4EE77FEA645C18BFEF
:100360007FEA655C29D094EA050F08BF90EA020F86
:1003700005D054EA000C04BF1946104630BD91EA7E
:10038000030F1EBF0021002030BD5FEA545C05D181
:100390004000494128BF41F0004130BD14F58004C0
:1003A0003CBF01F5801130BD01F0004545F0FE4134
:1003B00041F470014FF0000030BD7FEA645C1ABF69
:1003C000194610467FEA655C1CBF0B46024650EAA0
:1003D000013406BF52EA033591EA030F41F40021CC
:1003E00030BD00BF90F0000F04BF0021704730B552
:1003F0004FF4806404F132044FF000054FF0000127
:1004000050E700BF90F0000F04BF0021704730B5E7
:100410004FF4806404F1320410F0004548BF4042BC
:100420004FF000013EE700BF42004FEAE2014FEA11
:1004300031014FEA02701FBF12F07F4393F07F4FEC
:1004400081F06051704732F07F4208BF704793F0EF
:100450007F4F04BF41F40021704730B54FF4607402
:1004600001F0004521F000411CE700BF50EA010205
:1004700008BF704730B54FF000050AE050EA0102AE
:1004800008BF704730B511F0004502D5404261EB1E
:1004900041014FF4806404F132045FEA915C3FF45F
:1004A000D8AE4FF003025FEADC0C18BF03325FEAFC
:1004B000DC0C18BF033202EBDC02C2F1200300FAAD
:1004C00003FC20FA02F001FA03FE40EA0E0021FAD2
:1004D00002F11444BDE600BF70B54FF0FF0C4CF4C0
:1004E000E06C1CEA11541DBF1CEA135594EA0C0F72
:1004F00095EA0C0F00F0DEF82C4481EA030621EAAD
:100500004C5123EA4C5350EA013518BF52EA0335E7
:1005100041F4801143F4801338D0A0FB02CE4FF099
:100520000005E1FB02E506F00042E0FB03E54FF0C9
:100530000006E1FB03569CF0000F18BF4EF0010EC1
:10054000A4F1FF04B6F5007F64F5407404D25FEABD
:100550004E0E6D4146EB060642EAC62141EA555170
:100560004FEAC52040EA5E504FEACE2EB4F1FD0CB2
:1005700088BFBCF5E06F1ED8BEF1004F08BF5FEA30
:10058000500E50F1000041EB045170BD06F00046E2
:1005900046EA010140EA020081EA0301B4EB5C048F
:1005A000C2BFD4EB0C0541EA045170BD41F4801187
:1005B0004FF0000E013C00F3AB8014F1360FDEBFAC
:1005C000002001F0004170BDC4F10004203C35DA88
:1005D0000C341BDC04F11404C4F1200500FA05F30B
:1005E00020FA04F001FA05F240EA020001F00042AC
:1005F00021F0004110EBD37021FA04F642EB060122
:100600005EEA430E08BF20EAD37070BDC4F10C044B
:10061000C4F1200500FA04F320FA05F001FA04F20F
:1006200040EA020001F0004110EBD37041F10001FB
:100630005EEA430E08BF20EAD37070BDC4F1200506
:1006400000FA05F24EEA020E20FA04F301FA05F26E
:1006500043EA020321FA04F001F0004121FA04F216
:1006600020EA020000EBD3705EEA430E08BF20EAE6
:10067000D37070BD94F0000F0FD101F00046400020
:1006800041EB010111F4801F08BF013CF7D041EAA2
:10069000060195F0000F18BF704703F000465200A6
:1006A00043EB030313F4801F08BF013DF7D043EA77
:1006B0000603704794EA0C0F0CEA135518BF95EA2D
:1006C0000C0F0CD050EA410618BF52EA4306D1D1B4
:1006D00081EA030101F000414FF0000070BD50EAD3
:1006E000410606BF1046194652EA430619D094EA5D
:1006F0000C0F02D150EA013613D195EA0C0F05D147
:1007000052EA03361CBF104619460AD181EA03019A
:1007100001F0004141F0FE4141F470014FF0000052
:1007200070BD41F0FE4141F4780170BD70B54FF0ED
:10073000FF0C4CF4E06C1CEA11541DBF1CEA13556D
:1007400094EA0C0F95EA0C0F00F0A7F8A4EB05044F
:1007500081EA030E52EA03354FEA013100F0888046
:100760004FEA03334FF0805545EA131343EA12630F
:100770004FEA022245EA111545EA10654FEA0026C4
:100780000EF000419D4208BF964244F1FD0404F57D
:10079000407402D25B084FEA3202B61A65EB0305D9
:1007A0005B084FEA32024FF480104FF4002CB6EB96
:1007B000020E75EB030E22BFB61A754640EA0C0016
:1007C0005B084FEA3202B6EB020E75EB030E22BF56
:1007D000B61A754640EA5C005B084FEA3202B6EB97
:1007E000020E75EB030E22BFB61A754640EA9C0056
:1007F0005B084FEA3202B6EB020E75EB030E22BF26
:10080000B61A754640EADC0055EA060E18D04FEAE3
:10081000051545EA16754FEA06164FEAC30343EA83
:1008200052734FEAC2025FEA1C1CC0D111F4801F50
:100830000BD141EA00014FF000004FF0004CB6E749
:1008400011F4801F04BF01430020B4F1FD0C88BFE8
:10085000BCF5E06F3FF6AFAEB5EB030C04BFB6EBF3
:10086000020C5FEA500C50F1000041EB045170BDE6
:100870000EF0004E4EEA113114EB5C04C2BFD4EB13
:100880000C0541EA045170BD41F480114FF0000E97
:10089000013C90E645EA060E8DE60CEA135594EA13
:1008A0000C0F08BF95EA0C0F3FF43BAF94EA0C0F16
:1008B0000AD150EA01347FF434AF95EA0C0F7FF48B
:1008C00025AF104619462CE795EA0C0F06D152EADF
:1008D00003353FF4FDAE1046194622E750EA4106C3
:1008E00018BF52EA43067FF4C5AE50EA41047FF4D4
:1008F0000DAF52EA43057FF4EBAE12E74FF0FF3C39
:1009000006E000BF4FF0010C02E000BF4FF0010C09
:100910004DF804CD4FEA410C7FEA6C5C4FEA430C82
:1009200018BF7FEA6C5C1BD001B050EA410C0CBFD1
:1009300052EA430C91EA030F02BF90EA020F002033
:10094000704710F1000F91EA030F58BF994208BF9A
:1009500090422CBFD8176FEAE37040F00100704757
:100960004FEA410C7FEA6C5C02D150EA013C07D1AE
:100970004FEA430C7FEA6C5CD6D152EA033CD3D0F9
:100980005DF8040B704700BF8446104662468C46F3
:100990001946634600E000BF01B5FFF7B7FF002826
:1009A00048BF10F1000F01BD4DF808EDFFF7F4FF4F
:1009B0000CBF012000205DF808FB00BF4DF808EDDA
:1009C000FFF7EAFF34BF012000205DF808FB00BFFD
:1009D0004DF808EDFFF7E0FF94BF012000205DF81F
:1009E00008FB00BF4DF808EDFFF7CEFF94BF0120D4
:1009F00000205DF808FB00BF4DF808EDFFF7C4FFCD
:100A000034BF012000205DF808FB00BF4FEA410C15
:100A10007FEA6C5C02D150EA013C0AD14FEA430CF8
:100A20007FEA6C5C02D152EA033C02D14FF0000035
:100A300070474FF0010070474FEA410212F5001273
:100A400015D211D56FF47873B3EB625212D94FEA15
:100A5000C12343F0004343EA505311F0004F23FAFF
:100A600002F018BF404270474FF00000704750EA54
:100A7000013005D111F0004008BF6FF00040704711
:100A80004FF00000704700BF4FEA4102B2F1E0436F
:100A900024BFB3F5001CDCF1FE5C0DD901F0004C65
:100AA0004FEAC0024CEA5070B2F1004F40EB8300B5
:100AB00008BF20F00100704711F0804F21D113F1E1
:100AC0003872BCBF01F00040704741F480114FEA1A
:100AD0005252C2F11802C2F1200C10FA0CF320FAA3
:100AE00002F018BF40F001004FEAC1234FEAD323C0
:100AF00003FA0CFC40EA0C0023FA02F34FEA43032A
:100B0000CCE77FEA625307D150EA01331EBF4FF0B2
:100B1000FE4040F44000704701F0004040F0FE40CD
:100B200040F40000704700BF80F0004002E000BFCA
:100B300081F0004142001FBF5FEA410392EA030FC8
:100B40007FEA226C7FEA236C6AD04FEA1262D2EB12
:100B50001363C1BFD218414048404140B8BF5B4217
:100B6000192B88BF704710F0004F40F4000020F0B0
:100B70007F4018BF404211F0004F41F4000121F0C6
:100B80007F4118BF494292EA030F3FD0A2F1010210
:100B900041FA03FC10EB0C00C3F1200301FA03F14E
:100BA00000F0004302D5494260EB4000B0F5000F71
:100BB00013D3B0F1807F06D340084FEA310102F130
:100BC0000102FE2A51D2B1F1004F40EBC25008BFE2
:100BD00020F0010040EA03007047490040EB0000AC
:100BE00010F4000FA2F10102EDD1B0FA80FCACF1DB
:100BF000080CB2EB0C0200FA0CF0AABF00EBC250DA
:100C000052421843BCBFD0401843704792F0000FC7
:100C100081F4000106BF80F400000132013BB5E71A
:100C20004FEA41037FEA226C18BF7FEA236C21D090
:100C300092EA030F04D092F0000F08BF08467047F5
:100C400090EA010F1CBF0020704712F07F4F04D1C3
:100C5000400028BF40F00040704712F100723CBFD6
:100C600000F50000704700F0004343F0FE4040F400
:100C7000000070477FEA226216BF08467FEA2363BE
:100C80000146420206BF5FEA412390EA010F40F4A9
:100C9000800070474FF0000304E000BF10F00043F5
:100CA00048BF40425FEA000C08BF704743F09643DC
:100CB00001464FF000001CE050EA010208BF7047F7
:100CC0004FF000030AE000BF50EA010208BF70477E
:100CD00011F0004302D5404261EB41015FEA010C93
:100CE00002BF84460146002043F0B64308BFA3F18B
:100CF0008053A3F50003BCFA8CF2083AA3EBC2536D
:100D000010DB01FA02FC634400FA02FCC2F120028B
:100D1000BCF1004F20FA02F243EB020008BF20F0C2
:100D20000100704702F1200201FA02FCC2F1200228
:100D300050EA4C0021FA02F243EB020008BF20EA1D
:100D4000DC7070474FF0FF0C1CEAD0521EBF1CEA4B
:100D5000D15392EA0C0F93EA0C0F6FD01A4480EA39
:100D6000010C400218BF5FEA41211ED04FF0006322
:100D700043EA501043EA5111A0FB01310CF000404E
:100D8000B1F5000F3EBF490041EAD3715B0040EA74
:100D9000010062F17F02FD2A1DD8B3F1004F40EB44
:100DA000C25008BF20F00100704790F0000F0CF017
:100DB000004C08BF49024CEA502040EA51207F3ADB
:100DC000C2BFD2F1FF0340EAC250704740F40000B6
:100DD0004FF00003013A5DDC12F1190FDCBF00F0A7
:100DE00000407047C2F10002410021FA02F1C2F155
:100DF000200200FA02FC5FEA310040F1000053EAF1
:100E00004C0308BF20EADC70704792F0000F00F03E
:100E1000004C02BF400010F4000F013AF9D040EA44
:100E20000C0093F0000F01F0004C02BF490011F4D8
:100E3000000F013BF9D041EA0C018FE70CEAD153D6
:100E400092EA0C0F18BF93EA0C0F0AD030F0004C56
:100E500018BF31F0004CD8D180EA010000F000400A
:100E6000704790F0000F17BF90F0004F084691F0C8
:100E7000000F91F0004F14D092EA0C0F01D1420202
:100E80000FD193EA0C0F03D14B0218BF084608D1CB
:100E900080EA010000F0004040F0FE4040F4000015
:100EA000704740F0FE4040F4400070474FF0FF0CA8
:100EB0001CEAD0521EBF1CEAD15392EA0C0F93EAEF
:100EC0000C0F69D0A2EB030280EA010C49024FEA41
:100ED000402037D04FF0805343EA111143EA1013FA
:100EE0000CF000408B4238BF5B0042F17D024FF4B2
:100EF000000C8B4224BF5B1A40EA0C00B3EB510F8D
:100F000024BFA3EB510340EA5C00B3EB910F24BF75
:100F1000A3EB910340EA9C00B3EBD10F24BFA3EBFA
:100F2000D10340EADC001B0118BF5FEA1C1CE0D1C2
:100F3000FD2A3FF650AF8B4240EBC25008BF20F075
:100F4000010070470CF0004C4CEA50207F32C2BFC9
:100F5000D2F1FF0340EAC250704740F400004FF066
:100F60000003013A37E792F0000F00F0004C02BF97
:100F7000400010F4000F013AF9D040EA0C0093F061
:100F8000000F01F0004C02BF490011F4000F013BBB
:100F9000F9D041EA0C0195E70CEAD15392EA0C0F23
:100FA00008D142027FF47DAF93EA0C0F7FF470AF5B
:100FB000084676E793EA0C0F04D14B023FF44CAF9E
:100FC00008466EE730F0004C18BF31F0004CCAD133
:100FD00030F000427FF45CAF31F000437FF43CAF6F
:100FE0005FE700BF4FF0FF3C06E000BF4FF0010C91
:100FF00002E000BF4FF0010C4DF804CD4FEA400273
:101000004FEA41037FEA226C18BF7FEA236C11D0BC
:1010100001B052EA530C18BF90EA010F58BFB2EB6F
:10102000030088BFC81738BF6FEAE17018BF40F0EF
:10103000010070477FEA226C02D15FEA402C05D1A3
:101040007FEA236CE4D15FEA412CE1D05DF8040B28
:10105000704700BF844608466146FFE70FB5FFF7BB
:10106000C9FF002848BF10F1000F0FBD4DF808ED73
:10107000FFF7F4FF0CBF012000205DF808FB00BF64
:101080004DF808EDFFF7EAFF34BF012000205DF8BE
:1010900008FB00BF4DF808EDFFF7E0FF94BF01200B
:1010A00000205DF808FB00BF4DF808EDFFF7D2FF08
:1010B00094BF012000205DF808FB00BF4DF808ED4B
:1010C000FFF7C8FF34BF012000205DF808FB00BF18
:1010D0004FEA4002B2F1FE4F0FD34FF09E03B3EB45
:1010E00012620DD94FEA002343F0004310F0004F85
:1010F00023FA02F018BF404270474FF000007047DB
:1011000012F1610F01D1420205D110F0004008BF79
:101110006FF0004070474FF00000704742000ED261
:10112000B2F1FE4F0BD34FF09E03B3EB126209D422
:101130004FEA002343F0004323FA02F070474FF0D8
:101140000000704712F1610F01D1420202D14FF04D
:10115000FF3070474FF00000704700BF80B500AF10
:10116000224B1B78012B24D0214B1B78012B20D044
:10117000204B1B78012B1CD01F4B1B78012B18D048
:101180001E4B1B78012B14D01D4B1B78012B10D04C
:101190001C4B1B78012B0CD01B4B1B78012B08D050
:1011A0001A4B1B681A491846FFF774FF0346002BB9
:1011B00002D000F0FFF817E000224FF480711548CC
:1011C00008F071FA01224FF40071134808F06BFA2D
:1011D000124B02221A70124B00221A70114B01227C
:1011E0001A70114B00221A7000BF80BDB910002088
:1011F00090100020B8100020C8100020EC10002033
:101200008A0C0020880C0020781000209410002008
:10121000000040420008014000100140B0090020D9
:1012200000000020010000208402002080B500AFF3
:101230001C4B1B78012B17D01B4B1B78012B13D099
:101240001A4B1B78012B0FD0194B1B78012B0BD09D
:10125000184B1B78012B07D0174B1B78012B03D0A1
:10126000164B1B78012B02D100F0A4F817E00122E5
:101270004FF48071124808F016FA00224FF4007102
:10128000104808F010FA104B01221A700F4B01227F
:101290001A700F4B00221A700E4B00221A7000BFFA
:1012A00080BD00BFFD14002090100020B810002069
:1012B000E4100020890C00208A0C00207810002007
:1012C0000008014000100140B0090020000000208B
:1012D000010000208402002080B500AF244B1B7861
:1012E000012B27D0234B1B78012B23D0224B1B78BB
:1012F000012B1FD0214B1B78012B1BD0204B1B78BF
:10130000012B17D01F4B1B78012B13D01E4B1B78C2
:10131000012B0FD01D4B1B78012B0BD01C4B1B78C6
:10132000012B07D01B4B1B78012B03D01A4B1B78CA
:10133000012B02D100F03EF817E001224FF480713A
:10134000164808F0B0F901224FF40071144808F073
:10135000AAF9144B03221A70134B01221A70134B73
:1013600001221A70124B00221A7000BF80BD00BF0C
:10137000B9100020FD14002090100020B8100020AB
:10138000C8100020E4100020EC100020890C002080
:101390008A0C0020880C00207810002000080140F2
:1013A00000100140B00900200000002001000020D2
:1013B0008402002080B500AF00224FF480710F48F6
:1013C00008F071F900224FF400710D4808F06BF934
:1013D0000C4B00221A700C4B00221A700B4B00228F
:1013E0001A700B4B01221A7000220421044808F0E5
:1013F0005AF900F011F800BF80BD00BF000801409D
:1014000000100140B0090020000000200100002071
:10141000840200200000000098B500AFB04B1B68AC
:101420001846FFF701F89AA3D3E90023FFF7D0FA93
:101430000346002B25D0AA4B1B681846FEF7F4FF85
:101440004FF00002A74BFFF771F903460C46184610
:10145000214691A3D3E90023FFF73EF803460C464B
:10146000184621468EA3D3E90023FEF77DFE0346EE
:101470000C4618462146FFF707FB02469A4B1A60B6
:10148000A9E0974B1B681846FEF7CEFF80A3D3E96F
:101490000023FFF7B1FA0346002B2ED0904B1B68B8
:1014A00092491846FFF7F6FD0346002B25D08C4BDA
:1014B0001B681846FEF7B8FF4FF00002894BFFF794
:1014C00035F903460C461846214677A3D3E9002395
:1014D000FFF702F803460C461846214674A3D3E9E9
:1014E0000023FEF741FE03460C4618462146FFF74F
:1014F000CBFA02467C4B1A606DE0794B1B687B4946
:101500001846FFF7DBFD0346002B32D0744B1B68F7
:101510001846FEF789FF68A3D3E90023FFF758FABE
:101520000346002B25D06E4B1B681846FEF77CFF48
:101530004FF000026B4BFFF7F9F803460C461846D4
:1015400021465FA3D3E90023FEF7C6FF03460C46FE
:10155000184621465CA3D3E90023FEF705FE0346A7
:101560000C4618462146FFF78FFA02465E4B1A607A
:1015700031E05B4B1B681846FEF756FF4EA3D3E9DC
:101580000023FFF739FA0346002B24D0544B1B6885
:101590001846FEF749FF4FF00002524BFFF7C6F81E
:1015A00003460C461846214649A3D3E90023FEF71B
:1015B00093FF03460C461846214647A3D3E9002370
:1015C000FEF7D2FD03460C4618462146FFF75CFAAB
:1015D0000246454B1A60464B1A68464B1B68194633
:1015E0001046FFF7A5FA034619464348FFF75EFC8D
:1015F00003461A46414B1A60404B1A683D4B1B6824
:1016000019461046FFF79EFB034683F000433C4A11
:1016100013603A4B1A68344B1B6819461046FFF7A3
:1016200091FB03461A46364B1B6819461046FFF7D6
:1016300081FA03461A46334B1A602B4B1B6832491A
:101640001846FFF73BFD0346002B03D0264B2A4AE2
:101650001A601BE0244B1B6827491846FFF72EFD34
:101660000346002B03D0204B234A1A600EE01E4B8A
:101670001B684FF000011846FFF702FD0346002BE0
:1016800000D103E0184B4FF000021A6000BF98BD74
:101690006666666666A64940EDD6899DD8093840DB
:1016A00000000000004C5340117931268BE8604067
:1016B000C77E94A55AA47C409A99999999594B4010
:1016C000E3B889F91ACE74408B8AC0E9EE279240BC
:1016D0003D26FC994CDB5B40FAD94FBEC41D7640D9
:1016E0009410002000002E40E40B00200000564221
:1016F0007C000020800000200000C842D0100020A4
:101700009C100020B40B00200000024380B582B082
:1017100000AF7D4B1B687D491846FFF713FB03465E
:101720001846FFF7FBFC03469AB2794B1A80794BB7
:101730001B6879491846FFF7FDF9034673491846B7
:10174000FFF700FB03461846FFF7E8FC03469AB292
:10175000724B1A80724B1B686C491846FFF7F2FAFD
:1017600003461846FFF7DAFC03469AB26D4B1A801F
:101770006D4B1B686D4A13606C4B1A686C4B1B6891
:1017800019461046FFF77CFC0346002B03D0684B3C
:101790001B68664A1360654B1A68664B1B681946DE
:1017A0001046FFF76DFC0346002B03D0614B1B680E
:1017B0005E4A13605D4B1A685F4B1B681946104602
:1017C000FFF75EFC0346002B03D05B4B1B68574AB8
:1017D0001360564B1B6859491846FFF7ABF903468F
:1017E00057491846FFF7AEFA03461846FFF796FC2E
:1017F00003469AB2534B1A80534B1B684349184611
:10180000FFF7A0FA03461846FFF788FC03469AB292
:101810004E4B1A804E4B1B681846FFF759FC034687
:101820009AB24C4B1A804C4B1A884C4B1A800023AE
:101830003B600AE04A4A3B6832F81310494A3B6869
:1018400022F823103B6801333B603B680E2BF1DD2F
:10185000454B1B78012B40F0EB81444B444A5A60C6
:101860002B4B1A78434B1A70294B5A78414B5A70BC
:101870002A4B1A783F4B9A70284B5A783D4BDA70B6
:10188000284B1A783B4B1A71264B5A78394B5A71B0
:101890002C4B1A78374B9A712A4B5A78354BDA71A0
:1018A000324B08221A6105F0D5FF0246324B1A600E
:1018B0000FE005F0CFFF02462F4B1B68D31AB3F59C
:1018C0007A7F06D92D4B1B6819462D4806F08CFEF1
:1018D00005E02B4806F0CCFE0346002BE9D0274B51
:1018E000244A2249264806F0A5FD0346002B07D0CE
:1018F000224B1B681946224806F076FE01F0D4FB05
:101900004FF47A737B6040E0941000200000C842DE
:10191000B4070020B010002000004842F406002068
:10192000E40B0020FC060020C41000205407002017
:101930000015002098100020F81000200000204220
:10194000000020414007002010000020AC070020CC
:1019500004000020B8060020B2090020EC06002098
:10196000380900200007002085020020940700208D
:10197000B1BB0B0BCC060020E4060020780700204A
:101980002C0800207B68013B7B607B68012BF9DC25
:10199000914B924A5A60924B1A78924B1A70904B24
:1019A0005A78904B5A70904B1A788E4B9A708E4B97
:1019B0005A788C4BDA708D4B1A788A4B1A718B4B94
:1019C0005A78884B5A718A4B1B7803F00103DAB2BC
:1019D000844B9A71834B9B795AB2864B1B785B0080
:1019E0005BB203F002035BB213435BB2DAB27D4B2E
:1019F0009A717C4B9B795AB27F4B1B789B005BB2F0
:101A000003F004035BB213435BB2DAB2754B9A7115
:101A1000744B9B795AB2794B1B78DB005BB203F0B5
:101A200008035BB213435BB2DAB26E4B9A716D4B33
:101A30009B795AB2724B1B781B015BB203F0100307
:101A40005BB213435BB2DAB2664B9A71654B9B791A
:101A50005AB26A4B1B785B015BB203F020035BB2A6
:101A600013435BB2DAB25F4B9A715E4B9B795AB209
:101A7000634B1B789B015BB203F040035BB21343E3
:101A80005BB2DAB2574B9A71564B9B795AB25D4BA7
:101A90001B78DB015BB213435BB2DAB2514B9A7134
:101AA000594B1B7803F00103DAB24E4BDA714D4B00
:101AB000DB795AB2554B1B785B005BB203F0020333
:101AC0005BB213435BB2DAB2464BDA71454BDB795A
:101AD0005AB24F4B1B789B005BB203F004035BB21E
:101AE00013435BB2DAB23F4BDA713E4BDB795AB249
:101AF000484B1B78DB005BB203F008035BB2134377
:101B00005BB2DAB2374BDA71364BDB795AB2424B01
:101B10001B781B015BB203F010035BB213435BB293
:101B2000DAB2304BDA712F4BDB795AB23B4B1B7870
:101B30005B015BB203F020035BB213435BB2DAB22A
:101B4000284BDA71274BDB795AB2354B1B789B0156
:101B50005BB203F040035BB213435BB2DAB2214BDA
:101B6000DA711D4B08221A6105F074FE02462D4BF6
:101B70001A600FE005F06EFE02462A4B1B68D31A6E
:101B8000B3F57A7F06D9284B1B681946274806F01B
:101B90002BFD05E0254806F06BFD0346002BE9D040
:101BA000214B104A0C49214806F044FC0346002B07
:101BB00007D01D4B1B6819461C4806F015FD01F0A7
:101BC00073FA4FF47A737B6002E07B68013B7B60C1
:101BD0007B68012BF9DC7AE094070020B1BB1B0B7A
:101BE000AC070020CC060020B8060020EC06002040
:101BF0008A0C0020C8100020E41000209010002063
:101C0000B8100020880C0020B9100020FD1400201E
:101C1000EC100020781000200000002001000020BF
:101C200084020020C8060020780700202C0800202D
:101C3000294B1B780133DAB2274B1A70274B1B78DC
:101C4000002B44D1264B1B78002B40D1224B1B7814
:101C5000312B3CD9234B244A5A60244B00221A7062
:101C6000224B00225A70214B00229A701F4B0022F7
:101C7000DA701E4B00221A711C4B00225A711B4B4A
:101C800055229A71194B0022DA71164B08221A61FB
:101C900000BF174806F0ECFC0346002BF9D0154BAB
:101CA000124A1049124806F0C5FB0346002B01D02A
:101CB00001F0FAF94FF47A737B6002E07B68013B34
:101CC0007B607B68012BF9DC034B00221A7000BF9C
:101CD0000837BD4680BD00BF870200208502002076
:101CE0008602002094070020B1BB0B0ECC0600201A
:101CF0002C0800207807002080B584B000AF786001
:101D0000A04BA14A0021786806F0E6FC0346002BB0
:101D100040F0298110219D4807F0DDFC9A4B1B689B
:101D2000E22B40F08680974B9B79552B55D1984BF1
:101D30001B78002B51D1964B01221A70954B08222B
:101D40001A61954BAA229A7100BF786806F090FC40
:101D50000346002BF9D0914B8F4A8E49786806F0E4
:101D600069FB0346002B01D001F09EF94FF47A7312
:101D7000FB6002E0FB68013BFB60FB68012BF9DCC8
:101D8000874B1B6887491846FFF77AF90346002BF3
:101D90000DD0854B1B78012B09D0844B01221A7082
:101DA000814B01221A70824B09221A6015E07C4B8C
:101DB0001B687C491846FFF777F90346002B0CD0C7
:101DC000794B1B78012B08D0784B00221A70764B88
:101DD00001221A70764B08221A606A4B9B79AA2B53
:101DE00027D16B4B1B78012B23D1704B1B78002B19
:101DF00015D16D4B1B78002B11D0694B1B686D49B9
:101E00001846FFF73DF90346002B05D0674B01222A
:101E10001A70674B0A221A60654B0C221A60664BD7
:101E200001221A70614B1B78012B02D1634B0222F5
:101E30001A70554B1B68B3F5D97F53D1514B1B78A2
:101E400003F00103002B17D0594B03221A605C4B9F
:101E500001221A704B4B1B785B08DBB203F00303C3
:101E6000DAB2564B1A70544B01221A70484B0122B9
:101E70001A70544B01221A70424BDB7903F00103B4
:101E8000002B10D03F4B5B78002B0CD14A4B1B78BA
:101E9000002B08D14A4B01221A70484B00221A70BD
:101EA000434B01221A60374B1B7803F00103002BD0
:101EB00018D1444B1B78012B14D1334B00221A60EC
:101EC0003D4B00221A70324B00221A703C4B00220C
:101ED0001A703A4B00221A703B4B00221A70394B91
:101EE00000221A70284B5B68384A93423BD1324B30
:101EF0001B78012B37D1234B1B78002B18D1214B9A
:101F0000DB79002B14D12A4B02221A601E4B0022CF
:101F10005A60294B00221A701D4B00221A70284B60
:101F200000221A70254B00221A70274B00221A70CB
:101F3000154B00221A60134B1B78DB08DBB2002B19
:101F400014BF01230023DBB21A46214B1A700D4B3C
:101F50001B781B09DBB2002B14BF01230023DBB26B
:101F60001A461C4B1A70084B00225A60064B00227E
:101F70001A6008220021034809F09AFB00BF1037BD
:101F8000BD4680BDD40600205C0700200010014043
:101F90008602002094070020CC060020780700204D
:101FA000E40B00200000C8428902002088020020C3
:101FB0008002002000008C4285020020E00B0020FF
:101FC000940900208A020020B0090020B1BB2B1B1D
:101FD000A01000200411002080B58AB000AF0023BB
:101FE0007B610023BB610123FB6100233B60002375
:101FF0007B600023BB600023FB6000233B61012367
:102000003B620E237B623B461946104806F005F9F9
:102010000346002B01D001F047F80C4806F0C6F942
:102020000346002B01D001F03FF80221074806F0DB
:1020300064FC074B00221A75054B0022DA60044B42
:1020400004229A6000BF2837BD4680BD2C080020BE
:102050009407002080B584B000AF3B1D00221A60B9
:102060005A609A603D4B3E4A1A603C4B4FF4807276
:102070009A603A4B01221A73384B00221A75374B7B
:102080004FF46022DA61354B00225A60334B06224E
:102090001A61324805F00AFC0346002B01D001F01A
:1020A00003F800237B600123BB600723FB603B1D1B
:1020B00019462A4805F0CCFD0346002B01D000F05C
:1020C000F3FF05237B600223BB603B1D19462348B9
:1020D00005F0BEFD0346002B01D000F0E5FF012313
:1020E0007B600323BB603B1D19461C4805F0B0FD17
:1020F0000346002B01D000F0D7FF02237B600423AE
:10210000BB603B1D1946154805F0A2FD0346002B98
:1021100001D000F0C9FF03237B600523BB600623C9
:10212000FB603B1D19460D4805F092FD0346002B50
:1021300001D000F0B9FF04237B600623BB603B1D88
:102140001946064805F084FD0346002B01D000F037
:10215000ABFF00BF1037BD4680BD00BFB8070020F1
:102160000024014080B588B000AF786007F110030B
:1021700000221A605A609A60DA607B681B68284AFD
:10218000934249D1274B9B69264A43F400739361DC
:10219000244B9B6903F40073FB60FB68214B9B6934
:1021A000204A43F0040393611E4B9B6903F0040330
:1021B000BB60BB683F233B6103237B6107F11003D6
:1021C0001946194807F0FEF8184B194A1A60174BC0
:1021D00000225A60154B00229A60144B8022DA606C
:1021E000124B4FF480721A61104B4FF480625A61A7
:1021F0000E4B20229A610D4B0022DA610B4806F04B
:10220000CDFE0346002B01D000F04EFF7B68074A4D
:102210001A62064A7B68536200BF2037BD4680BD04
:10222000002401400010024000080140E80700209F
:102230000800024080B500AF174B184A1A60164BD1
:1022400008225A60144B00229A60134B0022DA6075
:10225000114B4FF4A0221A610F4B00225A610E4B12
:1022600000221A760C4B01225A760B4B00229A76EA
:10227000094B0022DA76084B00221A77064B00221F
:102280005A77054805F0CEFE0346002B01D000F03A
:102290000BFF00BF80BD00BF2C0800200064004081
:1022A00080B58AB000AF786007F1140300221A608D
:1022B0005A609A60DA607B681B68294A93424BD166
:1022C000284BDB69274A43F00073D361254BDB6958
:1022D00003F000733B613B69224B9B69214A43F049
:1022E000080393611F4B9B6903F00803FB60FB68C5
:1022F0004FF480737B610023BB610023FB6107F116
:1023000014031946184807F05DF84FF400737B6119
:102310000223BB6103233B6207F1140319461248F1
:1023200007F050F8114B5B687B627B6A23F4C04373
:102330007B627B6A43F0E0637B627B6A43F48043A9
:102340007B620A4A7B6A536000220021142006F057
:10235000EEFD142006F007FE00BF2837BD4680BD05
:102360000064004000100240000C014000000140E9
:1023700080B582B000AF0C4B5B690B4A43F00103A0
:102380005361094B5B6903F001037B607B680022AA
:1023900000210B2006F0CBFD0B2006F0E4FD00BF72
:1023A0000837BD4680BD00BF0010024080B588B030
:1023B00000AF07F1100300221A605A609A60DA60D9
:1023C0003F4B9B693E4A43F0100393613C4B9B6932
:1023D00003F01003FB60FB68394B9B69384A43F0FC
:1023E00004039361364B9B6903F00403BB60BB6835
:1023F000334B9B69324A43F008039361304B9B692E
:1024000003F008037B607B6800224FF40D712D48B8
:1024100007F049F9002241F203012B4807F043F984
:1024200000224FF48071294807F03DF903233B61F6
:1024300000237B610223BB6107F110031946214889
:1024400006F0C0FF4FF40D733B6101237B61002355
:10245000BB610223FB6107F110031946194806F01E
:10246000B1FF41F203033B6101237B610023BB61A8
:102470000223FB6107F110031946134806F0A2FF7F
:1024800004233B6100237B610023BB6107F1100340
:1024900019460D4806F096FF4FF480733B61012307
:1024A0007B610023BB610223FB6107F11003194626
:1024B000064806F087FF00BF2037BD4680BD00BF3D
:1024C0000010024000100140000C014000080140D3
:1024D00080B500AF124B134A1A60114B124A5A6072
:1024E0000F4B00229A600E4B0022DA600C4B4FF427
:1024F00080421A610A4B00225A61094B00229A61FC
:10250000074B0022DA61064B00221A62044807F0EA
:10251000FBF80346002B01D000F0C6FD00BF80BDD4
:102520005408002000540040801A060080B500AF17
:10253000124B134A1A60114B124A5A600F4B002279
:102540009A600E4B0022DA600C4B4FF480421A6105
:102550000A4B00225A61094B00229A61074B002264
:10256000DA61064B00221A62044807F0CDF80346F0
:10257000002B01D000F098FD00BF80BDA80800200E
:1025800000580040A086010080B58AB000AF786096
:1025900007F1180300221A605A609A60DA607B68BB
:1025A0001B682B4A934224D12A4B9B69294A43F04A
:1025B00008039361274B9B6903F008037B617B69E8
:1025C000C023BB611223FB6103237B6207F1180365
:1025D0001946214806F0F6FE1E4BDB691D4A43F4FE
:1025E0000013D3611B4BDB6903F400133B613B69B0
:1025F00029E07B681B68194A934224D1154B9B69DB
:10260000144A43F008039361124B9B6903F00803DB
:10261000FB60FB684FF44063BB611223FB61032343
:102620007B6207F1180319460B4806F0CBFE094BF5
:10263000DB69084A43F48003D361064BDB6903F48A
:102640008003BB60BB6800BF2837BD4680BD00BFAC
:102650000054004000100240000C014000580040AF
:1026600080B500AF094B0A4A1A60084B05225A6030
:10267000064B40F6FF729A60044807F089FD034656
:10268000002B01D000F010FD00BF80BDFC08002031
:10269000003000400000000080B500AF05F082F877
:1026A00000F0F4F806F068FEFFF780FEFFF760FE2A
:1026B000FFF7D0FCFFF7BEFDFFF70AFFFFF736FF7D
:1026C00001F0FAFD04F058FF04F080FFFFF7C8FFA7
:1026D00004F078FE04F0C2FE00F0ECFC00F046FDD1
:1026E0000A2005F0C1F85C495C4800F065FF5C4BCE
:1026F00000221A605B4B4FF000021A6013E0584B47
:102700001B68554A52F82320564B1B681946104641
:10271000FEF710FA03461A46524B1A60504B1B68DC
:1027200001334F4A13604E4B1B680E2BE7DD0A2026
:1027300005F09AF8FFF750FC00F002F94A4B01222D
:102740001A704FF47A7005F08FF8484B00221A7017
:102750000121474806F090FF0346002B09D00221D3
:10276000434806F089FF0346002B02D100F014FC19
:1027700023E001213E4806F07FFF0346002B09D1EC
:1027800002213B4806F078FF0346002B02D000F000
:10279000BDFB12E00121364806F06EFF0346002B18
:1027A00009D00221324806F067FF0346002B02D011
:1027B00000F0A0F901E000F06DF92E4807F021FDCE
:1027C0002549264800F0F8FE284B1B78012B36D10E
:1027D000294B1B78012B03D01F49204800F0ECFE49
:1027E0001D4801F0B5FC254B1B681846FDF71CFE83
:1027F00017A3D3E90023FEF7E1F80346002B08D026
:10280000184B1B681E491846FEF758FC0346002B60
:1028100003D11C4B1B78012B05D11B4B1B88184681
:1028200001F02AFC05E0184B00221A80002001F07C
:1028300023FC00F007FC10210D4806F04CFF0D486A
:1028400007F0DFFC012005F00FF881E7AFF300800F
:102850009A9999999999B9BF580900203809002087
:1028600008090020BC0B00208B02002094090020E6
:1028700000100140FC080020B0090020B01000202A
:1028800000005C42C00B0020EE0B002080B594B02D
:1028900000AF07F1280328220021184608F008FF9E
:1028A00007F1140300221A605A609A60DA601A6114
:1028B0003B1D00221A605A609A60DA600A23BB62EC
:1028C0000123BB631023FB6301233B6402237B646E
:1028D0000023BB644FF46013FB6407F12803184620
:1028E00007F09EFC0346002B01D000F0DDFB0F2318
:1028F0007B610223BB610023FB614FF480633B6279
:1029000000237B6207F114030221184607F008FF39
:102910000346002B01D000F0C7FB02237B604FF47D
:102920000043FB603B1D184608F096F80346002B59
:1029300001D000F0B9FB00BF5037BD4680BD00009C
:1029400090B583B000AF10224549464808F08EFE8E
:1029500000237B601CE0424A7B6813441B78FB70B9
:1029600008F086FE0246FB78013313441B7803F01F
:102970000303022B02D1FB78203B00E0FB78D9B2A5
:10298000394A7B6813440A461A707B6801337B60BE
:102990007B68052BDFDD06223449354805F05EF8FB
:1029A00001F01AFD002001F003FE01F0D3FD012229
:1029B0000421304806F077FE4FF4FA7004F054FF1B
:1029C00004212C4806F087FE4FF4FA7004F04CFF07
:1029D0000421284806F07FFE642004F045FF04210E
:1029E000244806F078FE642004F03EFF04212148CC
:1029F00006F071FE642004F037FF04211D4806F044
:102A00006AFE642004F030FF1B4A1C4B144607CBBF
:102A100020606160A2601B7823730021052001F013
:102A20003DFE01221649144801F0CEFE01F092FD50
:102A3000144808F053F9144808F050F94FF47A702C
:102A400004F012FF114B00221A70FEF7B3FC104B7A
:102A50004FF000021A6000BF0C37BD4690BD00BFAA
:102A60009C090020B1BB0B00200900200C090020AC
:102A7000B807002000100140C40B002020DC000833
:102A8000080000204815002008150020B00900208B
:102A90009806002098B500AF114B00221A70114B18
:102AA00000221A70002001F083FD0F4A0F4B1446DC
:102AB00007CB20606160A2601B7823731C21142067
:102AC00001F0ECFD01220A49074801F07DFE01F00A
:102AD00041FDFEF76FFC012004F0C6FE00BF98BD6B
:102AE00034090020C00B0020C40B002020DC0008AB
:102AF000080000202DE9F04F87B006AF554B0022AB
:102B00001A70554B00221A70544B1B78002B58D169
:102B1000002001F04DFD524A524B15461C460FCC89
:102B200028606960AA60EB602388A2782B82134634
:102B3000AB741221002001F0B1FD01224A4948483E
:102B400001F042FE464A494B144607CB20606160C3
:102B5000A2602621002001F0A1FD01224249404847
:102B600001F032FE01F0F6FC00221021404806F090
:102B70009AFDFEF71FFC3F4B00221A703E4B0022CD
:102B80001A703E4B00221A703D4B00221A703D4BCA
:102B900000221A703C4B00221A703C4B00221A7023
:102BA0003B4B00221A703B4B00221A703A4B00221A
:102BB0001A703A4B00221A70394B1B68394A13605D
:102BC0006AE1002001F0F4FC1021294806F083FDA1
:102BD000354B1B78012B0ED1344A3549204809F07A
:102BE000BFF90021002001F059FD01221E491C48B7
:102BF00001F0EAFD7AE02C4B1B78022B0ED12B4A18
:102C00002C49174809F0ACF90021002001F046FDDD
:102C100001221549124801F0D7FD67E0224B1B78CD
:102C2000032B4BD10E4A244B15461C460FCC286073
:102C30006960AA60EB602388A2782B821346AB748C
:102C40000021002001F02AFD01220749044801F07B
:102C5000BBFD4BE034090020C00B0020940900208C
:102C6000C40B002030DC00080800002044DC000811
:102C70000010014090100020B8100020EC1000203F
:102C8000890C0020B9100020FD140020C81000207D
:102C9000E41000208A0C002078100020880C00200E
:102CA000101100200C110020B00900202009002084
:102CB00050DC000860DC000870DC00087A4B1B78F0
:102CC000002B13D1794A7A4B144607CB2060616000
:102CD000A2601A889B78A281A3730021002001F0D2
:102CE000DDFC01227349714801F06EFD724B1B68D7
:102CF0001846FDF799FB05460E46704B1B681846B3
:102D0000FDF792FB03460C46CDE900342A463346D4
:102D10006B49664809F024F90A21002001F0BEFC45
:102D200001226449614801F04FFD664B1B6818465B
:102D3000FDF77AFB82468B46634B1B681846FDF70E
:102D400073FB04460D46614B1B681846FDF76CFB90
:102D5000804689465E4B1B681846FDF765FB0246B8
:102D60000B46CDE90423CDE90289CDE90045524661
:102D70005B4658494D4809F0F3F81421002001F052
:102D80008DFC01224B49494801F01EFD524B1B6846
:102D90001846FDF749FB05460E46504B1B68184682
:102DA000FDF742FB03460C46CDE900342A46334684
:102DB0004B493E4809F0D4F81E21002001F06EFC7A
:102DC00001223C49394801F0FFFC464B1B881E4656
:102DD000454B1B681846FDF727FB04460D46434B41
:102DE0001B681846FDF720FB02460B46CDE902237F
:102DF000CDE9004532463E492C4809F0B1F828217A
:102E0000002001F04BFC01222A49284801F0DCFC9B
:102E1000384B1B781E46384B1B789846374B1B683F
:102E20001846FDF701FB04460D46354B1B68184656
:102E3000FDF7FAFA02460B46CDE90223CDE900453B
:102E4000434632462F49194809F08AF832210020BA
:102E500001F024FC01221749144801F0B5FC01F0EF
:102E600079FB294B1B78002B02D1FEF7A3FA13E064
:102E7000254B1B78012B02D1FEF770F90CE0224B99
:102E80001B78022B02D1FEF7D1F905E01E4B1B780F
:102E9000032B01D1FEF720FA012004F0E5FC00BF6E
:102EA0000437BD46BDE8F08FB0090020C40B0020F8
:102EB00084DC00080800002094100020B0100020DE
:102EC00094DC0008C4100020001500209810002099
:102ED000F8100020A4DC0008E40B0020B40B002054
:102EE000C0DC0008EE0B0020B80B00200C11002005
:102EF000D4DC0008C0100020FC140020A410002026
:102F000098060020E8DC0008E00B0020B0B500AF18
:102F10001B4B01221A701B4B00221A70002001F07B
:102F200047FB194A194B144607CB20606160A26029
:102F30001B7823731221142001F0B0FB01221449E5
:102F4000114801F041FC104A124B15461C460FCCAB
:102F500028606960AA60EB602388A2782B82134600
:102F6000AB742621002001F099FB01220849064894
:102F700001F02AFC01F0EEFAFEF71CFA00BFB0BD2A
:102F800034090020C00B0020C40B002020DC000806
:102F900008000020FCDC000898B500AF214B00229F
:102FA0001A70214B01221A70002001F001FB1F4A08
:102FB0001F4B144607CB20606160A2601B7823730F
:102FC0000021142001F06AFB01221A49174801F080
:102FD000FBFB164A184B144607CB20606160A260C9
:102FE0001B88A3810A21002001F058FB012211490E
:102FF0000E4801F0E9FB114B1B881A4610490B489B
:1030000008F0AEFF2821002001F048FB0122094909
:10301000064801F0D9FB01F09DFAFEF7CBF900BF9D
:1030200098BD00BF34090020C00B0020C40B002055
:1030300020DC00080800002010DD0008EE0B002056
:1030400020DD000880B582B000AF134B00221A606B
:103050000FE0114B1B68114A52F82330194678686B
:10306000FDF768FD03467B600B4B1B6801330A4A82
:103070001360094B1B680E2BEBDD09497868FEF7DE
:103080001DF80346002B00D102E0064A7B6813605E
:1030900000BF0837BD4680BD080900205809002040
:1030A00000002041BC0B002080B400AF00BFBD4633
:1030B00080BC704780B588B000AF2A4B9B69294A15
:1030C00043F004039361274B9B6903F00403FB6007
:1030D000FB68244B9B69234A43F008039361214B0F
:1030E0009B6903F00803BB60BB681E4B9B691D4ACC
:1030F00043F0100393611B4B9B6903F010037B604B
:103100007B6801233B6101237B610023BB610323B7
:10311000FB6107F110031946134806F053F9082321
:103120003B6107F1100319460F4806F04BF92023C5
:103130003B6107F1100319460B4806F043F91023D1
:103140003B6100237B610023BB610123FB6107F12D
:1031500010031946044806F035F900BF2037BD4674
:1031600080BD00BF00100240000C014080B500AFE0
:10317000012201212A4806F096FA01224FF48071BB
:10318000284806F090FA0A2000F04EF800224FF48A
:103190008071244806F087FA4FF4FA6000F044F892
:1031A00001224FF480711F4806F07DFA0A2000F0DA
:1031B0003BF8002201211A4806F075FA642000F05D
:1031C00033F801220121164806F06DFA642000F060
:1031D0002BF800220121124806F065FA642000F065
:1031E00023F8012201210E4806F05DFA642000F068
:1031F0001BF8002201210A4806F055FA642000F06D
:1032000013F801220121064806F04DFA642000F06F
:103210000BF844F6206000F007F800BF80BD00BF47
:10322000000C01400010014080B483B000AF786012
:1032300002E07B68013B7B607B68002BF9D100BF1B
:103240000C37BD4680BC704780B584B000AF0346E4
:10325000FB71002208211A4806F025FA0023FB73AF
:1032600027E0FA79FB7BC3F1070342FA03F303F08B
:103270000103002B05D001222021114806F013FA8A
:1032800004E0002220210E4806F00DFA0A20FFF784
:10329000CBFF012208210A4806F005FA0A20FFF7B1
:1032A000C3FF00220821064806F0FDF9FB7B01332D
:1032B000FB73FB7B072BD4D900BF1037BD4680BD05
:1032C000000C014080B582B000AF0023BB7100222A
:1032D00020211E4806F0E7F9002208211B4806F0CD
:1032E000E2F90023FB7128E00A20FFF79DFF01228D
:1032F0000821164806F0D7F90A20FFF795FF10219C
:10330000124806F0B9F90346012B0BD1FB79C3F142
:103310000703012202FA03F35AB297F90630134366
:103320005BB2BB710A20FFF77FFF0022082107482C
:1033300006F0B9F9FB790133FB71FB79072BD3D97F
:10334000BB7918460837BD4680BD00BF000C014060
:1033500080B584B000AF0346FB710B46BB711346CA
:103360007B71FB795B10DBB203F00103FB73FB7B2A
:103370000233DBB23B73FB79DB01FB73BB791B01CF
:10338000DAB2FB7B1344DAB27B791344DBB26033ED
:10339000DBB27B7307F10C03184600F005F800BFA1
:1033A0001037BD4680BD000080B584B000AF7860A6
:1033B0007B681B783B727B685B787B7207F1080344
:1033C0001946022000F02AF80346FB81FB891B0AFC
:1033D0009BB2DBB2BB72FB89DBB2FB720022012124
:1033E0000D4806F060F93B7A1846FFF72DFF7B7A0F
:1033F0001846FFF729FFBB7A1846FFF725FFFB7A2F
:103400001846FFF721FF01220121034806F04BF97E
:1034100000BF1037BD4680BD000C014080B485B0B0
:1034200000AF03463960FB711023FB8100237B73DF
:1034300019E0FB89DB099AB27B7B39680B441B7866
:103440009BB253409BB2DBB27B81FB891B021AB259
:103450007B890B4931F813301BB253401BB2FB81FF
:103460007B7B01337B737A7BFB799A42E1D3FB89C7
:103470005B009BB218461437BD4680BC704700BF46
:10348000A8E4000890B585B000AF03463A60FB7130
:103490000B46BB71FB79012B04D104237B72002303
:1034A0003B7226E0FB79022B04D106237B720023BA
:1034B0003B721EE0FB79032B04D108237B720023AF
:1034C0003B7216E0FB79042B04D10A237B720023A4
:1034D0003B720EE0FB79052B04D109237B7200239C
:1034E0003B7206E0FB79062B03D10B237B72002392
:1034F0003B7207F1080319460220FFF78FFF0346CE
:10350000FB81FB891B0A9BB2DBB2BB72FB89DBB27E
:10351000FB7200220121264806F0C5F83B7A1846C6
:10352000FFF792FE7B7A1846FFF78EFEBB7A1846AD
:10353000FFF78AFEFB7A1846FFF786FEFFF7C2FE0A
:1035400003461A463B681A703B685C1CFFF7BAFEDC
:10355000034623703B689C1CFFF7B4FE03462370B0
:103560003B68DC1CFFF7AEFE034623703B681C1D66
:10357000FFF7A8FE034623703B685C1DFFF7A2FE21
:10358000034623703B689C1DFFF79CFE0346237097
:103590003B68DC1DFFF796FE0346237001220121E4
:1035A000034806F080F800BF1437BD4690BD00BF49
:1035B000000C01400000000090B587B000AF7860BB
:1035C00039600023FB7500220121C74806F06BF823
:1035D000C64B07221A70C54B23225A70C348FFF707
:1035E000E3FE012004F040F9002201210020FFF752
:1035F000AFFE4FF42F7004F037F907F10C031A46B1
:1036000001210120FFF73EFFFB7D5B00013307F145
:103610001802134413F80C3C1B02FA7D520007F108
:1036200018010A4412F80C2C13431846FDF736FB18
:10363000FB7DAF4A52F823301946FDF779FA03466D
:103640001946FB7D5B007A68D4180846FDF766FDD5
:1036500003469BB22380FB7D5B007A6813441B8882
:103660001846FCF7CFFE9EA3D3E90023FCF734FFF6
:1036700003460C4618462146FB7D9B003A68D41849
:10368000FDF702FA03462360FB7D0133FB75FB7DEA
:103690005B00013307F11802134413F80C3C1B02C2
:1036A000FA7D520007F118010A4412F80C2C13435A
:1036B0001846FDF7F3FAFB7D8D4A52F82330194680
:1036C000FDF736FA03461946FB7D5B007A68D4188D
:1036D0000846FDF723FD03469BB22380FB7D5B007C
:1036E0007A6813441B881846FCF78CFE7CA3D3E948
:1036F0000023FCF7F1FE03460C4618462146FB7DED
:103700009B003A68D418FDF7BFF903462360FB7DA0
:103710000133FB75FB7D5B00013307F11802134495
:1037200013F80C3C1B02FA7D520007F118010A4401
:1037300012F80C2C13431846FDF7B0FAFB7D6C4AC7
:1037400052F823301946FDF7F3F903461946FB7D7D
:103750005B007A68D4180846FDF7E0FC03469BB28C
:103760002380FB7D5B007A6813441B881846FCF7B6
:1037700049FE5BA3D3E90023FCF7AEFE03460C46EB
:1037800018462146FB7D9B003A68D418FDF77CF96A
:1037900003462360FB7D0133FB7507F10C031A46DA
:1037A00001210220FFF76EFE0023FB75FB7D5B000D
:1037B000013307F11802134413F80C3C1B02FA7D85
:1037C000520007F118010A4412F80C2C1343184652
:1037D000FDF764FAFB7D0333454A52F8233019465E
:1037E000FDF7A6F903461946FB7D03335B007A68B3
:1037F000D4180846FDF792FC03469BB22380FB7D5C
:1038000003335B007A6813441B881846FCF7FAFD03
:1038100033A3D3E90023FCF75FFE03460C461846AA
:103820002146FB7D03339B003A68D418FDF72CF941
:1038300003462360FB7D0133FB75FB7D5B00013399
:1038400007F11802134413F80C3C1B02FA7D5200D6
:1038500007F118010A4412F80C2C13431846FDF71F
:103860001DFAFB7D0333224A52F823301946FDF737
:103870005FF903461946FB7D03335B007A68D41871
:103880000846FDF74BFC03469BB22380FB7D0333C8
:103890005B007A6813441B881846FCF7B3FD10A33D
:1038A000D3E90023FCF718FE03460C4618462146D0
:1038B000FB7D03339B003A68D418FDF7E5F8034617
:1038C0002360FB7D0133FB75FB7D5B00013307F15A
:1038D0001802134413F80C3C1B020BE0AFF30080FA
:1038E0002D431CEBE2361A3F000C0140EC0B00208C
:1038F00014000020FA7D520007F118010A4412F862
:103900000C2C13431846FDF7C9F9FB7D0333C64A57
:1039100052F823301946FDF70BF903461946FB7D93
:1039200003335B007A68D4180846FDF7F7FB0346BB
:103930009BB22380FB7D03335B007A6813441B88B2
:103940001846FCF75FFDB6A3D3E90023FCF7C4FDDE
:1039500003460C4618462146FB7D03339B003A681C
:10396000D418FDF791F803462360FB7D0133FB7506
:1039700007F10C031A4601210320FFF783FD002302
:10398000FB75FB7D5B00013307F11802134413F84C
:103990000C3C1B02FA7D520007F118010A4412F890
:1039A0000C2C13431846FDF779F9FB7D06339E4A2C
:1039B00052F823301946FDF7BBF803461946FB7D44
:1039C00006335B007A68D4180846FDF7A7FB034668
:1039D0009BB22380FB7D06335B007A6813441B880F
:1039E0001846FCF70FFD8EA3D3E90023FCF774FD06
:1039F00003460C4618462146FB7D06339B003A6879
:103A0000D418FDF741F803462360FB7D0133FB75B5
:103A1000FB7D5B00013307F11802134413F80C3CE3
:103A20001B02FA7D520007F118010A4412F80C2C0F
:103A300013431846FDF732F9FB7D06337A4A52F8F4
:103A400023301946FDF774F803461946FB7D06330B
:103A50005B007A68D4180846FDF760FB03469BB20A
:103A60002380FB7D06335B007A6813441B8818466D
:103A7000FCF7C8FC6AA3D3E90023FCF72DFD03463D
:103A80000C4618462146FB7D06339B003A68D41845
:103A9000FCF7FAFF03462360FB7D0133FB75FB7DDA
:103AA0005B00013307F11802134413F80C3C1B02AE
:103AB000FA7D520007F118010A4412F80C2C134346
:103AC0001846FDF7EBF8FB7D0633574A52F82330D2
:103AD0001946FDF72DF803461946FB7D06335B00BA
:103AE0007A68D4180846FDF719FB03469BB2238079
:103AF000FB7D06335B007A6813441B881846FCF78D
:103B000081FC47A3D3E90023FCF7E6FC03460C46FF
:103B100018462146FB7D06339B003A68D418FCF713
:103B2000B3FF03462360FB7D0133FB7507F10C03F4
:103B30001A4601210420FFF7A5FC0023FB75FB7D3D
:103B40005B00013307F11802134413F80C3C1B020D
:103B5000FA7D520007F118010A4412F80C2C1343A5
:103B60001846FDF79BF8FB7D09332F4A52F82330A6
:103B70001946FCF7DDFF03461946FB7D09335B0060
:103B80007A68D4180846FDF7C9FA03469BB2238029
:103B9000FB7D09335B007A6813441B881846FCF7E9
:103BA00031FC1FA3D3E90023FCF796FC03460C4627
:103BB00018462146FB7D09339B003A68D418FCF770
:103BC00063FF03462360FB7D0133FB75FB7D5B00D8
:103BD000013307F11802134413F80C3C1B02FA7D61
:103BE000520007F118010A4412F80C2C134318462E
:103BF000FDF754F8FB7D09330B4A52F82330194680
:103C0000FCF796FF03461946FB7D09335B007A6893
:103C1000D4180846FDF782FA034607E0AFF30080A8
:103C20002D431CEBE2361A3F140000209BB2238088
:103C3000FB7D09335B007A6813441B881846FCF748
:103C4000E1FBA1A3D3E90023FCF746FC03460C46A5
:103C500018462146FB7D09339B003A68D418FCF7CF
:103C600013FF03462360FB7D0133FB75FB7D5B0087
:103C7000013307F11802134413F80C3C1B02FA7DC0
:103C8000520007F118010A4412F80C2C134318468D
:103C9000FDF704F8FB7D09338D4A52F823301946AD
:103CA000FCF746FF03461946FB7D09335B007A6843
:103CB000D4180846FDF732FA03469BB22380FB7DF9
:103CC00009335B007A6813441B881846FCF79AFB9B
:103CD0007DA3D3E90023FCF7FFFB03460C461846FF
:103CE0002146FB7D09339B003A68D418FCF7CCFED3
:103CF00003462360FB7D0133FB7507F10C031A4675
:103D000001210520FFF7BEFB0023FB75FB7D5B0057
:103D1000013307F11802134413F80C3C1B02FA7D1F
:103D2000520007F118010A4412F80C2C13431846EC
:103D3000FCF7B4FFFB7D0C33654A52F8233019467B
:103D4000FCF7F6FE03461946FB7D0C335B007A68F0
:103D5000D4180846FDF7E2F903469BB22380FB7DA9
:103D60000C335B007A6813441B881846FCF74AFB47
:103D700055A3D3E90023FCF7AFFB03460C461846D6
:103D80002146FB7D0C339B003A68D418FCF77CFE7F
:103D900003462360FB7D0133FB75FB7D5B00013334
:103DA00007F11802134413F80C3C1B02FA7D520071
:103DB00007F118010A4412F80C2C13431846FCF7BB
:103DC0006DFFFB7D0C33424A52F823301946FCF755
:103DD000AFFE03461946FB7D0C335B007A68D418AE
:103DE0000846FDF79BF903469BB22380FB7D0C330D
:103DF0005B007A6813441B881846FCF703FB32A368
:103E0000D3E90023FCF768FB03460C46184621461D
:103E1000FB7D0C339B003A68D418FCF735FE034653
:103E20002360FB7D0133FB75FB7D5B00013307F1F4
:103E30001802134413F80C3C1B02FA7D520007F1E0
:103E400018010A4412F80C2C13431846FCF726FFFD
:103E5000FB7D0C331E4A52F823301946FCF768FEEE
:103E600003461946FB7D0C335B007A68D41808467C
:103E7000FDF754F903469BB22380FB7D0C335B00B6
:103E80007A6813441B881846FCF7BCFA0EA3D3E9E2
:103E90000023FCF721FB03460C4618462146FB7D18
:103EA0000C339B003A68D418FCF7EEFD0346236000
:103EB000FB7D0133FB7501220121064805F0F3FB70
:103EC00000BF1C37BD4690BD2D431CEBE2361A3FA8
:103ED00014000020000C014080B588B000AF0346FC
:103EE0000A46FB711346BB7101237B7500233B75AA
:103EF00007F1140319460220FFF790FA03467B836B
:103F00007B8B1B0A9BB2DBB2BB757B8BDBB2FB7579
:103F100000220121244805F0C6FB3B7D1846FFF72F
:103F200093F97B7D1846FFF78FF9BB7D1846FFF7A5
:103F30008BF9FB7D1846FFF787F900233B730023BD
:103F40007B730023BB730023FB73FB793B74BB794A
:103F50007B7407F10C0319460620FFF75FFA03464E
:103F60007B837B8B1B0A9BB2DBB2BB747B8BDBB28C
:103F7000FB740023FB610AE007F10C02FB691344A8
:103F80001B781846FFF760F9FB690133FB61FB6999
:103F9000072BF1DD01220121034805F084FB00BF5E
:103FA0002037BD4680BD00BF000C014080B588B001
:103FB00000AF0346FB7124237B7500233B7507F19B
:103FC000140319460220FFF729FA03467B837B8BF3
:103FD0001B0A9BB2DBB2BB757B8BDBB2FB7500228D
:103FE0000121244805F05FFB3B7D1846FFF72CF9C3
:103FF0007B7D1846FFF728F9BB7D1846FFF724F9AB
:10400000FB7D1846FFF720F9FB793B7300237B7398
:104010000023BB730023FB7300233B7400237B74DA
:1040200007F10C0319460620FFF7F8F903467B83D6
:104030007B8B1B0A9BB2DBB2BB747B8BDBB2FB744A
:104040000023FB610AE007F10C02FB6913441B78B3
:104050001846FFF7F9F8FB690133FB61FB69072B91
:10406000F1DD01220121034805F01DFB00BF2037CF
:10407000BD4680BD000C014080B584B000AF034652
:10408000FB802F4B00221A702E4B00221A702E4BF1
:1040900000221A700023FB603DE0FA88FB6842FAB8
:1040A00003F3DBB203F00103FB72FB68072B0DDCAB
:1040B000FA7AFB6802FA03F33B813B89DAB2204BC0
:1040C0001B781344DAB21E4B1A701FE0FB680B2BEF
:1040D0000EDCFA7AFB68083B02FA03F33B813B896A
:1040E000DAB2184B1B781344DAB2164B1A700DE093
:1040F000FA7AFB68083B02FA03F33B813B89DAB2A8
:10410000114B1B781344DAB20F4B1A7000233B811A
:10411000FB680133FB60FB680E2BBEDD084B1A7891
:10412000084B1B7819461046FFF7D6FE064B1B7846
:104130001846FFF73BFF00BF1037BD4680BD00BFEC
:104140008C0200208D0200208E0200200000000062
:1041500090B587B000AF78604F4B504A1A60504B13
:1041600000221A8000233B6117E03B699B007A68BC
:1041700013441A68484B1B6819461046FCF780FF29
:104180000346002B06D03B699B007A6813441B68EA
:10419000414A13603B6901333B613B690E2BE4DD0F
:1041A0000023FB604AE0FB689B007A6813441A68AE
:1041B000394B1B6819461046FCF7BAFC03461946F2
:1041C000384AFB6842F82310364AFB6852F823301D
:1041D00019467869FCF7AEFC03467B61314AFB68FF
:1041E00052F823301846FCF71FF927A3D3E9002320
:1041F000FCF702FC0346002B1DD0FB689B007A688D
:1042000013441B681846FCF70FF921A3D3E90023D8
:10421000FCF7F2FB0346002B0DD001237B817A894A
:10422000FB6802FA03F37B811D4B1A887B891344D8
:104230009AB21B4B1A80FB680133FB60FB680E2BA4
:10424000B1DD19497869FCF77DFD03461846FCF796
:10425000EBF84FF00002154BFCF768FA03460C46EA
:10426000184621464FF03332114BFCF75FFA0346F4
:104270000C4618462146FCF707FC02460D4B1A6017
:1042800000BF1C37BD4690BD9A9999999999993F5D
:104290003333333333330B402C0C002066668640B7
:1042A000EE0B0020F00B00200000C84200002C4064
:1042B0003333F33FB80B002080B500AF174B184ADB
:1042C0001A60164B4FF482725A60144B00229A60A7
:1042D000124B0022DA60114B00221A610F4B0022B0
:1042E0005A610E4B4FF400729A610C4B2822DA612E
:1042F0000A4B00221A62094B00225A62074B002225
:104300009A62064B0A22DA62044806F05BFC034616
:10431000002B01D0FEF7C8FE00BF80BD300C00208E
:104320000030014080B58AB000AF786007F1140317
:1043300000221A605A609A60DA607B681B68224A21
:1043400093423DD1214B9B69204A43F480539361B2
:104350001E4B9B6903F480533B613B691B4B9B697C
:104360001A4A43F008039361184B9B6903F0080352
:10437000FB60FB6828237B610223BB6103233B6254
:1043800007F114031946124805F01CF810237B614D
:104390000023BB610023FB6107F1140319460C489D
:1043A00005F010F80B4B5B687B627B6A43F0E063BF
:1043B0007B627B6A43F001037B62064A7B6A53603F
:1043C00000BF2837BD4680BD0030014000100240CC
:1043D000000C01400000014080B582B000AF00F049
:1043E00019FA44F6206301227821584805F0B2FBFF
:1043F0000346002B01D00023A4E040F6C4137B60E9
:1044000002E07B68013B7B607B68002BF9D1AE2228
:104410000021782000F06CFA20220021782000F0A2
:1044200067FA10220021782000F062FAB022002101
:10443000782000F05DFAC8220021782000F058FAB8
:1044400000220021782000F053FA10220021782069
:1044500000F04EFA40220021782000F049FA812233
:104460000021782000F044FAFF220021782000F09B
:104470003FFAA1220021782000F03AFAA62200217A
:10448000782000F035FAA8220021782000F030FAD8
:104490003F220021782000F02BFAA422002178206E
:1044A00000F026FAD3220021782000F021FA002221
:1044B0000021782000F01CFAD5220021782000F09D
:1044C00017FAF0220021782000F012FAD9220021F8
:1044D000782000F00DFA22220021782000F008FA5E
:1044E000DA220021782000F003FA1222002178203D
:1044F00000F0FEF9DB220021782000F0F9F92022FB
:104500000021782000F0F4F98D220021782000F0BD
:10451000EFF914220021782000F0EAF9AF220021FF
:10452000782000F0E5F9002000F042F800F012F8E1
:10453000074B00221A80064B00225A80044B0122AE
:104540005A71012318460837BD4680BD5408002023
:104550009006002080B582B000AF0023FB711DE003
:10456000FB79503BDBB21A460021782000F0C0F9FD
:1045700000220021782000F0BBF9102200217820D1
:1045800000F0B6F9FB79DB01084A1A448023402188
:10459000782000F053F9FB790133FB71FB79072B8D
:1045A000DED900BF0837BD4680BD00BF90020020A5
:1045B00080B582B000AF0346FB71FB79002B01D1BF
:1045C000002301E04FF480734FF4806219460348E2
:1045D00007F06EF800BF0837BD4680BD900200208E
:1045E00080B483B000AF0346FB800B46BB8013460C
:1045F000FB70FB887F2B48D8BB883F2B45D8254BC9
:104600001B79002B06D0FB78002B0CBF0123002365
:10461000DBB2FB70FB78012B1AD1FA88BB88DB0870
:1046200098B20346DB0113441B4AD35C5AB2BB88E1
:1046300003F00703012101FA03F35BB2134359B2FC
:10464000FA880346DB011344C9B2134AD1541DE072
:10465000FA88BB88DB0898B20346DB0113440E4A94
:10466000D35C5AB2BB8803F00703012101FA03F3BC
:104670005BB2DB435BB2134059B2FA880346DB01FD
:104680001344C9B2044AD15400E000BF0C37BD4600
:1046900080BC7047900600209002002080B483B058
:1046A00000AF03460A46FB801346BB80054AFB88E1
:1046B0001380044ABB88538000BF0C37BD4680BCC2
:1046C000704700BF9006002080B586B000AF03465B
:1046D0003960FB711346BB713A4B1B881A463B6825
:1046E0001B7813447F2B07DC364B5B881A463B68EC
:1046F0005B7813443F2B01DD00235EE000237B61E8
:104700004BE03B685A68FB79203B3968497801FBEC
:1047100003F319467B690B445B0013441B88FB6061
:1047200000233B6130E0FA683B6902FA03F303F4CB
:104730000043002B10D0234B1A883B699BB21344D3
:1047400098B2204B5A887B699BB213449BB2BA79CA
:104750001946FFF745FF14E01A4B1A883B699BB2D4
:10476000134498B2174B5A887B699BB2134499B291
:10477000BB79002B0CBF01230023DBB21A46FFF7E5
:104780002FFF3B6901333B613B681B781A463B694D
:104790009342C8D37B6901337B613B685B781A46DF
:1047A0007B699342ADD3074B1A883B681B789BB259
:1047B00013449AB2034B1A80FB7918461837BD464A
:1047C00080BD00BF9006002080B584B000AFF860C7
:1047D000B9601346FB7112E0FB681B78FA79B9687F
:1047E0001846FFF771FF03461A46FB681B789A428A
:1047F00002D0FB681B7808E0FB680133FB60FB68B4
:104800001B78002BE8D1FB681B7818461037BD4693
:1048100080BD000080B483B000AF074B7B6002E036
:104820007B68013B7B607B68002BF9D100BF0C37B4
:10483000BD4680BC704700BF90D00300B0B588B0C3
:1048400002AF3A601A460346FB710B46BB71134632
:10485000BB806B461D46BB88581C431E3B6103460C
:1048600019464FF000024FF000034FF00004D4004F
:1048700044EA5174CB00034619464FF000024FF052
:1048800000034FF00004D40044EA5174CB00034607
:104890000733DB08DB00ADEB030D02AB0033FB603D
:1048A000FB68BA791A700123FB750AE0FB7D013BB6
:1048B0003A681A44FB7D1178FA68D154FB7D0133C4
:1048C000FB75FB7D9BB2BA889A42EFD2FB7999B215
:1048D000FA68B8880A2300930346044805F03CF8B8
:1048E000AD4600BF1837BD46B0BD00BF540800201C
:1048F00080B586B002AF0346FB710B46BB71134611
:104900007B71BB793B737B797B73FB7999B207F140
:104910000C020A2300930223034805F01DF800BF90
:104920001037BD4680BD00BF5408002080B485B05C
:1049300000AF154B9B69144A43F001039361124B7E
:104940009B6903F00103BB60BB680F4BDB690E4A38
:1049500043F08053D3610C4BDB6903F080537B60E1
:104960007B680A4B5B68FB60FB6823F0E063FB60DD
:10497000FB6843F00073FB60044AFB68536000BFB0
:104980001437BD4680BC7047001002400000014053
:1049900080B400AF00BFBD4680BC704780B400AF9C
:1049A000FEE780B400AFFEE780B400AFFEE780B45E
:1049B00000AFFEE780B400AF00BFBD4680BC7047CB
:1049C00080B400AF00BFBD4680BC704780B400AF6C
:1049D00000BFBD4680BC704780B500AF02F028FF25
:1049E00000BF80BD80B500AF024804F091FB00BF5E
:1049F00080BD00BFE807002080B500AF024803F08B
:104A0000A1FF00BF80BD00BF2C08002000000000F7
:104A1000B0B500AFBA4806F084F9BA4B1B68013351
:104A2000B84A1360B84B1B680133B74A1360B74BE1
:104A30001B68B74A1268B74931F812209B1AB34A6B
:104A40001360B54B1B68B24A1268B44931F81220A2
:104A50009B1AB14A1360AE4B1B68B14A1188AD4A2C
:104A600022F81310AA4B1B68AD4A5188AB4A22F8B2
:104A70001310A74B1B68A74A32F813301A46A34BF2
:104A80001B681344A14A1360A14B1B68A34A32F868
:104A900013301A46A04B1B6813449F4A13609B4B6C
:104AA0001B68A04A82FB03125211DB17D31A184667
:104AB000FCF7F4F802469C4B1A60974B1B68994A26
:104AC00082FB03125211DB17D31A1846FCF7E6F8E3
:104AD0000246964B1A60964B1B68964A1360954B9C
:104AE0001B684FF000011846FCF7CAFA0346002B7A
:104AF00002D0904B904A1A608B4B1B681846FBF70C
:104B000093FC73A3D3E90023FBF7E6FC03460C46B2
:104B10001846214670A3D3E90023FBF727FB034681
:104B20000C4625461C46854B1B681846FBF77CFC4B
:104B300002460B4620462946FBF716FB03460C4669
:104B400018462146FBF7A0FF02467D4B1A60764BC4
:104B50001B681846FBF768FC5DA3D3E90023FBF74D
:104B6000BBFC03460C46184621465BA3D3E9002351
:104B7000FBF7FCFA03460C4618462146FBF784FF78
:104B80000246704B1A606E4B1B681846FBF74CFCD4
:104B900053A3D3E90023FBF79FFC03460C461846BA
:104BA000214651A3D3E90023FBF7E0FA03460C4664
:104BB00018462146FBF768FF0246614B1A60524BCC
:104BC0001B68092B40F353814F4B00221A60544B52
:104BD0009B881A4642F2107303FB02F2504B9B88EB
:104BE000C3F573630C3392FBF3F31846FCF756F8E6
:104BF0000246554B1A60544B1B681846FBF714FCD1
:104C000003460C461846214608F0C6FD38A3D3E9F2
:104C10000023FBF761FC03460C461846214636A3E9
:104C2000D3E90023FBF7A2FA03460C4618462146B7
:104C3000FBF72AFF0246454B1A60394BDB881A46C0
:104C400042F2107303FB02F2354BDB88C3F573634A
:104C50000C3392FBF3F31846FCF720F802463C4B6A
:104C60001A603B4B1B681846FBF7DEFB03460C46FD
:104C70001846214608F090FD1DA3D3E90023FBF759
:104C80002BFC03460C46184621461BA3D3E9002300
:104C9000FBF76CFA03460C4618462146FBF7F4FE78
:104CA00002462C4B1A601E4B1B891A4642F21073A7
:104CB00003FB02F21A4B1B89C3F573630C3392FB9F
:104CC000F3F31846FBF7EAFF46E000BFAFF30080BE
:104CD000216685FE5A05A4BF03070F3EB14353402A
:104CE0004BD917849BF6E83F4B272AF03FAB9A3FFE
:104CF000CDCCCCCCCC0C38C085EB51B81ECD6E40A1
:104D000048150020DC0B002000110020F4100020CA
:104D1000BC1000208C0C00208410002014110020F6
:104D20000C090020D34D62108C100020AC10002024
:104D3000BC0B002094100020000080BF0C1100204C
:104D4000B010002010110020A8100020C410002076
:104D5000F0100020001500200246534B1A60524B01
:104D60001B681846FBF760FB03460C4618462146B5
:104D700008F012FD48A3D3E90023FBF7ADFB03467F
:104D80000C461846214646A3D3E90023FBF7EEF96B
:104D900003460C4618462146FBF776FE0246434B77
:104DA0001A60434B5B891A4642F2107303FB02F20E
:104DB0003F4B5B89C3F573630C3392FBF3F31846E7
:104DC000FBF76CFF02463B4B1A603A4B1B681846D8
:104DD000FBF72AFB03460C461846214608F0DCFC8C
:104DE0002DA3D3E90023FBF777FB03460C461846B7
:104DF00021462BA3D3E90023FBF7B8F903460C4661
:104E000018462146FBF740FE02462B4B1A602B4BFF
:104E10001B682B491846FCF747F90346002B02D0C4
:104E2000264B274A1A60274B1B6825491846FCF772
:104E30003BF90346002B02D0224B214A1A601B4B40
:104E40001B681F491846FCF72FF90346002B02D0B8
:104E5000164B1B4A1A60184B1B6819491846FCF779
:104E600023F90346002B02D0134B154A1A60164B48
:104E70001B78012B40F0CD80144B1B78022B02D104
:104E800000F0FEF92AE0114B1B78012B20D101F034
:104E90002FF823E0AFF30080CDCCCCCCCC0C38C0C5
:104EA00085EB51B81ECD6E400811002098100020EF
:104EB0000C090020B4100020F8100020C4100020BD
:104EC00000000243001500208B020020B0090020E2
:104ED000A34B1B78032B01D101F0DEFBA14B1B7808
:104EE000012B08D0A04B1B68A0491846FCF7E6F838
:104EF0000346002B09D09E4B1B78012B05D19C4B00
:104F000000221A70974B00221A709A4B1B78012BC3
:104F100009D1994B1B78012B05D1964B00221A70B1
:104F2000954B00221A70954B1B78012B26D1944B80
:104F30001B6894491846FCF7A3F80346002B1DD0C4
:104F4000914B1B6891491846FCF79AF80346002BD1
:104F500014D08F4B1B688B491846FCF791F8034619
:104F6000002B0BD08B4B1B6888491846FCF788F840
:104F70000346002B02D0814B00221A70864B1B780F
:104F8000012B26D17E4B1B6884491846FCF796F806
:104F90000346002B1DD07C4B1B6880491846FCF74C
:104FA0008DF80346002B14D0794B1B687B491846BB
:104FB000FCF784F80346002B0BD0764B1B6877492F
:104FC0001846FCF77BF80346002B02D0724B0022F8
:104FD0001A70734B1B78012B0BD1724B1B686F49F6
:104FE0001846FCF76BF80346002B02D06C4B0022EE
:104FF0001A706D4B1B78012B0BD16A4B1B686B49E8
:105000001846FCF73DF80346002B02D0664B002201
:105010001A70674B1B680133654A1360644B1A684A
:10502000644B83FB02135911D317CB1A4FF4FA7157
:1050300001FB03F3D31A5E4A1360494B1B78012B23
:105040000CD0474B1B78022B08D0454B1B78032B09
:1050500004D0434B1B78002B40F0F080564B1B884C
:1050600001339AB2544B1A80544B1A68544B1B6844
:1050700019461046FBF75EFD03461A464F4B1A6071
:105080004D4B1B88B3F57A7FC0F0D8804B4B1B6823
:1050900083F000434B491846FBF708FF03461846C8
:1050A000FBF7C2F92CA3D3E90023FBF715FA03465B
:1050B0000C4625461C46444B1B681846FBF7B4F9C2
:1050C00002460B4620462946FBF730FB03460C46BA
:1050D000184621464FF000023C4BFBF7FDF9034612
:1050E0000C4618462146FBF7CFFC0246384B1A60A7
:1050F000324B1B6837491846FBF7D8FE03461A4661
:10510000354B1B6819461046FBF714FD03461A463B
:10511000314B1A60234B1A682D4B1B6819461046F9
:10512000FBF708FD03461A461E4B1A60224B00226D
:105130001A80224B4FF000021A60284B1B68013383
:10514000264A1360264B1A68264B1B6819461046E0
:10515000FBF7EEFC48E000BFDFBC9A785634323FE4
:10516000B0090020041100209410002000005842D3
:10517000B9100020C8100020A010002090100020BE
:10518000C41000200000204200150020000048420A
:1051900098100020F8100020B81000200000A04156
:1051A000EC100020E40B0020890C002000008C4251
:1051B000BC100020D34D6210921000200415002076
:1051C000B010002000007A44100000200000594078
:1051D0007410002000006145980600209C06002005
:1051E0007C00002080000020034619461448FBF78D
:1051F0005DFE03461A46134B1A60124B1A68124B97
:105200001B6819461046FBF79DFD034683F00043DB
:105210000E4A13600B4B1A680D4B1B68194610465B
:10522000FBF790FD03461A46084B1B6819461046CB
:10523000FBF780FC03461A46064B1A6000BFB0BD60
:105240000000C842D0100020800000209C100020E8
:10525000E40B0020B40B002080B500AF054805F03A
:1052600060FD054B1B78012B01D1FCF74FFA00BF05
:1052700080BD00BF08150020940900200000000038
:10528000B0B500AF824B1B681846FBF7CDF804465B
:105290000D46804B1B681846FBF7C6F878A3D3E988
:1052A0000023FBF743FA02460B4620462946FBF74C
:1052B000A3FB0346002B16D0754B1B68764A136080
:1052C000744B1B68754A1360754B0C221A70FCF7FF
:1052D00071F8744B01221A7000220421724804F004
:1052E000E2F900F0DDBD6B4B1A68704B1B68194684
:1052F0001046FBF7C5FE0346002B00F0EB806C4B1D
:105300001B78002B40F0E680654B01221A70694B38
:105310001C68604B1A68654B1B6819461046FBF702
:10532000C5FD034619464FF07E50FBF701FC0346CE
:1053300019462046FBF7BAFD03461A465E4B1A6033
:105340005E4B1B681846FBF76FF84FA3D3E90023A9
:10535000FAF70CFF03460C4618462146FBF794FB70
:105360000246564B1A60554B1A68534B1B68194638
:105370001046FBF7A3FE0346002B11D04C4B1B78C5
:10538000002B0DD1FCF716F84B4B1B684B4A1360F2
:10539000474B01221A7000220421434804F083F98C
:1053A000434B1B78002B40F07885434B1A68434BE6
:1053B0001B6819461046FBF7BBFB034640491846DD
:1053C000FBF77CFE0346002B18D03E4B1A683E4B81
:1053D00083FB02139911D317CB1A4FF47A7101FB97
:1053E00003F3D31A002B40F0588504212E4804F013
:1053F00072F9344B00221A6000F04FBD2E4B1A6830
:105400002E4B1B6819461046FBF792FB03462F49AB
:105410001846FBF753FE0346002B17D0294B1A689A
:105420002B4B83FB02135911D317CB1A642101FBB9
:1054300003F3D31A002B40F0308504211A4804F0FE
:105440004AF9204B00221A6000F027BD1A4B1A6857
:105450001A4B1B6819461046FBF76AFB03464FF0D0
:105460007E511846FBF72AFE0346002B01D100F0BF
:1054700014BD012204210C4804F015F900F00DBD03
:10548000CDCCCCCCCCCCEC3FFCA9F1D24D62503F82
:10549000B010002094100020A4100020D410002090
:1054A000C01000208A0C0020001001407000002075
:1054B000B91000205000002080100020CC100020E7
:1054C00000007041DC0B0020D34D62100000204131
:1054D0001F85EB51A84B1A68A84B1B68194610464C
:1054E000FBF726FB03464FF000011846FBF7E6FDED
:1054F0000346002B00F0C180A14B1B78002B40F02D
:10550000BC80A04B02221A709F4B1C689A4B1A68F1
:105510009A4B1B6819461046FBF7C8FC03464FF030
:105520007E511846FBF704FB034619462046FBF75D
:10553000BDFC03461A46954B1A60954B1B681846EE
:10554000FAF772FF8AA3D3E90023FAF70FFE0346A6
:105550000C4618462146FBF797FA02468C4B1A6018
:105560008B4B1A68894B1B6819461046FBF7A6FD42
:105570000346002B11D0824B1B78002B0DD1FBF77B
:1055800019FF824B1B68824A13607D4B01221A70FF
:10559000002204217F4804F086F8794B1B78002B09
:1055A00040F07D84794B1A68794B1B681946104688
:1055B000FBF7BEFA034678491846FBF77FFD034622
:1055C000002B18D0754B1A68754B83FB0213991189
:1055D000D317CB1A4FF47A7101FB03F3D31A002BC4
:1055E00040F05D8404216B4804F075F86B4B002299
:1055F0001A6000F054BC654B1A68654B1B6819466D
:105600001046FBF795FA034666491846FBF756FD28
:105610000346002B17D0614B1A68634B83FB0213C0
:105620005911D317CB1A642101FB03F3D31A002BB2
:1056300040F035840421574804F04DF8574B0022C0
:105640001A6000F02CBC514B1A68514B1B6819466C
:105650001046FBF76DFA03464FF07E511846FBF7F4
:105660002DFD0346002B01D100F019BC01220421BD
:10567000484804F018F800F012BC4C4B1B6819465F
:105680004B48FBF755FA034646491846FBF7F8FC2A
:105690000346002B2AD1474B1B6819464648FBF7A7
:1056A00047FA03463F491846FBF7EAFC0346002B3E
:1056B0001CD1424B1B6819463D48FBF739FA03469B
:1056C00038491846FBF7DCFC0346002B0ED13C4B57
:1056D0001B6819463848FBF72BFA03463149184630
:1056E000FBF7CEFC0346002B00F01181354B1B78F5
:1056F000002B40F00C81234B03221A70324B1B68A5
:1057000028491846FBF714FA03461A46274B1B682C
:1057100019461046FBF7B4FC0346002B58D02A4B21
:105720001B682A491846FBF703FA03461A461F4B23
:105730001B6819461046FBF7B7FC0346002B47D001
:10574000164B1A68164B83FB02139911D317CB1A09
:105750004FF47A7101FB03F3D31A002B40F0D6808B
:1057600004210C4803F0B7FF0C4B00221A60CDE077
:10577000FCA9F1D24D62503FB0100020580000202B
:10578000C8100020C0100020540000207C10002011
:10579000FC1000200010014000007041DC0B0020D4
:1057A000D34D6210000020411F85EB51C410002032
:1057B00000004842001500200000AA429810002076
:1057C000F810002090100020600000200000A04091
:1057D000904B1B6890491846FBF7AAF903461A46F6
:1057E0008E4B1B6819461046FBF74AFC0346002BFC
:1057F00028D0884B1B684FF080411846FBF798F97A
:1058000003461A46854B1B6819461046FBF74CFCAD
:105810000346002B16D0824B1A68824B83FB02137F
:105820005911D317CB1A4FF4FA7101FB03F3D31AB2
:10583000002B6BD104217C4803F04DFF784B0022F4
:105840001A6063E0734B1B684FF080411846FBF70A
:105850006FF903461A46714B1B6819461046FBF751
:105860000FFC0346002B21D06C4B1A68694B1B6858
:1058700019461046FBF70EFC0346002B16D0684B6A
:105880001A68684B83FB02135911D317CB1A4FF4D4
:10589000FA7101FB03F3D31A002B37D104216248BC
:1058A00003F019FF5E4B00221A602FE05B4B1B6870
:1058B0005E491846FBF702FC0346002B1BD15C4BEC
:1058C0001B685C491846FBF7F9FB0346002B12D115
:1058D000594B1B6855491846FBF7F0FB0346002B54
:1058E00009D1564B1B6853491846FBF7E7FB0346A3
:1058F000002B00D1D4E2FBF75DFD514B01221A7061
:1059000000220421484803F0CEFEC9E2C8E2434B1E
:105910001A684C4B1B6819461046FBF709F90346F9
:1059200049491846FBF7B6FB0346002B30D1404BE4
:105930001A68444B1B6819461046FBF7F9F80346F2
:1059400041491846FBF7A6FB0346002B20D13A4BF2
:105950001A683C4B1B6819461046FBF7E9F80346EA
:1059600039491846FBF796FB0346002B10D1334B01
:105970001A68344B1B6819461046FBF7D9F80346E2
:1059800031491846FBF786FB0346002B00F00981DE
:105990002E4B1B78002B40F004812D4B04221A70F3
:1059A000284B1B6828491846FBF7C4F803461A46DB
:1059B0001A4B1B6819461046FBF776FB0346002B73
:1059C00048D0204B1B6814491846FBF7B3F8034630
:1059D0001A46124B1B6819461046FBF751FB03464B
:1059E000002B37D00E4B1A680E4B83FB0213991114
:1059F000D317CB1A4FF47A7101FB03F3D31A002BA0
:105A000040F0CE800421084803F065FE044B0022DC
:105A10001A60C5E0600000200000A040C410002013
:105A2000DC0B0020D34D6210001001400000484202
:105A3000001500200000AA4298100020F810002055
:105A4000901000206400002000002041B8100020C9
:105A5000C01000209C4B1B689C491846FBF76AF855
:105A600003461A469A4B1B6819461046FBF71CFB67
:105A70000346002B28D0944B1B684FF080411846FA
:105A8000FBF758F803461A46914B1B681946104617
:105A9000FBF7F6FA0346002B16D08E4B1A688E4B96
:105AA00083FB02135911D317CB1A4FF4FA7101FB80
:105AB00003F3D31A002B73D10421884803F00BFEA3
:105AC000844B00221A606BE07F4B1B684FF08041D3
:105AD0001846FBF72FF803461A467D4B1B681946FC
