:020000040800F2
:1000000000500020F164000829450008354500082B
:100010003B45000841450008474500080000000036
:100020000000000000000000000000004D45000836
:1000300059450008000000006545000871450008AA
:100040003965000839650008396500083965000818
:100050003965000839650008396500083965000808
:100060003965000839650008396500087D450008D4
:1000700039650008396500083965000839650008E8
:1000800039650008396500083965000839650008D8
:100090003965000891450008A54500083965000844
:1000A00039650008396500083965000839650008B8
:1000B000B9450008914C0008396500083965000809
:1000C0003965000839650008396500083965000898
:1000D0003965000839650008396500083965000888
:1000E000396500083965000839650008000000001E
:1000F0000000000000000000000000000000000000
:0C01000000000000000000005FF808F1A3
:1001100010B5054C237833B9044B13B10448AFF341
:1001200000800123237010BD600200200000000049
:1001300004C8000808B5034B1BB103490348AFF3DB
:10014000008008BD000000006402002004C8000810
:10015000034613F8012B002AFBD1181A0138704707
:1001600081F0004102E000BF83F0004330B54FEA68
:1001700041044FEA430594EA050F08BF90EA020FD5
:100180001FBF54EA000C55EA020C7FEA645C7FEA68
:10019000655C00F0E2804FEA5454D4EB5555B8BF8B
:1001A0006D420CDD2C4480EA020281EA030382EAFC
:1001B000000083EA010180EA020281EA0303362D8E
:1001C00088BF30BD11F0004F4FEA01314FF4801C61
:1001D0004CEA113102D0404261EB410113F0004F73
:1001E0004FEA03334CEA133302D0524263EB43032A
:1001F00094EA050F00F0A780A4F10104D5F1200EC8
:100200000DDB02FA0EFC22FA05F2801841F1000122
:1002100003FA0EF2801843FA05F359410EE0A5F1F6
:1002200020050EF1200E012A03FA0EFC28BF4CF027
:10023000020C43FA05F3C01851EBE37101F00045DD
:1002400007D54FF0000EDCF1000C7EEB00006EEBEA
:100250000101B1F5801F1BD3B1F5001F0CD3490874
:100260005FEA30004FEA3C0C04F101044FEA4452CB
:1002700012F5800F80F09A80BCF1004F08BF5FEA52
:10028000500C50F1000041EB045141EA050130BD32
:100290005FEA4C0C404141EB010111F4801FA4F1D5
:1002A0000104E9D191F0000F04BF01460020B1FA2A
:1002B00081F308BF2033A3F10B03B3F120020CDA62
:1002C0000C3208DD02F1140CC2F10C0201FA0CF040
:1002D00021FA02F10CE002F11402D8BFC2F1200CA5
:1002E00001FA02F120FA0CFCDCBF41EA0C0190405B
:1002F000E41AA2BF01EB0451294330BD6FEA0404A4
:100300001F3C1CDA0C340EDC04F11404C4F120028E
:1003100020FA04F001FA02F340EA030021FA04F3A0
:1003200045EA030130BDC4F10C04C4F1200220FAF7
:1003300002F001FA04F340EA0300294630BD21FA35
:1003400004F0294630BD94F0000F83F4801306BFFB
:1003500081F480110134013D4EE77FEA645C18BFEF
:100360007FEA655C29D094EA050F08BF90EA020F86
:1003700005D054EA000C04BF1946104630BD91EA7E
:10038000030F1EBF0021002030BD5FEA545C05D181
:100390004000494128BF41F0004130BD14F58004C0
:1003A0003CBF01F5801130BD01F0004545F0FE4134
:1003B00041F470014FF0000030BD7FEA645C1ABF69
:1003C000194610467FEA655C1CBF0B46024650EAA0
:1003D000013406BF52EA033591EA030F41F40021CC
:1003E00030BD00BF90F0000F04BF0021704730B552
:1003F0004FF4806404F132044FF000054FF0000127
:1004000050E700BF90F0000F04BF0021704730B5E7
:100410004FF4806404F1320410F0004548BF4042BC
:100420004FF000013EE700BF42004FEAE2014FEA11
:1004300031014FEA02701FBF12F07F4393F07F4FEC
:1004400081F06051704732F07F4208BF704793F0EF
:100450007F4F04BF41F40021704730B54FF4607402
:1004600001F0004521F000411CE700BF50EA010205
:1004700008BF704730B54FF000050AE050EA0102AE
:1004800008BF704730B511F0004502D5404261EB1E
:1004900041014FF4806404F132045FEA915C3FF45F
:1004A000D8AE4FF003025FEADC0C18BF03325FEAFC
:1004B000DC0C18BF033202EBDC02C2F1200300FAAD
:1004C00003FC20FA02F001FA03FE40EA0E0021FAD2
:1004D00002F11444BDE600BF70B54FF0FF0C4CF4C0
:1004E000E06C1CEA11541DBF1CEA135594EA0C0F72
:1004F00095EA0C0F00F0DEF82C4481EA030621EAAD
:100500004C5123EA4C5350EA013518BF52EA0335E7
:1005100041F4801143F4801338D0A0FB02CE4FF099
:100520000005E1FB02E506F00042E0FB03E54FF0C9
:100530000006E1FB03569CF0000F18BF4EF0010EC1
:10054000A4F1FF04B6F5007F64F5407404D25FEABD
:100550004E0E6D4146EB060642EAC62141EA555170
:100560004FEAC52040EA5E504FEACE2EB4F1FD0CB2
:1005700088BFBCF5E06F1ED8BEF1004F08BF5FEA30
:10058000500E50F1000041EB045170BD06F00046E2
:1005900046EA010140EA020081EA0301B4EB5C048F
:1005A000C2BFD4EB0C0541EA045170BD41F4801187
:1005B0004FF0000E013C00F3AB8014F1360FDEBFAC
:1005C000002001F0004170BDC4F10004203C35DA88
:1005D0000C341BDC04F11404C4F1200500FA05F30B
:1005E00020FA04F001FA05F240EA020001F00042AC
:1005F00021F0004110EBD37021FA04F642EB060122
:100600005EEA430E08BF20EAD37070BDC4F10C044B
:10061000C4F1200500FA04F320FA05F001FA04F20F
:1006200040EA020001F0004110EBD37041F10001FB
:100630005EEA430E08BF20EAD37070BDC4F1200506
:1006400000FA05F24EEA020E20FA04F301FA05F26E
:1006500043EA020321FA04F001F0004121FA04F216
:1006600020EA020000EBD3705EEA430E08BF20EAE6
:10067000D37070BD94F0000F0FD101F00046400020
:1006800041EB010111F4801F08BF013CF7D041EAA2
:10069000060195F0000F18BF704703F000465200A6
:1006A00043EB030313F4801F08BF013DF7D043EA77
:1006B0000603704794EA0C0F0CEA135518BF95EA2D
:1006C0000C0F0CD050EA410618BF52EA4306D1D1B4
:1006D00081EA030101F000414FF0000070BD50EAD3
:1006E000410606BF1046194652EA430619D094EA5D
:1006F0000C0F02D150EA013613D195EA0C0F05D147
:1007000052EA03361CBF104619460AD181EA03019A
:1007100001F0004141F0FE4141F470014FF0000052
:1007200070BD41F0FE4141F4780170BD70B54FF0ED
:10073000FF0C4CF4E06C1CEA11541DBF1CEA13556D
:1007400094EA0C0F95EA0C0F00F0A7F8A4EB05044F
:1007500081EA030E52EA03354FEA013100F0888046
:100760004FEA03334FF0805545EA131343EA12630F
:100770004FEA022245EA111545EA10654FEA0026C4
:100780000EF000419D4208BF964244F1FD0404F57D
:10079000407402D25B084FEA3202B61A65EB0305D9
:1007A0005B084FEA32024FF480104FF4002CB6EB96
:1007B000020E75EB030E22BFB61A754640EA0C0016
:1007C0005B084FEA3202B6EB020E75EB030E22BF56
:1007D000B61A754640EA5C005B084FEA3202B6EB97
:1007E000020E75EB030E22BFB61A754640EA9C0056
:1007F0005B084FEA3202B6EB020E75EB030E22BF26
:10080000B61A754640EADC0055EA060E18D04FEAE3
:10081000051545EA16754FEA06164FEAC30343EA83
:1008200052734FEAC2025FEA1C1CC0D111F4801F50
:100830000BD141EA00014FF000004FF0004CB6E749
:1008400011F4801F04BF01430020B4F1FD0C88BFE8
:10085000BCF5E06F3FF6AFAEB5EB030C04BFB6EBF3
:10086000020C5FEA500C50F1000041EB045170BDE6
:100870000EF0004E4EEA113114EB5C04C2BFD4EB13
:100880000C0541EA045170BD41F480114FF0000E97
:10089000013C90E645EA060E8DE60CEA135594EA13
:1008A0000C0F08BF95EA0C0F3FF43BAF94EA0C0F16
:1008B0000AD150EA01347FF434AF95EA0C0F7FF48B
:1008C00025AF104619462CE795EA0C0F06D152EADF
:1008D00003353FF4FDAE1046194622E750EA4106C3
:1008E00018BF52EA43067FF4C5AE50EA41047FF4D4
:1008F0000DAF52EA43057FF4EBAE12E74FF0FF3C39
:1009000006E000BF4FF0010C02E000BF4FF0010C09
:100910004DF804CD4FEA410C7FEA6C5C4FEA430C82
:1009200018BF7FEA6C5C1BD001B050EA410C0CBFD1
:1009300052EA430C91EA030F02BF90EA020F002033
:10094000704710F1000F91EA030F58BF994208BF9A
:1009500090422CBFD8176FEAE37040F00100704757
:100960004FEA410C7FEA6C5C02D150EA013C07D1AE
:100970004FEA430C7FEA6C5CD6D152EA033CD3D0F9
:100980005DF8040B704700BF8446104662468C46F3
:100990001946634600E000BF01B5FFF7B7FF002826
:1009A00048BF10F1000F01BD4DF808EDFFF7F4FF4F
:1009B0000CBF012000205DF808FB00BF4DF808EDDA
:1009C000FFF7EAFF34BF012000205DF808FB00BFFD
:1009D0004DF808EDFFF7E0FF94BF012000205DF81F
:1009E00008FB00BF4DF808EDFFF7CEFF94BF0120D4
:1009F00000205DF808FB00BF4DF808EDFFF7C4FFCD
:100A000034BF012000205DF808FB00BF4FEA410C15
:100A10007FEA6C5C02D150EA013C0AD14FEA430CF8
:100A20007FEA6C5C02D152EA033C02D14FF0000035
:100A300070474FF0010070474FEA410212F5001273
:100A400015D211D56FF47873B3EB625212D94FEA15
:100A5000C12343F0004343EA505311F0004F23FAFF
:100A600002F018BF404270474FF00000704750EA54
:100A7000013005D111F0004008BF6FF00040704711
:100A80004FF00000704700BF4FEA4102B2F1E0436F
:100A900024BFB3F5001CDCF1FE5C0DD901F0004C65
:100AA0004FEAC0024CEA5070B2F1004F40EB8300B5
:100AB00008BF20F00100704711F0804F21D113F1E1
:100AC0003872BCBF01F00040704741F480114FEA1A
:100AD0005252C2F11802C2F1200C10FA0CF320FAA3
:100AE00002F018BF40F001004FEAC1234FEAD323C0
:100AF00003FA0CFC40EA0C0023FA02F34FEA43032A
:100B0000CCE77FEA625307D150EA01331EBF4FF0B2
:100B1000FE4040F44000704701F0004040F0FE40CD
:100B200040F40000704700BF80F0004002E000BFCA
:100B300081F0004142001FBF5FEA410392EA030FC8
:100B40007FEA226C7FEA236C6AD04FEA1262D2EB12
:100B50001363C1BFD218414048404140B8BF5B4217
:100B6000192B88BF704710F0004F40F4000020F0B0
:100B70007F4018BF404211F0004F41F4000121F0C6
:100B80007F4118BF494292EA030F3FD0A2F1010210
:100B900041FA03FC10EB0C00C3F1200301FA03F14E
:100BA00000F0004302D5494260EB4000B0F5000F71
:100BB00013D3B0F1807F06D340084FEA310102F130
:100BC0000102FE2A51D2B1F1004F40EBC25008BFE2
:100BD00020F0010040EA03007047490040EB0000AC
:100BE00010F4000FA2F10102EDD1B0FA80FCACF1DB
:100BF000080CB2EB0C0200FA0CF0AABF00EBC250DA
:100C000052421843BCBFD0401843704792F0000FC7
:100C100081F4000106BF80F400000132013BB5E71A
:100C20004FEA41037FEA226C18BF7FEA236C21D090
:100C300092EA030F04D092F0000F08BF08467047F5
:100C400090EA010F1CBF0020704712F07F4F04D1C3
:100C5000400028BF40F00040704712F100723CBFD6
:100C600000F50000704700F0004343F0FE4040F400
:100C7000000070477FEA226216BF08467FEA2363BE
:100C80000146420206BF5FEA412390EA010F40F4A9
:100C9000800070474FF0000304E000BF10F00043F5
:100CA00048BF40425FEA000C08BF704743F09643DC
:100CB00001464FF000001CE050EA010208BF7047F7
:100CC0004FF000030AE000BF50EA010208BF70477E
:100CD00011F0004302D5404261EB41015FEA010C93
:100CE00002BF84460146002043F0B64308BFA3F18B
:100CF0008053A3F50003BCFA8CF2083AA3EBC2536D
:100D000010DB01FA02FC634400FA02FCC2F120028B
:100D1000BCF1004F20FA02F243EB020008BF20F0C2
:100D20000100704702F1200201FA02FCC2F1200228
:100D300050EA4C0021FA02F243EB020008BF20EA1D
:100D4000DC7070474FF0FF0C1CEAD0521EBF1CEA4B
:100D5000D15392EA0C0F93EA0C0F6FD01A4480EA39
:100D6000010C400218BF5FEA41211ED04FF0006322
:100D700043EA501043EA5111A0FB01310CF000404E
:100D8000B1F5000F3EBF490041EAD3715B0040EA74
:100D9000010062F17F02FD2A1DD8B3F1004F40EB44
:100DA000C25008BF20F00100704790F0000F0CF017
:100DB000004C08BF49024CEA502040EA51207F3ADB
:100DC000C2BFD2F1FF0340EAC250704740F40000B6
:100DD0004FF00003013A5DDC12F1190FDCBF00F0A7
:100DE00000407047C2F10002410021FA02F1C2F155
:100DF000200200FA02FC5FEA310040F1000053EAF1
:100E00004C0308BF20EADC70704792F0000F00F03E
:100E1000004C02BF400010F4000F013AF9D040EA44
:100E20000C0093F0000F01F0004C02BF490011F4D8
:100E3000000F013BF9D041EA0C018FE70CEAD153D6
:100E400092EA0C0F18BF93EA0C0F0AD030F0004C56
:100E500018BF31F0004CD8D180EA010000F000400A
:100E6000704790F0000F17BF90F0004F084691F0C8
:100E7000000F91F0004F14D092EA0C0F01D1420202
:100E80000FD193EA0C0F03D14B0218BF084608D1CB
:100E900080EA010000F0004040F0FE4040F4000015
:100EA000704740F0FE4040F4400070474FF0FF0CA8
:100EB0001CEAD0521EBF1CEAD15392EA0C0F93EAEF
:100EC0000C0F69D0A2EB030280EA010C49024FEA41
:100ED000402037D04FF0805343EA111143EA1013FA
:100EE0000CF000408B4238BF5B0042F17D024FF4B2
:100EF000000C8B4224BF5B1A40EA0C00B3EB510F8D
:100F000024BFA3EB510340EA5C00B3EB910F24BF75
:100F1000A3EB910340EA9C00B3EBD10F24BFA3EBFA
:100F2000D10340EADC001B0118BF5FEA1C1CE0D1C2
:100F3000FD2A3FF650AF8B4240EBC25008BF20F075
:100F4000010070470CF0004C4CEA50207F32C2BFC9
:100F5000D2F1FF0340EAC250704740F400004FF066
:100F60000003013A37E792F0000F00F0004C02BF97
:100F7000400010F4000F013AF9D040EA0C0093F061
:100F8000000F01F0004C02BF490011F4000F013BBB
:100F9000F9D041EA0C0195E70CEAD15392EA0C0F23
:100FA00008D142027FF47DAF93EA0C0F7FF470AF5B
:100FB000084676E793EA0C0F04D14B023FF44CAF9E
:100FC00008466EE730F0004C18BF31F0004CCAD133
:100FD00030F000427FF45CAF31F000437FF43CAF6F
:100FE0005FE700BF4FF0FF3C06E000BF4FF0010C91
:100FF00002E000BF4FF0010C4DF804CD4FEA400273
:101000004FEA41037FEA226C18BF7FEA236C11D0BC
:1010100001B052EA530C18BF90EA010F58BFB2EB6F
:10102000030088BFC81738BF6FEAE17018BF40F0EF
:10103000010070477FEA226C02D15FEA402C05D1A3
:101040007FEA236CE4D15FEA412CE1D05DF8040B28
:10105000704700BF844608466146FFE70FB5FFF7BB
:10106000C9FF002848BF10F1000F0FBD4DF808ED73
:10107000FFF7F4FF0CBF012000205DF808FB00BF64
:101080004DF808EDFFF7EAFF34BF012000205DF8BE
:1010900008FB00BF4DF808EDFFF7E0FF94BF01200B
:1010A00000205DF808FB00BF4DF808EDFFF7D2FF08
:1010B00094BF012000205DF808FB00BF4DF808ED4B
:1010C000FFF7C8FF34BF012000205DF808FB00BF18
:1010D0004FEA4002B2F1FE4F0FD34FF09E03B3EB45
:1010E00012620DD94FEA002343F0004310F0004F85
:1010F00023FA02F018BF404270474FF000007047DB
:1011000012F1610F01D1420205D110F0004008BF79
:101110006FF0004070474FF00000704742000ED261
:10112000B2F1FE4F0BD34FF09E03B3EB126209D422
:101130004FEA002343F0004323FA02F070474FF0D8
:101140000000704712F1610F01D1420202D14FF04D
:10115000FF3070474FF00000704700BF80B500AF10
:101160001E4B1B78012B1BD01D4B1B78012B17D05E
:101170001C4B1B78012B13D01B4B1B78012B0FD062
:101180001A4B1B78012B0BD0194B1B78012B07D066
:10119000184B1B78012B03D0174B1B78012B02D166
:1011A00000F0FCF817E000224FF48071134807F0BC
:1011B000E6F801224FF40071114807F0E0F8114BF6
:1011C00002221A70104B00221A70104B01221A7062
:1011D0000F4B00221A7000BF80BD00BF65100020B9
:1011E0004410002064100020741000209010002093
:1011F0003E0C00203C0C00202C1000200008014078
:1012000000100140660900200000002001000020BD
:101210007C02002080B500AF1C4B1B78012B17D03F
:101220001B4B1B78012B13D01A4B1B78012B0FD0B3
:10123000194B1B78012B0BD0184B1B78012B07D0B7
:10124000174B1B78012B03D0164B1B78012B02D1B7
:1012500000F0A4F817E001224FF48071124807F063
:101260008EF800224FF40071104807F088F8104BF8
:1012700001221A700F4B01221A700F4B00221A70B4
:101280000E4B00221A7000BF80BD00BFA1140020C9
:101290004410002064100020881000203D0C002025
:1012A0003E0C00202C1000200008014000100140DE
:1012B0006609002000000020010000207C020020C0
:1012C00080B500AF244B1B78012B27D0234B1B7814
:1012D000012B23D0224B1B78012B1FD0214B1B78D5
:1012E000012B1BD0204B1B78012B17D01F4B1B78D9
:1012F000012B13D01E4B1B78012B0FD01D4B1B78DD
:10130000012B0BD01C4B1B78012B07D01B4B1B78E0
:10131000012B03D01A4B1B78012B02D100F03EF8B1
:1013200017E001224FF48071164807F028F80122D7
:101330004FF40071144807F022F8144B03221A707E
:10134000134B01221A70134B01221A70124B002208
:101350001A7000BF80BD00BF65100020A1140020DE
:101360004410002064100020741000208810002019
:10137000901000203D0C00203E0C00203C0C002072
:101380002C100020000801400010014066090020D8
:1013900000000020010000207C02002080B500AF8A
:1013A00000224FF480710F4806F0E9FF00224FF44D
:1013B00000710D4806F0E3FF0C4B00221A700C4B35
:1013C00000221A700B4B00221A700B4B01221A706C
:1013D00000220421044806F0D2FF00F011F800BFFB
:1013E00080BD00BF000801400010014066090020D8
:1013F00000000020010000207C020020000000000E
:1014000098B500AF2C4B1B681846FFF70DF84FF04E
:1014100000022A4BFFF78AF903460C46184621467C
:1014200021A3D3E90023FFF757F803460C461846DB
:1014300021461FA3D3E90023FEF796FE03460C4680
:1014400018462146FFF720FB02461D4B1A601C4B35
:101450001B681C491846FFF731FE0346002B03D0DA
:10146000174B194A1A601BE0154B1B6816491846A2
:10147000FFF724FE0346002B03D0114B124A1A60DB
:101480000EE00F4B1B684FF000011846FFF7F8FD08
:101490000346002B00D103E0094B4FF000021A6015
:1014A00000BF98BDAFF3008077AA50A5126F6240CD
:1014B000EA1E0C0201EB7E404810002000002E4086
:1014C000980B0020000002430000C84280B582B0A3
:1014D00000AF564B1B6856491846FFF733FC0346CE
:1014E0001846FFF71BFE03469AB2524B1A80524B26
:1014F0001B6852491846FFF71DFB03464C49184626
:10150000FFF720FC03461846FFF708FE03469AB291
:101510004B4B1A804B4B1B681846FFF7D9FD03460F
:101520009AB2494B1A80494B1A68494B1B681946B5
:101530001046FFF7FFFA03464FF080411846FFF7C9
:10154000B5FC03461846FFF7C3FD03469BB228339C
:101550009AB2404B1A80404B1B6835491846FFF73A
:10156000F1FB03461846FFF7D9FD03469AB23B4B01
:101570001A803B4B1B681846FFF7AAFD03469AB238
:10158000384B1A80384B1A88384B1A8000233B603E
:101590000AE0374A3B6832F81310364A3B6822F8B3
:1015A00023103B6801333B603B680E2BF1DD324B6F
:1015B0001B6843F03063314A53601E4B5A78304BFE
:1015C0001A701C4B1A782E4B5A701D4B5A782C4BA4
:1015D0009A701B4B1A782A4BDA701B4B5A78284B9F
:1015E0001A71194B1A78264B5A711A4B5A78244B98
:1015F0009A71184B1A78224BDA71204B08221A6123
:1016000000BF204805F0BCFE0346002BF9D01E4B5E
:101610001B4A1A491B4805F0D9FD0346002B01D08F
:1016200001F010FB4FF47A737B6032E04810002029
:101630000000C842940700205C10002000004842CF
:10164000D8060020980B0020E00600207010002033
:10165000A414002024070020140000208C07002080
:1016600004000020A406002068090020D006002005
:1016700004090020E4060020080000207407002070
:10168000B40600200C080020580700207B68013BAE
:101690007B607B68012BF9DC824B1B6843F0316374
:1016A000814A5360814B5A78814B1A707F4B1A786C
:1016B0007F4B5A707F4B5A787D4B9A707D4B1A78CE
:1016C0007B4BDA707C4B5A78794B1A717A4B1A78CB
:1016D000774B5A71794B1B7803F00103DAB2744BE4
:1016E0009A71734B9B795AB2754B1B785B005BB256
:1016F00003F002035BB213435BB2DAB26C4B9A7134
:101700006B4B9B795AB26F4B1B789B005BB203F01B
:1017100004035BB213435BB2DAB2654B9A71644B5C
:101720009B795AB2684B1B78DB005BB203F008036D
:101730005BB213435BB2DAB25D4B9A715C4B9B793F
:101740005AB2624B1B781B015BB203F010035BB211
:1017500013435BB2DAB2564B9A71554B9B795AB22E
:10176000594B1B785B015BB203F020035BB2134360
:101770005BB2DAB24E4B9A714D4B9B795AB2534BD6
:101780001B789B015BB203F040035BB213435BB277
:10179000DAB2474B9A71464B9B795AB24C4B1B7845
:1017A000DB015BB213435BB2DAB2414B9A71494B36
:1017B0001B7803F00103DAB23D4BDA713C4BDB7965
:1017C0005AB2454B1B785B005BB203F002035BB27D
:1017D00013435BB2DAB2364BDA71354BDB795AB26E
:1017E0003E4B1B789B005BB203F004035BB21343D8
:1017F0005BB2DAB22E4BDA712D4BDB795AB2384B31
:101800001B78DB005BB203F008035BB213435BB2EF
:10181000DAB2274BDA71264BDB795AB2314B1B789F
:101820001B015BB203F010035BB213435BB2DAB28D
:101830001F4BDA711E4BDB795AB22B4B1B785B01C5
:101840005BB203F020035BB213435BB2DAB2184B16
:10185000DA71174BDB795AB2244B1B789B015BB2D0
:1018600003F040035BB213435BB2DAB2104BDA71A0
:101870000D4B08221A6100BF1D4805F081FD03468B
:10188000002BF9D01B4B0A4A0749194805F09EFC6A
:101890000346002B01D001F0D5F94FF47A737B6039
:1018A0002DE000BF08000020740700208C070020F6
:1018B000B4060020A4060020D00600203E0C002024
:1018C00074100020881000204410002064100020B4
:1018D0003C0C002065100020A11400209010002076
:1018E0002C10002000000020010000207C020020BD
:1018F0000C080020580700207B68013B7B607B6858
:10190000012BF9DC934B1B6843F03463924A53601C
:10191000924B5A78924B1A70904B1A78904B5A709F
:101920008E4B5A798E4B9A708C4B1A798C4BDA709D
:101930008A4B5A7A8A4B1A71884B1A7A884B5A7199
:10194000864B5A7B864B9A71844B1A7B844BDA7197
:10195000814B08221A6100BF824805F011FD034641
:10196000002BF9D0804B7E4A7B497E4805F02EFC47
:101970000346002B01D001F065F94FF47A737B60C8
:1019800002E07B68013B7B607B68012BF9DC714BDB
:101990001B6843F03563704A5360704B5A7C704B40
:1019A0001A706E4B1A7C6E4B5A706C4B5A7D6C4B96
:1019B0009A706A4B1A7D6A4BDA70684B5A7E684B94
:1019C0001A71664B1A7E664B5A71644B5A7F644B90
:1019D0009A71624B1A7F624BDA715F4B08221A616F
:1019E00000BF604805F0CCFC0346002BF9D05E4BED
:1019F0005B4A59495B4805F0E9FB0346002B01D0DF
:101A000001F020F94FF47A737B6002E07B68013BC0
:101A10007B607B68012BF9DC4E4B1B6843F036631F
:101A20004D4A53604D4B93F821204D4B1A704B4B50
:101A300093F820204A4B5A70484B93F82520484B86
:101A40009A70464B93F82420454BDA70434B93F839
:101A50002920434B1A71414B93F82820404B5A716F
:101A60003E4B93F82D203E4B9A713C4B93F82C2023
:101A70003B4BDA71384B08221A6100BF394805F038
:101A80007FFC0346002BF9D0374B354A32493548A5
:101A900005F09CFB0346002B01D001F0D3F84FF476
:101AA0007A737B6002E07B68013B7B607B68012B83
:101AB000F9DC284B1B6843F03763274A5360274BF8
:101AC00093F83120264B1A70244B93F83020244B86
:101AD0005A70224B93F83520214B9A701F4B93F884
:101AE00034201F4BDA701D4B93F839201C4B1A71B0
:101AF0001A4B93F838201A4B5A71184B93F8392027
:101B0000174B9A71154B93F83820154BDA71124B1D
:101B100008221A6100BF134805F032FC0346002B6F
:101B2000F9D0114B0E4A0C490E4805F04FFB034605
:101B3000002B01D001F086F84FF47A737B6002E04D
:101B40007B68013B7B607B68012BF9DC00BF0837B9
:101B5000BD4680BD0800002074070020E406002078
:101B6000B40600200C0800205807002080B500AF04
:101B70001B4B1C4A00211C4805F036FC0346002B79
:101B80002CD1184B1B68B3F5D97F27D1144B1B7888
:101B900003F00103DAB2154B1A70114B1B785B0886
:101BA000DBB203F00303DAB2114B1A700C4B1B7853
:101BB000DB08DBB2002B14BF01230023DBB21A4683
:101BC0000C4B1A70064B1B781B09DBB2002B14BFA1
:101BD00001230023DBB21A46074B1A7000BF80BDF9
:101BE000BC0600203C0700200C08002060090020F3
:101BF000940B002050100020A810002080B58AB05F
:101C000000AF00237B610023BB610123FB61002344
:101C10003B6000237B600023BB600023FB6000234C
:101C20003B6101233B620E237B623B4619460E4813
:101C300005F0BFF90346002B01D001F003F80A4874
:101C400005F080FA0346002B01D000F0FBFF074BA4
:101C500000221A75054B0022DA60044B04229A60B8
:101C600000BF2837BD4680BD0C0800207407002047
:101C700080B584B000AF3B1D00221A605A609A60A4
:101C80003D4B3E4A1A603C4B4FF480729A603A4B8F
:101C900001221A73384B00221A75374B4FF4602219
:101CA000DA61354B00225A60334B06221A61324802
:101CB00004F0C8FC0346002B01D000F0C3FF002352
:101CC0007B600123BB600723FB603B1D19462A484C
:101CD00004F08AFE0346002B01D000F0B3FF052379
:101CE0007B600223BB603B1D1946234804F07CFE49
:101CF0000346002B01D000F0A5FF01237B600323E6
:101D0000BB603B1D19461C4804F06EFE0346002BC9
:101D100001D000F097FF02237B600423BB603B1DD2
:101D20001946154804F060FE0346002B01D000F070
:101D300089FF03237B600523BB600623FB603B1DFB
:101D400019460D4804F050FE0346002B01D000F068
:101D500079FF04237B600623BB603B1D19460648C0
:101D600004F042FE0346002B01D000F06BFF00BFE1
:101D70001037BD4680BD00BF9807002000240140F9
:101D800080B588B000AF786007F1100300221A60B8
:101D90005A609A60DA607B681B68284A934249D18E
:101DA000274B9B69264A43F400739361244B9B693C
:101DB00003F40073FB60FB68214B9B69204A43F0EE
:101DC000040393611E4B9B6903F00403BB60BB6873
:101DD0003F233B6103237B6107F110031946194838
:101DE00006F05CF9184B194A1A60174B00225A602A
:101DF000154B00229A60144B8022DA60124B4FF48C
:101E000080721A61104B4FF480625A610E4B20228F
:101E10009A610D4B0022DA610B4805F02BFF034657
:101E2000002B01D000F00EFF7B68074A1A62064AB9
:101E30007B68536200BF2037BD4680BD002401404F
:101E40000010024000080140C807002008000240BE
:101E500080B500AF174B184A1A60164B08225A601B
:101E6000144B00229A60134B0022DA60114B4FF49E
:101E7000A0221A610F4B00225A610E4B00221A76E3
:101E80000C4B00225A760B4B00229A76094B00220B
:101E9000DA76084B00221A77064B00225A7705485B
:101EA00004F08CFF0346002B01D000F0CBFE00BFF6
:101EB00080BD00BF0C0800200064004080B58AB0DF
:101EC00000AF786007F1140300221A605A609A602C
:101ED000DA607B681B682D4A934253D12C4BDB6937
:101EE0002B4A43F00073D361294BDB6903F0007385
:101EF0003B613B69264B9B69254A43F0080393618C
:101F0000234B9B6903F00803FB60FB684FF480736D
:101F10007B610023BB610023FB6107F114031946B9
:101F20001C4806F0BBF84FF400737B610223BB61D1
:101F300003233B6207F114031946164806F0AEF876
:101F4000154B5B687B627B6A23F4C0437B627B6AD0
:101F500043F0E0637B627B6A43F480437B620E4A1A
:101F60007B6A536000220021152005F04CFE1520ED
:101F700005F065FE00220021162005F044FE162023
:101F800005F05DFE00BF2837BD4680BD00640040FF
:101F900000100240000C01400000014080B582B0FA
:101FA00000AF0C4B5B690B4A43F001035361094BD3
:101FB0005B6903F001037B607B68002200210B203A
:101FC00005F021FE0B2005F03AFE00BF0837BD46A4
:101FD00080BD00BF0010024080B588B000AF07F19F
:101FE000100300221A605A609A60DA603F4B9B69C6
:101FF0003E4A43F0100393613C4B9B6903F010038E
:10200000FB60FB68394B9B69384A43F004039361DA
:10201000364B9B6903F00403BB60BB68334B9B6981
:10202000324A43F008039361304B9B6903F0080385
:102030007B607B6800224FF40D712D4806F09FF9FC
:10204000002241F203012B4806F099F900224FF4D7
:102050008071294806F093F903233B6100237B61DB
:102060000223BB6107F110031946214806F016F858
:102070004FF40D733B6101237B610023BB6102239D
:10208000FB6107F110031946194806F007F841F201
:1020900003033B6101237B610023BB610223FB61DE
:1020A00007F110031946134805F0F8FF04233B61BC
:1020B00000237B610023BB6107F1100319460D4823
:1020C00005F0ECFF4FF480733B6101237B6100233B
:1020D000BB610223FB6107F110031946064805F0B6
:1020E000DDFF00BF2037BD4680BD00BF00100240AD
:1020F00000100140000C01400008014080B500AF15
:10210000124B134A1A60114B124A5A600F4B0022AD
:102110009A600E4B0022DA600C4B4FF480421A6139
:102120000A4B00225A61094B00229A61074B002298
:10213000DA61064B00221A62044806F051F90346A0
:10214000002B01D000F07EFD00BF80BD34080020D0
:1021500000540040801A060080B500AF124B134AAD
:102160001A60114B124A5A600F4B00229A600E4BB4
:102170000022DA600C4B4FF480421A610A4B0022B5
:102180005A61094B00229A61074B0022DA61064B23
:1021900000221A62044806F023F90346002B01D0FE
:1021A00000F050FD00BF80BD8808002000580040AE
:1021B000A086010080B58AB000AF786007F11803EF
:1021C00000221A605A609A60DA607B681B682B4AAA
:1021D000934224D12A4B9B69294A43F00803936117
:1021E000274B9B6903F008037B617B69C023BB61BC
:1021F0001223FB6103237B6207F118031946214870
:1022000005F04CFF1E4BDB691D4A43F40013D361FC
:102210001B4BDB6903F400133B613B6929E07B68DE
:102220001B68194A934224D1154B9B69144A43F009
:1022300008039361124B9B6903F00803FB60FB6882
:102240004FF44063BB611223FB6103237B6207F100
:10225000180319460B4805F021FF094BDB69084AB2
:1022600043F48003D361064BDB6903F48003BB6056
:10227000BB6800BF2837BD4680BD00BF005400408A
:1022800000100240000C01400058004080B500AF33
:10229000094B0A4A1A60084B05225A60064B40F661
:1022A000FF729A60044806F0DFFD0346002B01D060
:1022B00000F0C8FC00BF80BDDC08002000300040FA
:1022C00080B500AF04F03AF900F0F4F805F0C0FE74
:1022D000FFF782FEFFF762FEFFF7CAFCFFF7B8FDCB
:1022E000FFF70CFFFFF738FF01F0B2FD04F010F824
:1022F00004F038F8FFF7CAFF03F030FF03F07AFF6D
:1023000000F0A6FC00F000FD0A2004F079F95C4919
:102310005C4800F01DFF5C4B00221A605B4B4FF0E5
:1023200000021A6013E0584B1B68554A52F82320EC
:10233000564B1B6819461046FEF7FCFB03461A462F
:10234000524B1A60504B1B6801334F4A13604E4B7F
:102350001B680E2BE7DD0A2004F052F9FFF74EFC54
:1023600000F002F94A4B01221A704FF47A7004F01F
:1023700047F9484B01221A700121474805F0E8FF50
:102380000346002B09D00221434805F0E1FF034634
:10239000002B02D100F0D6FB23E001213E4805F0DE
:1023A000D7FF0346002B09D102213B4805F0D0FF9F
:1023B0000346002B02D000F07FFB12E001213648DB
:1023C00005F0C6FF0346002B09D00221324805F074
:1023D000BFFF0346002B02D000F068F901E000F0D7
:1023E00035F92E4806F079FD2A4B1B78012B3BD19D
:1023F0002B4B1B78012B04D12149224800F0A8FE69
:1024000003E01F491F4800F0A3FE1D4801F06CFCCB
:10241000244B1B681846FEF707F817A3D3E90023DF
:10242000FEF7CCFA0346002B08D0184B1B681E4958
:102430001846FEF743FE0346002B03D11B4B1B78C7
:10244000012B05D11A4B1B88184601F0E1FB05E072
:10245000174B00221A80002001F0DAFB00F0C8FBC5
:1024600010210D4805F0A3FF0C4806F036FD0120B1
:1024700004F0C6F880E700BF9A9999999999B9BF75
:102480002409002004090020E8080020700B002027
:102490007D0200206009002000100140DC080020BF
:1024A000660900205C10002000005C42740B0020D4
:1024B000A20B002080B594B000AF07F128032822BA
:1024C0000021184607F026FF07F1140300221A60C6
:1024D0005A609A60DA601A613B1D00221A605A60E5
:1024E0009A60DA600A23BB620123BB631023FB639B
:1024F00001233B6402237B640023BB644FF460131D
:10250000FB6407F12803184606F0F6FC0346002B8F
:1025100001D000F097FB0F237B610223BB610023F6
:10252000FB614FF480633B6200237B6207F114037D
:102530000221184606F060FF0346002B01D000F090
:1025400081FB02237B604FF40043FB603B1D184678
:1025500007F0EEF80346002B01D000F073FB00BF3C
:102560005037BD4680BD000098B500AF06222E4909
:102570002E4804F03FF901F0FBFC002001F0E4FDDF
:1025800001F0B4FD01220421294805F0F8FE4FF4C2
:10259000FA7004F035F80421254805F008FF4FF4DF
:1025A000FA7004F02DF80421214805F000FF6420A2
:1025B00004F026F804211E4805F0F9FE642004F01A
:1025C0001FF804211A4805F0F2FE642004F018F800
:1025D0000421174805F0EBFE642004F011F8154AB9
:1025E000154B144607CB20606160A2601B782373F3
:1025F0000021052001F01EFE012210490D4801F0C6
:10260000AFFE01F073FD0E4807F0D4F90D4807F056
:10261000D1F94FF47A7003F0F3FF0B4B00221A70DC
:10262000FEF7BCFE00BF98BDEC0800209807002014
:1026300000100140780B002020C800080C0000208A
:10264000EC140020AC1400206609002098B500AFFF
:10265000114B00221A70114B00221A70002001F059
:1026600073FD0F4A0F4B144607CB20606160A260D8
:102670001B7823731C21142001F0DCFD01220A4980
:10268000074801F06DFE01F031FDFEF787FE0120E5
:1026900003F0B6FF00BF98BD00090020740B0020B6
:1026A000780B002020C800080C0000202DE9F04F16
:1026B00087B006AF5B4B00221A705B4B00221A708A
:1026C0005A4B1B78002B58D1002001F03DFD584A91
:1026D000584B15461C460FCC28606960AA60EB6019
:1026E0002388A2782B821346AB741221002001F0BC
:1026F000A1FD012250494E4801F032FE4C4A4F4B99
:10270000144607CB20606160A2602621002001F002
:1027100091FD01224849464801F022FE01F0E6FC05
:1027200000221021464805F02AFEFEF737FE454BF1
:1027300000221A70444B00221A70444B00221A7077
:10274000434B00221A70434B00221A70424B002266
:102750001A70424B00221A70414B00221A70414BF2
:1027600000221A70404B00221A70404B00221A704F
:102770003F4B1B683F4A136067E1002001F0E4FC17
:1027800010212F4805F013FE3B4B1B78012B14D171
:10279000274A3A4B15461C460FCC28606960AA6050
:1027A000EB6023782B740021002001F043FD01220F
:1027B00021491F4801F0D4FD7EE02F4B1B78022BEE
:1027C00014D11B4A2E4B15461C460FCC286069605D
:1027D000AA60EB60206828610021002001F02AFD3A
:1027E00001221549124801F0BBFD65E0224B1B7820
:1027F000032B49D10E4A234B15461C460FCC2860AB
:102800006960AA60EB602388A2782B821346AB74C0
:102810000021002001F00EFD01220749044801F0CB
:102820009FFD49E000090020740B00206009002092
:10283000780B002030C800080C00002044C80008B5
:10284000001001404410002064100020901000206F
:102850003D0C002065100020A11400207410002001
:10286000881000203E0C00202C1000203C0C002082
:10287000B4100020B01000206609002050C80008E5
:1028800064C8000878C80008744B1B78002B13D16B
:10289000734A744B144607CB20606160A2601A88AB
:1028A0009B78A281A3730021002001F0C3FC0122C8
:1028B0006D496B4801F054FD6C4B1B681846FDF7E1
:1028C000B3FD05460E466A4B1B681846FDF7ACFD86
:1028D00003460C46CDE900342A4633466549604834
:1028E00008F070F90A21002001F0A4FC01225E49E1
:1028F0005B4801F035FD604B1B681846FDF794FD01
:1029000082468B465D4B1B681846FDF78DFD0446DD
:102910000D465B4B1B681846FDF786FD80468946D1
:10292000584B1B681846FDF77FFD02460B46CDE964
:102930000423CDE90289CDE9004552465B46524960
:10294000474808F03FF91421002001F073FC0122F0
:102950004549434801F004FD4C4B1B681846FDF700
:1029600063FD0A4601464A4B1B78019325230093D9
:1029700013460A4647493A4808F024F91E21002028
:1029800001F058FC01223849354801F0E9FC424B7E
:102990001B881D46414B1B681846FDF745FD034645
:1029A0000C46CDE900342A463D492D4808F00AF985
:1029B0002821002001F03EFC01222B49284801F08B
:1029C000CFFC384B1B781E46374B1B789846374B4D
:1029D0001B681846FDF728FD04460D46344B1B685E
:1029E0001846FDF721FD02460B46CDE90223CDE94D
:1029F0000045434632462F49194808F0E3F8322192
:102A0000002001F017FC01221749154801F0A8FC2D
:102A100001F06CFB1E4B1B78002B02D1FEF7BEFCB5
:102A200013E01B4B1B78012B02D1FEF797FB0CE048
:102A3000174B1B78022B02D1FEF7ECFB05E0144B81
:102A40001B78032B01D1FEF73BFC012003F0D8FDDE
:102A500000BF0437BD46BDE8F08F00BF6609002007
:102A6000780B00208CC800080C00002048100020C3
:102A70005C1000209CC8000870100020A4140020E6
:102A80004C1000209C100020ACC80008980B0020BF
:102A9000940B0020C8C80008A20B00206C0B00207B
:102AA000D8C800086C100020A014002030100020AE
:102AB000A0100020E8C80008B0B500AF1B4B0122F1
:102AC0001A701B4B00221A70002001F03DFB194ABE
:102AD000194B144607CB20606160A2601B782373FA
:102AE0001221142001F0A6FB01221449114801F023
:102AF00037FC104A124B15461C460FCC2860696003
:102B0000AA60EB602388A2782B821346AB7426213F
:102B1000002001F08FFB01220849064801F020FC4B
:102B200001F0E4FAFEF73AFC00BFB0BD0009002056
:102B3000740B0020780B002020C800080C00002037
:102B400000C9000898B500AF214B00221A70214B34
:102B500001221A70002001F0F7FA1F4A1F4B144699
:102B600007CB20606160A2601B78237300211420D2
:102B700001F060FB01221A49174801F0F1FB164AE7
:102B8000184B144607CB20606160A2601B88A381AC
:102B90000A21002001F04EFB012211490E4801F0EC
:102BA000DFFB114B1B881A4610490B4808F00AF846
:102BB0002821002001F03EFB01220949064801F0CE
:102BC000CFFB01F093FAFEF7E9FB00BF98BD00BF11
:102BD00000090020740B0020780B002020C800089A
:102BE0000C00002014C90008A20B002024C9000812
:102BF00080B500AF104B00221A60104B4FF000025E
:102C00001A6013E00C4B1B680D4A52F823200B4B43
:102C10001B6819461046FDF78DFF03461A46074B01
:102C20001A60054B1B680133034A1360024B1B6893
:102C30000E2BE7DD00BF80BDE8080020700B0020F0
:102C40002409002080B400AF00BFBD4680BC70479F
:102C500080B588B000AF2A4B9B69294A43F0040332
:102C60009361274B9B6903F00403FB60FB68244BD3
:102C70009B69234A43F008039361214B9B6903F04E
:102C80000803BB60BB681E4B9B691D4A43F01003E1
:102C900093611B4B9B6903F010037B607B680123EE
:102CA0003B6101237B610023BB610323FB6107F1CF
:102CB00010031946134805F0F1F908233B6107F1A9
:102CC000100319460F4805F0E9F920233B6107F18D
:102CD000100319460B4805F0E1F910233B6100236E
:102CE0007B610023BB610123FB6107F110031946DF
:102CF000044805F0D3F900BF2037BD4680BD00BFB2
:102D000000100240000C014080B500AF01220121FB
:102D10002A4805F034FB01224FF48071284805F061
:102D20002EFB0A2000F04EF800224FF48071244858
:102D300005F025FB4FF4FA6000F044F801224FF44F
:102D400080711F4805F01BFB0A2000F03BF80022B1
:102D500001211A4805F013FB642000F033F801222A
:102D60000121164805F00BFB642000F02BF800222F
:102D70000121124805F003FB642000F023F8012232
:102D800001210E4805F0FBFA642000F01BF8002238
:102D900001210A4805F0F3FA642000F013F801223B
:102DA0000121064805F0EBFA642000F00BF844F628
:102DB000206000F007F800BF80BD00BF000C01409C
:102DC0000010014080B483B000AF786002E07B68FF
:102DD000013B7B607B68002BF9D100BF0C37BD46FF
:102DE00080BC704780B584B000AF0346FB71002201
:102DF00008211A4805F0C3FA0023FB7327E0FA798B
:102E0000FB7BC3F1070342FA03F303F00103002B3A
:102E100005D001222021114805F0B1FA04E000227A
:102E200020210E4805F0ABFA0A20FFF7CBFF012264
:102E300008210A4805F0A3FA0A20FFF7C3FF002281
:102E40000821064805F09BFAFB7B0133FB73FB7BF3
:102E5000072BD4D900BF1037BD4680BD000C014000
:102E600080B582B000AF0023BB71002220211E4834
:102E700005F085FA002208211B4805F080FA00239E
:102E8000FB7128E00A20FFF79DFF01220821164868
:102E900005F075FA0A20FFF795FF1021124805F09A
:102EA00057FA0346012B0BD1FB79C3F1070301222B
:102EB00002FA03F35AB297F9063013435BB2BB71BF
:102EC0000A20FFF77FFF00220821074805F057FA84
:102ED000FB790133FB71FB79072BD3D9BB791846FA
:102EE0000837BD4680BD00BF000C014080B584B0EE
:102EF00000AF0346FB710B46BB7113467B71FB7938
:102F00005B10DBB203F00103FB73FB7B0233DBB22C
:102F10003B73FB79DB01FB73BB791B01DAB2FB7BF3
:102F20001344DAB27B791344DBB26033DBB27B73D8
:102F300007F10C03184600F005F800BF1037BD4636
:102F400080BD000080B584B000AF78607B681B78DE
:102F50003B727B685B787B7207F10803194602209D
:102F600000F02AF80346FB81FB891B0A9BB2DBB207
:102F7000BB72FB89DBB2FB72002201210D4805F018
:102F8000FEF93B7A1846FFF72DFF7B7A1846FFF7CC
:102F900029FFBB7A1846FFF725FFFB7A1846FFF793
:102FA00021FF01220121034805F0E9F900BF103794
:102FB000BD4680BD000C014080B485B000AF034623
:102FC0003960FB711023FB8100237B7319E0FB89BF
:102FD000DB099AB27B7B39680B441B789BB2534068
:102FE0009BB2DBB27B81FB891B021AB27B890B4946
:102FF00031F813301BB253401BB2FB817B7B013392
:103000007B737A7BFB799A42E1D3FB895B009BB2AD
:1030100018461437BD4680BC704700BFACD00008CE
:1030200090B585B000AF03463A60FB710B46BB71AB
:10303000FB79012B04D104237B7200233B7226E031
:10304000FB79022B04D106237B7200233B721EE026
:10305000FB79032B04D108237B7200233B7216E01B
:10306000FB79042B04D10A237B7200233B720EE010
:10307000FB79052B04D109237B7200233B7206E008
:10308000FB79062B03D10B237B7200233B7207F1E4
:10309000080319460220FFF78FFF0346FB81FB89D7
:1030A0001B0A9BB2DBB2BB72FB89DBB2FB72002254
:1030B0000121264805F063F93B7A1846FFF792FE96
:1030C0007B7A1846FFF78EFEBB7A1846FFF78AFE1A
:1030D000FB7A1846FFF786FEFFF7C2FE03461A4644
:1030E0003B681A703B685C1CFFF7BAFE034623700E
:1030F0003B689C1CFFF7B4FE034623703B68DC1C56
:10310000FFF7AEFE034623703B681C1DFFF7A8FEC9
:10311000034623703B685C1DFFF7A2FE0346237045
:103120003B689C1DFFF79CFE034623703B68DC1D3B
:10313000FFF796FE0346237001220121034805F0A4
:103140001EF900BF1437BD4690BD00BF000C014002
:1031500090B587B000AF786039600023FB7500221E
:103160000121C74805F00BF9C64B07221A70C54B61
:1031700023225A70C348FFF7E5FE012003F040FA0E
:10318000002201210020FFF7B1FE4FF42F7003F061
:1031900037FA07F10C031A4601210120FFF740FF1F
:1031A000FB7D5B00013307F11802134413F80C3C5C
:1031B0001B02FA7D520007F118010A4412F80C2C88
:1031C00013431846FDF76AFDFB7DAF4A52F82330E2
:1031D0001946FDF7ADFC03461946FB7D5B007A6896
:1031E000D4180846FDF79AFF03469BB22380FB7D67
:1031F0005B007A6813441B881846FDF703F99EA309
:10320000D3E90023FDF768F903460C46184621462A
:10321000FB7D9B003A68D418FDF736FC034623601B
:10322000FB7D0133FB75FB7D5B00013307F1180269
:10323000134413F80C3C1B02FA7D520007F11801ED
:103240000A4412F80C2C13431846FDF727FDFB7DAA
:103250008D4A52F823301946FDF76AFC0346194699
:10326000FB7D5B007A68D4180846FDF757FF0346DC
:103270009BB22380FB7D5B007A6813441B88184651
:10328000FDF7C0F87CA3D3E90023FDF725F9034639
:103290000C4618462146FB7D9B003A68D418FDF782
:1032A000F3FB03462360FB7D0133FB75FB7D5B0075
:1032B000013307F11802134413F80C3C1B02FA7D8A
:1032C000520007F118010A4412F80C2C1343184657
:1032D000FDF7E4FCFB7D6C4A52F823301946FDF7FC
:1032E00027FC03461946FB7D5B007A68D418084624
:1032F000FDF714FF03469BB22380FB7D5B007A68D9
:1033000013441B881846FDF77DF85BA3D3E900231F
:10331000FDF7E2F803460C4618462146FB7D9B006C
:103320003A68D418FDF7B0FB03462360FB7D0133F8
:10333000FB7507F10C031A4601210220FFF770FE0E
:103340000023FB75FB7D5B00013307F1180213447A
:1033500013F80C3C1B02FA7D520007F118010A44D5
:1033600012F80C2C13431846FDF798FCFB7D033331
:10337000454A52F823301946FDF7DAFB0346194651
:10338000FB7D03335B007A68D4180846FDF7C6FE60
:1033900003469BB22380FB7D03335B007A681344B2
:1033A0001B881846FDF72EF833A3D3E90023FDF759
:1033B00093F803460C4618462146FB7D03339B00D9
:1033C0003A68D418FDF760FB03462360FB7D0133A8
:1033D000FB75FB7D5B00013307F11802134413F802
:1033E0000C3C1B02FA7D520007F118010A4412F846
:1033F0000C2C13431846FDF751FCFB7D0333224A86
:1034000052F823301946FDF793FB03461946FB7D1E
:1034100003335B007A68D4180846FDF77FFE034645
:103420009BB22380FB7D03335B007A6813441B88C7
:103430001846FCF7E7FF10A3D3E90023FDF74CF88B
:1034400003460C4618462146FB7D03339B003A6831
:10345000D418FDF719FB03462360FB7D0133FB7590
:10346000FB7D5B00013307F11802134413F80C3C99
:103470001B020BE0AFF300802D431CEBE2361A3F3A
:10348000000C0140A00B002018000020FA7D520023
:1034900007F118010A4412F80C2C13431846FDF7E3
:1034A000FDFBFB7D0333C64A52F823301946FDF776
:1034B0003FFB03461946FB7D03335B007A68D41853
:1034C0000846FDF72BFE03469BB22380FB7D0333AA
:1034D0005B007A6813441B881846FCF793FFB6A379
:1034E000D3E90023FCF7F8FF03460C4618462146B3
:1034F000FB7D03339B003A68D418FDF7C5FA0346F9
:103500002360FB7D0133FB7507F10C031A46012193
:103510000320FFF785FD0023FB75FB7D5B00013376
:1035200007F11802134413F80C3C1B02FA7D5200F9
:1035300007F118010A4412F80C2C13431846FDF742
:10354000ADFBFB7D06339E4A52F823301946FDF74A
:10355000EFFA03461946FB7D06335B007A68D41800
:103560000846FDF7DBFD03469BB22380FB7D063357
:103570005B007A6813441B881846FCF743FF8EA350
:10358000D3E90023FCF7A8FF03460C461846214662
:10359000FB7D06339B003A68D418FDF775FA0346A5
:1035A0002360FB7D0133FB75FB7D5B00013307F17D
:1035B0001802134413F80C3C1B02FA7D520007F169
:1035C00018010A4412F80C2C13431846FDF766FB49
:1035D000FB7D06337A4A52F823301946FDF7A8FAE4
:1035E00003461946FB7D06335B007A68D41808460B
:1035F000FDF794FD03469BB22380FB7D06335B0001
:103600007A6813441B881846FCF7FCFE6AA3D3E9CA
:103610000023FCF761FF03460C4618462146FB7D5C
:1036200006339B003A68D418FDF72EFA0346236050
:10363000FB7D0133FB75FB7D5B00013307F1180255
:10364000134413F80C3C1B02FA7D520007F11801D9
:103650000A4412F80C2C13431846FDF71FFBFB7DA0
:103660000633574A52F823301946FDF761FA0346EC
:103670001946FB7D06335B007A68D4180846FDF7CF
:103680004DFD03469BB22380FB7D06335B007A68C9
:1036900013441B881846FCF7B5FE47A3D3E9002363
:1036A000FCF71AFF03460C4618462146FB7D0633FD
:1036B0009B003A68D418FDF7E7F903462360FB7DC9
:1036C0000133FB7507F10C031A4601210420FFF7B3
:1036D000A7FC0023FB75FB7D5B00013307F118029B
:1036E000134413F80C3C1B02FA7D520007F1180139
:1036F0000A4412F80C2C13431846FDF7CFFAFB7D51
:1037000009332F4A52F823301946FDF711FA0346C0
:103710001946FB7D09335B007A68D4180846FDF72B
:10372000FDFC03469BB22380FB7D09335B007A6876
:1037300013441B881846FCF765FE1FA3D3E900233A
:10374000FCF7CAFE03460C4618462146FB7D0933AA
:103750009B003A68D418FDF797F903462360FB7D78
:103760000133FB75FB7D5B00013307F11802134445
:1037700013F80C3C1B02FA7D520007F118010A44B1
:1037800012F80C2C13431846FDF788FAFB7D093319
:103790000B4A52F823301946FDF7CAF90346194679
:1037A000FB7D09335B007A68D4180846FDF7B6FC48
:1037B000034607E0AFF300802D431CEBE2361A3FCF
:1037C000180000209BB22380FB7D09335B007A68E0
:1037D00013441B881846FCF715FEA1A3D3E9002368
:1037E000FCF77AFE03460C4618462146FB7D09335A
:1037F0009B003A68D418FDF747F903462360FB7D28
:103800000133FB75FB7D5B00013307F118021344A4
:1038100013F80C3C1B02FA7D520007F118010A4410
:1038200012F80C2C13431846FDF738FAFB7D0933C8
:103830008D4A52F823301946FDF77AF903461946A6
:10384000FB7D09335B007A68D4180846FDF766FCF7
:1038500003469BB22380FB7D09335B007A681344E7
:103860001B881846FCF7CEFD7DA3D3E90023FCF7A7
:1038700033FE03460C4618462146FB7D09339B0068
:103880003A68D418FDF700F903462360FB7D013345
:10389000FB7507F10C031A4601210520FFF7C0FB59
:1038A0000023FB75FB7D5B00013307F11802134415
:1038B00013F80C3C1B02FA7D520007F118010A4470
:1038C00012F80C2C13431846FDF7E8F9FB7D0C3376
:1038D000654A52F823301946FDF72AF9034619467E
:1038E000FB7D0C335B007A68D4180846FDF716FCA4
:1038F00003469BB22380FB7D0C335B007A68134444
:103900001B881846FCF77EFD55A3D3E90023FCF77E
:10391000E3FD03460C4618462146FB7D0C339B0015
:103920003A68D418FDF7B0F803462360FB7D0133F5
:10393000FB75FB7D5B00013307F11802134413F89C
:103940000C3C1B02FA7D520007F118010A4412F8E0
:103950000C2C13431846FDF7A1F9FB7D0C33424AAA
:1039600052F823301946FDF7E3F803461946FB7D6C
:103970000C335B007A68D4180846FDF7CFFB03468A
:103980009BB22380FB7D0C335B007A6813441B8859
:103990001846FCF737FD32A3D3E90023FCF79CFD62
:1039A00003460C4618462146FB7D0C339B003A68C3
:1039B000D418FDF769F803462360FB7D0133FB75DE
:1039C000FB7D5B00013307F11802134413F80C3C34
:1039D0001B02FA7D520007F118010A4412F80C2C60
:1039E00013431846FDF75AF9FB7D0C331E4A52F873
:1039F00023301946FDF79CF803461946FB7D0C332E
:103A00005B007A68D4180846FDF788FB03469BB232
:103A10002380FB7D0C335B007A6813441B881846B7
:103A2000FCF7F0FC0EA3D3E90023FCF755FD034699
:103A30000C4618462146FB7D0C339B003A68D4188F
:103A4000FDF722F803462360FB7D0133FB7501225D
:103A50000121064804F093FC00BF1C37BD4690BD11
:103A60002D431CEBE2361A3F18000020000C0140E9
:103A700080B588B000AF03460A46FB711346BB71A0
:103A800001237B7500233B7507F1140319460220BF
:103A9000FFF792FA03467B837B8B1B0A9BB2DBB258
:103AA000BB757B8BDBB2FB7500220121244804F03F
:103AB00066FC3B7D1846FFF795F97B7D1846FFF7BE
:103AC00091F9BB7D1846FFF78DF9FB7D1846FFF78E
:103AD00089F900233B7300237B730023BB7300230E
:103AE000FB73FB793B74BB797B7407F10C031946BC
:103AF0000620FFF761FA03467B837B8B1B0A9BB290
:103B0000DBB2BB747B8BDBB2FB740023FB610AE08E
:103B100007F10C02FB6913441B781846FFF762F9A2
:103B2000FB690133FB61FB69072BF1DD01220121F8
:103B3000034804F024FC00BF2037BD4680BD00BF11
:103B4000000C014080B588B000AF0346FB71242310
:103B50007B7500233B7507F1140319460220FFF71C
:103B60002BFA03467B837B8B1B0A9BB2DBB2BB75B4
:103B70007B8BDBB2FB7500220121244804F0FFFBA4
:103B80003B7D1846FFF72EF97B7D1846FFF72AF993
:103B9000BB7D1846FFF726F9FB7D1846FFF722F993
:103BA000FB793B7300237B730023BB730023FB7300
:103BB00000233B7400237B7407F10C031946062095
:103BC000FFF7FAF903467B837B8B1B0A9BB2DBB2C0
:103BD000BB747B8BDBB2FB740023FB610AE007F153
:103BE0000C02FB6913441B781846FFF7FBF8FB69CE
:103BF0000133FB61FB69072BF1DD01220121034841
:103C000004F0BDFB00BF2037BD4680BD000C014065
:103C100080B584B000AF0346FB802F4B00221A70A2
:103C20002E4B00221A702E4B00221A700023FB60CC
:103C30003DE0FA88FB6842FA03F3DBB203F00103CC
:103C4000FB72FB68072B0DDCFA7AFB6802FA03F3C0
:103C50003B813B89DAB2204B1B781344DAB21E4B0E
:103C60001A701FE0FB680B2B0EDCFA7AFB68083B2E
:103C700002FA03F33B813B89DAB2184B1B781344F9
:103C8000DAB2164B1A700DE0FA7AFB68083B02FABA
:103C900003F33B813B89DAB2114B1B781344DAB250
:103CA0000F4B1A7000233B81FB680133FB60FB68FC
:103CB0000E2BBEDD084B1A78084B1B7819461046B0
:103CC000FFF7D6FE064B1B781846FFF73BFF00BFF9
:103CD0001037BD4680BD00BF7E0200207F0200205D
:103CE000800200200000000090B587B000AF78602F
:103CF0004F4B504A1A60504B00221A8000233B6100
:103D000017E03B699B007A6813441A68484B1B68AC
:103D100019461046FDF7B4F90346002B06D03B695F
:103D20009B007A6813441B68414A13603B69013366
:103D30003B613B690E2BE4DD0023FB604AE0FB683E
:103D40009B007A6813441A68394B1B681946104661
:103D5000FCF7EEFE03461946384AFB6842F823108A
:103D6000364AFB6852F8233019467869FCF7E2FEC0
:103D700003467B61314AFB6852F823301846FCF752
:103D800053FB27A3D3E90023FCF736FE0346002BA1
:103D90001DD0FB689B007A6813441B681846FCF72B
:103DA00043FB21A3D3E90023FCF726FE0346002BA7
:103DB0000DD001237B817A89FB6802FA03F37B81B2
:103DC0001D4B1A887B8913449AB21B4B1A80FB68DF
:103DD0000133FB60FB680E2BB1DD19497869FCF7F4
:103DE000B1FF03461846FCF71FFB4FF00002154BCE
:103DF000FCF79CFC03460C46184621464FF0333234
:103E0000114BFCF793FC03460C4618462146FCF781
:103E10003BFE02460D4B1A6000BF1C37BD4690BDED
:103E20009A9999999999993F3333333333330B40A6
:103E3000E00B002066668640A20B0020A40B002049
:103E40000000C84200002C403333F33F6C0B0020CD
:103E500080B500AF174B184A1A60164B4FF48272A8
:103E60005A60144B00229A60124B0022DA60114B08
:103E700000221A610F4B00225A610E4B4FF4007260
:103E80009A610C4B2822DA610A4B00221A62094B14
:103E900000225A62074B00229A62064B0A22DA621B
:103EA000044805F0FBFC0346002B01D0FEF7CAFED8
:103EB00000BF80BDE40B00200030014080B58AB017
:103EC00000AF786007F1140300221A605A609A600C
:103ED000DA607B681B68224A93423DD1214B9B6983
:103EE000204A43F4805393611E4B9B6903F4805333
:103EF0003B613B691B4B9B691A4A43F00803936182
:103F0000184B9B6903F00803FB60FB6828237B6167
:103F10000223BB6103233B6207F1140319461248D5
:103F200004F0BCF810237B610023BB610023FB611C
:103F300007F1140319460C4804F0B0F80B4B5B680A
:103F40007B627B6A43F0E0637B627B6A43F0010340
:103F50007B62064A7B6A536000BF2837BD4680BD3E
:103F60000030014000100240000C01400000014000
:103F700080B582B000AF00F019FA44F62063012248
:103F80007821584804F052FC0346002B01D000234E
:103F9000A4E040F6C4137B6002E07B68013B7B60D9
:103FA0007B68002BF9D1AE220021782000F06CFA5A
:103FB00020220021782000F067FA102200217820CA
:103FC00000F062FAB0220021782000F05DFAC822E9
:103FD0000021782000F058FA00220021782000F01B
:103FE00053FA10220021782000F04EFA40220021DE
:103FF000782000F049FA81220021782000F044FA6C
:10400000FF220021782000F03FFAA1220021782031
:1040100000F03AFAA6220021782000F035FAA82212
:104020000021782000F030FA3F220021782000F0B3
:104030002BFAA4220021782000F026FAD3220021B6
:10404000782000F021FA00220021782000F01CFAEC
:10405000D5220021782000F017FAF02200217820E4
:1040600000F012FAD9220021782000F00DFA222265
:104070000021782000F008FADA220021782000F0F0
:1040800003FA12220021782000F0FEF9DB22002141
:10409000782000F0F9F920220021782000F0F4F9CE
:1040A0008D220021782000F0EFF9142200217820E1
:1040B00000F0EAF9AF220021782000F0E5F90020B5
:1040C00000F042F800F012F8074B00221A80064B6D
:1040D00000225A80044B01225A71012318460837E6
:1040E000BD4680BD340800208406002080B582B023
:1040F00000AF0023FB711DE0FB79503BDBB21A4699
:104100000021782000F0C0F900220021782000F082
:10411000BBF910220021782000F0B6F9FB79DB0111
:10412000084A1A4480234021782000F053F9FB7993
:104130000133FB71FB79072BDED900BF0837BD4681
:1041400080BD00BF8402002080B582B000AF03466E
:10415000FB71FB79002B01D1002301E04FF4807348
:104160004FF480621946034806F0D4F800BF0837C0
:10417000BD4680BD8402002080B483B000AF0346FA
:10418000FB800B46BB801346FB70FB887F2B48D817
:10419000BB883F2B45D8254B1B79002B06D0FB78DD
:1041A000002B0CBF01230023DBB2FB70FB78012B3B
:1041B0001AD1FA88BB88DB0898B20346DB011344A6
:1041C0001B4AD35C5AB2BB8803F00703012101FAF2
:1041D00003F35BB2134359B2FA880346DB0113447D
:1041E000C9B2134AD1541DE0FA88BB88DB0898B2E3
:1041F0000346DB0113440E4AD35C5AB2BB8803F07A
:104200000703012101FA03F35BB2DB435BB2134006
:1042100059B2FA880346DB011344C9B2044AD154A7
:1042200000E000BF0C37BD4680BC7047840600200C
:104230008402002080B483B000AF03460A46FB80AE
:104240001346BB80054AFB881380044ABB88538011
:1042500000BF0C37BD4680BC704700BF84060020FD
:1042600080B586B000AF03463960FB711346BB7161
:104270003A4B1B881A463B681B7813447F2B07DC9C
:10428000364B5B881A463B685B7813443F2B01DD55
:1042900000235EE000237B614BE03B685A68FB79BA
:1042A000203B3968497801FB03F319467B690B44CD
:1042B0005B0013441B88FB6000233B6130E0FA681D
:1042C0003B6902FA03F303F40043002B10D0234BA5
:1042D0001A883B699BB2134498B2204B5A887B6979
:1042E0009BB213449BB2BA791946FFF745FF14E01D
:1042F0001A4B1A883B699BB2134498B2174B5A88E1
:104300007B699BB2134499B2BB79002B0CBF01238C
:104310000023DBB21A46FFF72FFF3B6901333B61F5
:104320003B681B781A463B699342C8D37B690133CB
:104330007B613B685B781A467B699342ADD3074B40
:104340001A883B681B789BB213449AB2034B1A80BD
:10435000FB7918461837BD4680BD00BF8406002093
:1043600080B584B000AFF860B9601346FB7112E00D
:10437000FB681B78FA79B9681846FFF771FF0346A6
:104380001A46FB681B789A4202D0FB681B7808E04B
:10439000FB680133FB60FB681B78002BE8D1FB68EE
:1043A0001B7818461037BD4680BD000080B483B02E
:1043B00000AF074B7B6002E07B68013B7B607B6862
:1043C000002BF9D100BF0C37BD4680BC704700BF41
:1043D00090D00300B0B588B002AF3A601A460346E9
:1043E000FB710B46BB711346BB806B461D46BB88F9
:1043F000581C431E3B61034619464FF000024FF024
:1044000000034FF00004D40044EA5174CB0003468B
:1044100019464FF000024FF000034FF00004D400A3
:1044200044EA5174CB0003460733DB08DB00ADEBF5
:10443000030D02AB0033FB60FB68BA791A700123ED
:10444000FB750AE0FB7D013B3A681A44FB7D11785D
:10445000FA68D154FB7D0133FB75FB7D9BB2BA88B2
:104460009A42EFD2FB7999B2FA68B8880A2300938E
:104470000346044804F0DCF8AD4600BF1837BD46DB
:10448000B0BD00BF3408002080B586B002AF03463F
:10449000FB710B46BB7113467B71BB793B737B7918
:1044A0007B73FB7999B207F10C020A230093022374
:1044B000034804F0BDF800BF1037BD4680BD00BF03
:1044C0003408002080B485B000AF154B9B69144AB6
:1044D00043F001039361124B9B6903F00103BB603E
:1044E000BB680F4BDB690E4A43F08053D3610C4B22
:1044F000DB6903F080537B607B680A4B5B68FB6081
:10450000FB6823F0E063FB60FB6843F00073FB6033
:10451000044AFB68536000BF1437BD4680BC704737
:10452000001002400000014080B400AF00BFBD4653
:1045300080BC704780B400AFFEE780B400AFFEE7F8
:1045400080B400AFFEE780B400AFFEE780B400AFF8
:1045500000BFBD4680BC704780B400AF00BFBD4601
:1045600080BC704780B400AF00BFBD4680BC7047C0
:1045700080B500AF02F028F800BF80BD80B500AF65
:10458000024803F031FC00BF80BD00BFC807002017
:1045900080B500AF024803F038F800BF80BD00BF0F
:1045A0000C08002080B500AF024803F02EF800BFD1
:1045B00080BD00BF0C080020B0B500AFB84805F0C2
:1045C0001CFAB84B1B680133B64A1360B64B1B6824
:1045D0000133B54A1360B54B1B68B54A1268B5493B
:1045E00031F812209B1AB14A1360B34B1B68B04AD2
:1045F0001268B24931F812209B1AAF4A1360AC4BD3
:104600001B68AF4A1188AB4A22F81310A84B1B68ED
:10461000AB4A5188A94A22F81310A54B1B68A54A3A
:1046200032F813301A46A14B1B6813449F4A13609B
:104630009F4B1B68A14A32F813301A469E4B1B68E9
:1046400013449D4A1360994B1B689E4A82FB0312D8
:104650005211DB17D31A1846FCF720FB02469A4B7F
:104660001A60954B1B68974A82FB03125211DB17A5
:10467000D31A1846FCF712FB0246944B1A60944B6F
:104680001B68944A1360934B1B684FF00001184657
:10469000FCF7F6FC0346002B02D08E4B8E4A1A60C4
:1046A000894B1B681846FBF7BFFE75A3D3E90023AF
:1046B000FBF712FF03460C461846214672A3D3E9C6
:1046C0000023FBF753FD03460C4625461C46834B4F
:1046D0001B681846FBF7A8FE02460B4620462946F3
:1046E000FBF742FD03460C4618462146FCF7CCF981
:1046F00002467B4B1A60744B1B681846FBF794FE0E
:104700005FA3D3E90023FBF7E7FE03460C461846F8
:1047100021465DA3D3E90023FBF728FD03460C46A1
:1047200018462146FCF7B0F902466E4B1A605E4B04
:104730001B68092B40F31A815B4B00221A60604B07
:104740009B881A4642F2107303FB02F25C4B9B8873
:10475000C3F573630C3392FBF3F31846FCF79EFA30
:104760000246614B1A60604B1B681846FBF75CFE03
:1047700003460C461846214607F010FE44A3D3E931
:104780000023FBF7A9FE03460C461846214642A328
:10479000D3E90023FBF7EAFC03460C461846214602
:1047A000FCF772F90246514B1A60454BDB881A46FA
:1047B00042F2107303FB02F2414BDB88C3F57363D3
:1047C0000C3392FBF3F31846FCF768FA0246484BA9
:1047D0001A60474B1B681846FBF726FE03460C463B
:1047E0001846214607F0DAFD29A3D3E90023FBF799
:1047F00073FE03460C461846214627A3D3E900233F
:10480000FBF7B4FC03460C4618462146FCF73CF97E
:104810000246384B1A602A4B1B891A4642F2107323
:1048200003FB02F2264B1B89C3F573630C3392FB27
:10483000F3F31846FCF732FA02462F4B1A602E4B60
:104840001B681846FBF7F0FD03460C461846214648
:1048500007F0A4FD0EA3D3E90023FBF73DFE0346BA
:104860000C46184621460CA3D3E90023FBF77EFC37
:1048700003460C4618462146FCF706F902463DE081
:10488000752C45CE1376A4BF363A4271E456534098
:10489000CDCCCCCCCC0C38C085EB51B81ECD6E4005
:1048A000EC140020900B0020A41000209810002091
:1048B00068100020400C002038100020B8100020A4
:1048C000EC080020D34D621040100020581000204A
:1048D000700B002048100020000080BFB0100020A6
:1048E0005C100020B4100020541000207010002034
:1048F00094100020A4140020AC100020AE4B1A60CD
:10490000AE4B5B891A4642F2107303FB02F2AB4BCB
:104910005B89C3F573630C3392FBF3F31846FCF722
:10492000BDF90246A64B1A60A54B1B681846FBF75B
:104930007BFD03460C461846214607F02FFD98A341
:10494000D3E90023FBF7C8FD03460C461846214671
:1049500095A3D3E90023FBF709FC03460C46184650
:104960002146FCF791F80246964B1A60964B1B784D
:10497000012B40F0A780954B1B78022B01D100F052
:104980009BF9924B1B78012B01D100F0C1FF904B9A
:104990001B78012B08D08F4B1B688F491846FCF7FA
:1049A0008DFB0346002B09D08C4B1B78012B05D1C6
:1049B0008A4B00221A70864B00221A70884B1B7893
:1049C000012B09D1874B1B78012B05D1844B002289
:1049D0001A70844B00221A70834B1B78012B26D14E
:1049E000824B1B6882491846FCF74AFB0346002BA2
:1049F0001AD1804B1B687E491846FCF741FB0346E1
:104A0000002B11D16C4B1B6879491846FCF738FB19
:104A10000346002B08D16B4B1B6875491846FCF701
:104A20002FFB0346002B02D06F4B00221A70724BF3
:104A30001B78012B26D16D4B1B6870491846FCF77B
:104A40003DFB0346002B1AD16A4B1B686B49184685
:104A5000FCF734FB0346002B11D1574B1B68674909
:104A60001846FCF72BFB0346002B08D1554B1B685F
:104A700062491846FCF722FB0346002B02D05E4B2E
:104A800000221A705E4B1B78012B0BD15D4B1B680B
:104A90005A491846FCF712FB0346002B02D0584B2C
:104AA00000221A70584B1B78012B0BD1554B1B68F9
:104AB00056491846FCF7E4FA0346002B02D0524B45
:104AC00000221A70524B1B680133514A1360504B3D
:104AD0001A68504B83FB02135911D317CB1A4FF4AA
:104AE000FA7101FB03F3D31A494A1360374B1B7861
:104AF000012B0CD0354B1B78022B08D0334B1B7885
:104B0000032B04D0314B1B78002B40F0B280424B7A
:104B10001B8801339AB2404B1A80404B1A68404BB5
:104B20001B6819461046FCF705F803461A463B4B2E
:104B30001A60394B1B88B3F57A7FC0F09A80374BE7
:104B40001B6883F0004337491846FCF7AFF903466A
:104B50001846FBF769FC16A3D3E90023FBF7BCFC5E
:104B600003460C4625461C462F4B1B681846FBF790
:104B70005BFC02460B4620462946FBF7D7FD034661
:104B80000C46184621464FF00002284BFBF7A4FCC8
:104B900003460C46184621464AE000BFAFF30080AA
:104BA000CDCCCCCCCC0C38C085EB51B81ECD6E40F2
:104BB000DFBC9A785634323F4C100020EC080020BD
:104BC000601000209C1000207D020020660900205B
:104BD000A810002048100020000058426510002056
:104BE000741000205010002044100020701000208D
:104BF00000002042A4140020641000200000A04106
:104C000090100020980B00203D0C002000008C42EA
:104C100068100020D34D621046100020A814002018
:104C20005C10002000007A4414000020000059406D
:104C300011A3D3E90023FBF797FA03460C46184665
:104C40002146FBF721FF02460D4B1A600D4B1A68F7
:104C50000B4B1B6819461046FBF76CFF03461A46C0
:104C6000084B1A60084B00221A80084B4FF00002D4
:104C70001A6000BFB0BD00BFF168E388B5F8043F1B
:104C800028100020980B002046100020A8140020B7
:104C900080B500AF064804F0B0FE064B1B78012B30
:104CA00001D1FCF713FCFCF761FF00BF80BD00BF22
:104CB000AC14002060090020B0B500AF7E4B1B682B
:104CC0001846FBF7B1FB04460D467C4B1B681846A3
:104CD000FBF7AAFB74A3D3E90023FBF727FD0246E9
:104CE0000B4620462946FBF787FE0346002B0ED0D5
:104CF000734B0C221A70FCF751FB724B01221A7095
:104D000000220421704803F03AFB00F0EEBD6B4B2B
:104D10001A686E4B1B6819461046FCF7B1F903463A
:104D2000002B00F0E7806A4B1B78002B40F0E280FC
:104D3000634B01221A70674B1C68604B1A68634B07
:104D40001B6819461046FCF7B1F8034619464FF0A8
:104D50007E50FBF7EDFE034619462046FCF7A6F809
:104D600003461A465C4B1A605C4B1B681846FBF7FF
:104D70005BFB4FA3D3E90023FBF7F8F903460C468E
:104D800018462146FBF780FE0246544B1A60534BEF
:104D90001A68514B1B6819461046FCF78FF90346F9
:104DA000002B11D04A4B1B78002B0DD1FCF7F6FAE3
:104DB000494B1B68494A1360454B01221A70002277
:104DC0000421414803F0DBFA414B1B78002B40F0F3
:104DD0008985414B1A68414B1B6819461046FBF701
:104DE000A7FE03463E491846FCF768F90346002B28
:104DF00018D03C4B1A683C4B83FB02139911D31714
:104E0000CB1A4FF47A7101FB03F3D31A002B40F055
:104E1000698504212C4803F0CAFA324B00221A603B
:104E200000F060BD2C4B1A682C4B1B6819461046CD
:104E3000FBF77EFE03462D491846FCF73FF9034673
:104E4000002B17D0274B1A68294B83FB02135911EB
:104E5000D317CB1A642101FB03F3D31A002B40F0C4
:104E600041850421184803F0A2FA1E4B00221A6063
:104E700000F038BD184B1A68184B1B6819461046CD
:104E8000FBF756FE03464FF07E511846FCF716F925
:104E90000346002B01D100F025BD012204210A4860
:104EA00003F06DFA00F01EBDCDCCCCCCCCCCEC3FE9
:104EB000FCA9F1D24D62503F5C1000204810002048
:104EC0006C1000203E0C00200010014074000020F7
:104ED00065100020540000203410002078100020BD
:104EE00000007041900B0020D34D62100000204163
:104EF0001F85EB51764B1A68764B1B681946104696
:104F0000FBF716FE03464FF000011846FCF7D6F8F3
:104F10000346002B00F0F8806F4B1B78002B40F00D
:104F2000F3806E4B02221A706D4B1B681846FBF71C
:104F30007BFA04460D46664B1B681846FBF774FA6D
:104F40005FA3D3E90023FBF7F1FB02460B461046B3
:104F500019464FF00002634BFBF706F902460B4679
:104F600020462946FBF7E2FB03460C46184621463D
:104F7000FBF78AFD02465C4B1A605C4B1B681846C7
:104F8000FBF752FA50A3D3E90023FBF7EFF80346EF
:104F90000C4618462146FBF777FD0246534B1A6034
:104FA000524B1A68504B1B6819461046FCF786F89E
:104FB0000346002B11D0484B1B78002B0DD1FCF77A
:104FC000EDF9494B1B68494A1360434B01221A70A3
:104FD00000220421464803F0D2F93F4B1B78002BF6
:104FE00040F08284404B1A68404B1B6819461046BB
:104FF000FBF79EFD03463F491846FCF75FF8034662
:10500000002B18D03C4B1A683C4B83FB02139911C0
:10501000D317CB1A4FF47A7101FB03F3D31A002B89
:1050200040F062840421324803F0C1F9324B00227F
:105030001A6000F059BC2C4B1A682C4B1B6819469F
:105040001046FBF775FD03462D491846FCF736F868
:105050000346002B17D0284B1A682A4B83FB0213F8
:105060005911D317CB1A642101FB03F3D31A002B78
:1050700040F03A8404211E4803F099F91E4B0022A7
:105080001A6000F031BC184B1A68184B1B6819469F
:105090001046FBF74DFD03464FF07E511846FCF7D6
:1050A0000DF80346002B01D100F01EBC01220421A3
:1050B0000F4803F064F900F017BC00BFAFF30080A5
:1050C000CDCCCCCCCCCC2540FCA9F1D24D62503F0C
:1050D0005C1000205C000020741000206C10002088
:1050E000580000200000F03F30100020A0100020E9
:1050F0000010014000007041900B0020D34D621061
:10510000000020411F85EB518C4B1B6819468C48D1
:10511000FBF70EFD03468B491846FBF7B1FF03462C
:10512000002B2AD1884B1B6819468848FBF700FDE5
:10513000034684491846FBF7A3FF0346002B1CD106
:10514000834B1B6819467E48FBF7F2FC03467D49FA
:105150001846FBF795FF0346002B0ED17D4B1B68CD
:1051600019467A48FBF7E4FC034676491846FBF7F4
:1051700087FF0346002B00F0FD80774B1B78002B48
:1051800040F0F880754B03221A70754B1B686D490F
:105190001846FBF7CDFC03461A46684B1B681946B8
:1051A0001046FBF76DFF0346002B28D06C4B1B68A5
:1051B0006C491846FBF7BCFC03461A465F4B1B685C
:1051C00019461046FBF770FF0346002B17D0664BBD
:1051D0001A68664B83FB02139911D317CB1A4FF44D
:1051E0007A7101FB03F3D31A002B40F0A68004214F
:1051F0005F4803F0DCF85C4B00221A609DE0584BDE
:105200001B6858491846FBF793FC03461A464B4B5C
:105210001B6819461046FBF733FF0346002B28D0C6
:105220004F4B1B684FF080411846FBF781FC03464B
:105230001A46424B1B6819461046FBF735FF0346DA
:10524000002B16D0484B1A68484B83FB02135911A8
:10525000D317CB1A4FF4FA7101FB03F3D31A002BC7
:105260006BD10421424803F0A2F83F4B00221A60A0
:1052700063E03B4B1B684FF080411846FBF758FC3E
:1052800003461A462D4B1B6819461046FBF7F8FEDD
:105290000346002B21D0294B1A68314B1B68194655
:1052A0001046FBF7F7FE0346002B16D02E4B1A686C
:1052B0002E4B83FB02135911D317CB1A4FF4FA71FB
:1052C00001FB03F3D31A002B37D10421284803F044
:1052D0006EF8254B00221A602FE0184B1B68184906
:1052E0001846FBF7EBFE0346002B1BD1164B1B6841
:1052F00016491846FBF7E2FE0346002B12D1144B69
:105300001B680F491846FBF7D9FE0346002B09D14D
:10531000104B1B680D491846FBF7D0FE0346002BC7
:1053200000D1E2E2FCF73AF80B4B01221A7000229E
:1053300004210F4803F023F8D7E2D6E270100020D2
:105340000000484200002041A41400200000AA42AE
:105350004C1000209C100020441000206C100020F5
:10536000640000200000A040900B0020D34D62108C
:1053700000100140944B1A68944B1B681946104664
:10538000FBF7D6FB034692491846FBF783FE03461C
:10539000002B30D18F4B1A688C4B1B681946104676
:1053A000FBF7C6FB03468A491846FBF773FE034624
:1053B000002B20D1884B1A68844B1B681946104675
:1053C000FBF7B6FB034682491846FBF763FE03462C
:1053D000002B10D1814B1A687C4B1B681946104674
:1053E000FBF7A6FB03467A491846FBF753FE034634
:1053F000002B00F001817A4B1B78002B40F0FC80E1
:10540000784B04221A70714B1B6871491846FBF7E0
:1054100091FB03461A466C4B1B6819461046FBF776
:1054200043FE0346002B28D0684B1B686E49184684
:10543000FBF780FB03461A46634B1B681946104670
:10544000FBF71EFE0346002B17D0684B1A68684B0B
:1054500083FB02139911D317CB1A4FF47A7101FB16
:1054600003F3D31A002B40F0AE800421614802F010
:105470009EFF5E4B00221A60A5E0544B1B685A4900
:105480001846FBF757FB03461A464F4B1B68194655
:105490001046FBF709FE0346002B28D04B4B1B6838
:1054A0004FF080411846FBF745FB03461A46464B32
:1054B0001B6819461046FBF7E3FD0346002B16D088
:1054C0004A4B1A684A4B83FB02135911D317CB1A64
:1054D0004FF4FA7101FB03F3D31A002B73D10421AB
:1054E000444802F064FF414B00221A606BE0374BE6
:1054F0001B684FF080411846FBF71CFB03461A4619
:10550000314B1B6819461046FBF7D8FD0346002BAC
:1055100021D02D4B1A682D4B1B6819461046FBF7FE
:10552000C3FD0346002B16D0304B1A68304B83FB6B
:1055300002135911D317CB1A4FF4FA7101FB03F37D
:10554000D31A002B3FD104212A4802F030FF274B09
:1055500000221A6037E01C4B1A681C4B1B68194666
:105560001046FBF78DFD0346002B21D1194B1A681D
:10557000164B1B6819461046FBF782FD0346002BAD
:1055800016D1154B1A68114B1B6819461046FBF7CC
:1055900077FD0346002B0BD1104B1A680B4B1B6891
:1055A00019461046FBF76CFD0346002B00D19CE129
:1055B000FBF7F4FE0A4B01221A70002204210D4869
:1055C00002F0DDFE91E190E1701000206800002003
:1055D00000002041A41400204C1000209C1000204A
:1055E000641000206C1000200000A040900B0020F0
:1055F000D34D621000100140814B1A68814B1B682B
:1056000019461046FBF794FA03467F491846FBF704
:1056100041FD0346002B00F0CD807C4B1B78002B16
:1056200040F0C8807A4B1B78022B40F0C380794B46
:1056300005221A70734B1B6873491846FBF77AFAF8
:1056400003461A466E4B1B6819461046FBF72CFDA5
:105650000346002B28D06B4B1B686F491846FBF79D
:1056600069FA03461A46664B1B6819461046FBF753
:1056700007FD0346002B17D0684B1A68684B83FB65
:1056800002139911D317CB1A4FF47A7101FB03F36C
:10569000D31A002B40F08D800421624802F087FE6F
:1056A0005E4B00221A6084E0564B1B685A4918462C
:1056B000FBF740FA03461A46514B1B681946104641
:1056C000FBF7F2FC0346002B28D04E4B1B684FF033
:1056D00080411846FBF72EFA03461A46484B1B68D2
:1056E00019461046FBF7CCFC0346002B16D04B4B5B
:1056F0001A684B4B83FB02135911D317CB1A4FF483
:10570000FA7101FB03F3D31A002B52D1042145484F
:1057100002F04DFE414B00221A604AE0394B1B68F3
:105720004FF080411846FBF705FA03461A46344B02
:105730001B6819461046FBF7C1FC0346002B21D01D
:105740002F4B1A682F4B1B6819461046FBF7ACFC11
:105750000346002B16D0314B1A68314B83FB0213E2
:105760005911D317CB1A4FF4FA7101FB03F3D31A73
:10577000002B1ED104212B4802F019FE274B0022DA
:105780001A6016E01E4B1A681E4B1B68194610461D
:10579000FBF776FC0346002B00D1A6E0FBF7FEFDED
:1057A0001A4B01221A70002204211E4802F0E7FD64
:1057B0009BE09AE01C4B1A681C4B1B68194610466C
:1057C000FBF7B6F9034610491846FBF759FC0346A8
:1057D000002B2FD00F4B09221A70144B1A68124B52
:1057E0001B6819461046FBF769FC0346002B00D1E5
:1057F0007BE00F4B01221A70FBF7D0FD75E000BF74
:10580000980B00206C000020000020419010002028
:10581000660900206C1000200000A040900B0020C2
:10582000D34D6210001001407C0000206C0B002062
:105830003C0C0020304B1B78002B03D02E4B1A78E9
:105840002E4B1A702C4B00221A70002204212C4877
:1058500002F095FD2B4B4FF000021A602A4B1B689B
:105860001846FAF7E1FD22A3D3E90023FAF77CFCFE
:1058700003460C4618462146FBF706F90246224B22
:105880001A60224B1B681846FAF7CEFD18A3D3E91D
:105890000023FAF769FC03460C4618462146FBF73D
:1058A000F3F80246194B1A60174B1B684FF00001C2
:1058B0001846FBF7E5FB0346002B03D0124B4FF0D5
:1058C00000021A60114B1B684FF000011846FBF7ED
:1058D000D7FB0346002B00D107E00C4B4FF0000232
:1058E0001A6002E000BF00E000BF00BFB0BD00BF13
:1058F000FCA9F1D24D62503F6C100020A014002092
:10590000001001403410002078100020A01000206A
:10591000B0B500AF9D4B1B6823F000429C4B1B6849
:1059200019461046FBF7CAFB0346002B0DD0994BD6
:105930000C221A70FBF732FD974B01221A700022DD
:105940000421964802F01BFDA4E3954B1A68954B81
:105950001B6819461046FBF7EBF8034692491846B8
:10596000FBF798FB0346002B1DD0904B1B78002BB8
:1059700019D1884B06221A708A4B1A68884B1B680B
:1059800019461046FBF79AFB0346002B00F0828372
:10599000FBF704FD854B01221A70002204217F4889
:1059A00002F0EDFC76E3824B1B6819468148FBF759
:1059B000BFF8034680491846FBF762FB0346002BFD
:1059C00029D17E4B1B6819467D48FBF7B1F8034689
:1059D00075491846FBF754FB0346002B1BD1794B46
:1059E0001B6819467348FBF7A3F80346724918462B
:1059F000FBF746FB0346002B0DD1734B1B68194682
:105A00006F48FBF795F8034667491846FBF738FBE4
:105A10000346002B36D06D4B1B78002B32D15D4BEB
:105A200007221A70624B1B6862491846FBF746FB57
:105A30000346002B1BD1614B1B6861491846FBF7DD
:105A40003DFB0346002B12D15E4B1B68594918469B
:105A5000FBF734FB0346002B09D15B4B1B6858490D
:105A60001846FBF72BFB0346002B00D112E3FBF794
:105A700095FC564B01221A7000220421474802F07F
:105A80007EFC07E34A4B1A68514B1B6819461046C7
:105A9000FBF74EF8034644491846FBF7FBFA03466A
:105AA000002B30D1454B1A68494B1B6819461046EC
:105AB000FBF73EF803463C491846FBF7EBFA034672
:105AC000002B20D13F4B1A68414B1B6819461046EA
:105AD000FBF72EF8034634491846FBF7DBFA03467A
