:020000040800F2
:100000000050002041680008594700086547000873
:100010006B470008714700087747000800000000A0
:100020000000000000000000000000007D47000804
:10003000894700080000000095470008A147000814
:1000400089680008896800088968000889680008CC
:1000500089680008896800088968000889680008BC
:10006000896800088968000889680008AD470008A9
:10007000896800088968000889680008896800089C
:10008000896800088968000889680008896800088C
:10009000C147000889680008896800088968000865
:1000A000896800088968000889680008896800086C
:1000B000D9470008B14F000889680008896800081E
:1000C000896800088968000889680008896800084C
:1000D000896800088968000889680008896800083C
:1000E0008968000889680008896800080000000025
:1000F0000000000000000000000000000000000000
:0C01000000000000000000005FF808F1A3
:1001100010B5054C237833B9044B13B10448AFF341
:1001200000800123237010BD640200200000000045
:10013000ECCC000808B5034B1BB103490348AFF3EF
:10014000008008BD0000000068020020ECCC000820
:10015000034613F8012B002AFBD1181A0138704707
:1001600081F0004102E000BF83F0004330B54FEA68
:1001700041044FEA430594EA050F08BF90EA020FD5
:100180001FBF54EA000C55EA020C7FEA645C7FEA68
:10019000655C00F0E2804FEA5454D4EB5555B8BF8B
:1001A0006D420CDD2C4480EA020281EA030382EAFC
:1001B000000083EA010180EA020281EA0303362D8E
:1001C00088BF30BD11F0004F4FEA01314FF4801C61
:1001D0004CEA113102D0404261EB410113F0004F73
:1001E0004FEA03334CEA133302D0524263EB43032A
:1001F00094EA050F00F0A780A4F10104D5F1200EC8
:100200000DDB02FA0EFC22FA05F2801841F1000122
:1002100003FA0EF2801843FA05F359410EE0A5F1F6
:1002200020050EF1200E012A03FA0EFC28BF4CF027
:10023000020C43FA05F3C01851EBE37101F00045DD
:1002400007D54FF0000EDCF1000C7EEB00006EEBEA
:100250000101B1F5801F1BD3B1F5001F0CD3490874
:100260005FEA30004FEA3C0C04F101044FEA4452CB
:1002700012F5800F80F09A80BCF1004F08BF5FEA52
:10028000500C50F1000041EB045141EA050130BD32
:100290005FEA4C0C404141EB010111F4801FA4F1D5
:1002A0000104E9D191F0000F04BF01460020B1FA2A
:1002B00081F308BF2033A3F10B03B3F120020CDA62
:1002C0000C3208DD02F1140CC2F10C0201FA0CF040
:1002D00021FA02F10CE002F11402D8BFC2F1200CA5
:1002E00001FA02F120FA0CFCDCBF41EA0C0190405B
:1002F000E41AA2BF01EB0451294330BD6FEA0404A4
:100300001F3C1CDA0C340EDC04F11404C4F120028E
:1003100020FA04F001FA02F340EA030021FA04F3A0
:1003200045EA030130BDC4F10C04C4F1200220FAF7
:1003300002F001FA04F340EA0300294630BD21FA35
:1003400004F0294630BD94F0000F83F4801306BFFB
:1003500081F480110134013D4EE77FEA645C18BFEF
:100360007FEA655C29D094EA050F08BF90EA020F86
:1003700005D054EA000C04BF1946104630BD91EA7E
:10038000030F1EBF0021002030BD5FEA545C05D181
:100390004000494128BF41F0004130BD14F58004C0
:1003A0003CBF01F5801130BD01F0004545F0FE4134
:1003B00041F470014FF0000030BD7FEA645C1ABF69
:1003C000194610467FEA655C1CBF0B46024650EAA0
:1003D000013406BF52EA033591EA030F41F40021CC
:1003E00030BD00BF90F0000F04BF0021704730B552
:1003F0004FF4806404F132044FF000054FF0000127
:1004000050E700BF90F0000F04BF0021704730B5E7
:100410004FF4806404F1320410F0004548BF4042BC
:100420004FF000013EE700BF42004FEAE2014FEA11
:1004300031014FEA02701FBF12F07F4393F07F4FEC
:1004400081F06051704732F07F4208BF704793F0EF
:100450007F4F04BF41F40021704730B54FF4607402
:1004600001F0004521F000411CE700BF50EA010205
:1004700008BF704730B54FF000050AE050EA0102AE
:1004800008BF704730B511F0004502D5404261EB1E
:1004900041014FF4806404F132045FEA915C3FF45F
:1004A000D8AE4FF003025FEADC0C18BF03325FEAFC
:1004B000DC0C18BF033202EBDC02C2F1200300FAAD
:1004C00003FC20FA02F001FA03FE40EA0E0021FAD2
:1004D00002F11444BDE600BF70B54FF0FF0C4CF4C0
:1004E000E06C1CEA11541DBF1CEA135594EA0C0F72
:1004F00095EA0C0F00F0DEF82C4481EA030621EAAD
:100500004C5123EA4C5350EA013518BF52EA0335E7
:1005100041F4801143F4801338D0A0FB02CE4FF099
:100520000005E1FB02E506F00042E0FB03E54FF0C9
:100530000006E1FB03569CF0000F18BF4EF0010EC1
:10054000A4F1FF04B6F5007F64F5407404D25FEABD
:100550004E0E6D4146EB060642EAC62141EA555170
:100560004FEAC52040EA5E504FEACE2EB4F1FD0CB2
:1005700088BFBCF5E06F1ED8BEF1004F08BF5FEA30
:10058000500E50F1000041EB045170BD06F00046E2
:1005900046EA010140EA020081EA0301B4EB5C048F
:1005A000C2BFD4EB0C0541EA045170BD41F4801187
:1005B0004FF0000E013C00F3AB8014F1360FDEBFAC
:1005C000002001F0004170BDC4F10004203C35DA88
:1005D0000C341BDC04F11404C4F1200500FA05F30B
:1005E00020FA04F001FA05F240EA020001F00042AC
:1005F00021F0004110EBD37021FA04F642EB060122
:100600005EEA430E08BF20EAD37070BDC4F10C044B
:10061000C4F1200500FA04F320FA05F001FA04F20F
:1006200040EA020001F0004110EBD37041F10001FB
:100630005EEA430E08BF20EAD37070BDC4F1200506
:1006400000FA05F24EEA020E20FA04F301FA05F26E
:1006500043EA020321FA04F001F0004121FA04F216
:1006600020EA020000EBD3705EEA430E08BF20EAE6
:10067000D37070BD94F0000F0FD101F00046400020
:1006800041EB010111F4801F08BF013CF7D041EAA2
:10069000060195F0000F18BF704703F000465200A6
:1006A00043EB030313F4801F08BF013DF7D043EA77
:1006B0000603704794EA0C0F0CEA135518BF95EA2D
:1006C0000C0F0CD050EA410618BF52EA4306D1D1B4
:1006D00081EA030101F000414FF0000070BD50EAD3
:1006E000410606BF1046194652EA430619D094EA5D
:1006F0000C0F02D150EA013613D195EA0C0F05D147
:1007000052EA03361CBF104619460AD181EA03019A
:1007100001F0004141F0FE4141F470014FF0000052
:1007200070BD41F0FE4141F4780170BD70B54FF0ED
:10073000FF0C4CF4E06C1CEA11541DBF1CEA13556D
:1007400094EA0C0F95EA0C0F00F0A7F8A4EB05044F
:1007500081EA030E52EA03354FEA013100F0888046
:100760004FEA03334FF0805545EA131343EA12630F
:100770004FEA022245EA111545EA10654FEA0026C4
:100780000EF000419D4208BF964244F1FD0404F57D
:10079000407402D25B084FEA3202B61A65EB0305D9
:1007A0005B084FEA32024FF480104FF4002CB6EB96
:1007B000020E75EB030E22BFB61A754640EA0C0016
:1007C0005B084FEA3202B6EB020E75EB030E22BF56
:1007D000B61A754640EA5C005B084FEA3202B6EB97
:1007E000020E75EB030E22BFB61A754640EA9C0056
:1007F0005B084FEA3202B6EB020E75EB030E22BF26
:10080000B61A754640EADC0055EA060E18D04FEAE3
:10081000051545EA16754FEA06164FEAC30343EA83
:1008200052734FEAC2025FEA1C1CC0D111F4801F50
:100830000BD141EA00014FF000004FF0004CB6E749
:1008400011F4801F04BF01430020B4F1FD0C88BFE8
:10085000BCF5E06F3FF6AFAEB5EB030C04BFB6EBF3
:10086000020C5FEA500C50F1000041EB045170BDE6
:100870000EF0004E4EEA113114EB5C04C2BFD4EB13
:100880000C0541EA045170BD41F480114FF0000E97
:10089000013C90E645EA060E8DE60CEA135594EA13
:1008A0000C0F08BF95EA0C0F3FF43BAF94EA0C0F16
:1008B0000AD150EA01347FF434AF95EA0C0F7FF48B
:1008C00025AF104619462CE795EA0C0F06D152EADF
:1008D00003353FF4FDAE1046194622E750EA4106C3
:1008E00018BF52EA43067FF4C5AE50EA41047FF4D4
:1008F0000DAF52EA43057FF4EBAE12E74FF0FF3C39
:1009000006E000BF4FF0010C02E000BF4FF0010C09
:100910004DF804CD4FEA410C7FEA6C5C4FEA430C82
:1009200018BF7FEA6C5C1BD001B050EA410C0CBFD1
:1009300052EA430C91EA030F02BF90EA020F002033
:10094000704710F1000F91EA030F58BF994208BF9A
:1009500090422CBFD8176FEAE37040F00100704757
:100960004FEA410C7FEA6C5C02D150EA013C07D1AE
:100970004FEA430C7FEA6C5CD6D152EA033CD3D0F9
:100980005DF8040B704700BF8446104662468C46F3
:100990001946634600E000BF01B5FFF7B7FF002826
:1009A00048BF10F1000F01BD4DF808EDFFF7F4FF4F
:1009B0000CBF012000205DF808FB00BF4DF808EDDA
:1009C000FFF7EAFF34BF012000205DF808FB00BFFD
:1009D0004DF808EDFFF7E0FF94BF012000205DF81F
:1009E00008FB00BF4DF808EDFFF7CEFF94BF0120D4
:1009F00000205DF808FB00BF4DF808EDFFF7C4FFCD
:100A000034BF012000205DF808FB00BF4FEA410C15
:100A10007FEA6C5C02D150EA013C0AD14FEA430CF8
:100A20007FEA6C5C02D152EA033C02D14FF0000035
:100A300070474FF0010070474FEA410212F5001273
:100A400015D211D56FF47873B3EB625212D94FEA15
:100A5000C12343F0004343EA505311F0004F23FAFF
:100A600002F018BF404270474FF00000704750EA54
:100A7000013005D111F0004008BF6FF00040704711
:100A80004FF00000704700BF4FEA4102B2F1E0436F
:100A900024BFB3F5001CDCF1FE5C0DD901F0004C65
:100AA0004FEAC0024CEA5070B2F1004F40EB8300B5
:100AB00008BF20F00100704711F0804F21D113F1E1
:100AC0003872BCBF01F00040704741F480114FEA1A
:100AD0005252C2F11802C2F1200C10FA0CF320FAA3
:100AE00002F018BF40F001004FEAC1234FEAD323C0
:100AF00003FA0CFC40EA0C0023FA02F34FEA43032A
:100B0000CCE77FEA625307D150EA01331EBF4FF0B2
:100B1000FE4040F44000704701F0004040F0FE40CD
:100B200040F40000704700BF80F0004002E000BFCA
:100B300081F0004142001FBF5FEA410392EA030FC8
:100B40007FEA226C7FEA236C6AD04FEA1262D2EB12
:100B50001363C1BFD218414048404140B8BF5B4217
:100B6000192B88BF704710F0004F40F4000020F0B0
:100B70007F4018BF404211F0004F41F4000121F0C6
:100B80007F4118BF494292EA030F3FD0A2F1010210
:100B900041FA03FC10EB0C00C3F1200301FA03F14E
:100BA00000F0004302D5494260EB4000B0F5000F71
:100BB00013D3B0F1807F06D340084FEA310102F130
:100BC0000102FE2A51D2B1F1004F40EBC25008BFE2
:100BD00020F0010040EA03007047490040EB0000AC
:100BE00010F4000FA2F10102EDD1B0FA80FCACF1DB
:100BF000080CB2EB0C0200FA0CF0AABF00EBC250DA
:100C000052421843BCBFD0401843704792F0000FC7
:100C100081F4000106BF80F400000132013BB5E71A
:100C20004FEA41037FEA226C18BF7FEA236C21D090
:100C300092EA030F04D092F0000F08BF08467047F5
:100C400090EA010F1CBF0020704712F07F4F04D1C3
:100C5000400028BF40F00040704712F100723CBFD6
:100C600000F50000704700F0004343F0FE4040F400
:100C7000000070477FEA226216BF08467FEA2363BE
:100C80000146420206BF5FEA412390EA010F40F4A9
:100C9000800070474FF0000304E000BF10F00043F5
:100CA00048BF40425FEA000C08BF704743F09643DC
:100CB00001464FF000001CE050EA010208BF7047F7
:100CC0004FF000030AE000BF50EA010208BF70477E
:100CD00011F0004302D5404261EB41015FEA010C93
:100CE00002BF84460146002043F0B64308BFA3F18B
:100CF0008053A3F50003BCFA8CF2083AA3EBC2536D
:100D000010DB01FA02FC634400FA02FCC2F120028B
:100D1000BCF1004F20FA02F243EB020008BF20F0C2
:100D20000100704702F1200201FA02FCC2F1200228
:100D300050EA4C0021FA02F243EB020008BF20EA1D
:100D4000DC7070474FF0FF0C1CEAD0521EBF1CEA4B
:100D5000D15392EA0C0F93EA0C0F6FD01A4480EA39
:100D6000010C400218BF5FEA41211ED04FF0006322
:100D700043EA501043EA5111A0FB01310CF000404E
:100D8000B1F5000F3EBF490041EAD3715B0040EA74
:100D9000010062F17F02FD2A1DD8B3F1004F40EB44
:100DA000C25008BF20F00100704790F0000F0CF017
:100DB000004C08BF49024CEA502040EA51207F3ADB
:100DC000C2BFD2F1FF0340EAC250704740F40000B6
:100DD0004FF00003013A5DDC12F1190FDCBF00F0A7
:100DE00000407047C2F10002410021FA02F1C2F155
:100DF000200200FA02FC5FEA310040F1000053EAF1
:100E00004C0308BF20EADC70704792F0000F00F03E
:100E1000004C02BF400010F4000F013AF9D040EA44
:100E20000C0093F0000F01F0004C02BF490011F4D8
:100E3000000F013BF9D041EA0C018FE70CEAD153D6
:100E400092EA0C0F18BF93EA0C0F0AD030F0004C56
:100E500018BF31F0004CD8D180EA010000F000400A
:100E6000704790F0000F17BF90F0004F084691F0C8
:100E7000000F91F0004F14D092EA0C0F01D1420202
:100E80000FD193EA0C0F03D14B0218BF084608D1CB
:100E900080EA010000F0004040F0FE4040F4000015
:100EA000704740F0FE4040F4400070474FF0FF0CA8
:100EB0001CEAD0521EBF1CEAD15392EA0C0F93EAEF
:100EC0000C0F69D0A2EB030280EA010C49024FEA41
:100ED000402037D04FF0805343EA111143EA1013FA
:100EE0000CF000408B4238BF5B0042F17D024FF4B2
:100EF000000C8B4224BF5B1A40EA0C00B3EB510F8D
:100F000024BFA3EB510340EA5C00B3EB910F24BF75
:100F1000A3EB910340EA9C00B3EBD10F24BFA3EBFA
:100F2000D10340EADC001B0118BF5FEA1C1CE0D1C2
:100F3000FD2A3FF650AF8B4240EBC25008BF20F075
:100F4000010070470CF0004C4CEA50207F32C2BFC9
:100F5000D2F1FF0340EAC250704740F400004FF066
:100F60000003013A37E792F0000F00F0004C02BF97
:100F7000400010F4000F013AF9D040EA0C0093F061
:100F8000000F01F0004C02BF490011F4000F013BBB
:100F9000F9D041EA0C0195E70CEAD15392EA0C0F23
:100FA00008D142027FF47DAF93EA0C0F7FF470AF5B
:100FB000084676E793EA0C0F04D14B023FF44CAF9E
:100FC00008466EE730F0004C18BF31F0004CCAD133
:100FD00030F000427FF45CAF31F000437FF43CAF6F
:100FE0005FE700BF4FF0FF3C06E000BF4FF0010C91
:100FF00002E000BF4FF0010C4DF804CD4FEA400273
:101000004FEA41037FEA226C18BF7FEA236C11D0BC
:1010100001B052EA530C18BF90EA010F58BFB2EB6F
:10102000030088BFC81738BF6FEAE17018BF40F0EF
:10103000010070477FEA226C02D15FEA402C05D1A3
:101040007FEA236CE4D15FEA412CE1D05DF8040B28
:10105000704700BF844608466146FFE70FB5FFF7BB
:10106000C9FF002848BF10F1000F0FBD4DF808ED73
:10107000FFF7F4FF0CBF012000205DF808FB00BF64
:101080004DF808EDFFF7EAFF34BF012000205DF8BE
:1010900008FB00BF4DF808EDFFF7E0FF94BF01200B
:1010A00000205DF808FB00BF4DF808EDFFF7D2FF08
:1010B00094BF012000205DF808FB00BF4DF808ED4B
:1010C000FFF7C8FF34BF012000205DF808FB00BF18
:1010D0004FEA4002B2F1FE4F0FD34FF09E03B3EB45
:1010E00012620DD94FEA002343F0004310F0004F85
:1010F00023FA02F018BF404270474FF000007047DB
:1011000012F1610F01D1420205D110F0004008BF79
:101110006FF0004070474FF00000704742000ED261
:10112000B2F1FE4F0BD34FF09E03B3EB126209D422
:101130004FEA002343F0004323FA02F070474FF0D8
:101140000000704712F1610F01D1420202D14FF04D
:10115000FF3070474FF00000704700BF80B500AF10
:101160001E4B1B78012B1BD01D4B1B78012B17D05E
:101170001C4B1B78012B13D01B4B1B78012B0FD062
:101180001A4B1B78012B0BD0194B1B78012B07D066
:10119000184B1B78012B03D0174B1B78012B02D166
:1011A00000F0FCF817E000224FF48071134807F0BC
:1011B000EEFA01224FF40071114807F0E8FA114BE2
:1011C00002221A70104B00221A70104B01221A7062
:1011D0000F4B00221A7000BF80BD00BFB11000206D
:1011E00088100020B0100020C0100020E410002063
:1011F000820C0020800C00207010002000080140AC
:1012000000100140A809002000000020010000207B
:101210008402002080B500AF1C4B1B78012B17D037
:101220001B4B1B78012B13D01A4B1B78012B0FD0B3
:10123000194B1B78012B0BD0184B1B78012B07D0B7
:10124000174B1B78012B03D0164B1B78012B02D1B7
:1012500000F0A4F817E001224FF48071124807F063
:1012600096FA00224FF40071104807F090FA104BE4
:1012700001221A700F4B01221A700F4B00221A70B4
:101280000E4B00221A7000BF80BD00BFF514002075
:1012900088100020B0100020DC100020810C0020FD
:1012A000820C002070100020000801400010014056
:1012B000A809002000000020010000208402002076
:1012C00080B500AF244B1B78012B27D0234B1B7814
:1012D000012B23D0224B1B78012B1FD0214B1B78D5
:1012E000012B1BD0204B1B78012B17D01F4B1B78D9
:1012F000012B13D01E4B1B78012B0FD01D4B1B78DD
:10130000012B0BD01C4B1B78012B07D01B4B1B78E0
:10131000012B03D01A4B1B78012B02D100F03EF8B1
:1013200017E001224FF48071164807F030FA0122CD
:101330004FF40071144807F02AFA144B03221A7074
:10134000134B01221A70134B01221A70124B002208
:101350001A7000BF80BD00BFB1100020F51400203E
:1013600088100020B0100020C0100020DC100020E9
:10137000E4100020810C0020820C0020800C002052
:10138000701000200008014000100140A809002052
:1013900000000020010000208402002080B500AF82
:1013A00000224FF480710F4807F0F1F900224FF44A
:1013B00000710D4807F0EBF90C4B00221A700C4B32
:1013C00000221A700B4B00221A700B4B01221A706C
:1013D00000220421044807F0DAF900F011F800BFF8
:1013E00080BD00BF0008014000100140A809002096
:1013F0000000002001000020840200200000000006
:1014000098B500AF444B1B681846FFF70DF84FF036
:101410000002424BFFF78AF903460C461846214664
:1014200039A3D3E90023FFF757F803460C461846C3
:10143000214637A3D3E90023FEF796FE03460C4668
:1014400018462146FFF720FB0246354B1A60354B04
:101450001A68354B1B6819461046FFF769FB0346AF
:1014600019463248FFF722FD03461A46304B1A60F0
:101470002F4B1A682C4B1B6819461046FFF762FC6D
:10148000034683F000432B4A1360294B1A68244B10
:101490001B6819461046FFF755FC03461A46254BB4
:1014A0001B6819461046FFF745FB03461A46224BB8
:1014B0001A601B4B1B6821491846FFF7FFFD0346C6
:1014C000002B03D0164B194A1A601BE0144B1B6803
:1014D00016491846FFF7F2FD0346002B03D0104BC8
:1014E000124A1A600EE00E4B1B684FF000011846BE
:1014F000FFF7C6FD0346002B00D103E0084B4FF079
:1015000000021A6000BF98BD77AA50A5126F624012
:10151000EA1E0C0201EB7E408C10002000002E40E1
:10152000DC0B00207C000020800000200000C8426E
:10153000C810002094100020AC0B002000000243D3
:1015400080B584B000AF7A4B1B687A491846FFF724
:10155000F9FB03461846FFF7E1FD03469AB2764BC6
:101560001A80764B1B6876491846FFF7E3FA034664
:1015700070491846FFF7E6FB03461846FFF7CEFD15
:1015800003469AB26F4B1A806F4B1B686949184625
:10159000FFF7D8FB03461846FFF7C0FD03469AB293
:1015A0006A4B1A806A4B1B686A4A1360694B1A6857
:1015B000694B1B6819461046FFF762FD0346002B76
:1015C00003D0654B1B68634A1360624B1A68634B18
:1015D0001B6819461046FFF753FD0346002B03D046
:1015E0005E4B1B685B4A13605A4B1A685C4B1B6866
:1015F00019461046FFF744FD0346002B03D0584B15
:101600001B68544A1360534B1B6856491846FFF732
:1016100091FA034654491846FFF794FB03461846CF
:10162000FFF77CFD03469AB2504B1A80504B1B6863
:1016300040491846FFF786FB03461846FFF76EFD44
:1016400003469AB24B4B1A804B4B1B681846FFF768
:101650003FFD03469AB2494B1A80494B1A88494BC1
:101660001A800023BB600AE0474ABB6832F81310B7
:10167000464ABB6822F82310BB680133BB60BB68D5
:101680000E2BF1DD424B1B78012B40F0DB81414BEF
:10169000414A5A60284B1A78404B1A70264B5A78A8
:1016A0003E4B5A70274B1A783C4B9A70254B5A7810
:1016B0003A4BDA70254B1A78384B1A71234B5A780B
:1016C000364B5A71294B1A78344B9A71274B5A78FA
:1016D000324BDA712F4B08221A6105F02FF978602E
:1016E00008E005F02BF902467B68D31A40F6B832C1
:1016F000934206D82A4806F02FF80346002BF0D074
:1017000000E000BF274B254A2249254805F006FF87
:101710000346002B07D0234B1B681946204805F0D1
:10172000D7FF01F0A5FB4FF47A73FB603FE000BFE9
:101730008C1000200000C842AC070020A810002038
:1017400000004842EC060020AC0B0020F40600200C
:10175000BC1000204C070020F8140020901000203E
:10176000F010002000002042000020413807002037
:1017700010000020A407002004000020B80600206C
:10178000AA090020E406002030090020F806002005
:10179000850200208C070020B1BB0B0BC80600207F
:1017A0002408002070070020FB68013BFB60FB68F9
:1017B000012BF9DC8E4B8F4A5A608F4B1A788F4B76
:1017C0001A708D4B5A788D4B5A708D4B1A788B4B03
:1017D0009A708B4B5A78894BDA708A4B1A78874B00
:1017E0001A71884B5A78854B5A71874B1B7803F0D6
:1017F0000103DAB2814B9A71804B9B795AB2834BC9
:101800001B785B005BB203F002035BB213435BB275
:10181000DAB27A4B9A71794B9B795AB27C4B1B782E
:101820009B005BB203F004035BB213435BB2DAB21A
:10183000724B9A71714B9B795AB2764B1B78DB00D5
:101840005BB203F008035BB213435BB2DAB26B4BDB
:101850009A716A4B9B795AB26F4B1B781B015BB232
:1018600003F010035BB213435BB2DAB2634B9A71BD
:10187000624B9B795AB2674B1B785B015BB203F0FA
:1018800020035BB213435BB2DAB25C4B9A715B4BE1
:101890009B795AB2604B1B789B015BB203F040030B
:1018A0005BB213435BB2DAB2544B9A71534B9B79E0
:1018B0005AB25A4B1B78DB015BB213435BB2DAB20C
:1018C0004E4B9A71564B1B7803F00103DAB24B4B27
:1018D000DA714A4BDB795AB2524B1B785B005BB230
:1018E00003F002035BB213435BB2DAB2434BDA712B
:1018F000424BDB795AB24C4B1B789B005BB203F036
:1019000004035BB213435BB2DAB23C4BDA713B4B7C
:10191000DB795AB2454B1B78DB005BB203F008035E
:101920005BB213435BB2DAB2344BDA71334BDB791F
:101930005AB23F4B1B781B015BB203F010035BB242
:1019400013435BB2DAB22D4BDA712C4BDB795AB20E
:10195000384B1B785B015BB203F020035BB213438F
:101960005BB2DAB2254BDA71244BDB795AB2324BD7
:101970001B789B015BB203F040035BB213435BB285
:10198000DAB21E4BDA711A4B08221A6104F0D6FF44
:10199000386008E004F0D2FF02463B68D31A40F6F4
:1019A000B832934206D8254805F0D6FE0346002BF0
:1019B000F0D000E000BF224B104A0D491F4805F04F
:1019C000ADFD0346002B07D01D4B1B6819461B4875
:1019D00005F07EFE01F04CFA4FF47A73FB6002E0F2
:1019E000FB68013BFB60FB68012BF9DC79E000BF81
:1019F0008C070020B1BB1B0BA4070020C8060020E9
:101A0000B8060020E4060020820C0020C010002050
:101A1000DC10002088100020B0100020800C002076
:101A2000B1100020F5140020E410002070100020F8
:101A30000000002001000020840200202408002073
:101A400070070020294B1B780133DAB2274B1A703C
:101A5000274B1B78002B44D1264B1B78002B40D101
:101A6000224B1B78312B3CD9234B244A5A60244B00
:101A700000221A70224B00225A70214B00229A70C9
:101A80001F4B0022DA701E4B00221A711C4B0022E1
:101A90005A711B4B55229A71194B0022DA71164B61
:101AA00008221A6100BF174805F056FE0346002BB6
:101AB000F9D0154B124A1049124805F02FFD034684
:101AC000002B01D001F0D4F94FF47A73FB6002E0EF
:101AD000FB68013BFB60FB68012BF9DC034B002238
:101AE0001A7000BF1037BD4680BD00BF87020020BE
:101AF00085020020860200208C070020B1BB0B0E5F
:101B0000C8060020240800207007002080B584B09B
:101B100000AF78608F4B904A0021786805F050FE46
:101B20000346002B40F0078110218C4806F047FE49
:101B3000894B1B68E22B40F08680864B9B79552BA6
:101B400055D1874B1B78002B51D1854B01221A7040
:101B5000844B08221A61844BAA229A7100BF7868CC
:101B600005F0FAFD0346002BF9D0804B7E4A7D49F3
:101B7000786805F0D3FC0346002B01D001F078F91A
:101B80004FF47A73FB6002E0FB68013BFB60FB688B
:101B9000012BF9DC764B1B6876491846FFF770FA83
:101BA0000346002B0DD0744B1B78012B09D0734BCF
:101BB00001221A70704B01221A70714B09221A60AF
:101BC00015E06B4B1B686B491846FFF76DFA03462F
:101BD000002B0CD0684B1B78012B08D0674B0022E0
:101BE0001A70654B01221A70654B08221A60594B16
:101BF0009B79AA2B27D15A4B1B78012B23D15F4B02
:101C00001B78002B15D15C4B1B78002B11D0584B47
:101C10001B685C491846FFF733FA0346002B05D0D2
:101C2000564B01221A70564B0A221A60544B0C2252
:101C30001A60554B01221A70504B1B78012B02D1B0
:101C4000524B02221A70444B1B68B3F5D97F31D135
:101C50004D4B1B78002B2DD13E4B1B7803F001031D
:101C6000002B14D0464B03221A60494B01221A70F4
:101C7000384B1B785B08DBB203F00303DAB2434B4B
:101C80001A70414B01221A70354B01221A70314BE8
:101C9000DB7903F00103002B0CD02E4B5B78002B7B
:101CA00008D13B4B01221A70384B00221A70344B7A
:101CB00001221A60284B5B68364A93423BD1324B73
:101CC0001B78012B37D1234B1B78002B18D1214BCC
:101CD000DB79002B14D12A4B02221A601E4B002202
:101CE0005A60294B00221A701D4B00221A70284B93
:101CF00000221A70254B00221A70274B00221A70FE
:101D0000154B00221A60134B1B78DB08DBB2002B4B
:101D100014BF01230023DBB21A46204B1A700D4B6F
:101D20001B781B09DBB2002B14BF01230023DBB29D
:101D30001A461B4B1A70084B00225A60064B0022B1
:101D40001A6008220021034808F026FD00BF103762
:101D5000BD4680BDD0060020540700200010014081
:101D6000860200208C070020C80600207007002093
:101D7000DC0B00200000B442890200208802002011
:101D80008002002000008C4285020020D80B002039
:101D90008C090020B1BB2B1BA80900209810002043
:101DA000FC10002080B58AB000AF00237B610023C7
:101DB000BB610123FB6100233B6000237B600023A8
:101DC000BB600023FB6000233B6101233B620E23C9
:101DD0007B623B461946104805F093FA0346002BF8
:101DE00001D001F045F80C4805F054FB0346002BE8
:101DF00001D001F03DF80221074805F0F2FD074B44
:101E000000221A75054B0022DA60044B04229A6006
:101E100000BF2837BD4680BD240800208C07002065
:101E200080B584B000AF3B1D00221A605A609A60F2
:101E30003D4B3E4A1A603C4B4FF480729A603A4BDD
:101E400001221A73384B00221A75374B4FF4602267
:101E5000DA61354B00225A60334B06221A61324850
:101E600004F098FD0346002B01D001F001F8002397
:101E70007B600123BB600723FB603B1D19462A489A
:101E800004F05AFF0346002B01D000F0F1FF0523B8
:101E90007B600223BB603B1D1946234804F04CFFC6
:101EA0000346002B01D000F0E3FF01237B600323F6
:101EB000BB603B1D19461C4804F03EFF0346002B47
:101EC00001D000F0D5FF02237B600423BB603B1DE3
:101ED0001946154804F030FF0346002B01D000F0EE
:101EE000C7FF03237B600523BB600623FB603B1D0C
:101EF00019460D4804F020FF0346002B01D000F0E6
:101F0000B7FF04237B600623BB603B1D19460648D0
:101F100004F012FF0346002B01D000F0A9FF00BF20
:101F20001037BD4680BD00BFB0070020002401402F
:101F300080B588B000AF786007F1100300221A6006
:101F40005A609A60DA607B681B68284A934249D1DC
:101F5000274B9B69264A43F400739361244B9B698A
:101F600003F40073FB60FB68214B9B69204A43F03C
:101F7000040393611E4B9B6903F00403BB60BB68C1
:101F80003F233B6103237B6107F110031946194886
:101F900006F08CFA184B194A1A60174B00225A6047
:101FA000154B00229A60144B8022DA60124B4FF4DA
:101FB00080721A61104B4FF480625A610E4B2022DE
:101FC0009A610D4B0022DA610B4806F05BF803467C
:101FD000002B01D000F04CFF7B68074A1A62064ACA
:101FE0007B68536200BF2037BD4680BD002401409E
:101FF0000010024000080140E007002008000240F5
:1020000080B500AF174B184A1A60164B08225A6069
:10201000144B00229A60134B0022DA60114B4FF4EC
:10202000A0221A610F4B00225A610E4B00221A7631
:102030000C4B00225A760B4B00229A76094B002259
:10204000DA76084B00221A77064B00225A770548A9
:1020500005F05CF80346002B01D000F009FF00BF3B
:1020600080BD00BF240800200064004080B58AB015
:1020700000AF786007F1140300221A605A609A607A
:10208000DA607B681B68294A93424BD1284BDB6995
:10209000274A43F00073D361254BDB6903F00073DB
:1020A0003B613B69224B9B69214A43F008039361E2
:1020B0001F4B9B6903F00803FB60FB684FF48073C0
:1020C0007B610023BB610023FB6107F11403194608
:1020D000184806F0EBF94FF400737B610223BB61F3
:1020E00003233B6207F114031946124806F0DEF998
:1020F000114B5B687B627B6A23F4C0437B627B6A23
:1021000043F0E0637B627B6A43F480437B620A4A6C
:102110007B6A536000220021142005F07CFF14200C
:1021200005F095FF00BF2837BD4680BD0064004024
:1021300000100240000C01400000014080B582B058
:1021400000AF0C4B5B690B4A43F001035361094B31
:102150005B6903F001037B607B68002200210B2098
:1021600005F059FF0B2005F072FF00BF0837BD4690
:1021700080BD00BF0010024080B588B000AF07F1FD
:10218000100300221A605A609A60DA603F4B9B6924
:102190003E4A43F0100393613C4B9B6903F01003EC
:1021A000FB60FB68394B9B69384A43F00403936139
:1021B000364B9B6903F00403BB60BB68334B9B69E0
:1021C000324A43F008039361304B9B6903F00803E4
:1021D0007B607B6800224FF40D712D4806F0D7FA22
:1021E000002241F203012B4806F0D1FA00224FF4FD
:1021F0008071294806F0CBFA03233B6100237B6101
:102200000223BB6107F110031946214806F04EF97D
:102210004FF40D733B6101237B610023BB610223FB
:10222000FB6107F110031946194806F03FF941F226
:1022300003033B6101237B610023BB610223FB613C
:1022400007F110031946134806F030F904233B61E7
:1022500000237B610023BB6107F1100319460D4881
:1022600006F024F94FF480733B6101237B61002366
:10227000BB610223FB6107F110031946064806F013
:1022800015F900BF2037BD4680BD00BF00100240D9
:1022900000100140000C01400008014080B500AF73
:1022A000124B134A1A60114B124A5A600F4B00220C
:1022B0009A600E4B0022DA600C4B4FF480421A6198
:1022C0000A4B00225A61094B00229A61074B0022F7
:1022D000DA61064B00221A62044806F089FA0346C6
:1022E000002B01D000F0C4FD00BF80BD4C080020D1
:1022F00000540040801A060080B500AF124B134A0C
:102300001A60114B124A5A600F4B00229A600E4B12
:102310000022DA600C4B4FF480421A610A4B002213
:102320005A61094B00229A61074B0022DA61064B81
:1023300000221A62044806F05BFA0346002B01D023
:1023400000F096FD00BF80BDA008002000580040AE
:10235000A086010080B58AB000AF786007F118034D
:1023600000221A605A609A60DA607B681B682B4A08
:10237000934224D12A4B9B69294A43F00803936175
:10238000274B9B6903F008037B617B69C023BB611A
:102390001223FB6103237B6207F1180319462148CE
:1023A00006F084F81E4BDB691D4A43F40013D36129
:1023B0001B4BDB6903F400133B613B6929E07B683D
:1023C0001B68194A934224D1154B9B69144A43F068
:1023D00008039361124B9B6903F00803FB60FB68E1
:1023E0004FF44063BB611223FB6103237B6207F15F
:1023F000180319460B4806F059F8094BDB69084ADF
:1024000043F48003D361064BDB6903F48003BB60B4
:10241000BB6800BF2837BD4680BD00BF00540040E8
:1024200000100240000C01400058004080B500AF91
:10243000094B0A4A1A60084B05225A60064B40F6BF
:10244000FF729A60044806F017FF0346002B01D084
:1024500000F00EFD00BF80BDF408002000300040F9
:1024600080B500AF04F012FA00F0F4F805F0F8FFC0
:10247000FFF782FEFFF762FEFFF7D2FCFFF7C0FD19
:10248000FFF70CFFFFF738FF01F0FAFD04F0E8F862
:1024900004F010F9FFF7CAFF04F008F804F052F84E
:1024A00000F0ECFC00F046FD0A2004F051FA5C4913
:1024B0005C4800F065FF5C4B00221A605B4B4FF0FC
:1024C00000021A6013E0584B1B68554A52F823204B
:1024D000564B1B6819461046FEF72CFB03461A465E
:1024E000524B1A60504B1B6801334F4A13604E4BDE
:1024F0001B680E2BE7DD0A2004F02AFAFFF752FCD6
:1025000000F002F94A4B01221A704FF47A7004F07D
:102510001FFA484B00221A700121474806F020F9A3
:102520000346002B09D00221434806F019F903465F
:10253000002B02D100F014FC23E001213E4806F0FC
:102540000FF90346002B09D102213B4806F008F998
:102550000346002B02D000F0BDFB12E001213648FB
:1025600006F0FEF80346002B09D00221324806F09F
:10257000F7F80346002B02D000F0A0F901E000F0CC
:102580006DF92E4806F0B1FE2549264800F0F8FE08
:10259000284B1B78012B36D1294B1B78012B03D0FC
:1025A0001F49204800F0ECFE1D4801F0B5FC254B0A
:1025B0001B681846FDF738FF17A3D3E90023FEF781
:1025C000FDF90346002B08D0184B1B681E4918461E
:1025D000FEF774FD0346002B03D11C4B1B78012B27
:1025E00005D11B4B1B88184601F02AFC05E0184B4F
:1025F00000221A80002001F023FC00F007FC1021CB
:102600000D4806F0DCF80D4806F06FFE012004F0DE
:102610009FF981E7AFF300809A9999999999B9BF89
:10262000500900203009002000090020B40B0020D0
:102630008A0200208C09002000100140F4080020CC
:10264000A8090020A810002000005C42B80B002060
:10265000E60B002080B594B000AF07F128032822D4
:102660000021184608F098F807F1140300221A60B8
:102670005A609A60DA601A613B1D00221A605A6043
:102680009A60DA600A23BB620123BB631023FB63F9
:1026900001233B6402237B640023BB644FF460137B
:1026A000FB6407F12803184606F02EFE0346002BB4
:1026B00001D000F0DDFB0F237B610223BB6100230F
:1026C000FB614FF480633B6200237B6207F11403DC
:1026D0000221184607F098F80346002B01D000F0BD
:1026E000C7FB02237B604FF40043FB603B1D184691
:1026F00007F026FA0346002B01D000F0B9FB00BF1B
:102700005037BD4680BD000090B583B000AF1022A9
:102710004549464808F01EF800237B601CE0424A09
:102720007B6813441B78FB7008F016F80246FB78B0
:10273000013313441B7803F00303022B02D1FB780F
:10274000203B00E0FB78D9B2394A7B6813440A4643
:102750001A707B6801337B607B68052BDFDD062206
:102760003449354804F0EEF901F01AFD002001F07B
:1027700003FE01F0D3FD01220421304806F007F8E2
:102780004FF4FA7004F0E4F804212C4806F017F82E
:102790004FF4FA7004F0DCF80421284806F00FF832
:1027A000642004F0D5F80421244806F008F86420D9
:1027B00004F0CEF80421214806F001F8642004F06A
:1027C000C7F804211D4805F0FAFF642004F0C0F8A2
:1027D0001B4A1C4B144607CB20606160A2601B782B
:1027E00023730021052001F03DFE01221649144803
:1027F00001F0CEFE01F092FD144807F0E3FA144810
:1028000007F0E0FA4FF47A7004F0A2F8114B0022BE
:102810001A70FEF7C3FD104B4FF000021A6000BFA4
:102820000C37BD4690BD00BF94090020B1BB0B0022
:102830001809002004090020B00700200010014002
:10284000BC0B002008CD0008080000204015002027
:1028500000150020A80900209806002098B500AFB8
:10286000114B00221A70114B00221A70002001F047
:1028700083FD0F4A0F4B144607CB20606160A260B6
:102880001B7823731C21142001F0ECFD01220A495E
:10289000074801F07DFE01F041FDFEF77FFD0120BC
:1028A00004F056F800BF98BD2C090020B80B00209A
:1028B000BC0B002008CD0008080000202DE9F04FD7
:1028C00087B006AF554B00221A70554B00221A7084
:1028D000544B1B78002B58D1002001F04DFD524A7B
:1028E000524B15461C460FCC28606960AA60EB600D
:1028F0002388A2782B821346AB741221002001F0AA
:10290000B1FD01224A49484801F042FE464A494B7E
:10291000144607CB20606160A2602621002001F0F0
:10292000A1FD01224249404801F032FE01F0F6FCCF
:1029300000221021404805F02AFFFEF72FFD3F4BF3
:1029400000221A703E4B00221A703E4B00221A7071
:102950003D4B00221A703D4B00221A703C4B002266
:102960001A703C4B00221A703B4B00221A703B4BF2
:1029700000221A703A4B00221A703A4B00221A7049
:10298000394B1B68394A13606AE1002001F0F4FCFE
:102990001021294805F013FF354B1B78012B0ED170
:1029A000344A3549204808F04FFB0021002001F04F
:1029B00059FD01221E491C4801F0EAFD7AE02C4B2A
:1029C0001B78022B0ED12B4A2C49174808F03CFBF0
:1029D0000021002001F046FD01221549124801F0B6
:1029E000D7FD67E0224B1B78032B4BD10E4A244BBB
:1029F00015461C460FCC28606960AA60EB602388EE
:102A0000A2782B821346AB740021002001F02AFD2E
:102A100001220749044801F0BBFD4BE02C090020CE
:102A2000B80B00208C090020BC0B002018CD00083A
:102A3000080000202CCD0008001001408810002064
:102A4000B0100020E4100020810C0020B110002004
:102A5000F5140020C0100020DC100020820C0020A3
:102A600070100020800C00200811002004110020AC
:102A7000A80900201809002038CD000848CD00081A
:102A800058CD00087A4B1B78002B13D1794A7A4B2A
:102A9000144607CB20606160A2601A889B78A281EF
:102AA000A3730021002001F0DDFC0122734971486D
:102AB00001F06EFD724B1B681846FDF7B5FC05462C
:102AC0000E46704B1B681846FDF7AEFC03460C46DD
:102AD000CDE900342A4633466B49664808F0B4FA1B
:102AE0000A21002001F0BEFC01226449614801F086
:102AF0004FFD664B1B681846FDF796FC82468B46D9
:102B0000634B1B681846FDF78FFC04460D46614B6E
:102B10001B681846FDF788FC804689465E4B1B689B
:102B20001846FDF781FC02460B46CDE90423CDE9AA
:102B30000289CDE9004552465B4658494D4808F0A8
:102B400083FA1421002001F08DFC01224B494948F1
:102B500001F01EFD524B1B681846FDF765FC05464B
:102B60000E46504B1B681846FDF75EFC03460C46AC
:102B7000CDE900342A4633464B493E4808F064FA12
:102B80001E21002001F06EFC01223C49394801F071
:102B9000FFFC464B1B881E46454B1B681846FDF73D
:102BA00043FC04460D46434B1B681846FDF73CFCAE
:102BB00002460B46CDE90223CDE9004532463E49A7
:102BC0002C4808F041FA2821002001F04BFC01229A
:102BD0002A49284801F0DCFC384B1B781E46384B4C
:102BE0001B789846374B1B681846FDF71DFC0446BA
:102BF0000D46354B1B681846FDF716FC02460B4682
:102C0000CDE90223CDE90045434632462F49194814
:102C100008F01AFA3221002001F024FC01221749A1
:102C2000144801F0B5FC01F079FB294B1B78002B0F
:102C300002D1FEF7B3FB13E0254B1B78012B02D129
:102C4000FEF78CFA0CE0224B1B78022B02D1FEF728
:102C5000E1FA05E01E4B1B78032B01D1FEF730FB98
:102C6000012003F075FE00BF0437BD46BDE8F08FBC
:102C7000A8090020BC0B00206CCD00080800002033
:102C80008C100020A81000207CCD0008BC10002073
:102C9000F814002090100020F01000208CCD0008C7
:102CA000DC0B0020AC0B0020A8CD0008E60B0020B8
:102CB000B00B002004110020BCCD0008B81000208B
:102CC000F41400209C10002098060020D0CD0008AD
:102CD000D80B0020B0B500AF1B4B01221A701B4B64
:102CE00000221A70002001F047FB194A194B1446C4
:102CF00007CB20606160A2601B782373122114202F
:102D000001F0B0FB01221449114801F041FC104AC6
:102D1000124B15461C460FCC28606960AA60EB6018
:102D20002388A2782B821346AB742621002001F061
:102D300099FB01220849064801F02AFC01F0EEFA4D
:102D4000FEF72CFB00BFB0BD2C090020B80B002003
:102D5000BC0B002008CD000808000020E8CD0008CA
:102D600098B500AF214B00221A70214B01221A7036
:102D7000002001F001FB1F4A1F4B144607CB2060C7
:102D80006160A2601B7823730021142001F06AFBAC
:102D900001221A49174801F0FBFB164A184B14464A
:102DA00007CB20606160A2601B88A3810A210020FC
:102DB00001F058FB012211490E4801F0E9FB114BCB
:102DC0001B881A4610490B4808F03EF928210020BC
:102DD00001F048FB01220949064801F0D9FB01F046
:102DE0009DFAFEF7DBFA00BF98BD00BF2C0900205A
:102DF000B80B0020BC0B002008CD00080800002004
:102E0000FCCD0008E60B00200CCE000880B582B097
:102E100000AF134B00221A600FE0114B1B68114AE0
:102E200052F8233019467868FDF784FE03467B602C
:102E30000B4B1B6801330A4A1360094B1B680E2BAE
:102E4000EBDD09497868FEF739F90346002B00D11C
:102E500002E0064A7B68136000BF0837BD4680BDAC
:102E6000000900205009002000002041B40B002080
:102E700080B400AF00BFBD4680BC704780B588B04D
:102E800000AF2A4B9B69294A43F004039361274B07
:102E90009B6903F00403FB60FB68244B9B69234A96
:102EA00043F008039361214B9B6903F00803BB6067
:102EB000BB681E4B9B691D4A43F0100393611B4B7B
:102EC0009B6903F010037B607B6801233B61012356
:102ED0007B610023BB610323FB6107F110031946EB
:102EE000134805F0E3FA08233B6107F11003194684
:102EF0000F4805F0DBFA20233B6107F11003194668
:102F00000B4805F0D3FA10233B6100237B610023BB
:102F1000BB610123FB6107F110031946044805F06A
:102F2000C5FA00BF2037BD4680BD00BF001002407B
:102F3000000C014080B500AF012201212A4805F0B4
:102F400026FC01224FF48071284805F020FC0A205D
:102F500000F04EF800224FF48071244805F017FC71
:102F60004FF4FA6000F044F801224FF480711F48DA
:102F700005F00DFC0A2000F03BF8002201211A4860
:102F800005F005FC642000F033F801220121164809
:102F900005F0FDFB642000F02BF80022012112480F
:102FA00005F0F5FB642000F023F8012201210E4812
:102FB00005F0EDFB642000F01BF8002201210A4817
:102FC00005F0E5FB642000F013F80122012106481A
:102FD00005F0DDFB642000F00BF844F6206000F003
:102FE00007F800BF80BD00BF000C01400010014089
:102FF00080B483B000AF786002E07B68013B7B6007
:103000007B68002BF9D100BF0C37BD4680BC7047F0
:1030100080B584B000AF0346FB71002208211A4836
:1030200005F0B5FB0023FB7327E0FA79FB7BC3F1C6
:10303000070342FA03F303F00103002B05D001223A
:103040002021114805F0A3FB04E0002220210E48B6
:1030500005F09DFB0A20FFF7CBFF012208210A485B
:1030600005F095FB0A20FFF7C3FF00220821064860
:1030700005F08DFBFB7B0133FB73FB7B072BD4D966
:1030800000BF1037BD4680BD000C014080B582B046
:1030900000AF0023BB71002220211E4805F077FB02
:1030A000002208211B4805F072FB0023FB7128E079
:1030B0000A20FFF79DFF01220821164805F067FB53
:1030C0000A20FFF795FF1021124805F049FB03463F
:1030D000012B0BD1FB79C3F10703012202FA03F3A1
:1030E0005AB297F9063013435BB2BB710A20FFF75F
:1030F0007FFF00220821074805F049FBFB790133D7
:10310000FB71FB79072BD3D9BB7918460837BD462D
:1031100080BD00BF000C014080B584B000AF034605
:10312000FB710B46BB7113467B71FB795B10DBB205
:1031300003F00103FB73FB7B0233DBB23B73FB79D0
:10314000DB01FB73BB791B01DAB2FB7B1344DAB200
:103150007B791344DBB26033DBB27B7307F10C0382
:10316000184600F005F800BF1037BD4680BD0000CE
:1031700080B584B000AF78607B681B783B727B6859
:103180005B787B7207F108031946022000F02AF8E9
:103190000346FB81FB891B0A9BB2DBB2BB72FB8936
:1031A000DBB2FB72002201210D4805F0F0FA3B7AF8
:1031B0001846FFF72DFF7B7A1846FFF729FFBB7AE9
:1031C0001846FFF725FFFB7A1846FFF721FF01227B
:1031D0000121034805F0DBFA00BF1037BD4680BD72
:1031E000000C014080B485B000AF03463960FB712C
:1031F0001023FB8100237B7319E0FB89DB099AB262
:103200007B7B39680B441B789BB253409BB2DBB28B
:103210007B81FB891B021AB27B890B4931F8133081
:103220001BB253401BB2FB817B7B01337B737A7BE8
:10323000FB799A42E1D3FB895B009BB218461437B5
:10324000BD4680BC704700BF94D5000890B585B0DE
:1032500000AF03463A60FB710B46BB71FB79012B53
:1032600004D104237B7200233B7226E0FB79022BFE
:1032700004D106237B7200233B721EE0FB79032BF3
:1032800004D108237B7200233B7216E0FB79042BE8
:1032900004D10A237B7200233B720EE0FB79052BDD
:1032A00004D109237B7200233B7206E0FB79062BD5
:1032B00003D10B237B7200233B7207F108031946ED
:1032C0000220FFF78FFF0346FB81FB891B0A9BB29D
:1032D000DBB2BB72FB89DBB2FB7200220121264804
:1032E00005F055FA3B7A1846FFF792FE7B7A1846AE
:1032F000FFF78EFEBB7A1846FFF78AFEFB7A184668
:10330000FFF786FEFFF7C2FE03461A463B681A70B7
:103310003B685C1CFFF7BAFE034623703B689C1CAD
:10332000FFF7B4FE034623703B68DC1CFFF7AEFEDC
:10333000034623703B681C1DFFF7A8FE034623705D
:103340003B685C1DFFF7A2FE034623703B689C1D93
:10335000FFF79CFE034623703B68DC1DFFF796FEDB
:103360000346237001220121034805F010FA00BF33
:103370001437BD4690BD00BF000C014000000000A6
:1033800090B587B000AF786039600023FB750022EC
:103390000121C74805F0FBF9C64B07221A70C54B3F
:1033A00023225A70C348FFF7E3FE012003F0D0FA4E
:1033B000002201210020FFF7AFFE4FF42F7003F031
:1033C000C7FA07F10C031A4601210120FFF73EFF5F
:1033D000FB7D5B00013307F11802134413F80C3C2A
:1033E0001B02FA7D520007F118010A4412F80C2C56
:1033F00013431846FDF752FCFB7DAF4A52F82330C9
:103400001946FDF795FB03461946FB7D5B007A687C
:10341000D4180846FDF782FE03469BB22380FB7D4D
:103420005B007A6813441B881846FCF7EBFF9EA3E9
:10343000D3E90023FDF750F803460C461846214611
:10344000FB7D9B003A68D418FDF71EFB0346236002
:10345000FB7D0133FB75FB7D5B00013307F1180237
:10346000134413F80C3C1B02FA7D520007F11801BB
:103470000A4412F80C2C13431846FDF70FFCFB7D91
:103480008D4A52F823301946FDF752FB0346194680
:10349000FB7D5B007A68D4180846FDF73FFE0346C3
:1034A0009BB22380FB7D5B007A6813441B8818461F
:1034B000FCF7A8FF7CA3D3E90023FDF70DF8034632
:1034C0000C4618462146FB7D9B003A68D418FDF750
:1034D000DBFA03462360FB7D0133FB75FB7D5B005C
:1034E000013307F11802134413F80C3C1B02FA7D58
:1034F000520007F118010A4412F80C2C1343184625
:10350000FDF7CCFBFB7D6C4A52F823301946FDF7E2
:103510000FFB03461946FB7D5B007A68D41808460A
:10352000FDF7FCFD03469BB22380FB7D5B007A68C0
:1035300013441B881846FCF765FF5BA3D3E90023FF
:10354000FCF7CAFF03460C4618462146FB7D9B004C
:103550003A68D418FDF798FA03462360FB7D0133DF
:10356000FB7507F10C031A4601210220FFF76EFEDE
:103570000023FB75FB7D5B00013307F11802134448
:1035800013F80C3C1B02FA7D520007F118010A44A3
:1035900012F80C2C13431846FDF780FBFB7D033318
:1035A000454A52F823301946FDF7C2FA0346194638
:1035B000FB7D03335B007A68D4180846FDF7AEFD47
:1035C00003469BB22380FB7D03335B007A68134480
:1035D0001B881846FCF716FF33A3D3E90023FCF73A
:1035E0007BFF03460C4618462146FB7D03339B00B8
:1035F0003A68D418FDF748FA03462360FB7D01338F
:10360000FB75FB7D5B00013307F11802134413F8CF
:103610000C3C1B02FA7D520007F118010A4412F813
:103620000C2C13431846FDF739FBFB7D0333224A6C
:1036300052F823301946FDF77BFA03461946FB7D05
:1036400003335B007A68D4180846FDF767FD03462C
:103650009BB22380FB7D03335B007A6813441B8895
:103660001846FCF7CFFE10A3D3E90023FCF734FF84
:1036700003460C4618462146FB7D03339B003A68FF
:10368000D418FDF701FA03462360FB7D0133FB7577
:10369000FB7D5B00013307F11802134413F80C3C67
:1036A0001B020BE0AFF300802D431CEBE2361A3F08
:1036B000000C0140E40B002014000020FA7D5200B1
:1036C00007F118010A4412F80C2C13431846FDF7B1
:1036D000E5FAFB7D0333C64A52F823301946FDF75D
:1036E00027FA03461946FB7D03335B007A68D4183A
:1036F0000846FDF713FD03469BB22380FB7D033391
:103700005B007A6813441B881846FCF77BFEB6A35F
:10371000D3E90023FCF7E0FE03460C461846214699
:10372000FB7D03339B003A68D418FDF7ADF90346DF
:103730002360FB7D0133FB7507F10C031A46012161
:103740000320FFF783FD0023FB75FB7D5B00013346
:1037500007F11802134413F80C3C1B02FA7D5200C7
:1037600007F118010A4412F80C2C13431846FDF710
:1037700095FAFB7D06339E4A52F823301946FDF731
:10378000D7F903461946FB7D06335B007A68D418E7
:103790000846FDF7C3FC03469BB22380FB7D06333E
:1037A0005B007A6813441B881846FCF72BFE8EA337
:1037B000D3E90023FCF790FE03460C461846214649
:1037C000FB7D06339B003A68D418FDF75DF903468C
:1037D0002360FB7D0133FB75FB7D5B00013307F14B
:1037E0001802134413F80C3C1B02FA7D520007F137
:1037F00018010A4412F80C2C13431846FDF74EFA30
:10380000FB7D06337A4A52F823301946FDF790F9CA
:1038100003461946FB7D06335B007A68D4180846D8
:10382000FDF77CFC03469BB22380FB7D06335B00E7
:103830007A6813441B881846FCF7E4FD6AA3D3E9B1
:103840000023FCF749FE03460C4618462146FB7D43
:1038500006339B003A68D418FDF716F90346236037
:10386000FB7D0133FB75FB7D5B00013307F1180223
:10387000134413F80C3C1B02FA7D520007F11801A7
:103880000A4412F80C2C13431846FDF707FAFB7D87
:103890000633574A52F823301946FDF749F90346D3
:1038A0001946FB7D06335B007A68D4180846FDF79D
:1038B00035FC03469BB22380FB7D06335B007A68B0
:1038C00013441B881846FCF79DFD47A3D3E900234A
:1038D000FCF702FE03460C4618462146FB7D0633E4
:1038E0009B003A68D418FDF7CFF803462360FB7DB0
:1038F0000133FB7507F10C031A4601210420FFF781
:10390000A5FC0023FB75FB7D5B00013307F118026A
:10391000134413F80C3C1B02FA7D520007F1180106
:103920000A4412F80C2C13431846FDF7B7F9FB7D37
:1039300009332F4A52F823301946FDF7F9F80346A8
:103940001946FB7D09335B007A68D4180846FDF7F9
:10395000E5FB03469BB22380FB7D09335B007A685D
:1039600013441B881846FCF74DFD1FA3D3E9002321
:10397000FCF7B2FD03460C4618462146FB7D093391
:103980009B003A68D418FDF77FF803462360FB7D5F
:103990000133FB75FB7D5B00013307F11802134413
:1039A00013F80C3C1B02FA7D520007F118010A447F
:1039B00012F80C2C13431846FDF770F9FB7D093300
:1039C0000B4A52F823301946FDF7B2F80346194660
:1039D000FB7D09335B007A68D4180846FDF79EFB2F
:1039E000034607E0AFF300802D431CEBE2361A3F9D
:1039F000140000209BB22380FB7D09335B007A68B2
:103A000013441B881846FCF7FDFCA1A3D3E900234F
:103A1000FCF762FD03460C4618462146FB7D093340
:103A20009B003A68D418FDF72FF803462360FB7D0E
:103A30000133FB75FB7D5B00013307F11802134472
:103A400013F80C3C1B02FA7D520007F118010A44DE
:103A500012F80C2C13431846FDF720F9FB7D0933AF
:103A60008D4A52F823301946FDF762F8034619468D
:103A7000FB7D09335B007A68D4180846FDF74EFBDE
:103A800003469BB22380FB7D09335B007A681344B5
:103A90001B881846FCF7B6FC7DA3D3E90023FCF78E
:103AA0001BFD03460C4618462146FB7D09339B004F
:103AB0003A68D418FCF7E8FF03462360FB7D013326
:103AC000FB7507F10C031A4601210520FFF7BEFB29
:103AD0000023FB75FB7D5B00013307F118021344E3
:103AE00013F80C3C1B02FA7D520007F118010A443E
:103AF00012F80C2C13431846FDF7D0F8FB7D0C335D
:103B0000654A52F823301946FDF712F80346194664
:103B1000FB7D0C335B007A68D4180846FDF7FEFA8B
:103B200003469BB22380FB7D0C335B007A68134411
:103B30001B881846FCF766FC55A3D3E90023FCF765
:103B4000CBFC03460C4618462146FB7D0C339B00FC
:103B50003A68D418FCF798FF03462360FB7D0133D5
:103B6000FB75FB7D5B00013307F11802134413F86A
:103B70000C3C1B02FA7D520007F118010A4412F8AE
:103B80000C2C13431846FDF789F8FB7D0C33424A91
:103B900052F823301946FCF7CBFF03461946FB7D4C
:103BA0000C335B007A68D4180846FDF7B7FA034671
:103BB0009BB22380FB7D0C335B007A6813441B8827
:103BC0001846FCF71FFC32A3D3E90023FCF784FC62
:103BD00003460C4618462146FB7D0C339B003A6891
:103BE000D418FCF751FF03462360FB7D0133FB75BE
:103BF000FB7D5B00013307F11802134413F80C3C02
:103C00001B02FA7D520007F118010A4412F80C2C2D
:103C100013431846FDF742F8FB7D0C331E4A52F859
:103C200023301946FCF784FF03461946FB7D0C330D
:103C30005B007A68D4180846FDF770FA03469BB219
:103C40002380FB7D0C335B007A6813441B88184685
:103C5000FCF7D8FB0EA3D3E90023FCF73DFC034699
:103C60000C4618462146FB7D0C339B003A68D4185D
:103C7000FCF70AFF03462360FB7D0133FB7501223D
:103C80000121064804F083FD00BF1C37BD4690BDEE
:103C90002D431CEBE2361A3F14000020000C0140BB
:103CA00080B588B000AF03460A46FB711346BB716E
:103CB00001237B7500233B7507F11403194602208D
:103CC000FFF790FA03467B837B8B1B0A9BB2DBB228
:103CD000BB757B8BDBB2FB7500220121244804F00D
:103CE00056FD3B7D1846FFF793F97B7D1846FFF79D
:103CF0008FF9BB7D1846FFF78BF9FB7D1846FFF760
:103D000087F900233B7300237B730023BB730023DD
:103D1000FB73FB793B74BB797B7407F10C03194689
:103D20000620FFF75FFA03467B837B8B1B0A9BB25F
:103D3000DBB2BB747B8BDBB2FB740023FB610AE05C
:103D400007F10C02FB6913441B781846FFF760F972
:103D5000FB690133FB61FB69072BF1DD01220121C6
:103D6000034804F014FD00BF2037BD4680BD00BFEE
:103D7000000C014080B588B000AF0346FB712423DE
:103D80007B7500233B7507F1140319460220FFF7EA
:103D900029FA03467B837B8B1B0A9BB2DBB2BB7584
:103DA0007B8BDBB2FB7500220121244804F0EFFC81
:103DB0003B7D1846FFF72CF97B7D1846FFF728F965
:103DC000BB7D1846FFF724F9FB7D1846FFF720F965
:103DD000FB793B7300237B730023BB730023FB73CE
:103DE00000233B7400237B7407F10C031946062063
:103DF000FFF7F8F903467B837B8B1B0A9BB2DBB290
:103E0000BB747B8BDBB2FB740023FB610AE007F120
:103E10000C02FB6913441B781846FFF7F9F8FB699D
:103E20000133FB61FB69072BF1DD0122012103480E
:103E300004F0ADFC00BF2037BD4680BD000C014042
:103E400080B584B000AF0346FB802F4B00221A7070
:103E50002E4B00221A702E4B00221A700023FB609A
:103E60003DE0FA88FB6842FA03F3DBB203F001039A
:103E7000FB72FB68072B0DDCFA7AFB6802FA03F38E
:103E80003B813B89DAB2204B1B781344DAB21E4BDC
:103E90001A701FE0FB680B2B0EDCFA7AFB68083BFC
:103EA00002FA03F33B813B89DAB2184B1B781344C7
:103EB000DAB2164B1A700DE0FA7AFB68083B02FA88
:103EC00003F33B813B89DAB2114B1B781344DAB21E
:103ED0000F4B1A7000233B81FB680133FB60FB68CA
:103EE0000E2BBEDD084B1A78084B1B78194610467E
:103EF000FFF7D6FE064B1B781846FFF73BFF00BFC7
:103F00001037BD4680BD00BF8B0200208C02002010
:103F10008D0200200000000090B587B000AF7860EF
:103F20004F4B504A1A60504B00221A8000233B61CD
:103F300017E03B699B007A6813441A68484B1B687A
:103F400019461046FDF79CF80346002B06D03B6946
:103F50009B007A6813441B68414A13603B69013334
:103F60003B613B690E2BE4DD0023FB604AE0FB680C
:103F70009B007A6813441A68394B1B68194610462F
:103F8000FCF7D6FD03461946384AFB6842F8231071
:103F9000364AFB6852F8233019467869FCF7CAFDA7
:103FA00003467B61314AFB6852F823301846FCF720
:103FB0003BFA27A3D3E90023FCF71EFD0346002BA1
:103FC0001DD0FB689B007A6813441B681846FCF7F9
:103FD0002BFA21A3D3E90023FCF70EFD0346002BA7
:103FE0000DD001237B817A89FB6802FA03F37B8180
:103FF0001D4B1A887B8913449AB21B4B1A80FB68AD
:104000000133FB60FB680E2BB1DD19497869FCF7C1
:1040100099FE03461846FCF707FA4FF00002154BCD
:10402000FCF784FB03460C46184621464FF033321A
:10403000114BFCF77BFB03460C4618462146FCF768
:1040400023FD02460D4B1A6000BF1C37BD4690BDD4
:104050009A9999999999993F3333333333330B4074
:10406000240C002066668640E60B0020E80B00204A
:104070000000C84200002C403333F33FB00B002057
:1040800080B500AF174B184A1A60164B4FF4827276
:104090005A60144B00229A60124B0022DA60114BD6
:1040A00000221A610F4B00225A610E4B4FF400722E
:1040B0009A610C4B2822DA610A4B00221A62094BE2
:1040C00000225A62074B00229A62064B0A22DA62E9
:1040D000044805F0EBFD0346002B01D0FEF7C8FEB7
:1040E00000BF80BD280C00200030014080B58AB0A0
:1040F00000AF786007F1140300221A605A609A60DA
:10410000DA607B681B68224A93423DD1214B9B6950
:10411000204A43F4805393611E4B9B6903F4805300
:104120003B613B691B4B9B691A4A43F0080393614F
:10413000184B9B6903F00803FB60FB6828237B6135
:104140000223BB6103233B6207F1140319461248A3
:1041500004F0ACF910237B610023BB610023FB61F9
:1041600007F1140319460C4804F0A0F90B4B5B68E7
:104170007B627B6A43F0E0637B627B6A43F001030E
:104180007B62064A7B6A536000BF2837BD4680BD0C
:104190000030014000100240000C014000000140CE
:1041A00080B582B000AF00F019FA44F62063012216
:1041B0007821584804F042FD0346002B01D000232B
:1041C000A4E040F6C4137B6002E07B68013B7B60A7
:1041D0007B68002BF9D1AE220021782000F06CFA28
:1041E00020220021782000F067FA10220021782098
:1041F00000F062FAB0220021782000F05DFAC822B7
:104200000021782000F058FA00220021782000F0E8
:1042100053FA10220021782000F04EFA40220021AB
:10422000782000F049FA81220021782000F044FA39
:10423000FF220021782000F03FFAA12200217820FF
:1042400000F03AFAA6220021782000F035FAA822E0
:104250000021782000F030FA3F220021782000F081
:104260002BFAA4220021782000F026FAD322002184
:10427000782000F021FA00220021782000F01CFABA
:10428000D5220021782000F017FAF02200217820B2
:1042900000F012FAD9220021782000F00DFA222233
:1042A0000021782000F008FADA220021782000F0BE
:1042B00003FA12220021782000F0FEF9DB2200210F
:1042C000782000F0F9F920220021782000F0F4F99C
:1042D0008D220021782000F0EFF9142200217820AF
:1042E00000F0EAF9AF220021782000F0E5F9002083
:1042F00000F042F800F012F8074B00221A80064B3B
:1043000000225A80044B01225A71012318460837B3
:10431000BD4680BD4C0800209006002080B582B0CC
:1043200000AF0023FB711DE0FB79503BDBB21A4666
:104330000021782000F0C0F900220021782000F050
:10434000BBF910220021782000F0B6F9FB79DB01DF
:10435000084A1A4480234021782000F053F9FB7961
:104360000133FB71FB79072BDED900BF0837BD464F
:1043700080BD00BF9002002080B582B000AF034630
:10438000FB71FB79002B01D1002301E04FF4807316
:104390004FF480621946034806F0FEF900BF083763
:1043A000BD4680BD9002002080B483B000AF0346BC
:1043B000FB800B46BB801346FB70FB887F2B48D8E5
:1043C000BB883F2B45D8254B1B79002B06D0FB78AB
:1043D000002B0CBF01230023DBB2FB70FB78012B09
:1043E0001AD1FA88BB88DB0898B20346DB01134474
:1043F0001B4AD35C5AB2BB8803F00703012101FAC0
:1044000003F35BB2134359B2FA880346DB0113444A
:10441000C9B2134AD1541DE0FA88BB88DB0898B2B0
:104420000346DB0113440E4AD35C5AB2BB8803F047
:104430000703012101FA03F35BB2DB435BB21340D4
:1044400059B2FA880346DB011344C9B2044AD15475
:1044500000E000BF0C37BD4680BC704790060020CE
:104460009002002080B483B000AF03460A46FB8070
:104470001346BB80054AFB881380044ABB885380DF
:1044800000BF0C37BD4680BC704700BF90060020BF
:1044900080B586B000AF03463960FB711346BB712F
:1044A0003A4B1B881A463B681B7813447F2B07DC6A
:1044B000364B5B881A463B685B7813443F2B01DD23
:1044C00000235EE000237B614BE03B685A68FB7988
:1044D000203B3968497801FB03F319467B690B449B
:1044E0005B0013441B88FB6000233B6130E0FA68EB
:1044F0003B6902FA03F303F40043002B10D0234B73
:104500001A883B699BB2134498B2204B5A887B6946
:104510009BB213449BB2BA791946FFF745FF14E0EA
:104520001A4B1A883B699BB2134498B2174B5A88AE
:104530007B699BB2134499B2BB79002B0CBF01235A
:104540000023DBB21A46FFF72FFF3B6901333B61C3
:104550003B681B781A463B699342C8D37B69013399
:104560007B613B685B781A467B699342ADD3074B0E
:104570001A883B681B789BB213449AB2034B1A808B
:10458000FB7918461837BD4680BD00BF9006002055
:1045900080B584B000AFF860B9601346FB7112E0DB
:1045A000FB681B78FA79B9681846FFF771FF034674
:1045B0001A46FB681B789A4202D0FB681B7808E019
:1045C000FB680133FB60FB681B78002BE8D1FB68BC
:1045D0001B7818461037BD4680BD000080B483B0FC
:1045E00000AF074B7B6002E07B68013B7B607B6830
:1045F000002BF9D100BF0C37BD4680BC704700BF0F
:1046000090D00300B0B588B002AF3A601A460346B6
:10461000FB710B46BB711346BB806B461D46BB88C6
:10462000581C431E3B61034619464FF000024FF0F1
:1046300000034FF00004D40044EA5174CB00034659
:1046400019464FF000024FF000034FF00004D40071
:1046500044EA5174CB0003460733DB08DB00ADEBC3
:10466000030D02AB0033FB60FB68BA791A700123BB
:10467000FB750AE0FB7D013B3A681A44FB7D11782B
:10468000FA68D154FB7D0133FB75FB7D9BB2BA8880
:104690009A42EFD2FB7999B2FA68B8880A2300935C
:1046A0000346044804F0CCF9AD4600BF1837BD46B8
:1046B000B0BD00BF4C08002080B586B002AF0346F5
:1046C000FB710B46BB7113467B71BB793B737B79E6
:1046D0007B73FB7999B207F10C020A230093022342
:1046E000034804F0ADF900BF1037BD4680BD00BFE0
:1046F0004C08002080B485B000AF154B9B69144A6C
:1047000043F001039361124B9B6903F00103BB600B
:10471000BB680F4BDB690E4A43F08053D3610C4BEF
:10472000DB6903F080537B607B680A4B5B68FB604E
:10473000FB6823F0E063FB60FB6843F00073FB6001
:10474000044AFB68536000BF1437BD4680BC704705
:10475000001002400000014080B400AF00BFBD4621
:1047600080BC704780B400AFFEE780B400AFFEE7C6
:1047700080B400AFFEE780B400AFFEE780B400AFC6
:1047800000BFBD4680BC704780B400AF00BFBD46CF
:1047900080BC704780B400AF00BFBD4680BC70478E
:1047A00080B500AF02F0B8F800BF80BD80B500AFA3
:1047B000024803F021FD00BF80BD00BFE0070020DC
:1047C00080B500AF024803F031F900BF80BD00BFE3
:1047D0002408002000000000B0B500AFB84805F084
:1047E00014FBB84B1B680133B64A1360B64B1B6809
:1047F0000133B54A1360B54B1B68B54A1268B54919
:1048000031F812209B1AB14A1360B34B1B68B04AAF
:104810001268B24931F812209B1AAF4A1360AC4BB0
:104820001B68AF4A1188AB4A22F81310A84B1B68CB
:10483000AB4A5188A94A22F81310A54B1B68A54A18
:1048400032F813301A46A14B1B6813449F4A136079
:104850009F4B1B68A14A32F813301A469E4B1B68C7
:1048600013449D4A1360994B1B689E4A82FB0312B6
:104870005211DB17D31A1846FCF710FA02469A4B6E
:104880001A60954B1B68974A82FB03125211DB1783
:10489000D31A1846FCF702FA0246944B1A60944B5E
:1048A0001B68944A1360934B1B684FF00001184635
:1048B000FCF7E6FB0346002B02D08E4B8E4A1A60B3
:1048C000894B1B681846FBF7AFFD75A3D3E900239E
:1048D000FBF702FE03460C461846214672A3D3E9B5
:1048E0000023FBF743FC03460C4625461C46834B3E
:1048F0001B681846FBF798FD02460B4620462946E2
:10490000FBF732FC03460C4618462146FCF7BCF880
:1049100002467B4B1A60744B1B681846FBF784FDFC
:104920005FA3D3E90023FBF7D7FD03460C461846E7
:1049300021465DA3D3E90023FBF718FC03460C4690
:1049400018462146FCF7A0F802466E4B1A605E4BF3
:104950001B68092B40F34A815B4B00221A60604BB5
:104960009B881A4642F2107303FB02F25C4B9B8851
:10497000C3F573630C3392FBF3F31846FCF78EF91F
:104980000246614B1A60604B1B681846FBF74CFDF2
:1049900003460C461846214607F072FF44A3D3E9AC
:1049A0000023FBF799FD03460C461846214642A317
:1049B000D3E90023FBF7DAFB03460C4618462146F1
:1049C000FCF762F80246514B1A60454BDB881A46E9
:1049D00042F2107303FB02F2414BDB88C3F57363B1
:1049E0000C3392FBF3F31846FCF758F90246484B98
:1049F0001A60474B1B681846FBF716FD03460C462A
:104A00001846214607F03CFF29A3D3E90023FBF712
:104A100063FD03460C461846214627A3D3E900232D
:104A2000FBF7A4FB03460C4618462146FCF72CF87E
:104A30000246384B1A602A4B1B891A4642F2107301
:104A400003FB02F2264B1B89C3F573630C3392FB05
:104A5000F3F31846FCF722F902462F4B1A602E4B4F
:104A60001B681846FBF7E0FC03460C461846214637
:104A700007F006FF0EA3D3E90023FBF72DFD034645
:104A80000C46184621460CA3D3E90023FBF76EFB26
:104A900003460C4618462146FBF7F6FF02463DE06A
:104AA0002DD7318A366EA4BF03070F3EB143534062
:104AB000CDCCCCCCCC0C38C085EB51B81ECD6E40E3
:104AC00040150020D40B0020F8100020EC1000202E
:104AD000B4100020840C00207C1000200C11002059
:104AE00004090020D34D621084100020A41000207F
:104AF000B40B00208C100020000080BF04110020A7
:104B0000A810002008110020A0100020BC100020D8
:104B1000E8100020F814002000110020A64B1A60B5
:104B2000A64B5B891A4642F2107303FB02F2A34BB9
:104B30005B89C3F573630C3392FBF3F31846FCF700
:104B4000ADF802469E4B1A609D4B1B681846FBF75A
:104B50006BFC03460C461846214607F091FE92A3D3
:104B6000D3E90023FBF7B8FC03460C461846214660
:104B70008FA3D3E90023FBF7F9FA03460C46184646
:104B80002146FBF781FF02468E4B1A608E4B1B6855
:104B90008E491846FCF788FA0346002B02D08A4B50
:104BA0008A4A1A608A4B1B6888491846FCF77CFAC7
:104BB0000346002B02D0864B844A1A607E4B1B684A
:104BC00082491846FCF770FA0346002B02D07A4B54
:104BD0007E4A1A607B4B1B687C491846FCF764FAD6
:104BE0000346002B02D0774B784A1A60794B1B782A
:104BF000012B40F0A780784B1B78022B01D100F0ED
:104C0000EBF9754B1B78012B01D101F01DF8734BAB
:104C10001B78012B08D0724B1B6872491846FCF7B1
:104C20004DFA0346002B09D06F4B1B78012B05D1A1
:104C30006D4B00221A70694B00221A706B4B1B7867
:104C4000012B09D16A4B1B78012B05D1674B002240
:104C50001A70674B00221A70664B1B78012B26D105
:104C6000594B1B6864491846FCF70AFA0346002BA7
:104C70001DD0574B1B6861491846FCF701FA0346E3
:104C8000002B14D04C4B1B685B491846FCF7F8F915
:104C90000346002B0BD04B4B1B6858491846FCF7BA
:104CA000EFF90346002B02D0524B00221A70544BEE
:104CB0001B78012B26D1444B1B6852491846FCF740
:104CC000FDF90346002B1DD0414B1B684D4918468A
:104CD000FCF7F4F90346002B14D0374B1B68494905
:104CE0001846FCF7EBF90346002B0BD0354B1B683D
:104CF00044491846FCF7E2F90346002B02D0404B2A
:104D000000221A70404B1B78012B0BD13F4B1B68C4
:104D10003C491846FCF7D2F90346002B02D03A4B27
:104D200000221A703A4B1B78012B0BD1374B1B68B2
:104D300038491846FCF7A4F90346002B02D0344B3F
:104D400000221A70344B1B680133334A1360324B14
:104D50001A68324B83FB02135911D317CB1A4FF445
:104D6000FA7101FB03F3D31A2B4A13601A4B1B7819
:104D7000012B0CD0184B1B78022B08D0164B1B783C
:104D8000032B04D0144B1B78002B40F0EA80244BFB
:104D90001B8801339AB2224B1A80224B1A68224B8D
:104DA0001B68194642E000BFCDCCCCCCCC0C38C03F
:104DB00085EB51B81ECD6E409010002004090020F4
:104DC000AC100020F0100020BC10002000000243B6
:104DD000F81400208A020020A8090020FC100020FE
:104DE0008C10002000005842B1100020C01000209C
:104DF0009810002088100020000020420000484247
:104E0000B01000200000A041E4100020DC0B0020C6
:104E1000810C002000008C42B4100020D34D6210A1
:104E20008A100020FC140020A81000201046FBF778
:104E300081FE03461A464E4B1A604E4B1B88B3F553
:104E40007A7FC0F08E804A4B1B6883F000434A494A
:104E50001846FCF72BF803461846FBF7E5FA42A381
:104E6000D3E90023FBF738FB03460C4625461C46D6
:104E7000424B1B681846FBF7D7FA02460B46204602
:104E80002946FBF753FC03460C46184621464FF0D3
:104E900000023B4BFBF720FB03460C46184621461D
:104EA000FBF7F2FD0246374B1A60314B1B6836495F
:104EB0001846FBF7FBFF03461A46344B1B6819469E
:104EC0001046FBF737FE03461A46304B1A60304B4C
:104ED0001A682C4B1B6819461046FBF72BFE03463D
:104EE0001A462B4B1A60234B00221A80204B4FF09E
:104EF00000021A60274B1B680133264A1360264BB9
:104F00001A68264B1B6819461046FBF711FE03462C
:104F100019462348FBF7CAFF03461A46214B1A607D
:104F2000204B1A681D4B1B6819461046FBF70AFFF9
:104F3000034683F000431C4A13601A4B1A68144B53
:104F40001B6819461046FBF7FDFE03461A46164B32
:104F50001B6819461046FBF7EDFD03461A46134B36
:104F60001A6000BFB0BD00BFDFBC9A785634323F34
:104F7000FC1400208A10002000007A441000002059
:104F8000000059406C100020000061459806002088
:104F9000DC0B00209C0600207C000020800000200C
:104FA0000000C842C810002094100020AC0B002064
:104FB00080B500AF054804F028FF054B1B78012B96
:104FC00001D1FCF7BDFA00BF80BD00BF0015002075
:104FD0008C09002000000000B0B500AF824B1B68B8
:104FE0001846FBF721FA04460D46804B1B6818460D
:104FF000FBF71AFA78A3D3E90023FBF797FB0246E5
:105000000B4620462946FBF7F7FC0346002B16D03B
:10501000754B1B68764A1360744B1B68754A1360A6
:10502000754B0C221A70FCF7B9F9744B01221A70F7
:1050300000220421724803F0AAFB00F0F2BD6B4B82
:105040001A68704B1B6819461046FCF719F803469E
:10505000002B00F0EB806C4B1B78002B40F0E680BF
:10506000654B01221A70694B1C68604B1A68654BCE
:105070001B6819461046FBF719FF034619464FF007
:105080007E50FBF755FD034619462046FBF70EFF01
:1050900003461A465E4B1A605E4B1B681846FBF7C8
:1050A000C3F94FA3D3E90023FBF760F803460C468E
:1050B00018462146FBF7E8FC0246564B1A60554B52
:1050C0001A68534B1B6819461046FBF7F7FF034657
:1050D000002B11D04C4B1B78002B0DD1FCF75EF947
:1050E0004B4B1B684B4A1360474B01221A7000223E
:1050F0000421434803F04BFB434B1B78002B40F04B
:105100008D85434B1A68434B1B6819461046FBF7C5
:105110000FFD034640491846FBF7D0FF0346002B1E
:1051200018D03E4B1A683E4B83FB02139911D317DC
:10513000CB1A4FF47A7101FB03F3D31A002B40F022
:105140006D8504212E4803F03AFB344B00221A608F
:1051500000F064BD2E4B1A682E4B1B681946104692
:10516000FBF7E6FC03462F491846FBF7A7FF03466B
:10517000002B17D0294B1A682B4B83FB02135911B4
:10518000D317CB1A642101FB03F3D31A002B40F091
:10519000458504211A4803F012FB204B00221A60B7
:1051A00000F03CBD1A4B1A681A4B1B681946104692
:1051B000FBF7BEFC03464FF07E511846FBF77EFF1F
:1051C0000346002B01D100F029BD012204210C4827
:1051D00003F0DDFA00F022BDCDCCCCCCCCCCEC3F42
:1051E000FCA9F1D24D62503FA81000208C10002085
:1051F0009C100020CC100020B8100020820C002051
:105200000010014070000020B1100020500000206C
:1052100078100020C410002000007041D40B002042
:10522000D34D6210000020411F85EB51764B1A6868
:10523000764B1B6819461046FBF77AFC03464FF085
:1052400000011846FBF73AFF0346002B00F0F880F8
:105250006F4B1B78002B40F0F3806E4B02221A70CC
:105260006D4B1B681846FBF7DFF804460D46664B8E
:105270001B681846FBF7D8F85FA3D3E90023FBF7B8
:1052800055FA02460B46104619464FF00002634B92
:10529000FAF76AFF02460B4620462946FBF746FA14
:1052A00003460C4618462146FBF7EEFB02465C4BD4
:1052B0001A605C4B1B681846FBF7B6F850A3D3E99D
:1052C0000023FAF753FF03460C4618462146FBF726
:1052D000DBFB0246534B1A60524B1A68504B1B685B
:1052E00019461046FBF7EAFE0346002B11D0484B47
:1052F0001B78002B0DD1FCF751F8494B1B68494A2C
:105300001360434B01221A7000220421464803F027
:105310003EFA3F4B1B78002B40F08284404B1A68CA
:10532000404B1B6819461046FBF702FC03463F49F9
:105330001846FBF7C3FE0346002B18D03C4B1A68F7
:105340003C4B83FB02139911D317CB1A4FF47A719C
:1053500001FB03F3D31A002B40F06284042132488E
:1053600003F02DFA324B00221A6000F059BC2C4B8E
:105370001A682C4B1B6819461046FBF7D9FB0346ED
:105380002D491846FBF79AFE0346002B17D0284BF1
:105390001A682A4B83FB02135911D317CB1A6421C5
:1053A00001FB03F3D31A002B40F03A8404211E487A
:1053B00003F005FA1E4B00221A6000F031BC184BB6
:1053C0001A68184B1B6819461046FBF7B1FB0346D9
:1053D0004FF07E511846FBF771FE0346002B01D1BA
:1053E00000F01EBC012204210F4803F0D0F900F0A8
:1053F00017BC00BFAFF30080CDCCCCCCCCCC2540CB
:10540000FCA9F1D24D62503FA810002058000020A6
:10541000C0100020B8100020540000200000F03F11
:1054200074100020F41000200010014000007041B2
:10543000D40B0020D34D6210000020411F85EB519A
:105440008C4B1B6819468C48FBF772FB03468B4953
:105450001846FBF715FE0346002B2AD1884B1B6824
:1054600019468848FBF764FB034684491846FBF756
:1054700007FE0346002B1CD1834B1B6819467E4850
:10548000FBF756FB03467D491846FBF7F9FD03463B
:10549000002B0ED17D4B1B6819467A48FBF748FB61
:1054A000034676491846FBF7EBFD0346002B00F058
:1054B000FD80774B1B78002B40F0F880754B032262
:1054C0001A70754B1B686D491846FBF731FB034694
:1054D0001A46684B1B6819461046FBF7D1FD034678
:1054E000002B28D06C4B1B686C491846FBF720FB3F
:1054F00003461A465F4B1B6819461046FBF7D4FD5E
:105500000346002B17D0664B1A68664B83FB0213C9
:105510009911D317CB1A4FF47A7101FB03F3D31A05
:10552000002B40F0A68004215F4803F048F95C4B53
:1055300000221A609DE0584B1B6858491846FBF73B
:10554000F7FA03461A464B4B1B6819461046FBF701
:1055500097FD0346002B28D04F4B1B684FF080412E
:105560001846FBF7E5FA03461A46424B1B681946F4
:105570001046FBF799FD0346002B16D0484B1A68DE
:10558000484B83FB02135911D317CB1A4FF4FA710E
:1055900001FB03F3D31A002B6BD10421424803F023
:1055A0000EF93F4B00221A6063E03B4B1B684FF043
:1055B00080411846FBF7BCFA03461A462D4B1B6880
:1055C00019461046FBF75CFD0346002B21D0294B02
:1055D0001A68314B1B6819461046FBF75BFD034602
:1055E000002B16D02E4B1A682E4B83FB0213591139
:1055F000D317CB1A4FF4FA7101FB03F3D31A002B24
:1056000037D10421284803F0DAF8254B00221A602C
:105610002FE0184B1B6818491846FBF74FFD03464F
:10562000002B1BD1164B1B6816491846FBF746FD8D
:105630000346002B12D1144B1B680F491846FBF789
:105640003DFD0346002B09D1104B1B680D49184640
:10565000FBF734FD0346002B00D1E2E2FBF79EFE90
:105660000B4B01221A70002204210F4803F08FF81F
:10567000D7E2D6E2BC1000200000484200002041E2
:10568000F81400200000AA4290100020F010002022
:1056900088100020B8100020600000200000A0400A
:1056A000D40B0020D34D621000100140944B1A68B7
:1056B000944B1B6819461046FBF73AFA0346924989
:1056C0001846FBF7E7FC0346002B30D18F4B1A68D6
:1056D0008C4B1B6819461046FBF72AFA03468A4989
:1056E0001846FBF7D7FC0346002B20D1884B1A68DD
:1056F000844B1B6819461046FBF71AFA0346824989
:105700001846FBF7C7FC0346002B10D1814B1A68E3
:105710007C4B1B6819461046FBF70AFA03467A4988
:105720001846FBF7B7FC0346002B00F001817A4BCB
:105730001B78002B40F0FC80784B04221A70714BD0
:105740001B6871491846FBF7F5F903461A466C4B7E
:105750001B6819461046FBF7A7FC0346002B28D010
:10576000684B1B686E491846FBF7E4F903461A4676
:10577000634B1B6819461046FBF782FC0346002B5F
:1057800017D0684B1A68684B83FB02139911D31723
:10579000CB1A4FF47A7101FB03F3D31A002B40F0BC
:1057A000AE800421614803F00AF85E4B00221A60C3
:1057B000A5E0544B1B685A491846FBF7BBF9034652
:1057C0001A464F4B1B6819461046FBF76DFC034603
:1057D000002B28D04B4B1B684FF080411846FBF73D
:1057E000A9F903461A46464B1B6819461046FBF7B3
:1057F00047FC0346002B16D04A4B1A684A4B83FBE2
:1058000002135911D317CB1A4FF4FA7101FB03F3AA
:10581000D31A002B73D10421444802F0D0FF414B2E
:1058200000221A606BE0374B1B684FF0804118462E
:10583000FBF780F903461A46314B1B6819461046A0
:10584000FBF73CFC0346002B21D02D4B1A682D4B57
:105850001B6819461046FBF727FC0346002B16D0A1
:10586000304B1A68304B83FB02135911D317CB1AF4
:105870004FF4FA7101FB03F3D31A002B3FD104213B
:105880002A4802F09CFF274B00221A6037E01C4B8D
:105890001A681C4B1B6819461046FBF7F1FB0346C0
:1058A000002B21D1194B1A68164B1B68194610465C
:1058B000FBF7E6FB0346002B16D1154B1A68114B7C
:1058C0001B6819461046FBF7DBFB0346002B0BD188
:1058D000104B1A680B4B1B6819461046FBF7D0FBA0
:1058E0000346002B00D19CE1FBF758FD0A4B012237
:1058F0001A70002204210D4802F049FF91E190E165
:10590000BC1000206400002000002041F81400209A
:1059100090100020F0100020B0100020B8100020DF
:105920000000A040D40B0020D34D621000100140B5
:10593000814B1A68814B1B6819461046FBF7F8F833
:1059400003467F491846FBF7A5FB0346002B00F0F2
:10595000CD807C4B1B78002B40F0C8807A4B1B78A5
:10596000022B40F0C380794B05221A70734B1B68E1
:1059700073491846FBF7DEF803461A466E4B1B6860
:1059800019461046FBF790FB0346002B28D06B4BC3
:105990001B686F491846FBF7CDF803461A46664B5D
:1059A0001B6819461046FBF76BFB0346002B17D00C
:1059B000684B1A68684B83FB02139911D317CB1AF3
:1059C0004FF47A7101FB03F3D31A002B40F08D8062
:1059D0000421624802F0F3FE5E4B00221A6084E06C
:1059E000564B1B685A491846FBF7A4F803461A465B
:1059F000514B1B6819461046FBF756FB0346002B1C
:105A000028D04E4B1B684FF080411846FBF792F8A8
:105A100003461A46484B1B6819461046FBF730FBF5
:105A20000346002B16D04B4B1A684B4B83FB0213DB
:105A30005911D317CB1A4FF4FA7101FB03F3D31AA0
:105A4000002B52D10421454802F0B9FE414B0022FF
:105A50001A604AE0394B1B684FF080411846FBF74B
:105A600069F803461A46344B1B6819461046FBF783
:105A700025FB0346002B21D02F4B1A682F4B1B68A8
:105A800019461046FBF710FB0346002B16D0314B8E
:105A90001A68314B83FB02135911D317CB1A4FF4F9
:105AA000FA7101FB03F3D31A002B1ED104212B48FA
:105AB00002F085FE274B00221A6016E01E4B1A6882
:105AC0001E4B1B6819461046FBF7DAFA0346002BFB
:105AD00000D1A6E0FBF762FC1A4B01221A700022EB
