:020000040800F2
:100000000050002031760008694800087548000853
:100010007B4800088148000887480008000000006D
:100020000000000000000000000000008D480008F3
:100030009948000800000000A5480008B1480008E1
:1000400079760008797600087976000879760008D4
:1000500079760008797600087976000879760008C4
:10006000797600087976000879760008BD4800089E
:1000700079760008797600087976000879760008A4
:100080007976000879760008797600087976000894
:10009000D14800087976000879760008797600085A
:1000A0007976000879760008797600087976000874
:1000B000E94800083151000879760008797600088F
:1000C0007976000879760008797600087976000854
:1000D0007976000879760008797600087976000844
:1000E000797600087976000879760008000000002B
:1000F0000000000000000000000000000000000000
:0C01000000000000000000005FF808F1A3
:1001100010B5054C237833B9044B13B10448AFF341
:1001200000800123237010BD640200200000000045
:10013000ACDA000808B5034B1BB103490348AFF321
:10014000008008BD0000000068020020ACDA000852
:10015000034613F8012B002AFBD1181A0138704707
:1001600081F0004102E000BF83F0004330B54FEA68
:1001700041044FEA430594EA050F08BF90EA020FD5
:100180001FBF54EA000C55EA020C7FEA645C7FEA68
:10019000655C00F0E2804FEA5454D4EB5555B8BF8B
:1001A0006D420CDD2C4480EA020281EA030382EAFC
:1001B000000083EA010180EA020281EA0303362D8E
:1001C00088BF30BD11F0004F4FEA01314FF4801C61
:1001D0004CEA113102D0404261EB410113F0004F73
:1001E0004FEA03334CEA133302D0524263EB43032A
:1001F00094EA050F00F0A780A4F10104D5F1200EC8
:100200000DDB02FA0EFC22FA05F2801841F1000122
:1002100003FA0EF2801843FA05F359410EE0A5F1F6
:1002200020050EF1200E012A03FA0EFC28BF4CF027
:10023000020C43FA05F3C01851EBE37101F00045DD
:1002400007D54FF0000EDCF1000C7EEB00006EEBEA
:100250000101B1F5801F1BD3B1F5001F0CD3490874
:100260005FEA30004FEA3C0C04F101044FEA4452CB
:1002700012F5800F80F09A80BCF1004F08BF5FEA52
:10028000500C50F1000041EB045141EA050130BD32
:100290005FEA4C0C404141EB010111F4801FA4F1D5
:1002A0000104E9D191F0000F04BF01460020B1FA2A
:1002B00081F308BF2033A3F10B03B3F120020CDA62
:1002C0000C3208DD02F1140CC2F10C0201FA0CF040
:1002D00021FA02F10CE002F11402D8BFC2F1200CA5
:1002E00001FA02F120FA0CFCDCBF41EA0C0190405B
:1002F000E41AA2BF01EB0451294330BD6FEA0404A4
:100300001F3C1CDA0C340EDC04F11404C4F120028E
:1003100020FA04F001FA02F340EA030021FA04F3A0
:1003200045EA030130BDC4F10C04C4F1200220FAF7
:1003300002F001FA04F340EA0300294630BD21FA35
:1003400004F0294630BD94F0000F83F4801306BFFB
:1003500081F480110134013D4EE77FEA645C18BFEF
:100360007FEA655C29D094EA050F08BF90EA020F86
:1003700005D054EA000C04BF1946104630BD91EA7E
:10038000030F1EBF0021002030BD5FEA545C05D181
:100390004000494128BF41F0004130BD14F58004C0
:1003A0003CBF01F5801130BD01F0004545F0FE4134
:1003B00041F470014FF0000030BD7FEA645C1ABF69
:1003C000194610467FEA655C1CBF0B46024650EAA0
:1003D000013406BF52EA033591EA030F41F40021CC
:1003E00030BD00BF90F0000F04BF0021704730B552
:1003F0004FF4806404F132044FF000054FF0000127
:1004000050E700BF90F0000F04BF0021704730B5E7
:100410004FF4806404F1320410F0004548BF4042BC
:100420004FF000013EE700BF42004FEAE2014FEA11
:1004300031014FEA02701FBF12F07F4393F07F4FEC
:1004400081F06051704732F07F4208BF704793F0EF
:100450007F4F04BF41F40021704730B54FF4607402
:1004600001F0004521F000411CE700BF50EA010205
:1004700008BF704730B54FF000050AE050EA0102AE
:1004800008BF704730B511F0004502D5404261EB1E
:1004900041014FF4806404F132045FEA915C3FF45F
:1004A000D8AE4FF003025FEADC0C18BF03325FEAFC
:1004B000DC0C18BF033202EBDC02C2F1200300FAAD
:1004C00003FC20FA02F001FA03FE40EA0E0021FAD2
:1004D00002F11444BDE600BF70B54FF0FF0C4CF4C0
:1004E000E06C1CEA11541DBF1CEA135594EA0C0F72
:1004F00095EA0C0F00F0DEF82C4481EA030621EAAD
:100500004C5123EA4C5350EA013518BF52EA0335E7
:1005100041F4801143F4801338D0A0FB02CE4FF099
:100520000005E1FB02E506F00042E0FB03E54FF0C9
:100530000006E1FB03569CF0000F18BF4EF0010EC1
:10054000A4F1FF04B6F5007F64F5407404D25FEABD
:100550004E0E6D4146EB060642EAC62141EA555170
:100560004FEAC52040EA5E504FEACE2EB4F1FD0CB2
:1005700088BFBCF5E06F1ED8BEF1004F08BF5FEA30
:10058000500E50F1000041EB045170BD06F00046E2
:1005900046EA010140EA020081EA0301B4EB5C048F
:1005A000C2BFD4EB0C0541EA045170BD41F4801187
:1005B0004FF0000E013C00F3AB8014F1360FDEBFAC
:1005C000002001F0004170BDC4F10004203C35DA88
:1005D0000C341BDC04F11404C4F1200500FA05F30B
:1005E00020FA04F001FA05F240EA020001F00042AC
:1005F00021F0004110EBD37021FA04F642EB060122
:100600005EEA430E08BF20EAD37070BDC4F10C044B
:10061000C4F1200500FA04F320FA05F001FA04F20F
:1006200040EA020001F0004110EBD37041F10001FB
:100630005EEA430E08BF20EAD37070BDC4F1200506
:1006400000FA05F24EEA020E20FA04F301FA05F26E
:1006500043EA020321FA04F001F0004121FA04F216
:1006600020EA020000EBD3705EEA430E08BF20EAE6
:10067000D37070BD94F0000F0FD101F00046400020
:1006800041EB010111F4801F08BF013CF7D041EAA2
:10069000060195F0000F18BF704703F000465200A6
:1006A00043EB030313F4801F08BF013DF7D043EA77
:1006B0000603704794EA0C0F0CEA135518BF95EA2D
:1006C0000C0F0CD050EA410618BF52EA4306D1D1B4
:1006D00081EA030101F000414FF0000070BD50EAD3
:1006E000410606BF1046194652EA430619D094EA5D
:1006F0000C0F02D150EA013613D195EA0C0F05D147
:1007000052EA03361CBF104619460AD181EA03019A
:1007100001F0004141F0FE4141F470014FF0000052
:1007200070BD41F0FE4141F4780170BD70B54FF0ED
:10073000FF0C4CF4E06C1CEA11541DBF1CEA13556D
:1007400094EA0C0F95EA0C0F00F0A7F8A4EB05044F
:1007500081EA030E52EA03354FEA013100F0888046
:100760004FEA03334FF0805545EA131343EA12630F
:100770004FEA022245EA111545EA10654FEA0026C4
:100780000EF000419D4208BF964244F1FD0404F57D
:10079000407402D25B084FEA3202B61A65EB0305D9
:1007A0005B084FEA32024FF480104FF4002CB6EB96
:1007B000020E75EB030E22BFB61A754640EA0C0016
:1007C0005B084FEA3202B6EB020E75EB030E22BF56
:1007D000B61A754640EA5C005B084FEA3202B6EB97
:1007E000020E75EB030E22BFB61A754640EA9C0056
:1007F0005B084FEA3202B6EB020E75EB030E22BF26
:10080000B61A754640EADC0055EA060E18D04FEAE3
:10081000051545EA16754FEA06164FEAC30343EA83
:1008200052734FEAC2025FEA1C1CC0D111F4801F50
:100830000BD141EA00014FF000004FF0004CB6E749
:1008400011F4801F04BF01430020B4F1FD0C88BFE8
:10085000BCF5E06F3FF6AFAEB5EB030C04BFB6EBF3
:10086000020C5FEA500C50F1000041EB045170BDE6
:100870000EF0004E4EEA113114EB5C04C2BFD4EB13
:100880000C0541EA045170BD41F480114FF0000E97
:10089000013C90E645EA060E8DE60CEA135594EA13
:1008A0000C0F08BF95EA0C0F3FF43BAF94EA0C0F16
:1008B0000AD150EA01347FF434AF95EA0C0F7FF48B
:1008C00025AF104619462CE795EA0C0F06D152EADF
:1008D00003353FF4FDAE1046194622E750EA4106C3
:1008E00018BF52EA43067FF4C5AE50EA41047FF4D4
:1008F0000DAF52EA43057FF4EBAE12E74FF0FF3C39
:1009000006E000BF4FF0010C02E000BF4FF0010C09
:100910004DF804CD4FEA410C7FEA6C5C4FEA430C82
:1009200018BF7FEA6C5C1BD001B050EA410C0CBFD1
:1009300052EA430C91EA030F02BF90EA020F002033
:10094000704710F1000F91EA030F58BF994208BF9A
:1009500090422CBFD8176FEAE37040F00100704757
:100960004FEA410C7FEA6C5C02D150EA013C07D1AE
:100970004FEA430C7FEA6C5CD6D152EA033CD3D0F9
:100980005DF8040B704700BF8446104662468C46F3
:100990001946634600E000BF01B5FFF7B7FF002826
:1009A00048BF10F1000F01BD4DF808EDFFF7F4FF4F
:1009B0000CBF012000205DF808FB00BF4DF808EDDA
:1009C000FFF7EAFF34BF012000205DF808FB00BFFD
:1009D0004DF808EDFFF7E0FF94BF012000205DF81F
:1009E00008FB00BF4DF808EDFFF7CEFF94BF0120D4
:1009F00000205DF808FB00BF4DF808EDFFF7C4FFCD
:100A000034BF012000205DF808FB00BF4FEA410C15
:100A10007FEA6C5C02D150EA013C0AD14FEA430CF8
:100A20007FEA6C5C02D152EA033C02D14FF0000035
:100A300070474FF0010070474FEA410212F5001273
:100A400015D211D56FF47873B3EB625212D94FEA15
:100A5000C12343F0004343EA505311F0004F23FAFF
:100A600002F018BF404270474FF00000704750EA54
:100A7000013005D111F0004008BF6FF00040704711
:100A80004FF00000704700BF4FEA4102B2F1E0436F
:100A900024BFB3F5001CDCF1FE5C0DD901F0004C65
:100AA0004FEAC0024CEA5070B2F1004F40EB8300B5
:100AB00008BF20F00100704711F0804F21D113F1E1
:100AC0003872BCBF01F00040704741F480114FEA1A
:100AD0005252C2F11802C2F1200C10FA0CF320FAA3
:100AE00002F018BF40F001004FEAC1234FEAD323C0
:100AF00003FA0CFC40EA0C0023FA02F34FEA43032A
:100B0000CCE77FEA625307D150EA01331EBF4FF0B2
:100B1000FE4040F44000704701F0004040F0FE40CD
:100B200040F40000704700BF80F0004002E000BFCA
:100B300081F0004142001FBF5FEA410392EA030FC8
:100B40007FEA226C7FEA236C6AD04FEA1262D2EB12
:100B50001363C1BFD218414048404140B8BF5B4217
:100B6000192B88BF704710F0004F40F4000020F0B0
:100B70007F4018BF404211F0004F41F4000121F0C6
:100B80007F4118BF494292EA030F3FD0A2F1010210
:100B900041FA03FC10EB0C00C3F1200301FA03F14E
:100BA00000F0004302D5494260EB4000B0F5000F71
:100BB00013D3B0F1807F06D340084FEA310102F130
:100BC0000102FE2A51D2B1F1004F40EBC25008BFE2
:100BD00020F0010040EA03007047490040EB0000AC
:100BE00010F4000FA2F10102EDD1B0FA80FCACF1DB
:100BF000080CB2EB0C0200FA0CF0AABF00EBC250DA
:100C000052421843BCBFD0401843704792F0000FC7
:100C100081F4000106BF80F400000132013BB5E71A
:100C20004FEA41037FEA226C18BF7FEA236C21D090
:100C300092EA030F04D092F0000F08BF08467047F5
:100C400090EA010F1CBF0020704712F07F4F04D1C3
:100C5000400028BF40F00040704712F100723CBFD6
:100C600000F50000704700F0004343F0FE4040F400
:100C7000000070477FEA226216BF08467FEA2363BE
:100C80000146420206BF5FEA412390EA010F40F4A9
:100C9000800070474FF0000304E000BF10F00043F5
:100CA00048BF40425FEA000C08BF704743F09643DC
:100CB00001464FF000001CE050EA010208BF7047F7
:100CC0004FF000030AE000BF50EA010208BF70477E
:100CD00011F0004302D5404261EB41015FEA010C93
:100CE00002BF84460146002043F0B64308BFA3F18B
:100CF0008053A3F50003BCFA8CF2083AA3EBC2536D
:100D000010DB01FA02FC634400FA02FCC2F120028B
:100D1000BCF1004F20FA02F243EB020008BF20F0C2
:100D20000100704702F1200201FA02FCC2F1200228
:100D300050EA4C0021FA02F243EB020008BF20EA1D
:100D4000DC7070474FF0FF0C1CEAD0521EBF1CEA4B
:100D5000D15392EA0C0F93EA0C0F6FD01A4480EA39
:100D6000010C400218BF5FEA41211ED04FF0006322
:100D700043EA501043EA5111A0FB01310CF000404E
:100D8000B1F5000F3EBF490041EAD3715B0040EA74
:100D9000010062F17F02FD2A1DD8B3F1004F40EB44
:100DA000C25008BF20F00100704790F0000F0CF017
:100DB000004C08BF49024CEA502040EA51207F3ADB
:100DC000C2BFD2F1FF0340EAC250704740F40000B6
:100DD0004FF00003013A5DDC12F1190FDCBF00F0A7
:100DE00000407047C2F10002410021FA02F1C2F155
:100DF000200200FA02FC5FEA310040F1000053EAF1
:100E00004C0308BF20EADC70704792F0000F00F03E
:100E1000004C02BF400010F4000F013AF9D040EA44
:100E20000C0093F0000F01F0004C02BF490011F4D8
:100E3000000F013BF9D041EA0C018FE70CEAD153D6
:100E400092EA0C0F18BF93EA0C0F0AD030F0004C56
:100E500018BF31F0004CD8D180EA010000F000400A
:100E6000704790F0000F17BF90F0004F084691F0C8
:100E7000000F91F0004F14D092EA0C0F01D1420202
:100E80000FD193EA0C0F03D14B0218BF084608D1CB
:100E900080EA010000F0004040F0FE4040F4000015
:100EA000704740F0FE4040F4400070474FF0FF0CA8
:100EB0001CEAD0521EBF1CEAD15392EA0C0F93EAEF
:100EC0000C0F69D0A2EB030280EA010C49024FEA41
:100ED000402037D04FF0805343EA111143EA1013FA
:100EE0000CF000408B4238BF5B0042F17D024FF4B2
:100EF000000C8B4224BF5B1A40EA0C00B3EB510F8D
:100F000024BFA3EB510340EA5C00B3EB910F24BF75
:100F1000A3EB910340EA9C00B3EBD10F24BFA3EBFA
:100F2000D10340EADC001B0118BF5FEA1C1CE0D1C2
:100F3000FD2A3FF650AF8B4240EBC25008BF20F075
:100F4000010070470CF0004C4CEA50207F32C2BFC9
:100F5000D2F1FF0340EAC250704740F400004FF066
:100F60000003013A37E792F0000F00F0004C02BF97
:100F7000400010F4000F013AF9D040EA0C0093F061
:100F8000000F01F0004C02BF490011F4000F013BBB
:100F9000F9D041EA0C0195E70CEAD15392EA0C0F23
:100FA00008D142027FF47DAF93EA0C0F7FF470AF5B
:100FB000084676E793EA0C0F04D14B023FF44CAF9E
:100FC00008466EE730F0004C18BF31F0004CCAD133
:100FD00030F000427FF45CAF31F000437FF43CAF6F
:100FE0005FE700BF4FF0FF3C06E000BF4FF0010C91
:100FF00002E000BF4FF0010C4DF804CD4FEA400273
:101000004FEA41037FEA226C18BF7FEA236C11D0BC
:1010100001B052EA530C18BF90EA010F58BFB2EB6F
:10102000030088BFC81738BF6FEAE17018BF40F0EF
:10103000010070477FEA226C02D15FEA402C05D1A3
:101040007FEA236CE4D15FEA412CE1D05DF8040B28
:10105000704700BF844608466146FFE70FB5FFF7BB
:10106000C9FF002848BF10F1000F0FBD4DF808ED73
:10107000FFF7F4FF0CBF012000205DF808FB00BF64
:101080004DF808EDFFF7EAFF34BF012000205DF8BE
:1010900008FB00BF4DF808EDFFF7E0FF94BF01200B
:1010A00000205DF808FB00BF4DF808EDFFF7D2FF08
:1010B00094BF012000205DF808FB00BF4DF808ED4B
:1010C000FFF7C8FF34BF012000205DF808FB00BF18
:1010D0004FEA4002B2F1FE4F0FD34FF09E03B3EB45
:1010E00012620DD94FEA002343F0004310F0004F85
:1010F00023FA02F018BF404270474FF000007047DB
:1011000012F1610F01D1420205D110F0004008BF79
:101110006FF0004070474FF00000704742000ED261
:10112000B2F1FE4F0BD34FF09E03B3EB126209D422
:101130004FEA002343F0004323FA02F070474FF0D8
:101140000000704712F1610F01D1420202D14FF04D
:10115000FF3070474FF00000704700BF80B500AF10
:10116000224B1B78012B24D0214B1B78012B20D044
:10117000204B1B78012B1CD01F4B1B78012B18D048
:101180001E4B1B78012B14D01D4B1B78012B10D04C
:101190001C4B1B78012B0CD01B4B1B78012B08D050
:1011A0001A4B1B681A491846FFF774FF0346002BB9
:1011B00002D000F0FFF817E000224FF480711548CC
:1011C00008F0DDF901224FF40071134808F0D7F957
:1011D000124B02221A70124B00221A70114B01227C
:1011E0001A70114B00221A7000BF80BD61100020E0
:1011F0003810002060100020701000209410002093
:10120000320C0020300C0020201000203C10002068
:10121000000040420008014000100140B0090020D9
:1012200000000020010000208402002080B500AFF3
:101230001C4B1B78012B17D01B4B1B78012B13D099
:101240001A4B1B78012B0FD0194B1B78012B0BD09D
:10125000184B1B78012B07D0174B1B78012B03D0A1
:10126000164B1B78012B02D100F0A4F817E00122E5
:101270004FF48071124808F082F900224FF4007197
:10128000104808F07CF9104B01221A700F4B012214
:101290001A700F4B00221A700E4B00221A7000BFFA
:1012A00080BD00BFA5140020381000206010002071
:1012B0008C100020310C0020320C00202010002067
:1012C0000008014000100140B0090020000000208B
:1012D000010000208402002080B500AF244B1B7861
:1012E000012B27D0234B1B78012B23D0224B1B78BB
:1012F000012B1FD0214B1B78012B1BD0204B1B78BF
:10130000012B17D01F4B1B78012B13D01E4B1B78C2
:10131000012B0FD01D4B1B78012B0BD01C4B1B78C6
:10132000012B07D01B4B1B78012B03D01A4B1B78CA
:10133000012B02D100F03EF817E001224FF480713A
:10134000164808F01CF901224FF40071144808F007
:1013500016F9144B03221A70134B01221A70134B07
:1013600001221A70124B00221A7000BF80BD00BF0C
:1013700061100020A514002038100020601000200B
:10138000701000208C10002094100020310C0020E0
:10139000320C0020300C00202010002000080140FA
:1013A00000100140B00900200000002001000020D2
:1013B0008402002080B500AF00224FF480710F48F6
:1013C00008F0DDF800224FF400710D4808F0D7F85E
:1013D0000C4B00221A700C4B00221A700B4B00228F
:1013E0001A700B4B01221A7000220421044808F0E5
:1013F000C6F800F011F800BF80BD00BF0008014032
:1014000000100140B0090020000000200100002071
:10141000840200200000000098B500AFB04B1B68AC
:101420001846FFF701F89AA3D3E90023FFF7D0FA93
:101430000346002B25D0AA4B1B681846FEF7F4FF85
:101440004FF00002A74BFFF771F903460C46184610
:10145000214691A3D3E90023FFF73EF803460C464B
:10146000184621468EA3D3E90023FEF77DFE0346EE
:101470000C4618462146FFF707FB02469A4B1A60B6
:10148000A9E0974B1B681846FEF7CEFF80A3D3E96F
:101490000023FFF7B1FA0346002B2ED0904B1B68B8
:1014A00092491846FFF7F6FD0346002B25D08C4BDA
:1014B0001B681846FEF7B8FF4FF00002894BFFF794
:1014C00035F903460C461846214677A3D3E9002395
:1014D000FFF702F803460C461846214674A3D3E9E9
:1014E0000023FEF741FE03460C4618462146FFF74F
:1014F000CBFA02467C4B1A606DE0794B1B687B4946
:101500001846FFF7DBFD0346002B32D0744B1B68F7
:101510001846FEF789FF68A3D3E90023FFF758FABE
:101520000346002B25D06E4B1B681846FEF77CFF48
:101530004FF000026B4BFFF7F9F803460C461846D4
:1015400021465FA3D3E90023FEF7C6FF03460C46FE
:10155000184621465CA3D3E90023FEF705FE0346A7
:101560000C4618462146FFF78FFA02465E4B1A607A
:1015700031E05B4B1B681846FEF756FF4EA3D3E9DC
:101580000023FFF739FA0346002B24D0544B1B6885
:101590001846FEF749FF4FF00002524BFFF7C6F81E
:1015A00003460C461846214649A3D3E90023FEF71B
:1015B00093FF03460C461846214647A3D3E9002370
:1015C000FEF7D2FD03460C4618462146FFF75CFAAB
:1015D0000246454B1A60464B1A68464B1B68194633
:1015E0001046FFF7A5FA034619464348FFF75EFC8D
:1015F00003461A46414B1A60404B1A683D4B1B6824
:1016000019461046FFF79EFB034683F000433C4A11
:1016100013603A4B1A68344B1B6819461046FFF7A3
:1016200091FB03461A46364B1B6819461046FFF7D6
:1016300081FA03461A46334B1A602B4B1B6832491A
:101640001846FFF73BFD0346002B03D0264B2A4AE2
:101650001A601BE0244B1B6827491846FFF72EFD34
:101660000346002B03D0204B234A1A600EE01E4B8A
:101670001B684FF000011846FFF702FD0346002BE0
:1016800000D103E0184B4FF000021A6000BF98BD74
:101690006666666666A64940EDD6899DD8093840DB
:1016A00000000000004C5340117931268BE8604067
:1016B000C77E94A55AA47C409A99999999594B4010
:1016C000E3B889F91ACE74408B8AC0E9EE279240BC
:1016D0003D26FC994CDB5B40FAD94FBEC41D7640D9
:1016E0003C10002000002E40E40B00200000564279
:1016F0007C000020800000200000C84278100020FC
:1017000044100020B40B00200000024380B582B0DA
:1017100000AF7D4B1B687D491846FFF713FB03465E
:101720001846FFF7FBFC03469AB2794B1A80794BB7
:101730001B6879491846FFF7FDF9034673491846B7
:10174000FFF700FB03461846FFF7E8FC03469AB292
:10175000724B1A80724B1B686C491846FFF7F2FAFD
:1017600003461846FFF7DAFC03469AB26D4B1A801F
:101770006D4B1B686D4A13606C4B1A686C4B1B6891
:1017800019461046FFF77CFC0346002B03D0684B3C
:101790001B68664A1360654B1A68664B1B681946DE
:1017A0001046FFF76DFC0346002B03D0614B1B680E
:1017B0005E4A13605D4B1A685F4B1B681946104602
:1017C000FFF75EFC0346002B03D05B4B1B68574AB8
:1017D0001360564B1B6859491846FFF7ABF903468F
:1017E00057491846FFF7AEFA03461846FFF796FC2E
:1017F00003469AB2534B1A80534B1B684349184611
:10180000FFF7A0FA03461846FFF788FC03469AB292
:101810004E4B1A804E4B1B681846FFF759FC034687
:101820009AB24C4B1A804C4B1A884C4B1A800023AE
:101830003B600AE04A4A3B6832F81310494A3B6869
:1018400022F823103B6801333B603B680E2BF1DD2F
:10185000454B1B78012B40F0EB81444B444A5A60C6
:101860002B4B1A78434B1A70294B5A78414B5A70BC
:101870002A4B1A783F4B9A70284B5A783D4BDA70B6
:10188000284B1A783B4B1A71264B5A78394B5A71B0
:101890002C4B1A78374B9A712A4B5A78354BDA71A0
:1018A000324B08221A6105F041FF0246324B1A60A2
:1018B0000FE005F03BFF02462F4B1B68D31AB3F530
:1018C0007A7F06D92D4B1B6819462D4806F0F8FD86
:1018D00005E02B4806F038FE0346002BE9D0274BE5
:1018E000244A2249264806F011FD0346002B07D062
:1018F000224B1B681946224806F0E2FD01F0D0FB9E
:101900004FF47A737B6040E03C1000200000C84236
:10191000B40700205810002000004842F4060020C0
:10192000E40B0020FC0600206C100020540700206F
:10193000A814002040100020A01000200000204229
:10194000000020414007002010000020AC070020CC
:1019500004000020B8060020B2090020EC06002098
:10196000380900200007002085020020940700208D
:10197000B1BB0B0BCC060020E4060020780700204A
:101980002C0800207B68013B7B607B68012BF9DC25
:10199000914B924A5A60924B1A78924B1A70904B24
:1019A0005A78904B5A70904B1A788E4B9A708E4B97
:1019B0005A788C4BDA708D4B1A788A4B1A718B4B94
:1019C0005A78884B5A718A4B1B7803F00103DAB2BC
:1019D000844B9A71834B9B795AB2864B1B785B0080
:1019E0005BB203F002035BB213435BB2DAB27D4B2E
:1019F0009A717C4B9B795AB27F4B1B789B005BB2F0
:101A000003F004035BB213435BB2DAB2754B9A7115
:101A1000744B9B795AB2794B1B78DB005BB203F0B5
:101A200008035BB213435BB2DAB26E4B9A716D4B33
:101A30009B795AB2724B1B781B015BB203F0100307
:101A40005BB213435BB2DAB2664B9A71654B9B791A
:101A50005AB26A4B1B785B015BB203F020035BB2A6
:101A600013435BB2DAB25F4B9A715E4B9B795AB209
:101A7000634B1B789B015BB203F040035BB21343E3
:101A80005BB2DAB2574B9A71564B9B795AB25D4BA7
:101A90001B78DB015BB213435BB2DAB2514B9A7134
:101AA000594B1B7803F00103DAB24E4BDA714D4B00
:101AB000DB795AB2554B1B785B005BB203F0020333
:101AC0005BB213435BB2DAB2464BDA71454BDB795A
:101AD0005AB24F4B1B789B005BB203F004035BB21E
:101AE00013435BB2DAB23F4BDA713E4BDB795AB249
:101AF000484B1B78DB005BB203F008035BB2134377
:101B00005BB2DAB2374BDA71364BDB795AB2424B01
:101B10001B781B015BB203F010035BB213435BB293
:101B2000DAB2304BDA712F4BDB795AB23B4B1B7870
:101B30005B015BB203F020035BB213435BB2DAB22A
:101B4000284BDA71274BDB795AB2354B1B789B0156
:101B50005BB203F040035BB213435BB2DAB2214BDA
:101B6000DA711D4B08221A6105F0E0FD02462D4B8B
:101B70001A600FE005F0DAFD02462A4B1B68D31A03
:101B8000B3F57A7F06D9284B1B681946274806F01B
:101B900097FC05E0254806F0D7FC0346002BE9D06A
:101BA000214B104A0C49214806F0B0FB0346002B9C
:101BB00007D01D4B1B6819461C4806F081FC01F03C
:101BC0006FFA4FF47A737B6002E07B68013B7B60C5
:101BD0007B68012BF9DC7AE094070020B1BB1B0B7A
:101BE000AC070020CC060020B8060020EC06002040
:101BF000320C0020701000208C10002038100020C3
:101C000060100020300C002061100020A51400207E
:101C1000941000202010002000000020010000206F
:101C200084020020C8060020780700202C0800202D
:101C3000294B1B780133DAB2274B1A70274B1B78DC
:101C4000002B44D1264B1B78002B40D1224B1B7814
:101C5000312B3CD9234B244A5A60244B00221A7062
:101C6000224B00225A70214B00229A701F4B0022F7
:101C7000DA701E4B00221A711C4B00225A711B4B4A
:101C800055229A71194B0022DA71164B08221A61FB
:101C900000BF174806F058FC0346002BF9D0154B3F
:101CA000124A1049124806F031FB0346002B01D0BE
:101CB00001F0F6F94FF47A737B6002E07B68013B38
:101CC0007B607B68012BF9DC034B00221A7000BF9C
:101CD0000837BD4680BD00BF870200208502002076
:101CE0008602002094070020B1BB0B0ECC0600201A
:101CF0002C0800207807002080B584B000AF786001
:101D0000A04BA14A0021786806F052FC0346002B44
:101D100040F0298110219D4807F049FC9A4B1B682F
:101D2000E22B40F08680974B9B79552B55D1984BF1
:101D30001B78002B51D1964B01221A70954B08222B
:101D40001A61954BAA229A7100BF786806F0FCFBD5
:101D50000346002BF9D0914B8F4A8E49786806F0E4
:101D6000D5FA0346002B01D001F09AF94FF47A73AB
:101D7000FB6002E0FB68013BFB60FB68012BF9DCC8
:101D8000874B1B6887491846FFF77AF90346002BF3
:101D90000DD0854B1B78012B09D0844B01221A7082
:101DA000814B01221A70824B09221A6015E07C4B8C
:101DB0001B687C491846FFF777F90346002B0CD0C7
:101DC000794B1B78012B08D0784B00221A70764B88
:101DD00001221A70764B08221A606A4B9B79AA2B53
:101DE00027D16B4B1B78012B23D1704B1B78002B19
:101DF00015D16D4B1B78002B11D0694B1B686D49B9
:101E00001846FFF73DF90346002B05D0674B01222A
:101E10001A70674B0A221A60654B0C221A60664BD7
:101E200001221A70614B1B78012B02D1634B0222F5
:101E30001A70554B1B68B3F5D97F53D1514B1B78A2
:101E400003F00103002B17D0594B03221A605C4B9F
:101E500001221A704B4B1B785B08DBB203F00303C3
:101E6000DAB2564B1A70544B01221A70484B0122B9
:101E70001A70544B01221A70424BDB7903F00103B4
:101E8000002B10D03F4B5B78002B0CD14A4B1B78BA
:101E9000002B08D14A4B01221A70484B00221A70BD
:101EA000434B01221A60374B1B7803F00103002BD0
:101EB00018D1444B1B78012B14D1334B00221A60EC
:101EC0003D4B00221A70324B00221A703C4B00220C
:101ED0001A703A4B00221A703B4B00221A70394B91
:101EE00000221A70284B5B68384A93423BD1324B30
:101EF0001B78012B37D1234B1B78002B18D1214B9A
:101F0000DB79002B14D12A4B02221A601E4B0022CF
:101F10005A60294B00221A701D4B00221A70284B60
:101F200000221A70254B00221A70274B00221A70CB
:101F3000154B00221A60134B1B78DB08DBB2002B19
:101F400014BF01230023DBB21A46214B1A700D4B3C
:101F50001B781B09DBB2002B14BF01230023DBB26B
:101F60001A461C4B1A70084B00225A60064B00227E
:101F70001A6008220021034809F0EEFA00BF10376A
:101F8000BD4680BDD40600205C0700200010014043
:101F90008602002094070020CC060020780700204D
:101FA000E40B00200000C8428902002088020020C3
:101FB0008002002000008C4285020020E00B0020FF
:101FC000940900208A020020B0090020B1BB2B1B1D
:101FD00048100020AC10002080B58AB000AF00236C
:101FE0007B610023BB610123FB6100233B60002375
:101FF0007B600023BB600023FB6000233B61012367
:102000003B620E237B623B461946104806F071F88E
:102010000346002B01D001F043F80C4806F032F9DA
:102020000346002B01D001F03BF80221074806F0DF
:10203000D0FB074B00221A75054B0022DA60044BD7
:1020400004229A6000BF2837BD4680BD2C080020BE
:102050009407002080B584B000AF3B1D00221A60B9
:102060005A609A603D4B3E4A1A603C4B4FF4807276
:102070009A603A4B01221A73384B00221A75374B7B
:102080004FF46022DA61354B00225A60334B06224E
:102090001A61324805F076FB0346002B01D000F0B0
:1020A000FFFF00237B600123BB600723FB603B1D18
:1020B00019462A4805F038FD0346002B01D000F0F0
:1020C000EFFF05237B600223BB603B1D19462348BD
:1020D00005F02AFD0346002B01D000F0E1FF0123AB
:1020E0007B600323BB603B1D19461C4805F01CFDAB
:1020F0000346002B01D000F0D3FF02237B600423B2
:10210000BB603B1D1946154805F00EFD0346002B2C
:1021100001D000F0C5FF03237B600523BB600623CD
:10212000FB603B1D19460D4805F0FEFC0346002BE5
:1021300001D000F0B5FF04237B600623BB603B1D8C
:102140001946064805F0F0FC0346002B01D000F0CC
:10215000A7FF00BF1037BD4680BD00BFB8070020F5
:102160000024014080B588B000AF786007F110030B
:1021700000221A605A609A60DA607B681B68284AFD
:10218000934249D1274B9B69264A43F400739361DC
:10219000244B9B6903F40073FB60FB68214B9B6934
:1021A000204A43F0040393611E4B9B6903F0040330
:1021B000BB60BB683F233B6103237B6107F11003D6
:1021C0001946194807F06AF8184B194A1A60174B54
:1021D00000225A60154B00229A60144B8022DA606C
:1021E000124B4FF480721A61104B4FF480625A61A7
:1021F0000E4B20229A610D4B0022DA610B4806F04B
:1022000039FE0346002B01D000F04AFF7B68074AE5
:102210001A62064A7B68536200BF2037BD4680BD04
:10222000002401400010024000080140E80700209F
:102230000800024080B500AF174B184A1A60164BD1
:1022400008225A60144B00229A60134B0022DA6075
:10225000114B4FF4A0221A610F4B00225A610E4B12
:1022600000221A760C4B01225A760B4B00229A76EA
:10227000094B0022DA76084B00221A77064B00221F
:102280005A77054805F03AFE0346002B01D000F0CE
:1022900007FF00BF80BD00BF2C0800200064004085
:1022A00080B58AB000AF786007F1140300221A608D
:1022B0005A609A60DA607B681B68294A93424BD166
:1022C000284BDB69274A43F00073D361254BDB6958
:1022D00003F000733B613B69224B9B69214A43F049
:1022E000080393611F4B9B6903F00803FB60FB68C5
:1022F0004FF480737B610023BB610023FB6107F116
:1023000014031946184806F0C9FF4FF400737B61A7
:102310000223BB6103233B6207F1140319461248F1
:1023200006F0BCFF114B5B687B627B6A23F4C04301
:102330007B627B6A43F0E0637B627B6A43F48043A9
:102340007B620A4A7B6A536000220021142006F057
:102350005AFD142006F073FD00BF2837BD4680BD2E
:102360000064004000100240000C014000000140E9
:1023700080B582B000AF0C4B5B690B4A43F00103A0
:102380005361094B5B6903F001037B607B680022AA
:1023900000210B2006F037FD0B2006F050FD00BF9A
:1023A0000837BD4680BD00BF0010024080B588B030
:1023B00000AF07F1100300221A605A609A60DA60D9
:1023C0003F4B9B693E4A43F0100393613C4B9B6932
:1023D00003F01003FB60FB68394B9B69384A43F0FC
:1023E00004039361364B9B6903F00403BB60BB6835
:1023F000334B9B69324A43F008039361304B9B692E
:1024000003F008037B607B6800224FF40D712D48B8
:1024100007F0B5F8002241F203012B4807F0AFF8AE
:1024200000224FF48071294807F0A9F803233B618B
:1024300000237B610223BB6107F110031946214889
:1024400006F02CFF4FF40D733B6101237B610023E9
:10245000BB610223FB6107F110031946194806F01E
:102460001DFF41F203033B6101237B610023BB613C
:102470000223FB6107F110031946134806F00EFF13
:1024800004233B6100237B610023BB6107F1100340
:1024900019460D4806F002FF4FF480733B6101239B
:1024A0007B610023BB610223FB6107F11003194626
:1024B000064806F0F3FE00BF2037BD4680BD00BFD2
:1024C0000010024000100140000C014000080140D3
:1024D00080B500AF124B134A1A60114B124A5A6072
:1024E0000F4B00229A600E4B0022DA600C4B4FF427
:1024F00080421A610A4B00225A61094B00229A61FC
:10250000074B0022DA61064B00221A62044807F0EA
:1025100067F80346002B01D000F0C2FD00BF80BD6C
:102520005408002000540040801A060080B500AF17
:10253000124B134A1A60114B124A5A600F4B002279
:102540009A600E4B0022DA600C4B4FF480421A6105
:102550000A4B00225A61094B00229A61074B002264
:10256000DA61064B00221A62044807F039F8034684
:10257000002B01D000F094FD00BF80BDA808002012
:1025800000580040A086010080B58AB000AF786096
:1025900007F1180300221A605A609A60DA607B68BB
:1025A0001B682B4A934224D12A4B9B69294A43F04A
:1025B00008039361274B9B6903F008037B617B69E8
:1025C000C023BB611223FB6103237B6207F1180365
:1025D0001946214806F062FE1E4BDB691D4A43F492
:1025E0000013D3611B4BDB6903F400133B613B69B0
:1025F00029E07B681B68194A934224D1154B9B69DB
:10260000144A43F008039361124B9B6903F00803DB
:10261000FB60FB684FF44063BB611223FB61032343
:102620007B6207F1180319460B4806F037FE094B89
:10263000DB69084A43F48003D361064BDB6903F48A
:102640008003BB60BB6800BF2837BD4680BD00BFAC
:102650000054004000100240000C014000580040AF
:1026600080B500AF094B0A4A1A60084B05225A6030
:10267000064B40F6FF729A60044807F01DFD0346C2
:10268000002B01D000F00CFD00BF80BDFC08002035
:10269000003000400000000080B500AF04F0EEFF05
:1026A00000F0F0F806F0D4FDFFF780FEFFF760FEC3
:1026B000FFF7D0FCFFF7BEFDFFF738FF04F0C8FEC0
:1026C00004F0F0FEFFF7CCFF04F0E8FD04F032FE6A
:1026D000FFF7FEFE00F0EAFC00F044FD0A2005F0E2
:1026E0002FF85B495B4800F063FF5B4B00221A60E8
:1026F0005A4B4FF000021A6013E0574B1B68544AC4
:1027000052F82320554B1B6819461046FEF712FA63
:1027100003461A46514B1A604F4B1B6801334E4A11
:1027200013604D4B1B680E2BE7DD0A2005F008F8FF
:10273000FFF752FC00F000F9494B01221A704FF4E8
:102740007A7004F0FDFF474B00221A7001214648C1
:1027500006F0FEFE0346002B09D00221424806F097
:10276000F7FE0346002B02D100F012FC23E001210A
:102770003D4806F0EDFE0346002B09D102213A4800
:1027800006F0E6FE0346002B02D000F0BBFB12E091
:102790000121354806F0DCFE0346002B09D002215A
:1027A000314806F0D5FE0346002B02D000F09EF91A
:1027B00001E000F06BF92D4807F0B7FC24492548EB
:1027C00000F0F6FE274B1B78012B35D1284B1B78E8
:1027D000012B03D01E491F4800F0EAFE1C4801F0FF
:1027E000B3FC244B1B681846FDF71EFE16A3D3E965
:1027F0000023FEF7E3F80346002B08D0174B1B68B5
:102800001D491846FEF75AFC0346002B03D11B4B0B
:102810001B78012B04D140F6040001F029FC05E0EF
:10282000174B00221A80002001F022FC00F006FC69
:1028300010210D4806F0BBFE0C4807F076FC012085
:1028400004F07EFF82E700BF9A9999999999B9BFE0
:10285000580900203809002008090020BC0B00207E
:102860008B0200209409002000100140FC08002089
:10287000B00900205810002000005C42C00B00206E
:10288000EE0B002080B594B000AF07F1280328229A
:102890000021184608F060FE07F1140300221A60B8
:1028A0005A609A60DA601A613B1D00221A605A6011
:1028B0009A60DA600A23BB620123BB631023FB63C7
:1028C00001233B6402237B640023BB644FF4601349
:1028D000FB6407F12803184607F036FC0346002B7B
:1028E00001D000F0DDFB0F237B610223BB610023DD
:1028F000FB614FF480633B6200237B6207F11403AA
:102900000221184607F0A0FE0346002B01D000F07C
:10291000C7FB02237B604FF40043FB603B1D18465E
:1029200008F02EF80346002B01D000F0B9FB00BFE1
:102930005037BD4680BD000090B583B000AF102277
:102940004549464808F0E6FD00237B601CE0424A0A
:102950007B6813441B78FB7008F0DEFD0246FB78B1
:10296000013313441B7803F00303022B02D1FB78DD
:10297000203B00E0FB78D9B2394A7B6813440A4611
:102980001A707B6801337B607B68052BDFDD0622D4
:102990003449354804F0CEFF01F08AFC002001F0F4
:1029A00073FD01F043FD01220421304806F0E7FDEC
:1029B0004FF4FA7004F0C4FE04212C4806F0F7FD31
:1029C0004FF4FA7004F0BCFE0421284806F0EFFD35
:1029D000642004F0B5FE0421244806F0E8FD6420DC
:1029E00004F0AEFE0421214806F0E1FD642004F06D
:1029F000A7FE04211D4806F0DAFD642004F0A0FEC5
:102A00001B4A1C4B144607CB20606160A2601B78F8
:102A100023730021052001F0ADFD01221649144861
:102A200001F03EFE01F002FD144808F0AFF8144832
:102A300008F0ACF84FF47A7004F082FE114B0022DB
:102A40001A70FEF7B7FC104B4FF000021A6000BF7F
:102A50000C37BD4690BD00BF9C090020B1BB0B00E8
:102A6000200900200C090020B807002000100140B8
:102A7000C40B0020C8DA000808000020F814002069
:102A8000B0140020B00900209806002098B500AFCF
:102A9000114B00221A70114B00221A70002001F015
:102AA000F3FC0F4A0F4B144607CB20606160A26015
:102AB0001B7823731C21142001F05CFD01220A49BC
:102AC000074801F0EDFD01F0B1FCFEF773FC0120B9
:102AD00004F036FE00BF98BD34090020C00B002072
:102AE000C40B0020C8DA0008080000202DE9F04FD0
:102AF00087B006AF554B00221A70554B00221A7052
:102B0000544B1B78002B58D1002001F0BDFC524AD9
:102B1000524B15461C460FCC28606960AA60EB60DA
:102B20002388A2782B821346AB741221002001F077
:102B300021FD01224A49484801F0B2FD464A494B6D
:102B4000144607CB20606160A2602621002001F0BE
:102B500011FD01224249404801F0A2FD01F066FC4E
:102B600000221021404806F00AFDFEF723FC3F4BEF
:102B700000221A703E4B00221A703E4B00221A703F
:102B80003D4B00221A703D4B00221A703C4B002234
:102B90001A703C4B00221A703B4B00221A703B4BC0
:102BA00000221A703A4B00221A703A4B00221A7017
:102BB000394B1B68394A13606AE1002001F064FC5C
:102BC0001021294806F0F3FC354B1B78012B0ED160
:102BD000344A3549204809F017F90021002001F056
:102BE000C9FC01221E491C4801F05AFD7AE02C4B19
:102BF0001B78022B0ED12B4A2C49174809F004F9F7
:102C00000021002001F0B6FC01221549124801F014
:102C100047FD67E0224B1B78032B4BD10E4A244B18
:102C200015461C460FCC28606960AA60EB602388BB
:102C3000A2782B821346AB740021002001F09AFC8D
:102C400001220749044801F02BFD4BE03409002024
:102C5000C00B002094090020C40B0020D8DA000823
:102C600008000020ECDA00080010014038100020B5
:102C70006010002094100020310C00206110002012
:102C8000A5140020701000208C100020320C0020B1
:102C900020100020300C0020B8100020B4100020BC
:102CA000B009002020090020F8DA000808DB00083D
:102CB00018DB00087A4B1B78002B13D1794A7A4B2A
:102CC000144607CB20606160A2601A889B78A281BD
:102CD000A3730021002001F04DFC012273497148CB
:102CE00001F0DEFC724B1B681846FDF79DFB0546A4
:102CF0000E46704B1B681846FDF796FB03460C46C4
:102D0000CDE900342A4633466B49664809F07CF821
:102D10000A21002001F02EFC01226449614801F0E3
:102D2000BFFC664B1B681846FDF77EFB82468B4650
:102D3000634B1B681846FDF777FB04460D46614B55
:102D40001B681846FDF770FB804689465E4B1B6882
:102D50001846FDF769FB02460B46CDE90423CDE991
:102D60000289CDE9004552465B4658494D4809F075
:102D70004BF81421002001F0FDFB01224B4949488A
:102D800001F08EFC524B1B681846FDF74DFB0546C3
:102D90000E46504B1B681846FDF746FB03460C4693
:102DA000CDE900342A4633464B493E4809F02CF819
:102DB0001E21002001F0DEFB01223C49394801F0D0
:102DC0006FFC464B1B881E46454B1B681846FDF79B
:102DD0002BFB04460D46434B1B681846FDF724FBAE
:102DE00002460B46CDE90223CDE9004532463E4975
:102DF0002C4809F009F82821002001F0BBFB012232
:102E00002A49284801F04CFC384B1B781E46384BA9
:102E10001B789846374B1B681846FDF705FB0446A0
:102E20000D46354B1B681846FDF7FEFA02460B4669
:102E3000CDE90223CDE90045434632462F491948E2
:102E400008F0E2FF3221002001F094FB0122174933
:102E5000144801F025FC01F0E9FA294B1B78002BFE
:102E600002D1FEF7A7FA13E0254B1B78012B02D104
:102E7000FEF774F90CE0224B1B78022B02D1FEF70F
:102E8000D5F905E01E4B1B78032B01D1FEF724FA80
:102E9000012004F055FC00BF0437BD46BDE8F08FAB
:102EA000B0090020C40B00202CDB00080800002023
:102EB0003C100020581000203CDB00086C10002063
:102EC000A814002040100020A01000204CDB0008B7
:102ED000E40B0020B40B002068DB0008EE0B0020A0
:102EE000B80B0020B41000207CDB00086810002024
:102EF000A41400204C1000209806002090DB00084D
:102F0000E00B0020B0B500AF1B4B01221A701B4B29
:102F100000221A70002001F0B7FA194A194B144622
:102F200007CB20606160A2601B78237312211420FC
:102F300001F020FB01221449114801F0B1FB104AB5
:102F4000124B15461C460FCC28606960AA60EB60E6
:102F50002388A2782B821346AB742621002001F02F
:102F600009FB01220849064801F09AFB01F05EFACC
:102F7000FEF720FA00BFB0BD34090020C00B0020CE
:102F8000C40B0020C8DA000808000020A4DB0008F9
:102F900098B500AF214B00221A70214B01221A7004
:102FA000002001F071FA1F4A1F4B144607CB206026
:102FB0006160A2601B7823730021142001F0DAFA0B
:102FC00001221A49174801F06BFB164A184B1446A8
:102FD00007CB20606160A2601B88A3810A210020CA
:102FE00001F0C8FA012211490E4801F059FB114BBA
:102FF0001B881A4610490B4808F006FF28210020BC
:1030000001F0B8FA01220949064801F049FB01F034
:103010000DFAFEF7CFF900BF98BD00BF34090020BC
:10302000C00B0020C40B0020C8DA000808000020F4
:10303000B8DB0008EE0B0020C8DB000880B582B0CA
:1030400000AF134B00221A600FE0114B1B68114AAE
:1030500052F8233019467868FDF76CFD03467B6013
:103060000B4B1B6801330A4A1360094B1B680E2B7C
:10307000EBDD09497868FEF721F80346002B00D103
:1030800002E0064A7B68136000BF0837BD4680BD7A
:10309000080900205809002000002041BC0B002036
:1030A00080B400AF00BFBD4680BC704780B588B01B
:1030B00000AF2A4B9B69294A43F004039361274BD5
:1030C0009B6903F00403FB60FB68244B9B69234A64
:1030D00043F008039361214B9B6903F00803BB6035
:1030E000BB681E4B9B691D4A43F0100393611B4B49
:1030F0009B6903F010037B607B6801233B61012324
:103100007B610023BB610323FB6107F110031946B8
:10311000134806F0C3F808233B6107F11003194672
:103120000F4806F0BBF820233B6107F11003194656
:103130000B4806F0B3F810233B6100237B610023AA
:10314000BB610123FB6107F110031946044806F037
:10315000A5F800BF2037BD4680BD00BF001002406B
:10316000000C014080B500AF012201212A4806F081
:1031700006FA01224FF48071284806F000FA0A206E
:1031800000F04EF800224FF48071244806F0F7F961
:103190004FF4FA6000F044F801224FF480711F48A8
:1031A00006F0EDF90A2000F03BF8002201211A4850
:1031B00006F0E5F9642000F033F8012201211648F9
:1031C00006F0DDF9642000F02BF8002201211248FE
:1031D00006F0D5F9642000F023F8012201210E4801
:1031E00006F0CDF9642000F01BF8002201210A4806
:1031F00006F0C5F9642000F013F801220121064809
:1032000006F0BDF9642000F00BF844F6206000F0F1
:1032100007F800BF80BD00BF000C01400010014056
:1032200080B483B000AF786002E07B68013B7B60D4
:103230007B68002BF9D100BF0C37BD4680BC7047BE
:1032400080B584B000AF0346FB71002208211A4804
:1032500006F095F90023FB7327E0FA79FB7BC3F1B5
:10326000070342FA03F303F00103002B05D0012208
:103270002021114806F083F904E0002220210E48A5
:1032800006F07DF90A20FFF7CBFF012208210A484A
:1032900006F075F90A20FFF7C3FF0022082106484F
:1032A00006F06DF9FB7B0133FB73FB7B072BD4D955
:1032B00000BF1037BD4680BD000C014080B582B014
:1032C00000AF0023BB71002220211E4806F057F9F1
:1032D000002208211B4806F052F90023FB7128E068
:1032E0000A20FFF79DFF01220821164806F047F942
:1032F0000A20FFF795FF1021124806F029F903462E
:10330000012B0BD1FB79C3F10703012202FA03F36E
:103310005AB297F9063013435BB2BB710A20FFF72C
:103320007FFF00220821074806F029F9FB790133C5
:10333000FB71FB79072BD3D9BB7918460837BD46FB
:1033400080BD00BF000C014080B584B000AF0346D3
:10335000FB710B46BB7113467B71FB795B10DBB2D3
:1033600003F00103FB73FB7B0233DBB23B73FB799E
:10337000DB01FB73BB791B01DAB2FB7B1344DAB2CE
:103380007B791344DBB26033DBB27B7307F10C0350
:10339000184600F005F800BF1037BD4680BD00009C
:1033A00080B584B000AF78607B681B783B727B6827
:1033B0005B787B7207F108031946022000F02AF8B7
:1033C0000346FB81FB891B0A9BB2DBB2BB72FB8904
:1033D000DBB2FB72002201210D4806F0D0F83B7AE7
:1033E0001846FFF72DFF7B7A1846FFF729FFBB7AB7
:1033F0001846FFF725FFFB7A1846FFF721FF012249
:103400000121034806F0BBF800BF1037BD4680BD60
:10341000000C014080B485B000AF03463960FB71F9
:103420001023FB8100237B7319E0FB89DB099AB22F
:103430007B7B39680B441B789BB253409BB2DBB259
:103440007B81FB891B021AB27B890B4931F813304F
:103450001BB253401BB2FB817B7B01337B737A7BB6
:10346000FB799A42E1D3FB895B009BB21846143783
:10347000BD4680BC704700BF50E3000890B585B0E2
:1034800000AF03463A60FB710B46BB71FB79012B21
:1034900004D104237B7200233B7226E0FB79022BCC
:1034A00004D106237B7200233B721EE0FB79032BC1
:1034B00004D108237B7200233B7216E0FB79042BB6
:1034C00004D10A237B7200233B720EE0FB79052BAB
:1034D00004D109237B7200233B7206E0FB79062BA3
:1034E00003D10B237B7200233B7207F108031946BB
:1034F0000220FFF78FFF0346FB81FB891B0A9BB26B
:10350000DBB2BB72FB89DBB2FB72002201212648D1
:1035100006F035F83B7A1846FFF792FE7B7A18469C
:10352000FFF78EFEBB7A1846FFF78AFEFB7A184635
:10353000FFF786FEFFF7C2FE03461A463B681A7085
:103540003B685C1CFFF7BAFE034623703B689C1C7B
:10355000FFF7B4FE034623703B68DC1CFFF7AEFEAA
:10356000034623703B681C1DFFF7A8FE034623702B
:103570003B685C1DFFF7A2FE034623703B689C1D61
:10358000FFF79CFE034623703B68DC1DFFF796FEA9
:103590000346237001220121034805F0F0FF00BF1C
:1035A0001437BD4690BD00BF000C01400000000074
:1035B00090B587B000AF786039600023FB750022BA
:1035C0000121C74805F0DBFFC64B07221A70C54B27
:1035D00023225A70C348FFF7E3FE012004F0B0F83D
:1035E000002201210020FFF7AFFE4FF42F7004F0FE
:1035F000A7F807F10C031A4601210120FFF73EFF4F
:10360000FB7D5B00013307F11802134413F80C3CF7
:103610001B02FA7D520007F118010A4412F80C2C23
:1036200013431846FDF73AFBFB7DAF4A52F82330AF
:103630001946FDF77DFA03461946FB7D5B007A6863
:10364000D4180846FDF76AFD03469BB22380FB7D34
:103650005B007A6813441B881846FCF7D3FE9EA3D0
:10366000D3E90023FCF738FF03460C4618462146F1
:10367000FB7D9B003A68D418FDF706FA03462360E9
:10368000FB7D0133FB75FB7D5B00013307F1180205
:10369000134413F80C3C1B02FA7D520007F1180189
:1036A0000A4412F80C2C13431846FDF7F7FAFB7D79
:1036B0008D4A52F823301946FDF73AFA0346194667
:1036C000FB7D5B007A68D4180846FDF727FD0346AA
:1036D0009BB22380FB7D5B007A6813441B881846ED
:1036E000FCF790FE7CA3D3E90023FCF7F5FE03462C
:1036F0000C4618462146FB7D9B003A68D418FDF71E
:10370000C3F903462360FB7D0133FB75FB7D5B0042
:10371000013307F11802134413F80C3C1B02FA7D25
:10372000520007F118010A4412F80C2C13431846F2
:10373000FDF7B4FAFB7D6C4A52F823301946FDF7C9
:10374000F7F903461946FB7D5B007A68D4180846F2
:10375000FDF7E4FC03469BB22380FB7D5B007A68A7
:1037600013441B881846FCF74DFE5BA3D3E90023E6
:10377000FCF7B2FE03460C4618462146FB7D9B0033
:103780003A68D418FDF780F903462360FB7D0133C6
:10379000FB7507F10C031A4601210220FFF76EFEAC
:1037A0000023FB75FB7D5B00013307F11802134416
:1037B00013F80C3C1B02FA7D520007F118010A4471
:1037C00012F80C2C13431846FDF768FAFB7D0333FF
:1037D000454A52F823301946FDF7AAF9034619461F
:1037E000FB7D03335B007A68D4180846FDF796FC2E
:1037F00003469BB22380FB7D03335B007A6813444E
:103800001B881846FCF7FEFD33A3D3E90023FCF721
:1038100063FE03460C4618462146FB7D03339B009E
:103820003A68D418FDF730F903462360FB7D013375
:10383000FB75FB7D5B00013307F11802134413F89D
:103840000C3C1B02FA7D520007F118010A4412F8E1
:103850000C2C13431846FDF721FAFB7D0333224A53
:1038600052F823301946FDF763F903461946FB7DEC
:1038700003335B007A68D4180846FDF74FFC034613
:103880009BB22380FB7D03335B007A6813441B8863
:103890001846FCF7B7FD10A3D3E90023FCF71CFE84
:1038A00003460C4618462146FB7D03339B003A68CD
:1038B000D418FDF7E9F803462360FB7D0133FB755F
:1038C000FB7D5B00013307F11802134413F80C3C35
:1038D0001B020BE0AFF300802D431CEBE2361A3FD6
:1038E000000C0140EC0B002014000020FA7D520077
:1038F00007F118010A4412F80C2C13431846FDF77F
:10390000CDF9FB7D0333C64A52F823301946FDF743
:103910000FF903461946FB7D03335B007A68D41820
:103920000846FDF7FBFB03469BB22380FB7D033378
:103930005B007A6813441B881846FCF763FDB6A346
:10394000D3E90023FCF7C8FD03460C461846214680
:10395000FB7D03339B003A68D418FDF795F80346C6
:103960002360FB7D0133FB7507F10C031A4601212F
:103970000320FFF783FD0023FB75FB7D5B00013314
:1039800007F11802134413F80C3C1B02FA7D520095
:1039900007F118010A4412F80C2C13431846FDF7DE
:1039A0007DF9FB7D06339E4A52F823301946FDF718
:1039B000BFF803461946FB7D06335B007A68D418CE
:1039C0000846FDF7ABFB03469BB22380FB7D063325
:1039D0005B007A6813441B881846FCF713FD8EA31E
:1039E000D3E90023FCF778FD03460C461846214630
:1039F000FB7D06339B003A68D418FDF745F8034673
:103A00002360FB7D0133FB75FB7D5B00013307F118
:103A10001802134413F80C3C1B02FA7D520007F104
:103A200018010A4412F80C2C13431846FDF736F916
:103A3000FB7D06337A4A52F823301946FDF778F8B1
:103A400003461946FB7D06335B007A68D4180846A6
:103A5000FDF764FB03469BB22380FB7D06335B00CE
:103A60007A6813441B881846FCF7CCFC6AA3D3E998
:103A70000023FCF731FD03460C4618462146FB7D2A
:103A800006339B003A68D418FCF7FEFF0346236018
:103A9000FB7D0133FB75FB7D5B00013307F11802F1
:103AA000134413F80C3C1B02FA7D520007F1180175
:103AB0000A4412F80C2C13431846FDF7EFF8FB7D6F
:103AC0000633574A52F823301946FDF731F80346BA
:103AD0001946FB7D06335B007A68D4180846FDF76B
:103AE0001DFB03469BB22380FB7D06335B007A6897
:103AF00013441B881846FCF785FC47A3D3E9002331
:103B0000FCF7EAFC03460C4618462146FB7D0633CB
:103B10009B003A68D418FCF7B7FF03462360FB7D8F
:103B20000133FB7507F10C031A4601210420FFF74E
:103B3000A5FC0023FB75FB7D5B00013307F1180238
:103B4000134413F80C3C1B02FA7D520007F11801D4
:103B50000A4412F80C2C13431846FDF79FF8FB7D1E
:103B600009332F4A52F823301946FCF7E1FF034688
:103B70001946FB7D09335B007A68D4180846FDF7C7
:103B8000CDFA03469BB22380FB7D09335B007A6844
:103B900013441B881846FCF735FC1FA3D3E9002308
:103BA000FCF79AFC03460C4618462146FB7D093378
:103BB0009B003A68D418FCF767FF03462360FB7D3F
:103BC0000133FB75FB7D5B00013307F118021344E1
:103BD00013F80C3C1B02FA7D520007F118010A444D
:103BE00012F80C2C13431846FDF758F8FB7D0933E7
:103BF0000B4A52F823301946FCF79AFF0346194640
:103C0000FB7D09335B007A68D4180846FDF786FA15
:103C1000034607E0AFF300802D431CEBE2361A3F6A
:103C2000140000209BB22380FB7D09335B007A687F
:103C300013441B881846FCF7E5FBA1A3D3E9002336
:103C4000FCF74AFC03460C4618462146FB7D093327
:103C50009B003A68D418FCF717FF03462360FB7DEE
:103C60000133FB75FB7D5B00013307F11802134440
:103C700013F80C3C1B02FA7D520007F118010A44AC
:103C800012F80C2C13431846FDF708F8FB7D093396
:103C90008D4A52F823301946FCF74AFF034619466D
:103CA000FB7D09335B007A68D4180846FDF736FAC5
:103CB00003469BB22380FB7D09335B007A68134483
:103CC0001B881846FCF79EFB7DA3D3E90023FCF775
:103CD00003FC03460C4618462146FB7D09339B0036
:103CE0003A68D418FCF7D0FE03462360FB7D01330D
:103CF000FB7507F10C031A4601210520FFF7BEFBF7
:103D00000023FB75FB7D5B00013307F118021344B0
:103D100013F80C3C1B02FA7D520007F118010A440B
:103D200012F80C2C13431846FCF7B8FFFB7D0C333C
:103D3000654A52F823301946FCF7FAFE0346194645
:103D4000FB7D0C335B007A68D4180846FDF7E6F972
:103D500003469BB22380FB7D0C335B007A681344DF
:103D60001B881846FCF74EFB55A3D3E90023FCF74C
:103D7000B3FB03460C4618462146FB7D0C339B00E3
:103D80003A68D418FCF780FE03462360FB7D0133BC
:103D9000FB75FB7D5B00013307F11802134413F838
:103DA0000C3C1B02FA7D520007F118010A4412F87C
:103DB0000C2C13431846FCF771FFFB7D0C33424A71
:103DC00052F823301946FCF7B3FE03461946FB7D33
:103DD0000C335B007A68D4180846FDF79FF9034658
:103DE0009BB22380FB7D0C335B007A6813441B88F5
:103DF0001846FCF707FB32A3D3E90023FCF76CFB62
:103E000003460C4618462146FB7D0C339B003A685E
:103E1000D418FCF739FE03462360FB7D0133FB75A4
:103E2000FB7D5B00013307F11802134413F80C3CCF
:103E30001B02FA7D520007F118010A4412F80C2CFB
:103E400013431846FCF72AFFFB7D0C331E4A52F839
:103E500023301946FCF76CFE03461946FB7D0C33F4
:103E60005B007A68D4180846FDF758F903469BB200
:103E70002380FB7D0C335B007A6813441B88184653
:103E8000FCF7C0FA0EA3D3E90023FCF725FB034699
:103E90000C4618462146FB7D0C339B003A68D4182B
:103EA000FCF7F2FD03462360FB7D0133FB75012225
:103EB0000121064805F063FB00BF1C37BD4690BDDD
:103EC0002D431CEBE2361A3F14000020000C014089
:103ED00080B588B000AF03460A46FB711346BB713C
:103EE00001237B7500233B7507F11403194602205B
:103EF000FFF790FA03467B837B8B1B0A9BB2DBB2F6
:103F0000BB757B8BDBB2FB7500220121244805F0D9
:103F100036FB3B7D1846FFF793F97B7D1846FFF78C
:103F20008FF9BB7D1846FFF78BF9FB7D1846FFF72D
:103F300087F900233B7300237B730023BB730023AB
:103F4000FB73FB793B74BB797B7407F10C03194657
:103F50000620FFF75FFA03467B837B8B1B0A9BB22D
:103F6000DBB2BB747B8BDBB2FB740023FB610AE02A
:103F700007F10C02FB6913441B781846FFF760F940
:103F8000FB690133FB61FB69072BF1DD0122012194
:103F9000034805F0F4FA00BF2037BD4680BD00BFDE
:103FA000000C014080B588B000AF0346FB712423AC
:103FB0007B7500233B7507F1140319460220FFF7B8
:103FC00029FA03467B837B8B1B0A9BB2DBB2BB7552
:103FD0007B8BDBB2FB7500220121244805F0CFFA70
:103FE0003B7D1846FFF72CF97B7D1846FFF728F933
:103FF000BB7D1846FFF724F9FB7D1846FFF720F933
:10400000FB793B7300237B730023BB730023FB739B
:1040100000233B7400237B7407F10C031946062030
:10402000FFF7F8F903467B837B8B1B0A9BB2DBB25D
:10403000BB747B8BDBB2FB740023FB610AE007F1EE
:104040000C02FB6913441B781846FFF7F9F8FB696B
:104050000133FB61FB69072BF1DD012201210348DC
:1040600005F08DFA00BF2037BD4680BD000C014031
:1040700080B584B000AF0346FB802F4B00221A703E
:104080002E4B00221A702E4B00221A700023FB6068
:104090003DE0FA88FB6842FA03F3DBB203F0010368
:1040A000FB72FB68072B0DDCFA7AFB6802FA03F35C
:1040B0003B813B89DAB2204B1B781344DAB21E4BAA
:1040C0001A701FE0FB680B2B0EDCFA7AFB68083BCA
:1040D00002FA03F33B813B89DAB2184B1B78134495
:1040E000DAB2164B1A700DE0FA7AFB68083B02FA56
:1040F00003F33B813B89DAB2114B1B781344DAB2EC
:104100000F4B1A7000233B81FB680133FB60FB6897
:104110000E2BBEDD084B1A78084B1B78194610464B
:10412000FFF7D6FE064B1B781846FFF73BFF00BF94
:104130001037BD4680BD00BF8C0200208D020020DC
:104140008E0200200000000090B587B000AF7860BC
:104150004F4B504A1A60504B00221A8000233B619B
:1041600017E03B699B007A6813441A68484B1B6848
:1041700019461046FCF784FF0346002B06D03B6926
:104180009B007A6813441B68414A13603B69013302
:104190003B613B690E2BE4DD0023FB604AE0FB68DA
:1041A0009B007A6813441A68394B1B6819461046FD
:1041B000FCF7BEFC03461946384AFB6842F8231058
:1041C000364AFB6852F8233019467869FCF7B2FC8E
:1041D00003467B61314AFB6852F823301846FCF7EE
:1041E00023F927A3D3E90023FCF706FC0346002BA1
:1041F0001DD0FB689B007A6813441B681846FCF7C7
:1042000013F921A3D3E90023FCF7F6FB0346002BA7
:104210000DD001237B817A89FB6802FA03F37B814D
:104220001D4B1A887B8913449AB21B4B1A80FB687A
:104230000133FB60FB680E2BB1DD19497869FCF78F
:1042400081FD03461846FCF7EFF84FF00002154BCE
:10425000FCF76CFA03460C46184621464FF0333201
:10426000114BFCF763FA03460C4618462146FCF74F
:104270000BFC02460D4B1A6000BF1C37BD4690BDBB
:104280009A9999999999993F3333333333330B4042
:104290002C0C002066668640EE0B0020F00B002000
:1042A0000000C84200002C403333F33FB80B00201D
:1042B00080B582B000AF00F019FA44F62063012205
:1042C0007821584805F0C2FB0346002B01D000239B
:1042D000A4E040F6C4137B6002E07B68013B7B6096
:1042E0007B68002BF9D1AE220021782000F06CFA17
:1042F00020220021782000F067FA10220021782087
:1043000000F062FAB0220021782000F05DFAC822A5
:104310000021782000F058FA00220021782000F0D7
:1043200053FA10220021782000F04EFA402200219A
:10433000782000F049FA81220021782000F044FA28
:10434000FF220021782000F03FFAA12200217820EE
:1043500000F03AFAA6220021782000F035FAA822CF
:104360000021782000F030FA3F220021782000F070
:104370002BFAA4220021782000F026FAD322002173
:10438000782000F021FA00220021782000F01CFAA9
:10439000D5220021782000F017FAF02200217820A1
:1043A00000F012FAD9220021782000F00DFA222222
:1043B0000021782000F008FADA220021782000F0AD
:1043C00003FA12220021782000F0FEF9DB220021FE
:1043D000782000F0F9F920220021782000F0F4F98B
:1043E0008D220021782000F0EFF91422002178209E
:1043F00000F0EAF9AF220021782000F0E5F9002072
:1044000000F042F800F012F8074B00221A80064B29
:1044100000225A80044B01225A71012318460837A2
:10442000BD4680BD540800209006002080B582B0B3
:1044300000AF0023FB711DE0FB79503BDBB21A4655
:104440000021782000F0C0F900220021782000F03F
:10445000BBF910220021782000F0B6F9FB79DB01CE
:10446000084A1A4480234021782000F053F9FB7950
:104470000133FB71FB79072BDED900BF0837BD463E
:1044800080BD00BF9002002080B582B000AF03461F
:10449000FB71FB79002B01D1002301E04FF4807305
:1044A0004FF480621946034807F056F800BF0837FA
:1044B000BD4680BD9002002080B483B000AF0346AB
:1044C000FB800B46BB801346FB70FB887F2B48D8D4
:1044D000BB883F2B45D8254B1B79002B06D0FB789A
:1044E000002B0CBF01230023DBB2FB70FB78012BF8
:1044F0001AD1FA88BB88DB0898B20346DB01134463
:104500001B4AD35C5AB2BB8803F00703012101FAAE
:1045100003F35BB2134359B2FA880346DB01134439
:10452000C9B2134AD1541DE0FA88BB88DB0898B29F
:104530000346DB0113440E4AD35C5AB2BB8803F036
:104540000703012101FA03F35BB2DB435BB21340C3
:1045500059B2FA880346DB011344C9B2044AD15464
:1045600000E000BF0C37BD4680BC704790060020BD
:104570009002002080B483B000AF03460A46FB805F
:104580001346BB80054AFB881380044ABB885380CE
:1045900000BF0C37BD4680BC704700BF90060020AE
:1045A00080B586B000AF03463960FB711346BB711E
:1045B0003A4B1B881A463B681B7813447F2B07DC59
:1045C000364B5B881A463B685B7813443F2B01DD12
:1045D00000235EE000237B614BE03B685A68FB7977
:1045E000203B3968497801FB03F319467B690B448A
:1045F0005B0013441B88FB6000233B6130E0FA68DA
:104600003B6902FA03F303F40043002B10D0234B61
:104610001A883B699BB2134498B2204B5A887B6935
:104620009BB213449BB2BA791946FFF745FF14E0D9
:104630001A4B1A883B699BB2134498B2174B5A889D
:104640007B699BB2134499B2BB79002B0CBF012349
:104650000023DBB21A46FFF72FFF3B6901333B61B2
:104660003B681B781A463B699342C8D37B69013388
:104670007B613B685B781A467B699342ADD3074BFD
:104680001A883B681B789BB213449AB2034B1A807A
:10469000FB7918461837BD4680BD00BF9006002044
:1046A00080B584B000AFF860B9601346FB7112E0CA
:1046B000FB681B78FA79B9681846FFF771FF034663
:1046C0001A46FB681B789A4202D0FB681B7808E008
:1046D000FB680133FB60FB681B78002BE8D1FB68AB
:1046E0001B7818461037BD4680BD000080B483B0EB
:1046F00000AF074B7B6002E07B68013B7B607B681F
:10470000002BF9D100BF0C37BD4680BC704700BFFD
:1047100090D00300B0B588B002AF3A601A460346A5
:10472000FB710B46BB711346BB806B461D46BB88B5
:10473000581C431E3B61034619464FF000024FF0E0
:1047400000034FF00004D40044EA5174CB00034648
:1047500019464FF000024FF000034FF00004D40060
:1047600044EA5174CB0003460733DB08DB00ADEBB2
:10477000030D02AB0033FB60FB68BA791A700123AA
:10478000FB750AE0FB7D013B3A681A44FB7D11781A
:10479000FA68D154FB7D0133FB75FB7D9BB2BA886F
:1047A0009A42EFD2FB7999B2FA68B8880A2300934B
:1047B0000346044805F04CF8AD4600BF1837BD4627
:1047C000B0BD00BF5408002080B586B002AF0346DC
:1047D000FB710B46BB7113467B71BB793B737B79D5
:1047E0007B73FB7999B207F10C020A230093022331
:1047F000034805F02DF800BF1037BD4680BD00BF4F
:104800005408002080B485B000AF154B9B69144A52
:1048100043F001039361124B9B6903F00103BB60FA
:10482000BB680F4BDB690E4A43F08053D3610C4BDE
:10483000DB6903F080537B607B680A4B5B68FB603D
:10484000FB6823F0E063FB60FB6843F00073FB60F0
:10485000044AFB68536000BF1437BD4680BC7047F4
:10486000001002400000014080B400AF00BFBD4610
:1048700080BC704780B400AFFEE780B400AFFEE7B5
:1048800080B400AFFEE780B400AFFEE780B400AFB5
:1048900000BFBD4680BC704780B400AF00BFBD46BE
:1048A00080BC704780B400AF00BFBD4680BC70477D
:1048B00080B500AF02F028FF00BF80BD80B500AF1B
:1048C000024804F091FB00BF80BD00BFE807002054
:1048D00080B500AF024803F0A1FF00BF80BD00BF5C
:1048E0002C08002000000000B0B500AFBA4806F068
:1048F0009FF9BA4B1B680133B84A1360B84B1B6869
:104900000133B74A1360B74B1B68B74A1268B749FF
:1049100031F812209B1AB34A1360B54B1B68B24A98
:104920001268B44931F812209B1AB14A1360AE4B99
:104930001B68B14A1188AD4A22F81310AA4B1B68B4
:10494000AD4A5188AB4A22F81310A74B1B68A74AFF
:1049500032F813301A46A34B1B681344A14A136064
:10496000A14B1B68A34A32F813301A46A04B1B68B0
:1049700013449F4A13609B4B1B68A04A82FB03129F
:104980005211DB17D31A1846FCF788F902469C4BE4
:104990001A60974B1B68994A82FB03125211DB176E
:1049A000D31A1846FCF77AF90246964B1A60964BD2
:1049B0001B68964A1360954B1B684FF00001184620
:1049C000FCF75EFB0346002B02D0904B904A1A6026
:1049D0008B4B1B681846FBF727FD73A3D3E9002315
:1049E000FBF77AFD03460C461846214670A3D3E92F
:1049F0000023FBF7BBFB03460C4625461C46854BB4
:104A00001B681846FBF710FD02460B462046294658
:104A1000FBF7AAFB03460C4618462146FCF734F880
:104A200002467D4B1A60764B1B681846FBF7FCFC70
:104A30005DA3D3E90023FBF74FFD03460C46184660
:104A400021465BA3D3E90023FBF790FB03460C460A
:104A500018462146FCF718F80246704B1A606E4B58
:104A60001B681846FBF7E0FC53A3D3E90023FBF7D0
:104A700033FD03460C461846214651A3D3E90023D3
:104A8000FBF774FB03460C4618462146FBF7FCFF78
:104A90000246614B1A60524B1B68092B40F353814D
:104AA0004F4B00221A60544B9B881A4642F21073F7
:104AB00003FB02F2504B9B88C3F573630C3392FBEC
:104AC000F3F31846FCF7EAF80246554B1A60544BCC
:104AD0001B681846FBF7A8FC03460C4618462146FF
:104AE00008F0AEFD38A3D3E90023FBF7F5FC03463D
:104AF0000C461846214636A3D3E90023FBF736FBC4
:104B000003460C4618462146FBF7BEFF0246454BBE
:104B10001A60394BDB881A4642F2107303FB02F22B
:104B2000354BDB88C3F573630C3392FBF3F3184604
:104B3000FCF7B4F802463C4B1A603B4B1B68184626
:104B4000FBF772FC03460C461846214608F078FD38
:104B50001DA3D3E90023FBF7BFFC03460C46184610
:104B600021461BA3D3E90023FBF700FB03460C46B9
:104B700018462146FBF788FF02462C4B1A601E4B55
:104B80001B891A4642F2107303FB02F21A4B1B896F
:104B9000C3F573630C3392FBF3F31846FCF77EF80E
:104BA00046E000BFAFF30080216685FE5A05A4BF32
:104BB00003070F3EB14353404BD917849BF6E83FA0
:104BC0004B272AF03FAB9A3FCDCCCCCCCC0C38C095
:104BD00085EB51B81ECD6E40F8140020DC0B002090
:104BE000A81000209C10002064100020340C00202D
:104BF0002C100020BC1000200C090020D34D6210A6
:104C00003410002054100020BC0B00203C10002069
:104C1000000080BFB410002058100020B810002001
:104C2000501000206C10002098100020A8140020C4
:104C30000246534B1A60524B1B681846FBF7F4FBB5
:104C400003460C461846214608F0FAFC48A3D3E96F
:104C50000023FBF741FC03460C461846214646A3B9
:104C6000D3E90023FBF782FA03460C461846214697
:104C7000FBF70AFF0246434B1A60434B5B891A4617
:104C800042F2107303FB02F23F4B5B89C3F573637F
:104C90000C3392FBF3F31846FCF700F802463B4B4B
:104CA0001A603A4B1B681846FBF7BEFB03460C46DE
:104CB0001846214608F0C4FC2DA3D3E90023FBF7D6
:104CC0000BFC03460C46184621462BA3D3E90023D0
:104CD000FBF74CFA03460C4618462146FBF7D4FE78
:104CE00002462B4B1A602B4B1B682B491846FCF7CE
:104CF000DBF90346002B02D0264B274A1A60274BCC
:104D00001B6825491846FCF7CFF90346002B02D053
:104D1000224B214A1A601B4B1B681F491846FCF79F
:104D2000C3F90346002B02D0164B1B4A1A60184BDE
:104D30001B6819491846FCF7B7F90346002B02D047
:104D4000134B154A1A60164B1B78012B40F0CD808F
:104D5000144B1B78022B02D100F0FEF92AE0114B14
:104D60001B78012B20D101F02FF823E0AFF3008056
:104D7000CDCCCCCCCC0C38C085EB51B81ECD6E4020
:104D8000B0100020401000200C0900205C10002012
:104D9000A01000206C10002000000243A814002086
:104DA0008B020020B0090020A34B1B78032B01D1FC
:104DB00001F0DEFBA14B1B78012B08D0A04B1B6838
:104DC000A0491846FCF77AF90346002B09D09E4B00
:104DD0001B78012B05D19C4B00221A70974B0022A7
:104DE0001A709A4B1B78012B09D1994B1B78012B18
:104DF00005D1964B00221A70954B00221A70954BE4
:104E00001B78012B26D1944B1B6894491846FCF75C
:104E100037F90346002B1DD0914B1B68914918466A
:104E2000FCF72EF90346002B14D08F4B1B688B49DF
:104E30001846FCF725F90346002B0BD08B4B1B685B
:104E400088491846FCF71CF90346002B02D0814B19
:104E500000221A70864B1B78012B26D17E4B1B68D3
:104E600084491846FCF72AF90346002B1DD07C4BD9
:104E70001B6880491846FCF721F90346002B14D023
:104E8000794B1B687B491846FCF718F90346002B41
:104E90000BD0764B1B6877491846FCF70FF9034691
:104EA000002B02D0724B00221A70734B1B78012B1F
:104EB0000BD1724B1B686F491846FCF7FFF803468D
:104EC000002B02D06C4B00221A706D4B1B78012B0B
:104ED0000BD16A4B1B686B491846FCF7D1F80346A7
:104EE000002B02D0664B00221A70674B1B680133FF
:104EF000654A1360644B1A68644B83FB02135911B3
:104F0000D317CB1A4FF4FA7101FB03F3D31A5E4A9D
:104F10001360494B1B78012B0CD0474B1B78022B9D
:104F200008D0454B1B78032B04D0434B1B78002B38
:104F300040F0F080564B1B8801339AB2544B1A80D4
:104F4000544B1A68544B1B6819461046FBF7F2FD88
:104F500003461A464F4B1A604D4B1B88B3F57A7FB8
:104F6000C0F0D8804B4B1B6883F000434B49184678
:104F7000FBF79CFF03461846FBF756FA2CA3D3E930
:104F80000023FBF7A9FA03460C4625461C46444B72
:104F90001B681846FBF748FA02460B46204629468E
:104FA000FBF7C4FB03460C46184621464FF00002AF
:104FB0003C4BFBF791FA03460C4618462146FBF79B
:104FC00063FD0246384B1A60324B1B68374918465E
:104FD000FBF76CFF03461A46354B1B681946104613
:104FE000FBF7A8FD03461A46314B1A60234B1A689B
:104FF0002D4B1B6819461046FBF79CFD03461A46CD
:105000001E4B1A60224B00221A80224B4FF00002E6
:105010001A60284B1B680133264A1360264B1A6816
:10502000264B1B6819461046FBF782FD48E000BF7F
:10503000DFBC9A785634323FB0090020AC10002013
:105040003C10002000005842611000207010002029
:1050500048100020381000206C1000200000204272
:10506000A81400200000484240100020A01000209A
:10507000601000200000A04194100020E40B0020EC
:10508000310C002000008C4264100020D34D6210CF
:105090003A100020AC1400205810002000007A4480
:1050A00010000020000059401C1000200000614545
:1050B000980600209C0600207C0000208000002034
:1050C000034619461448FBF7F1FE03461A46134BF4
:1050D0001A60124B1A68124B1B6819461046FBF7F0
:1050E00031FE034683F000430E4A13600B4B1A68EF
:1050F0000D4B1B6819461046FBF724FE03461A4663
:10510000084B1B6819461046FBF714FD03461A4668
:10511000064B1A6000BFB0BD0000C84278100020E6
:105120008000002044100020E40B0020B40B00207D
:1051300080B500AF054805F07BFD054B1B78012BC2
:1051400001D1FCF7E3FA00BF80BD00BFB01400201E
:105150009409002000000000B0B500AF824B1B682E
:105160001846FBF761F904460D46804B1B6818464C
:10517000FBF75AF978A3D3E90023FBF7D7FA0246E5
:105180000B4620462946FBF737FC0346002B16D07A
:10519000754B1B68764A1360744B1B68754A136025
:1051A000754B0C221A70FCF705F9744B01221A702A
:1051B00000220421724804F0E2F900F0DDBD6B4BDF
:1051C0001A68704B1B6819461046FBF759FF0346D7
:1051D000002B00F0EB806C4B1B78002B40F0E6803E
:1051E000654B01221A70694B1C68604B1A68654B4D
:1051F0001B6819461046FBF759FE034619464FF047
:105200007E50FBF795FC034619462046FBF74EFE01
:1052100003461A465E4B1A605E4B1B681846FBF746
:1052200003F94FA3D3E90023FAF7A0FF03460C4686
:1052300018462146FBF728FC0246564B1A60554B90
:105240001A68534B1B6819461046FBF737FF034695
:10525000002B11D04C4B1B78002B0DD1FCF7AAF87A
:105260004B4B1B684B4A1360474B01221A700022BC
:105270000421434804F083F9434B1B78002B40F092
:105280007885434B1A68434B1B6819461046FBF759
:105290004FFC034640491846FBF710FF0346002B1E
:1052A00018D03E4B1A683E4B83FB02139911D3175B
:1052B000CB1A4FF47A7101FB03F3D31A002B40F0A1
:1052C000588504212E4804F072F9344B00221A60EC
:1052D00000F04FBD2E4B1A682E4B1B681946104626
:1052E000FBF726FC03462F491846FBF7E7FE03466B
:1052F000002B17D0294B1A682B4B83FB0213591133
:10530000D317CB1A642101FB03F3D31A002B40F00F
:10531000308504211A4804F04AF9204B00221A6013
:1053200000F027BD1A4B1A681A4B1B681946104625
:10533000FBF7FEFB03464FF07E511846FBF7BEFE1F
:105340000346002B01D100F014BD012204210C48BA
:1053500004F015F900F00DBDCDCCCCCCCCCCEC3F9D
:10536000FCA9F1D24D62503F581000203C100020A3
:105370004C1000207C10002068100020320C00200F
:10538000001001407000002061100020500000203B
:10539000281000207410002000007041DC0B002059
:1053A000D34D6210000020411F85EB51A84B1A68B5
:1053B000A84B1B6819461046FBF7BAFB03464FF093
:1053C00000011846FBF77AFE0346002B00F0C1806F
:1053D000A14B1B78002B40F0BC80A04B02221A701E
:1053E0009F4B1C689A4B1A689A4B1B6819461046CB
:1053F000FBF75CFD03464FF07E511846FBF798FB28
:10540000034619462046FBF751FD03461A46954BC5
:105410001A60954B1B681846FBF706F88AA3D3E978
:105420000023FAF7A3FE03460C4618462146FBF775
:105430002BFB02468C4B1A608B4B1A68894B1B68FE
:1054400019461046FBF73AFE0346002B11D0824B5B
:105450001B78002B0DD1FBF7ADFF824B1B68824AF6
:1054600013607D4B01221A70002204217F4804F052
:1054700086F8794B1B78002B40F07D84794B1A68B5
:10548000794B1B6819461046FBF752FB03467849D7
:105490001846FBF713FE0346002B18D0754B1A680D
:1054A000754B83FB02139911D317CB1A4FF47A7102
:1054B00001FB03F3D31A002B40F05D8404216B48F9
:1054C00004F075F86B4B00221A6000F054BC654B79
:1054D0001A68654B1B6819461046FBF729FB034603
:1054E00066491846FBF7EAFD0346002B17D0614BCF
:1054F0001A68634B83FB02135911D317CB1A64212B
:1055000001FB03F3D31A002B40F0358404215748E4
:1055100004F04DF8574B00221A6000F02CBC514BA0
:105520001A68514B1B6819461046FBF701FB0346EE
:105530004FF07E511846FBF7C1FD0346002B01D109
:1055400000F019BC01220421484804F018F800F0CA
:1055500012BC4C4B1B6819464B48FBF7E9FA034653
:1055600046491846FBF78CFD0346002B2AD1474BD2
:105570001B6819464648FBF7DBFA03463F491846C5
:10558000FBF77EFD0346002B1CD1424B1B681946DE
:105590003D48FBF7CDFA034638491846FBF770FD46
:1055A0000346002B0ED13C4B1B6819463848FBF7CD
:1055B000BFFA034631491846FBF762FD0346002B4C
:1055C00000F01181354B1B78002B40F00C81234BF0
:1055D00003221A70324B1B6828491846FBF7A8FAB9
:1055E00003461A46274B1B6819461046FBF748FD31
:1055F0000346002B58D02A4B1B682A491846FBF754
:1056000097FA03461A461F4B1B6819461046FBF7CC
:105610004BFD0346002B47D0164B1A68164B83FBF5
:1056200002139911D317CB1A4FF47A7101FB03F3CC
:10563000D31A002B40F0D68004210C4803F0B7FFAA
:105640000C4B00221A60CDE0FCA9F1D24D62503F14
:105650005810002058000020701000206810002012
:105660005400002024100020A4100020001001404D
:1056700000007041DC0B0020D34D6210000020417F
:105680001F85EB516C10002000004842A814002038
:105690000000AA4240100020A01000203810002076
:1056A000600000200000A040904B1B689049184605
:1056B000FBF73EFA03461A468E4B1B681946104606
:1056C000FBF7DEFC0346002B28D0884B1B684FF00D
:1056D00080411846FBF72CFA03461A46854B1B6897
:1056E00019461046FBF7E0FC0346002B16D0824B10
:1056F0001A68824B83FB02135911D317CB1A4FF44C
:10570000FA7101FB03F3D31A002B6BD104217C48FF
:1057100003F04DFF784B00221A6063E0734B1B6867
:105720004FF080411846FBF703FA03461A46714BC7
:105730001B6819461046FBF7A3FC0346002B21D03B
:105740006C4B1A68694B1B6819461046FBF7A2FCA4
:105750000346002B16D0684B1A68684B83FB021374
:105760005911D317CB1A4FF4FA7101FB03F3D31A73
:10577000002B37D10421624803F019FF5E4B002251
:105780001A602FE05B4B1B685E491846FBF796FCDE
:105790000346002B1BD15C4B1B685C491846FBF78A
:1057A0008DFC0346002B12D1594B1B6855491846F6
:1057B000FBF784FC0346002B09D1564B1B68534969
:1057C0001846FBF77BFC0346002B00D1D4E2FBF725
:1057D000F1FD514B01221A7000220421484803F0C8
:1057E000CEFEC9E2C8E2434B1A684C4B1B6819460F
:1057F0001046FBF79DF9034649491846FBF74AFC5A
:105800000346002B30D1404B1A68444B1B681946A5
:105810001046FBF78DF9034641491846FBF73AFC61
:105820000346002B20D13A4B1A683C4B1B681946A3
:105830001046FBF77DF9034639491846FBF72AFC69
:105840000346002B10D1334B1A68344B1B681946A2
:105850001046FBF76DF9034631491846FBF71AFC71
:105860000346002B00F009812E4B1B78002B40F0E3
:1058700004812D4B04221A70284B1B6828491846B6
:10588000FBF758F903461A461A4B1B68194610468F
:10589000FBF70AFC0346002B48D0204B1B68144939
:1058A0001846FBF747F903461A46124B1B68194680
:1058B0001046FBF7E5FB0346002B37D00E4B1A686A
:1058C0000E4B83FB02139911D317CB1A4FF47A7145
:1058D00001FB03F3D31A002B40F0CE8004210848CB
:1058E00003F065FE044B00221A60C5E06000002052
:1058F0000000A0406C100020DC0B0020D34D621093
:105900000010014000004842A81400200000AA42F4
:1059100040100020A010002038100020640000205B
:105920000000204160100020681000209C4B1B6884
:105930009C491846FBF7FEF803461A469A4B1B682B
:1059400019461046FBF7B0FB0346002B28D0944BBA
:105950001B684FF080411846FBF7ECF803461A46E7
:10596000914B1B6819461046FBF78AFB0346002B38
:1059700016D08E4B1A688E4B83FB02135911D31726
:10598000CB1A4FF4FA7101FB03F3D31A002B73D136
:105990000421884803F00BFE844B00221A606BE060
:1059A0007F4B1B684FF080411846FBF7C3F8034656
:1059B0001A467D4B1B6819461046FBF77FFB0346D2
:1059C000002B21D0784B1A68754B1B68194610467E
:1059D000FBF76AFB0346002B16D0744B1A68744B16
:1059E00083FB02135911D317CB1A4FF4FA7101FB41
:1059F00003F3D31A002B3FD104216E4803F0D7FDE7
:105A00006A4B00221A6037E0674B1A68644B1B68C8
:105A100019461046FBF734FB0346002B21D1664B99
:105A20001A685F4B1B6819461046FBF729FB0346B3
:105A3000002B16D1614B1A68594B1B68194610464A
:105A4000FBF71EFB0346002B0BD15D4B1A68544B32
:105A50001B6819461046FBF713FB0346002B00D1C9
:105A60008AE1FBF7A7FC574B01221A7000220421A0
:105A7000504803F084FD7FE17EE1534B1A68534B9D
:105A80001B6819461046FBF753F803465049184661
:105A9000FBF700FB0346002B00F0EE804D4B1B781C
:105AA000002B40F0E9804C4B1B78022B40F0E48047
:105AB0004A4B05221A70454B1B6845491846FBF7AF
:105AC00039F803461A46404B1B6819461046FBF747
:105AD000EBFA0346002B28D03C4B1B683149184693
