:020000040800F2
:100000000050002029670008614700086D4700087C
:1000100073470008794700087F4700080000000088
:1000200000000000000000000000000085470008FC
:1000300091470008000000009D470008A9470008FC
:100040007167000871670008716700087167000830
:100050007167000871670008716700087167000820
:10006000716700087167000871670008B5470008EC
:100070007167000871670008716700087167000800
:1000800071670008716700087167000871670008F0
:1000900071670008C9470008DD470008716700085C
:1000A00071670008716700087167000871670008D0
:1000B000F1470008C94E0008716700087167000821
:1000C00071670008716700087167000871670008B0
:1000D00071670008716700087167000871670008A0
:1000E0007167000871670008716700080000000070
:1000F0000000000000000000000000000000000000
:0C01000000000000000000005FF808F1A3
:1001100010B5054C237833B9044B13B10448AFF341
:1001200000800123237010BD600200200000000049
:100130003CCA000808B5034B1BB103490348AFF3A1
:10014000008008BD00000000640200203CCA0008D6
:10015000034613F8012B002AFBD1181A0138704707
:1001600081F0004102E000BF83F0004330B54FEA68
:1001700041044FEA430594EA050F08BF90EA020FD5
:100180001FBF54EA000C55EA020C7FEA645C7FEA68
:10019000655C00F0E2804FEA5454D4EB5555B8BF8B
:1001A0006D420CDD2C4480EA020281EA030382EAFC
:1001B000000083EA010180EA020281EA0303362D8E
:1001C00088BF30BD11F0004F4FEA01314FF4801C61
:1001D0004CEA113102D0404261EB410113F0004F73
:1001E0004FEA03334CEA133302D0524263EB43032A
:1001F00094EA050F00F0A780A4F10104D5F1200EC8
:100200000DDB02FA0EFC22FA05F2801841F1000122
:1002100003FA0EF2801843FA05F359410EE0A5F1F6
:1002200020050EF1200E012A03FA0EFC28BF4CF027
:10023000020C43FA05F3C01851EBE37101F00045DD
:1002400007D54FF0000EDCF1000C7EEB00006EEBEA
:100250000101B1F5801F1BD3B1F5001F0CD3490874
:100260005FEA30004FEA3C0C04F101044FEA4452CB
:1002700012F5800F80F09A80BCF1004F08BF5FEA52
:10028000500C50F1000041EB045141EA050130BD32
:100290005FEA4C0C404141EB010111F4801FA4F1D5
:1002A0000104E9D191F0000F04BF01460020B1FA2A
:1002B00081F308BF2033A3F10B03B3F120020CDA62
:1002C0000C3208DD02F1140CC2F10C0201FA0CF040
:1002D00021FA02F10CE002F11402D8BFC2F1200CA5
:1002E00001FA02F120FA0CFCDCBF41EA0C0190405B
:1002F000E41AA2BF01EB0451294330BD6FEA0404A4
:100300001F3C1CDA0C340EDC04F11404C4F120028E
:1003100020FA04F001FA02F340EA030021FA04F3A0
:1003200045EA030130BDC4F10C04C4F1200220FAF7
:1003300002F001FA04F340EA0300294630BD21FA35
:1003400004F0294630BD94F0000F83F4801306BFFB
:1003500081F480110134013D4EE77FEA645C18BFEF
:100360007FEA655C29D094EA050F08BF90EA020F86
:1003700005D054EA000C04BF1946104630BD91EA7E
:10038000030F1EBF0021002030BD5FEA545C05D181
:100390004000494128BF41F0004130BD14F58004C0
:1003A0003CBF01F5801130BD01F0004545F0FE4134
:1003B00041F470014FF0000030BD7FEA645C1ABF69
:1003C000194610467FEA655C1CBF0B46024650EAA0
:1003D000013406BF52EA033591EA030F41F40021CC
:1003E00030BD00BF90F0000F04BF0021704730B552
:1003F0004FF4806404F132044FF000054FF0000127
:1004000050E700BF90F0000F04BF0021704730B5E7
:100410004FF4806404F1320410F0004548BF4042BC
:100420004FF000013EE700BF42004FEAE2014FEA11
:1004300031014FEA02701FBF12F07F4393F07F4FEC
:1004400081F06051704732F07F4208BF704793F0EF
:100450007F4F04BF41F40021704730B54FF4607402
:1004600001F0004521F000411CE700BF50EA010205
:1004700008BF704730B54FF000050AE050EA0102AE
:1004800008BF704730B511F0004502D5404261EB1E
:1004900041014FF4806404F132045FEA915C3FF45F
:1004A000D8AE4FF003025FEADC0C18BF03325FEAFC
:1004B000DC0C18BF033202EBDC02C2F1200300FAAD
:1004C00003FC20FA02F001FA03FE40EA0E0021FAD2
:1004D00002F11444BDE600BF70B54FF0FF0C4CF4C0
:1004E000E06C1CEA11541DBF1CEA135594EA0C0F72
:1004F00095EA0C0F00F0DEF82C4481EA030621EAAD
:100500004C5123EA4C5350EA013518BF52EA0335E7
:1005100041F4801143F4801338D0A0FB02CE4FF099
:100520000005E1FB02E506F00042E0FB03E54FF0C9
:100530000006E1FB03569CF0000F18BF4EF0010EC1
:10054000A4F1FF04B6F5007F64F5407404D25FEABD
:100550004E0E6D4146EB060642EAC62141EA555170
:100560004FEAC52040EA5E504FEACE2EB4F1FD0CB2
:1005700088BFBCF5E06F1ED8BEF1004F08BF5FEA30
:10058000500E50F1000041EB045170BD06F00046E2
:1005900046EA010140EA020081EA0301B4EB5C048F
:1005A000C2BFD4EB0C0541EA045170BD41F4801187
:1005B0004FF0000E013C00F3AB8014F1360FDEBFAC
:1005C000002001F0004170BDC4F10004203C35DA88
:1005D0000C341BDC04F11404C4F1200500FA05F30B
:1005E00020FA04F001FA05F240EA020001F00042AC
:1005F00021F0004110EBD37021FA04F642EB060122
:100600005EEA430E08BF20EAD37070BDC4F10C044B
:10061000C4F1200500FA04F320FA05F001FA04F20F
:1006200040EA020001F0004110EBD37041F10001FB
:100630005EEA430E08BF20EAD37070BDC4F1200506
:1006400000FA05F24EEA020E20FA04F301FA05F26E
:1006500043EA020321FA04F001F0004121FA04F216
:1006600020EA020000EBD3705EEA430E08BF20EAE6
:10067000D37070BD94F0000F0FD101F00046400020
:1006800041EB010111F4801F08BF013CF7D041EAA2
:10069000060195F0000F18BF704703F000465200A6
:1006A00043EB030313F4801F08BF013DF7D043EA77
:1006B0000603704794EA0C0F0CEA135518BF95EA2D
:1006C0000C0F0CD050EA410618BF52EA4306D1D1B4
:1006D00081EA030101F000414FF0000070BD50EAD3
:1006E000410606BF1046194652EA430619D094EA5D
:1006F0000C0F02D150EA013613D195EA0C0F05D147
:1007000052EA03361CBF104619460AD181EA03019A
:1007100001F0004141F0FE4141F470014FF0000052
:1007200070BD41F0FE4141F4780170BD70B54FF0ED
:10073000FF0C4CF4E06C1CEA11541DBF1CEA13556D
:1007400094EA0C0F95EA0C0F00F0A7F8A4EB05044F
:1007500081EA030E52EA03354FEA013100F0888046
:100760004FEA03334FF0805545EA131343EA12630F
:100770004FEA022245EA111545EA10654FEA0026C4
:100780000EF000419D4208BF964244F1FD0404F57D
:10079000407402D25B084FEA3202B61A65EB0305D9
:1007A0005B084FEA32024FF480104FF4002CB6EB96
:1007B000020E75EB030E22BFB61A754640EA0C0016
:1007C0005B084FEA3202B6EB020E75EB030E22BF56
:1007D000B61A754640EA5C005B084FEA3202B6EB97
:1007E000020E75EB030E22BFB61A754640EA9C0056
:1007F0005B084FEA3202B6EB020E75EB030E22BF26
:10080000B61A754640EADC0055EA060E18D04FEAE3
:10081000051545EA16754FEA06164FEAC30343EA83
:1008200052734FEAC2025FEA1C1CC0D111F4801F50
:100830000BD141EA00014FF000004FF0004CB6E749
:1008400011F4801F04BF01430020B4F1FD0C88BFE8
:10085000BCF5E06F3FF6AFAEB5EB030C04BFB6EBF3
:10086000020C5FEA500C50F1000041EB045170BDE6
:100870000EF0004E4EEA113114EB5C04C2BFD4EB13
:100880000C0541EA045170BD41F480114FF0000E97
:10089000013C90E645EA060E8DE60CEA135594EA13
:1008A0000C0F08BF95EA0C0F3FF43BAF94EA0C0F16
:1008B0000AD150EA01347FF434AF95EA0C0F7FF48B
:1008C00025AF104619462CE795EA0C0F06D152EADF
:1008D00003353FF4FDAE1046194622E750EA4106C3
:1008E00018BF52EA43067FF4C5AE50EA41047FF4D4
:1008F0000DAF52EA43057FF4EBAE12E74FF0FF3C39
:1009000006E000BF4FF0010C02E000BF4FF0010C09
:100910004DF804CD4FEA410C7FEA6C5C4FEA430C82
:1009200018BF7FEA6C5C1BD001B050EA410C0CBFD1
:1009300052EA430C91EA030F02BF90EA020F002033
:10094000704710F1000F91EA030F58BF994208BF9A
:1009500090422CBFD8176FEAE37040F00100704757
:100960004FEA410C7FEA6C5C02D150EA013C07D1AE
:100970004FEA430C7FEA6C5CD6D152EA033CD3D0F9
:100980005DF8040B704700BF8446104662468C46F3
:100990001946634600E000BF01B5FFF7B7FF002826
:1009A00048BF10F1000F01BD4DF808EDFFF7F4FF4F
:1009B0000CBF012000205DF808FB00BF4DF808EDDA
:1009C000FFF7EAFF34BF012000205DF808FB00BFFD
:1009D0004DF808EDFFF7E0FF94BF012000205DF81F
:1009E00008FB00BF4DF808EDFFF7CEFF94BF0120D4
:1009F00000205DF808FB00BF4DF808EDFFF7C4FFCD
:100A000034BF012000205DF808FB00BF4FEA410C15
:100A10007FEA6C5C02D150EA013C0AD14FEA430CF8
:100A20007FEA6C5C02D152EA033C02D14FF0000035
:100A300070474FF0010070474FEA410212F5001273
:100A400015D211D56FF47873B3EB625212D94FEA15
:100A5000C12343F0004343EA505311F0004F23FAFF
:100A600002F018BF404270474FF00000704750EA54
:100A7000013005D111F0004008BF6FF00040704711
:100A80004FF00000704700BF4A0011D212F500126B
:100A900011D20DD56FF47873B3EB62520ED44FEAD6
:100AA000C12343F0004343EA505323FA02F0704756
:100AB0004FF00000704750EA013002D14FF0FF3094
:100AC00070474FF0000070474FEA4102B2F1E04337
:100AD00024BFB3F5001CDCF1FE5C0DD901F0004C25
:100AE0004FEAC0024CEA5070B2F1004F40EB830075
:100AF00008BF20F00100704711F0804F21D113F1A1
:100B00003872BCBF01F00040704741F480114FEAD9
:100B10005252C2F11802C2F1200C10FA0CF320FA62
:100B200002F018BF40F001004FEAC1234FEAD3237F
:100B300003FA0CFC40EA0C0023FA02F34FEA4303E9
:100B4000CCE77FEA625307D150EA01331EBF4FF072
:100B5000FE4040F44000704701F0004040F0FE408D
:100B600040F40000704700BF80F0004002E000BF8A
:100B700081F0004142001FBF5FEA410392EA030F88
:100B80007FEA226C7FEA236C6AD04FEA1262D2EBD2
:100B90001363C1BFD218414048404140B8BF5B42D7
:100BA000192B88BF704710F0004F40F4000020F070
:100BB0007F4018BF404211F0004F41F4000121F086
:100BC0007F4118BF494292EA030F3FD0A2F10102D0
:100BD00041FA03FC10EB0C00C3F1200301FA03F10E
:100BE00000F0004302D5494260EB4000B0F5000F31
:100BF00013D3B0F1807F06D340084FEA310102F1F0
:100C00000102FE2A51D2B1F1004F40EBC25008BFA1
:100C100020F0010040EA03007047490040EB00006B
:100C200010F4000FA2F10102EDD1B0FA80FCACF19A
:100C3000080CB2EB0C0200FA0CF0AABF00EBC25099
:100C400052421843BCBFD0401843704792F0000F87
:100C500081F4000106BF80F400000132013BB5E7DA
:100C60004FEA41037FEA226C18BF7FEA236C21D050
:100C700092EA030F04D092F0000F08BF08467047B5
:100C800090EA010F1CBF0020704712F07F4F04D183
:100C9000400028BF40F00040704712F100723CBF96
:100CA00000F50000704700F0004343F0FE4040F4C0
:100CB000000070477FEA226216BF08467FEA23637E
:100CC0000146420206BF5FEA412390EA010F40F469
:100CD000800070474FF0000304E000BF10F00043B5
:100CE00048BF40425FEA000C08BF704743F096439C
:100CF00001464FF000001CE050EA010208BF7047B7
:100D00004FF000030AE000BF50EA010208BF70473D
:100D100011F0004302D5404261EB41015FEA010C52
:100D200002BF84460146002043F0B64308BFA3F14A
:100D30008053A3F50003BCFA8CF2083AA3EBC2532C
:100D400010DB01FA02FC634400FA02FCC2F120024B
:100D5000BCF1004F20FA02F243EB020008BF20F082
:100D60000100704702F1200201FA02FCC2F12002E8
:100D700050EA4C0021FA02F243EB020008BF20EADD
:100D8000DC7070474FF0FF0C1CEAD0521EBF1CEA0B
:100D9000D15392EA0C0F93EA0C0F6FD01A4480EAF9
:100DA000010C400218BF5FEA41211ED04FF00063E2
:100DB00043EA501043EA5111A0FB01310CF000400E
:100DC000B1F5000F3EBF490041EAD3715B0040EA34
:100DD000010062F17F02FD2A1DD8B3F1004F40EB04
:100DE000C25008BF20F00100704790F0000F0CF0D7
:100DF000004C08BF49024CEA502040EA51207F3A9B
:100E0000C2BFD2F1FF0340EAC250704740F4000075
:100E10004FF00003013A5DDC12F1190FDCBF00F066
:100E200000407047C2F10002410021FA02F1C2F114
:100E3000200200FA02FC5FEA310040F1000053EAB0
:100E40004C0308BF20EADC70704792F0000F00F0FE
:100E5000004C02BF400010F4000F013AF9D040EA04
:100E60000C0093F0000F01F0004C02BF490011F498
:100E7000000F013BF9D041EA0C018FE70CEAD15396
:100E800092EA0C0F18BF93EA0C0F0AD030F0004C16
:100E900018BF31F0004CD8D180EA010000F00040CA
:100EA000704790F0000F17BF90F0004F084691F088
:100EB000000F91F0004F14D092EA0C0F01D14202C2
:100EC0000FD193EA0C0F03D14B0218BF084608D18B
:100ED00080EA010000F0004040F0FE4040F40000D5
:100EE000704740F0FE4040F4400070474FF0FF0C68
:100EF0001CEAD0521EBF1CEAD15392EA0C0F93EAAF
:100F00000C0F69D0A2EB030280EA010C49024FEA00
:100F1000402037D04FF0805343EA111143EA1013B9
:100F20000CF000408B4238BF5B0042F17D024FF471
:100F3000000C8B4224BF5B1A40EA0C00B3EB510F4C
:100F400024BFA3EB510340EA5C00B3EB910F24BF35
:100F5000A3EB910340EA9C00B3EBD10F24BFA3EBBA
:100F6000D10340EADC001B0118BF5FEA1C1CE0D182
:100F7000FD2A3FF650AF8B4240EBC25008BF20F035
:100F8000010070470CF0004C4CEA50207F32C2BF89
:100F9000D2F1FF0340EAC250704740F400004FF026
:100FA0000003013A37E792F0000F00F0004C02BF57
:100FB000400010F4000F013AF9D040EA0C0093F021
:100FC000000F01F0004C02BF490011F4000F013B7B
:100FD000F9D041EA0C0195E70CEAD15392EA0C0FE3
:100FE00008D142027FF47DAF93EA0C0F7FF470AF1B
:100FF000084676E793EA0C0F04D14B023FF44CAF5E
:1010000008466EE730F0004C18BF31F0004CCAD1F2
:1010100030F000427FF45CAF31F000437FF43CAF2E
:101020005FE700BF4FF0FF3C06E000BF4FF0010C50
:1010300002E000BF4FF0010C4DF804CD4FEA400232
:101040004FEA41037FEA226C18BF7FEA236C11D07C
:1010500001B052EA530C18BF90EA010F58BFB2EB2F
:10106000030088BFC81738BF6FEAE17018BF40F0AF
:10107000010070477FEA226C02D15FEA402C05D163
:101080007FEA236CE4D15FEA412CE1D05DF8040BE8
:10109000704700BF844608466146FFE70FB5FFF77B
:1010A000C9FF002848BF10F1000F0FBD4DF808ED33
:1010B000FFF7F4FF0CBF012000205DF808FB00BF24
:1010C0004DF808EDFFF7EAFF34BF012000205DF87E
:1010D00008FB00BF4DF808EDFFF7E0FF94BF0120CB
:1010E00000205DF808FB00BF4DF808EDFFF7D2FFC8
:1010F00094BF012000205DF808FB00BF4DF808ED0B
:10110000FFF7C8FF34BF012000205DF808FB00BFD7
:101110004FEA4002B2F1FE4F0FD34FF09E03B3EB04
:1011200012620DD94FEA002343F0004310F0004F44
:1011300023FA02F018BF404270474FF0000070479A
:1011400012F1610F01D1420205D110F0004008BF39
:101150006FF0004070474FF00000704742000ED221
:10116000B2F1FE4F0BD34FF09E03B3EB126209D4E2
:101170004FEA002343F0004323FA02F070474FF098
:101180000000704712F1610F01D1420202D14FF00D
:10119000FF3070474FF00000704700BF80B500AFD0
:1011A0001E4B1B78012B1BD01D4B1B78012B17D01E
:1011B0001C4B1B78012B13D01B4B1B78012B0FD022
:1011C0001A4B1B78012B0BD0194B1B78012B07D026
:1011D000184B1B78012B03D0174B1B78012B02D126
:1011E00000F0FCF817E000224FF48071134807F07C
:1011F000E2F901224FF40071114807F0DCF9114BBC
:1012000002221A70104B00221A70104B01221A7021
:101210000F4B00221A7000BF80BD00BF6510002078
:101220004410002064100020741000209010002052
:101230003E0C00203C0C00202C1000200008014037
:10124000001001406609002000000020010000207D
:101250007C02002080B500AF1C4B1B78012B17D0FF
:101260001B4B1B78012B13D01A4B1B78012B0FD073
:10127000194B1B78012B0BD0184B1B78012B07D077
:10128000174B1B78012B03D0164B1B78012B02D177
:1012900000F0A4F817E001224FF48071124807F023
:1012A0008AF900224FF40071104807F084F9104BBE
:1012B00001221A700F4B01221A700F4B00221A7074
:1012C0000E4B00221A7000BF80BD00BFA114002089
:1012D0004410002064100020881000203D0C0020E5
:1012E0003E0C00202C10002000080140001001409E
:1012F0006609002000000020010000207C02002080
:1013000080B500AF244B1B78012B27D0234B1B78D3
:10131000012B23D0224B1B78012B1FD0214B1B7894
:10132000012B1BD0204B1B78012B17D01F4B1B7898
:10133000012B13D01E4B1B78012B0FD01D4B1B789C
:10134000012B0BD01C4B1B78012B07D01B4B1B78A0
:10135000012B03D01A4B1B78012B02D100F03EF871
:1013600017E001224FF48071164807F024F901229A
:101370004FF40071144807F01EF9144B03221A7041
:10138000134B01221A70134B01221A70124B0022C8
:101390001A7000BF80BD00BF65100020A11400209E
:1013A00044100020641000207410002088100020D9
:1013B000901000203D0C00203E0C00203C0C002032
:1013C0002C10002000080140001001406609002098
:1013D00000000020010000207C02002080B500AF4A
:1013E00000224FF480710F4807F0E5F800224FF417
:1013F00000710D4807F0DFF80C4B00221A700C4BFF
:1014000000221A700B4B00221A700B4B01221A702B
:1014100000220421044807F0CEF800F011F800BFC4
:1014200080BD00BF00080140001001406609002097
:1014300000000020010000207C02002000000000CD
:1014400098B500AF2C4B1B681846FEF7EDFF4FF028
:1014500000022A4BFFF76AF903460C46184621465C
:1014600021A3D3E90023FFF737F803460C461846BB
:1014700021461FA3D3E90023FEF776FE03460C4660
:1014800018462146FFF720FB02461D4B1A601C4BF5
:101490001B681C491846FFF731FE0346002B03D09A
:1014A000174B194A1A601BE0154B1B681649184662
:1014B000FFF724FE0346002B03D0114B124A1A609B
:1014C0000EE00F4B1B684FF000011846FFF7F8FDC8
:1014D0000346002B00D103E0094B4FF000021A60D5
:1014E00000BF98BDAFF3008077AA50A5126F62408D
:1014F000EA1E0C0201EB7E404810002000002E4046
:10150000980B0020000002430000C84290B583B051
:1015100000AF644B1B6864491846FFF733FC034671
:101520001846FFF71BFE03469AB2604B1A80604BC9
:101530001B6860491846FFF71DFB03465A491846C9
:10154000FFF720FC03461846FFF708FE03469AB251
:10155000594B1A80594B1B681846FFF7D9FD0346B3
:101560009AB2574B1A80574B1A68574B1B6819464B
:101570001046FFF7FFFA03461846FEF755FF4FF0F7
:1015800000024FF08043FFF7D1F803460C4618469F
:1015900021464FF000024D4BFEF7E8FD03460C4696
:1015A000184621464FF00002494BFEF795FF0346CF
:1015B0000C4618462146FFF767FA03469AB2454B98
:1015C0001A80454B1B6838491846FFF7DBFB03467A
:1015D0001846FFF7C3FD03469AB2404B1A80404BB2
:1015E0001B681846FFF794FD03469AB23D4B1A80DC
:1015F0003D4B1A883D4B1A8000233B600AE03C4A71
:101600003B6832F813103B4A3B6822F823103B68D2
:1016100001333B603B680E2BF1DD374B1B78012B10
:1016200040F0E482354B1B6843F03063344A53602A
:101630001E4B1A78334B1A701C4B5A78314B5A7028
:101640001D4B1A782F4B9A701B4B5A782D4BDA7022
:101650001B4B1A782B4B1A71194B5A78294B5A711C
:101660001C4B1A78274B9A711A4B5A78254BDA7112
:10167000234B08221A6100BF234805F09DFF034653
:10168000002BF9D0214B1F4A1D491F4805F0BAFE17
:101690000346002B01D001F0F1FB4FF47A737B601D
:1016A00039E000BF481000200000C8429407002025
:1016B0005C10002000004842D8060020980B002053
:1016C000E006002070100020A41400200000444018
:1016D0000000244024070020140000208C07002074
:1016E00004000020A406002068090020D006002085
:1016F00004090020E40600207D02002008000020EC
:1017000074070020B40600200C08002058070020B1
:101710007B68013B7B607B68012BF9DC824B1B689B
:1017200043F03163814A5360814B1A78814B1A70C0
:101730007F4B5A787F4B5A707F4B1A787D4B9A704B
:101740007D4B5A787B4BDA707C4B1A78794B1A7147
:101750007A4B5A78774B5A71794B1B7803F0010317
:10176000DAB2744B9A71734B9B795AB2754B1B78F2
:101770005B005BB203F002035BB213435BB2DAB20D
:101780006C4B9A716B4B9B795AB26F4B1B789B00D9
:101790005BB203F004035BB213435BB2DAB2654B96
:1017A0009A71644B9B795AB2684B1B78DB005BB231
:1017B00003F008035BB213435BB2DAB25D4B9A717C
:1017C0005C4B9B795AB2624B1B781B015BB203F0F6
:1017D00010035BB213435BB2DAB2564B9A71554BAE
:1017E0009B795AB2594B1B785B015BB203F0200323
:1017F0005BB213435BB2DAB24E4B9A714D4B9B799D
:101800005AB2534B1B789B015BB203F040035BB2AF
:1018100013435BB2DAB2474B9A71464B9B795AB28B
:101820004C4B1B78DB015BB213435BB2DAB2414B2A
:101830009A71494B1B7803F00103DAB23D4BDA7120
:101840003C4BDB795AB2454B1B785B005BB203F033
:1018500002035BB213435BB2DAB2364BDA71354B3B
:10186000DB795AB23E4B1B789B005BB203F004035A
:101870005BB213435BB2DAB22E4BDA712D4BDB79DC
:101880005AB2384B1B78DB005BB203F008035BB243
:1018900013435BB2DAB2274BDA71264BDB795AB2CB
:1018A000314B1B781B015BB203F010035BB2134397
:1018B0005BB2DAB21F4BDA711E4BDB795AB22B4B9B
:1018C0001B785B015BB203F020035BB213435BB296
:1018D000DAB2184BDA71174BDB795AB2244B1B780A
:1018E0009B015BB203F040035BB213435BB2DAB21D
:1018F000104BDA710D4B08221A6100BF1D4805F02C
:101900005BFE0346002BF9D01B4B0A4A07491948D6
:1019100005F078FD0346002B01D001F0AFFA4FF43B
:101920007A737B602DE000BF080000207407002060
:101930008C070020B4060020A4060020D00600205A
:101940003E0C00207410002088100020441000205D
:10195000641000203C0C002065100020A114002021
:10196000901000202C10002000000020010000201A
:101970007C0200200C080020580700207B68013BF7
:101980007B607B68012BF9DC924B1B6843F034636E
:10199000914A5360914B1A78914B1A708F4B5A7839
:1019A0008F4B5A708D4B1A798D4B9A708B4B5A799D
:1019B0008B4BDA70894B1A7A894B1A71874B5A7A9A
:1019C000874B5A71854B1A7B854B9A71834B5A7B97
:1019D000834BDA71804B08221A6100BF814805F001
:1019E000EBFD0346002BF9D07F4B7D4A7A497D48B9
:1019F00005F008FD0346002B01D001F03FFA4FF43B
:101A00007A737B6002E07B68013B7B607B68012B23
:101A1000F9DC704B1B6843F035636F4A53606F4BC2
:101A20001A7C6F4B1A706D4B5A7C6D4B5A706B4B16
:101A30001A7D6B4B9A70694B5A7D694BDA70674B14
:101A40001A7E674B1A71654B5A7E654B5A71634B10
:101A50001A7F634B9A71614B5A7F614BDA715E4B0F
:101A600008221A6100BF5F4805F0A6FD0346002B5F
:101A7000F9D05D4B5A4A58495A4805F0C3FC034611
:101A8000002B01D001F0FAF94FF47A737B6002E089
:101A90007B68013B7B607B68012BF9DC4D4B1B684D
:101AA00043F036634C4A53604C4B93F820204C4B28
:101AB0001A704A4B93F82120494B5A70474B93F8C0
:101AC0002420474B9A70454B93F82520444BDA70FD
:101AD000424B93F82820424B1A71404B93F829202F
:101AE0003F4B5A713D4B93F82C203D4B9A713B4B29
:101AF00093F82D203A4BDA71374B08221A6100BF58
:101B0000384805F059FD0346002BF9D0364B344ACE
:101B10003149344805F076FC0346002B01D001F032
:101B2000ADF94FF47A737B6002E07B68013B7B6028
:101B30007B68012BF9DC274B1B6843F03763264A8F
:101B40005360264B93F83020254B1A70234B93F8A3
:101B50003120234B5A70214B93F83420204B9A703C
:101B60001E4B93F835201E4BDA701C4B93F838202F
:101B70001B4B1A71194B93F83920194B5A71174B9B
:101B800093F83820164B9A71144B93F83920144B64
:101B9000DA71114B08221A6100BF124805F00CFDE2
:101BA0000346002BF9D0104B0D4A0B490D4805F0A8
:101BB00029FC0346002B01D001F060F94FF47A7341
:101BC0007B6002E07B68013B7B607B68012BF9DC7A
:101BD0005EE000BF0800002074070020E40600203B
:101BE000B40600200C080020580700202A4B1B7860
:101BF0000133DAB2284B1A70284B1B78002B47D1DF
:101C0000274B1B78002B43D1234B1B78312B3FD91B
:101C1000244B1B6843F06063234A5360234B00222C
:101C20001A70224B00225A70204B00229A701F4BD0
:101C30000022DA701D4B00221A711C4B00225A71CF
:101C40001A4B55229A71194B0022DA71164B082251
:101C50001A6100BF164805F0AFFC0346002BF9D00F
:101C6000144B124A1049124805F0CCFB0346002BD6
:101C700001D001F003F94FF47A737B6002E07B68D6
:101C8000013B7B607B68012BF9DC034B00221A705F
:101C900000BF0C37BD4690BD7F0200207D020020B2
:101CA0007E0200200800002074070020B4060020F7
:101CB0000C0800205807002080B582B000AF504BC0
:101CC000504A0021504805F0ABFC4E4B1B68E22BFC
:101CD0003AD14B4B9B79552B2BD14C4B1B78002B7E
:101CE00027D14B4B02221A70484B01221A70494BE4
:101CF00008221A61484BAA229A7100BF424805F097
:101D00005BFC0346002BF9D0444B434A41493E4813
:101D100005F078FB0346002B01D001F0AFF84FF43B
:101D20007A737B6002E07B68013B7B607B68012B00
:101D3000F9DC334B9B79AA2B06D1344B1B78012B52
:101D400002D1374B01221A702E4B1B68B3F5D97F95
:101D500051D12B4B1B7803F00103002B12D0314BD8
:101D600001221A70264B1B785B08DBB203F00303D9
:101D7000DAB2274B1A702A4B01221A70234B012228
:101D80001A7020E01E4BDB7903F00103002B06D014
:101D9000244B01221A701E4B00221A7013E0184BBC
:101DA0005B78002B0FD1164BDB79002B0BD1184B36
:101DB00000221A701A4B00221A70144B00221A705B
:101DC000184B00221A700E4B1B78DB08DBB2002B7D
:101DD00014BF01230023DBB21A46134B1A70084BC1
:101DE0001B781B09DBB2002B14BF01230023DBB2DD
:101DF0001A460E4B1A7000BF0837BD4680BD00BFA3
:101E0000BC0600203C0700200C0800207E020020B9
:101E1000940B002074070020B4060020580700200F
:101E20007D0200206009002050100020A810002032
:101E300080B58AB000AF00237B610023BB61012322
:101E4000FB6100233B6000237B600023BB60002319
:101E5000FB6000233B6101233B620E237B623B4618
:101E600019460E4805F0C1F90346002B01D001F0D8
:101E700005F80A4805F082FA0346002B01D000F06D
:101E8000FDFF074B00221A75054B0022DA60044B58
:101E900004229A6000BF2837BD4680BD0C08002090
:101EA0007407002080B584B000AF3B1D00221A608B
:101EB0005A609A603D4B3E4A1A603C4B4FF4807228
:101EC0009A603A4B01221A73384B00221A75374B2D
:101ED0004FF46022DA61354B00225A60334B062200
:101EE0001A61324804F0CAFC0346002B01D000F00E
:101EF000C5FF00237B600123BB600723FB603B1D04
:101F000019462A4804F08CFE0346002B01D000F04D
:101F1000B5FF05237B600223BB603B1D19462348A8
:101F200004F07EFE0346002B01D000F0A7FF012342
:101F30007B600323BB603B1D19461C4804F070FE08
:101F40000346002B01D000F099FF02237B6004239D
:101F5000BB603B1D1946154804F062FE0346002B8A
:101F600001D000F08BFF03237B600523BB600623B9
:101F7000FB603B1D19460D4804F052FE0346002B42
:101F800001D000F07BFF04237B600623BB603B1D78
:101F90001946064804F044FE0346002B01D000F029
:101FA0006DFF00BF1037BD4680BD00BF9807002001
:101FB0000024014080B588B000AF786007F11003BD
:101FC00000221A605A609A60DA607B681B68284AAF
:101FD000934249D1274B9B69264A43F4007393618E
:101FE000244B9B6903F40073FB60FB68214B9B69E6
:101FF000204A43F0040393611E4B9B6903F00403E2
:10200000BB60BB683F233B6103237B6107F1100387
:102010001946194806F05EF9184B194A1A60174B11
:1020200000225A60154B00229A60144B8022DA601D
:10203000124B4FF480721A61104B4FF480625A6158
:102040000E4B20229A610D4B0022DA610B4805F0FD
:102050002DFF0346002B01D000F010FF7B68074ADC
:102060001A62064A7B68536200BF2037BD4680BDB6
:10207000002401400010024000080140C807002071
:102080000800024080B500AF174B184A1A60164B83
:1020900008225A60144B00229A60134B0022DA6027
:1020A000114B4FF4A0221A610F4B00225A610E4BC4
:1020B00000221A760C4B00225A760B4B00229A769D
:1020C000094B0022DA76084B00221A77064B0022D1
:1020D0005A77054804F08EFF0346002B01D000F02C
:1020E000CDFE00BF80BD00BF0C0800200064004092
:1020F00080B58AB000AF786007F1140300221A603F
:102100005A609A60DA607B681B682D4A934253D10B
:102110002C4BDB692B4A43F00073D361294BDB69FD
:1021200003F000733B613B69264B9B69254A43F0F2
:1021300008039361234B9B6903F00803FB60FB6872
:102140004FF480737B610023BB610023FB6107F1C7
:10215000140319461C4806F0BDF84FF400737B6168
:102160000223BB6103233B6207F11403194616489F
:1021700006F0B0F8154B5B687B627B6A23F4C043C2
:102180007B627B6A43F0E0637B627B6A43F480435B
:102190007B620E4A7B6A536000220021152005F005
:1021A0004EFE152005F067FE00220021162005F0E6
:1021B00046FE162005F05FFE00BF2837BD4680BDF5
:1021C0000064004000100240000C0140000001408B
:1021D00080B582B000AF0C4B5B690B4A43F0010342
:1021E0005361094B5B6903F001037B607B6800224C
:1021F00000210B2005F023FE0B2005F03CFE00BF64
:102200000837BD4680BD00BF0010024080B588B0D1
:1022100000AF07F1100300221A605A609A60DA607A
:102220003F4B9B693E4A43F0100393613C4B9B69D3
:1022300003F01003FB60FB68394B9B69384A43F09D
:1022400004039361364B9B6903F00403BB60BB68D6
:10225000334B9B69324A43F008039361304B9B69CF
:1022600003F008037B607B6800224FF40D712D485A
:1022700006F0A1F9002241F203012B4806F09BF978
:1022800000224FF48071294806F095F903233B6141
:1022900000237B610223BB6107F11003194621482B
:1022A00006F018F84FF40D733B6101237B610023A6
:1022B000BB610223FB6107F110031946194806F0C0
:1022C00009F841F203033B6101237B610023BB61F9
:1022D0000223FB6107F110031946134805F0FAFFCA
:1022E00004233B6100237B610023BB6107F11003E2
:1022F00019460D4805F0EEFF4FF480733B61012352
:102300007B610023BB610223FB6107F110031946C7
:10231000064805F0DFFF00BF2037BD4680BD00BF87
:102320000010024000100140000C01400008014074
:1023300080B500AF124B134A1A60114B124A5A6013
:102340000F4B00229A600E4B0022DA600C4B4FF4C8
:1023500080421A610A4B00225A61094B00229A619D
:10236000074B0022DA61064B00221A62044806F08D
:1023700053F90346002B01D000F080FD00BF80BD63
:102380003408002000540040801A060080B500AFD9
:10239000124B134A1A60114B124A5A600F4B00221B
:1023A0009A600E4B0022DA600C4B4FF480421A61A7
:1023B0000A4B00225A61094B00229A61074B002206
:1023C000DA61064B00221A62044806F025F903463A
:1023D000002B01D000F052FD00BF80BD8808002016
:1023E00000580040A086010080B58AB000AF786038
:1023F00007F1180300221A605A609A60DA607B685D
:102400001B682B4A934224D12A4B9B69294A43F0EB
:1024100008039361274B9B6903F008037B617B6989
:10242000C023BB611223FB6103237B6207F1180306
:102430001946214805F04EFF1E4BDB691D4A43F447
:102440000013D3611B4BDB6903F400133B613B6951
:1024500029E07B681B68194A934224D1154B9B697C
:10246000144A43F008039361124B9B6903F008037D
:10247000FB60FB684FF44063BB611223FB610323E5
:102480007B6207F1180319460B4805F023FF094B3F
:10249000DB69084A43F48003D361064BDB6903F42C
:1024A0008003BB60BB6800BF2837BD4680BD00BF4E
:1024B0000054004000100240000C01400058004051
:1024C00080B500AF094B0A4A1A60084B05225A60D2
:1024D000064B40F6FF729A60044806F0E1FD0346A1
:1024E000002B01D000F0CAFC00BF80BDDC0800203A
:1024F000003000400000000080B500AF04F03AF961
:1025000000F0F4F805F0C0FEFFF780FEFFF760FE74
:10251000FFF7C8FCFFF7B6FDFFF70AFFFFF736FF2E
:1025200001F0B2FD04F010F804F038F8FFF7C8FF2E
:1025300003F030FF03F07AFF00F0A6FC00F000FD8E
:102540000A2004F079F95C495C4800F01DFF5C4BFF
:1025500000221A605B4B4FF000021A6013E0584BE8
:102560001B68554A52F82320564B1B6819461046E3
:10257000FEF700FB03461A46524B1A60504B1B688D
:1025800001334F4A13604E4B1B680E2BE7DD0A20C8
:1025900004F052F9FFF74CFC00F002F94A4B01221B
:1025A0001A704FF47A7004F047F9484B00221A7001
:1025B0000121474805F0E8FF0346002B09D002211E
:1025C000434805F0E1FF0346002B02D100F0D6FBA3
:1025D00023E001213E4805F0D7FF0346002B09D137
:1025E00002213B4805F0D0FF0346002B02D000F04B
:1025F0007FFB12E00121364805F0C6FF0346002BA1
:1026000009D00221324805F0BFFF0346002B02D05B
:1026100000F068F901E000F035F92E4806F079FD88
:102620002A4B1B78012B3BD12B4B1B78012B04D160
:102630002149224800F0A8FE03E01F491F4800F08E
:10264000A3FE1D4801F06CFC244B1B681846FDF7E7
:10265000EBFE17A3D3E90023FEF7B0F90346002BE6
:1026600008D0184B1B681E491846FEF747FD034665
:10267000002B03D11B4B1B78012B05D11A4B1B8858
:10268000184601F0E1FB05E0174B00221A800020FC
:1026900001F0DAFB00F0C8FB10210D4805F0A3FFA4
:1026A0000C4806F036FD012004F0C6F880E700BFB4
:1026B0009A9999999999B9BF240900200409002091
:1026C000E8080020700B0020800200206009002034
:1026D00000100140DC080020660900205C1000208A
:1026E00000005C42740B0020A20B002080B594B067
:1026F00000AF07F1280328220021184607F026FF23
:1027000007F1140300221A605A609A60DA601A61B5
:102710003B1D00221A605A609A60DA600A23BB628D
:102720000123BB631023FB6301233B6402237B640F
:102730000023BB644FF46013FB6407F128031846C1
:1027400006F0F6FC0346002B01D000F097FB0F23A8
:102750007B610223BB610023FB614FF480633B621A
:1027600000237B6207F114030221184606F060FF84
:102770000346002B01D000F081FB02237B604FF465
:102780000043FB603B1D184607F0EEF80346002BA4
:1027900001D000F073FB00BF5037BD4680BD000084
:1027A00098B500AF06222E492E4804F03FF901F0FB
:1027B000FBFC002001F0E4FD01F0B4FD0122042146
:1027C000294805F0F8FE4FF4FA7004F035F80421BA
:1027D000254805F008FF4FF4FA7004F02DF80421A5
:1027E000214805F000FF642004F026F804211E486B
:1027F00005F0F9FE642004F01FF804211A4805F0E2
:10280000F2FE642004F018F80421174805F0EBFEEE
:10281000642004F011F8154A154B144607CB2060CC
:102820006160A2601B7823730021052001F01EFE69
:10283000012210490D4801F0AFFE01F073FD0E4872
:1028400007F0D4F90D4807F0D1F94FF47A7003F08E
:10285000F3FF0B4B00221A70FEF7C0FD00BF98BDBE
:10286000EC0800209807002000100140780B0020A1
:1028700058CA00080C000020EC140020AC14002002
:102880006609002098B500AF114B00221A70114B59
:1028900000221A70002001F073FD0F4A0F4B1446FE
:1028A00007CB20606160A2601B7823731C21142079
:1028B00001F0DCFD01220A49074801F06DFE01F03C
:1028C00031FDFEF78BFD012003F0B6FF00BF98BD80
:1028D00000090020740B0020780B002058CA000863
:1028E0000C0000202DE9F04F87B006AF5B4B0022B3
:1028F0001A705B4B00221A705A4B1B78002B58D170
:10290000002001F03DFD584A584B15461C460FCC9F
:1029100028606960AA60EB602388A2782B82134646
:10292000AB741221002001F0A1FD012250494E4854
:1029300001F032FE4C4A4F4B144607CB20606160D9
:10294000A2602621002001F091FD0122484946485D
:1029500001F022FE01F0E6FC00221021464805F0BD
:102960002AFEFEF73BFD454B00221A70444B002225
:102970001A70444B00221A70434B00221A70434BCA
:1029800000221A70424B00221A70424B00221A7029
:10299000414B00221A70414B00221A70404B00221A
:1029A0001A70404B00221A703F4B1B683F4A13605D
:1029B00067E1002001F0E4FC10212F4805F013FE30
:1029C0003B4B1B78012B14D1274A3A4B15461C462A
:1029D0000FCC28606960AA60EB6023782B7400211B
:1029E000002001F043FD012221491F4801F0D4FDE0
:1029F0007EE02F4B1B78022B14D11B4A2E4B154621
:102A00001C460FCC28606960AA60EB6020682861D2
:102A10000021002001F02AFD01221549124801F091
:102A2000BBFD65E0224B1B78032B49D10E4A234B9B
:102A300015461C460FCC28606960AA60EB602388AD
:102A4000A2782B821346AB740021002001F00EFD0A
:102A500001220749044801F09FFD49E000090020D8
:102A6000740B002060090020780B002068CA000861
:102A70000C0000207CCA0008001001404410002017
:102A800064100020901000203D0C002065100020F4
:102A9000A114002074100020881000203E0C00209B
:102AA0002C1000203C0C0020B4100020B01000209E
:102AB0006609002088CA00089CCA0008B0CA00083D
:102AC000744B1B78002B13D1734A744B144607CBFD
:102AD00020606160A2601A889B78A281A3730021A4
:102AE000002001F0C3FC01226D496B4801F054FD48
:102AF0006C4B1B681846FDF797FC05460E466A4B63
:102B00001B681846FDF790FC03460C46CDE90034DF
:102B10002A4633466549604808F070F90A210020CA
:102B200001F0A4FC01225E495B4801F035FD604BD9
:102B30001B681846FDF778FC82468B465D4B1B6888
:102B40001846FDF771FC04460D465B4B1B681846A2
:102B5000FDF76AFC80468946584B1B681846FDF70E
:102B600063FC02460B46CDE90423CDE90289CDE999
:102B7000004552465B465249474808F03FF9142148
:102B8000002001F073FC01224549434801F004FD97
:102B90004C4B1B681846FDF747FC0A4601464A4B5A
:102BA0001B7801932523009313460A4647493A4868
:102BB00008F024F91E21002001F058FC01223849B8
:102BC000354801F0E9FC424B1B881D46414B1B6810
:102BD0001846FDF729FC03460C46CDE900342A4689
:102BE0003D492D4808F00AF92821002001F03EFC5B
:102BF00001222B49284801F0CFFC384B1B781E4698
:102C0000374B1B789846374B1B681846FDF70CFC72
:102C100004460D46344B1B681846FDF705FC02467A
:102C20000B46CDE90223CDE90045434632462F4904
:102C3000194808F0E3F83221002001F017FC0122C6
:102C40001749154801F0A8FC01F06CFB1E4B1B78DE
:102C5000002B02D1FEF7C2FB13E01B4B1B78012BAC
:102C600002D1FEF79BFA0CE0174B1B78022B02D126
:102C7000FEF7F0FA05E0144B1B78032B01D1FEF7A9
:102C80003FFB012003F0D8FD00BF0437BD46BDE87F
:102C9000F08F00BF66090020780B0020C4CA00082E
:102CA0000C000020481000205C100020D4CA00084E
:102CB00070100020A41400204C1000209C10002054
:102CC000E4CA0008980B0020940B002000CB0008F9
:102CD000A20B00206C0B002010CB00086C10002011
:102CE000A014002030100020A010002020CB0008ED
:102CF000B0B500AF1B4B01221A701B4B00221A709B
:102D0000002001F03DFB194A194B144607CB206007
:102D10006160A2601B7823731221142001F0A6FBCE
:102D200001221449114801F037FC104A124B154694
:102D30001C460FCC28606960AA60EB602388A278EB
:102D40002B821346AB742621002001F08FFB012259
:102D50000849064801F020FC01F0E4FAFEF73EFBCA
:102D600000BFB0BD00090020740B0020780B0020CC
:102D700058CA00080C00002038CB000898B500AFF6
:102D8000214B00221A70214B01221A70002001F001
:102D9000F7FA1F4A1F4B144607CB20606160A26000
:102DA0001B7823730021142001F060FB01221A49D3
:102DB000174801F0F1FB164A184B144607CB206068
:102DC0006160A2601B88A3810A21002001F04EFBF4
:102DD000012211490E4801F0DFFB114B1B881A46F6
:102DE00010490B4808F00AF82821002001F03EFBAA
:102DF00001220949064801F0CFFB01F093FAFEF7E2
:102E0000EDFA00BF98BD00BF00090020740B002040
:102E1000780B002058CA00080C0000204CCB00089A
:102E2000A20B00205CCB000880B500AF104B002245
:102E30001A60104B4FF000021A6013E00C4B1B6835
:102E40000D4A52F823200B4B1B6819461046FDF71C
:102E500091FE03461A46074B1A60054B1B68013367
:102E6000034A1360024B1B680E2BE7DD00BF80BDD9
:102E7000E8080020700B00202409002080B400AF77
:102E800000BFBD4680BC704780B588B000AF2A4BFC
:102E90009B69294A43F004039361274B9B6903F024
:102EA0000403FB60FB68244B9B69234A43F008033F
:102EB0009361214B9B6903F00803BB60BB681E4B09
:102EC0009B691D4A43F0100393611B4B9B6903F000
:102ED00010037B607B6801233B6101237B6100233E
:102EE000BB610323FB6107F110031946134805F08A
:102EF000F1F908233B6107F1100319460F4805F06B
:102F0000E9F920233B6107F1100319460B4805F04E
:102F1000E1F910233B6100237B610023BB610123A6
:102F2000FB6107F110031946044805F0D3F900BF0F
:102F30002037BD4680BD00BF00100240000C01409C
:102F400080B500AF012201212A4805F034FB01229F
:102F50004FF48071284805F02EFB0A2000F04EF84F
:102F600000224FF48071244805F025FB4FF4FA60ED
:102F700000F044F801224FF480711F4805F01BFB5C
:102F80000A2000F03BF8002201211A4805F013FB4B
:102F9000642000F033F801220121164805F00BFBF4
:102FA000642000F02BF800220121124805F003FBF9
:102FB000642000F023F8012201210E4805F0FBFAFD
:102FC000642000F01BF8002201210A4805F0F3FA02
:102FD000642000F013F801220121064805F0EBFA05
:102FE000642000F00BF844F6206000F007F800BF02
:102FF00080BD00BF000C01400010014080B483B0D0
:1030000000AF786002E07B68013B7B607B68002B4F
:10301000F9D100BF0C37BD4680BC704780B584B085
:1030200000AF0346FB71002208211A4805F0C3FADD
:103030000023FB7327E0FA79FB7BC3F1070342FA15
:1030400003F303F00103002B05D0012220211148D6
:1030500005F0B1FA04E0002220210E4805F0ABFA99
:103060000A20FFF7CBFF012208210A4805F0A3FA46
:103070000A20FFF7C3FF00220821064805F09BFA4B
:10308000FB7B0133FB73FB7B072BD4D900BF1037CD
:10309000BD4680BD000C014080B582B000AF00236A
:1030A000BB71002220211E4805F085FA002208216C
:1030B0001B4805F080FA0023FB7128E00A20FFF787
:1030C0009DFF01220821164805F075FA0A20FFF736
:1030D00095FF1021124805F057FA0346012B0BD13A
:1030E000FB79C3F10703012202FA03F35AB297F9FD
:1030F000063013435BB2BB710A20FFF77FFF00224B
:103100000821074805F057FAFB790133FB71FB7979
:10311000072BD3D9BB7918460837BD4680BD00BF01
:10312000000C014080B584B000AF0346FB710B4634
:10313000BB7113467B71FB795B10DBB203F00103BB
:10314000FB73FB7B0233DBB23B73FB79DB01FB736D
:10315000BB791B01DAB2FB7B1344DAB27B791344EF
:10316000DBB26033DBB27B7307F10C03184600F06F
:1031700005F800BF1037BD4680BD000080B584B0A3
:1031800000AF78607B681B783B727B685B787B72F2
:1031900007F108031946022000F02AF80346FB81D4
:1031A000FB891B0A9BB2DBB2BB72FB89DBB2FB72F1
:1031B000002201210D4805F0FEF93B7A1846FFF781
:1031C0002DFF7B7A1846FFF729FFBB7A1846FFF7D9
:1031D00025FFFB7A1846FFF721FF01220121034852
:1031E00005F0E9F900BF1037BD4680BD000C014075
:1031F00080B485B000AF03463960FB711023FB81BA
:1032000000237B7319E0FB89DB099AB27B7B396869
:103210000B441B789BB253409BB2DBB27B81FB8992
:103220001B021AB27B890B4931F813301BB2534091
:103230001BB2FB817B7B01337B737A7BFB799A42E8
:10324000E1D3FB895B009BB218461437BD4680BCB6
:10325000704700BFE4D2000890B585B000AF0346C8
:103260003A60FB710B46BB71FB79012B04D104233F
:103270007B7200233B7226E0FB79022B04D10623EC
:103280007B7200233B721EE0FB79032B04D10823E1
:103290007B7200233B7216E0FB79042B04D10A23D6
:1032A0007B7200233B720EE0FB79052B04D10923CE
:1032B0007B7200233B7206E0FB79062B03D10B23C4
:1032C0007B7200233B7207F1080319460220FFF7C7
:1032D0008FFF0346FB81FB891B0A9BB2DBB2BB72EB
:1032E000FB89DBB2FB7200220121264805F063F95D
:1032F0003B7A1846FFF792FE7B7A1846FFF78EFE60
:10330000BB7A1846FFF78AFEFB7A1846FFF786FE5F
:10331000FFF7C2FE03461A463B681A703B685C1C06
:10332000FFF7BAFE034623703B689C1CFFF7B4FE10
:10333000034623703B68DC1CFFF7AEFE0346237098
:103340003B681C1DFFF7A8FE034623703B685C1D0D
:10335000FFF7A2FE034623703B689C1DFFF79CFE0F
:10336000034623703B68DC1DFFF796FE034623707F
:1033700001220121034805F01EF900BF1437BD46A4
:1033800090BD00BF000C014090B587B000AF7860E1
:1033900039600023FB7500220121C74805F00BF9B5
:1033A000C64B07221A70C54B23225A70C348FFF739
:1033B000E5FE012003F040FA002201210020FFF782
:1033C000B1FE4FF42F7003F037FA07F10C031A46E1
:1033D00001210120FFF740FFFB7D5B00013307F176
:1033E0001802134413F80C3C1B02FA7D520007F13B
:1033F00018010A4412F80C2C13431846FDF76EFC12
:10340000FB7DAF4A52F823301946FDF7B1FB034666
:103410001946FB7D5B007A68D4180846FDF79EFECE
:1034200003469BB22380FB7D5B007A6813441B88B4
:103430001846FCF7E7FF9EA3D3E90023FDF74CF8FD
:1034400003460C4618462146FB7D9B003A68D4187B
:10345000FDF73AFB03462360FB7D0133FB75FB7DE3
:103460005B00013307F11802134413F80C3C1B02F4
:10347000FA7D520007F118010A4412F80C2C13438C
:103480001846FDF72BFCFB7D8D4A52F82330194678
:10349000FDF76EFB03461946FB7D5B007A68D41886
:1034A0000846FDF75BFE03469BB22380FB7D5B0075
:1034B0007A6813441B881846FCF7A4FF7CA3D3E961
:1034C0000023FDF709F803460C4618462146FB7D0C
:1034D0009B003A68D418FDF7F7FA03462360FB7D9A
:1034E0000133FB75FB7D5B00013307F118021344C8
:1034F00013F80C3C1B02FA7D520007F118010A4434
:1035000012F80C2C13431846FDF7E8FBFB7D6C4AC0
:1035100052F823301946FDF72BFB03461946FB7D75
:103520005B007A68D4180846FDF718FE03469BB284
:103530002380FB7D5B007A6813441B881846FCF7E8
:1035400061FF5BA3D3E90023FCF7C6FF03460C46EB
:1035500018462146FB7D9B003A68D418FDF7B4FA63
:1035600003462360FB7D0133FB7507F10C031A460C
:1035700001210220FFF770FE0023FB75FB7D5B003D
:10358000013307F11802134413F80C3C1B02FA7DB7
:10359000520007F118010A4412F80C2C1343184684
:1035A000FDF79CFBFB7D0333454A52F82330194657
:1035B000FDF7DEFA03461946FB7D03335B007A68AC
:1035C000D4180846FDF7CAFD03469BB22380FB7D55
:1035D00003335B007A6813441B881846FCF712FF1C
:1035E00033A3D3E90023FCF777FF03460C461846C4
:1035F0002146FB7D03339B003A68D418FDF764FA3B
:1036000003462360FB7D0133FB75FB7D5B000133CB
:1036100007F11802134413F80C3C1B02FA7D520008
:1036200007F118010A4412F80C2C13431846FDF751
:1036300055FBFB7D0333224A52F823301946FDF730
:1036400097FA03461946FB7D03335B007A68D4186A
:103650000846FDF783FD03469BB22380FB7D0333C1
:103660005B007A6813441B881846FCF7CBFE10A356
:10367000D3E90023FCF730FF03460C4618462146E9
:10368000FB7D03339B003A68D418FDF71DFA03460F
:103690002360FB7D0133FB75FB7D5B00013307F18C
:1036A0001802134413F80C3C1B020BE0AFF300802C
:1036B0002D431CEBE2361A3F000C0140A00B00200A
:1036C00018000020FA7D520007F118010A4412F890
:1036D0000C2C13431846FDF701FBFB7D0333C64A50
:1036E00052F823301946FDF743FA03461946FB7D8D
:1036F00003335B007A68D4180846FDF72FFD0346B4
:103700009BB22380FB7D03335B007A6813441B88E4
:103710001846FCF777FEB6A3D3E90023FCF7DCFEDE
:1037200003460C4618462146FB7D03339B003A684E
:10373000D418FDF7C9F903462360FB7D0133FB75FF
:1037400007F10C031A4601210320FFF785FD002332
:10375000FB75FB7D5B00013307F11802134413F87E
:103760000C3C1B02FA7D520007F118010A4412F8C2
:103770000C2C13431846FDF7B1FAFB7D06339E4A25
:1037800052F823301946FDF7F3F903461946FB7D3D
:1037900006335B007A68D4180846FDF7DFFC034661
:1037A0009BB22380FB7D06335B007A6813441B8841
:1037B0001846FCF727FE8EA3D3E90023FCF78CFE06
:1037C00003460C4618462146FB7D06339B003A68AB
:1037D000D418FDF779F903462360FB7D0133FB75AF
:1037E000FB7D5B00013307F11802134413F80C3C16
:1037F0001B02FA7D520007F118010A4412F80C2C42
:1038000013431846FDF76AFAFB7D06337A4A52F8ED
:1038100023301946FDF7ACF903461946FB7D063304
:103820005B007A68D4180846FDF798FC03469BB203
:103830002380FB7D06335B007A6813441B8818469F
:10384000FCF7E0FD6AA3D3E90023FCF745FE03463D
:103850000C4618462146FB7D06339B003A68D41877
:10386000FDF732F903462360FB7D0133FB75FB7DD9
:103870005B00013307F11802134413F80C3C1B02E0
:10388000FA7D520007F118010A4412F80C2C134378
:103890001846FDF723FAFB7D0633574A52F82330CA
:1038A0001946FDF765F903461946FB7D06335B00B3
:1038B0007A68D4180846FDF751FC03469BB2238072
:1038C000FB7D06335B007A6813441B881846FCF7BF
:1038D00099FD47A3D3E90023FCF7FEFD03460C4600
:1038E00018462146FB7D06339B003A68D418FDF745
:1038F000EBF803462360FB7D0133FB7507F10C03F6
:103900001A4601210420FFF7A7FC0023FB75FB7D6D
:103910005B00013307F11802134413F80C3C1B023F
:10392000FA7D520007F118010A4412F80C2C1343D7
:103930001846FDF7D3F9FB7D09332F4A52F823309F
:103940001946FDF715F903461946FB7D09335B005F
:103950007A68D4180846FDF701FC03469BB2238021
:10396000FB7D09335B007A6813441B881846FCF71B
:1039700049FD1FA3D3E90023FCF7AEFD03460C4627
:1039800018462146FB7D09339B003A68D418FDF7A1
:103990009BF803462360FB7D0133FB75FB7D5B00D9
:1039A000013307F11802134413F80C3C1B02FA7D93
:1039B000520007F118010A4412F80C2C1343184660
:1039C000FDF78CF9FB7D09330B4A52F82330194679
:1039D000FDF7CEF803461946FB7D09335B007A6894
:1039E000D4180846FDF7BAFB034607E0AFF30080A2
:1039F0002D431CEBE2361A3F180000209BB22380B7
:103A0000FB7D09335B007A6813441B881846FCF77A
:103A1000F9FCA1A3D3E90023FCF75EFD03460C46A5
:103A200018462146FB7D09339B003A68D418FDF700
:103A30004BF803462360FB7D0133FB75FB7D5B0088
:103A4000013307F11802134413F80C3C1B02FA7DF2
:103A5000520007F118010A4412F80C2C13431846BF
:103A6000FDF73CF9FB7D09338D4A52F823301946A6
:103A7000FDF77EF803461946FB7D09335B007A6843
:103A8000D4180846FDF76AFB03469BB22380FB7DF2
:103A900009335B007A6813441B881846FCF7B2FCB4
:103AA0007DA3D3E90023FCF717FD03460C46184617
:103AB0002146FB7D09339B003A68D418FDF704F8D2
:103AC00003462360FB7D0133FB7507F10C031A46A7
:103AD00001210520FFF7C0FB0023FB75FB7D5B0088
:103AE000013307F11802134413F80C3C1B02FA7D52
:103AF000520007F118010A4412F80C2C134318461F
:103B0000FDF7ECF8FB7D0C33654A52F8233019467B
:103B1000FDF72EF803461946FB7D0C335B007A68EF
:103B2000D4180846FDF71AFB03469BB22380FB7DA1
:103B30000C335B007A6813441B881846FCF762FC60
:103B400055A3D3E90023FCF7C7FC03460C461846EF
:103B50002146FB7D0C339B003A68D418FCF7B4FF78
:103B600003462360FB7D0133FB75FB7D5B00013366
:103B700007F11802134413F80C3C1B02FA7D5200A3
:103B800007F118010A4412F80C2C13431846FDF7EC
:103B9000A5F8FB7D0C33424A52F823301946FCF756
:103BA000E7FF03461946FB7D0C335B007A68D418A7
:103BB0000846FDF7D3FA03469BB22380FB7D0C3306
:103BC0005B007A6813441B881846FCF71BFC32A381
:103BD000D3E90023FCF780FC03460C461846214637
:103BE000FB7D0C339B003A68D418FCF76DFF03464D
:103BF0002360FB7D0133FB75FB7D5B00013307F127
:103C00001802134413F80C3C1B02FA7D520007F112
:103C100018010A4412F80C2C13431846FDF75EF8FD
:103C2000FB7D0C331E4A52F823301946FCF7A0FFE7
:103C300003461946FB7D0C335B007A68D4180846AE
:103C4000FDF78CFA03469BB22380FB7D0C335B00AF
:103C50007A6813441B881846FCF7D4FB0EA3D3E9FB
:103C60000023FCF739FC03460C4618462146FB7D31
:103C70000C339B003A68D418FCF726FF03462360F8
:103C8000FB7D0133FB7501220121064804F093FC02
:103C900000BF1C37BD4690BD2D431CEBE2361A3FDA
:103CA00018000020000C014080B588B000AF03462A
:103CB0000A46FB711346BB7101237B7500233B75DC
:103CC00007F1140319460220FFF792FA03467B839B
:103CD0007B8B1B0A9BB2DBB2BB757B8BDBB2FB75AC
:103CE00000220121244804F066FC3B7D1846FFF7C2
:103CF00095F97B7D1846FFF791F9BB7D1846FFF7D4
:103D00008DF9FB7D1846FFF789F900233B730023EB
:103D10007B730023BB730023FB73FB793B74BB797C
:103D20007B7407F10C0319460620FFF761FA03467E
:103D30007B837B8B1B0A9BB2DBB2BB747B8BDBB2BE
:103D4000FB740023FB610AE007F10C02FB691344DA
:103D50001B781846FFF762F9FB690133FB61FB69C9
:103D6000072BF1DD01220121034804F024FC00BFF0
:103D70002037BD4680BD00BF000C014080B588B033
:103D800000AF0346FB7124237B7500233B7507F1CD
:103D9000140319460220FFF72BFA03467B837B8B23
:103DA0001B0A9BB2DBB2BB757B8BDBB2FB750022BF
:103DB0000121244804F0FFFB3B7D1846FFF72EF954
:103DC0007B7D1846FFF72AF9BB7D1846FFF726F9D9
:103DD000FB7D1846FFF722F9FB793B7300237B73C9
:103DE0000023BB730023FB7300233B7400237B740D
:103DF00007F10C0319460620FFF7FAF903467B8307
:103E00007B8B1B0A9BB2DBB2BB747B8BDBB2FB747C
:103E10000023FB610AE007F10C02FB6913441B78E5
:103E20001846FFF7FBF8FB690133FB61FB69072BC1
:103E3000F1DD01220121034804F0BDFB00BF203762
:103E4000BD4680BD000C014080B584B000AF034684
:103E5000FB802F4B00221A702E4B00221A702E4B23
:103E600000221A700023FB603DE0FA88FB6842FAEA
:103E700003F3DBB203F00103FB72FB68072B0DDCDD
:103E8000FA7AFB6802FA03F33B813B89DAB2204BF2
:103E90001B781344DAB21E4B1A701FE0FB680B2B21
:103EA0000EDCFA7AFB68083B02FA03F33B813B899C
:103EB000DAB2184B1B781344DAB2164B1A700DE0C5
:103EC000FA7AFB68083B02FA03F33B813B89DAB2DA
:103ED000114B1B781344DAB20F4B1A7000233B814D
:103EE000FB680133FB60FB680E2BBEDD084B1A78C4
:103EF000084B1B7819461046FFF7D6FE064B1B7879
:103F00001846FFF73BFF00BF1037BD4680BD00BF1E
:103F100081020020820200208302002000000000B5
:103F200090B587B000AF78604F4B504A1A60504B45
:103F300000221A8000233B6117E03B699B007A68EE
:103F400013441A68484B1B6819461046FDF7B8F829
:103F50000346002B06D03B699B007A6813441B681C
:103F6000414A13603B6901333B613B690E2BE4DD41
:103F70000023FB604AE0FB689B007A6813441A68E0
:103F8000394B1B6819461046FCF7F2FD03461946EB
:103F9000384AFB6842F82310364AFB6852F823304F
:103FA00019467869FCF7E6FD03467B61314AFB68F8
:103FB00052F823301846FCF737FA27A3D3E9002339
:103FC000FCF71AFD0346002B1DD0FB689B007A68A6
:103FD00013441B681846FCF727FA21A3D3E90023F2
:103FE000FCF70AFD0346002B0DD001237B817A8963
:103FF000FB6802FA03F37B811D4B1A887B8913440B
:104000009AB21B4B1A80FB680133FB60FB680E2BD6
:10401000B1DD19497869FCF7B5FE03461846FCF78F
:1040200003FA4FF00002154BFCF780FB03460C46E9
:10403000184621464FF03332114BFCF777FB03460D
:104040000C4618462146FCF73FFD02460D4B1A6010
:1040500000BF1C37BD4690BD9A9999999999993F8F
:104060003333333333330B40E00B00206666864036
:10407000A20B0020A40B00200000C84200002C402E
:104080003333F33F6C0B002080B500AF174B184A59
:104090001A60164B4FF482725A60144B00229A60D9
:1040A000124B0022DA60114B00221A610F4B0022E2
:1040B0005A610E4B4FF400729A610C4B2822DA6160
:1040C0000A4B00221A62094B00225A62074B002257
:1040D0009A62064B0A22DA62044805F0FBFC0346AA
:1040E000002B01D0FEF7CAFE00BF80BDE40B00200C
:1040F0000030014080B58AB000AF786007F114034A
:1041000000221A605A609A60DA607B681B68224A53
:1041100093423DD1214B9B69204A43F480539361E4
:104120001E4B9B6903F480533B613B691B4B9B69AE
:104130001A4A43F008039361184B9B6903F0080384
:10414000FB60FB6828237B610223BB6103233B6286
:1041500007F114031946124804F0BCF810237B61E0
:104160000023BB610023FB6107F1140319460C48CF
:1041700004F0B0F80B4B5B687B627B6A43F0E06352
:104180007B627B6A43F001037B62064A7B6A536071
:1041900000BF2837BD4680BD0030014000100240FE
:1041A000000C01400000014080B582B000AF00F07B
:1041B00019FA44F6206301227821584804F052FC91
:1041C0000346002B01D00023A4E040F6C4137B601B
:1041D00002E07B68013B7B607B68002BF9D1AE225B
:1041E0000021782000F06CFA20220021782000F0D5
:1041F00067FA10220021782000F062FAB022002134
:10420000782000F05DFAC8220021782000F058FAEA
:1042100000220021782000F053FA1022002178209B
:1042200000F04EFA40220021782000F049FA812265
:104230000021782000F044FAFF220021782000F0CD
:104240003FFAA1220021782000F03AFAA6220021AC
:10425000782000F035FAA8220021782000F030FA0A
:104260003F220021782000F02BFAA42200217820A0
:1042700000F026FAD3220021782000F021FA002253
:104280000021782000F01CFAD5220021782000F0CF
:1042900017FAF0220021782000F012FAD92200212A
:1042A000782000F00DFA22220021782000F008FA90
:1042B000DA220021782000F003FA1222002178206F
:1042C00000F0FEF9DB220021782000F0F9F920222D
:1042D0000021782000F0F4F98D220021782000F0F0
:1042E000EFF914220021782000F0EAF9AF22002132
:1042F000782000F0E5F9002000F042F800F012F814
:10430000074B00221A80064B00225A80044B0122E0
:104310005A71012318460837BD4680BD3408002075
:104320008406002080B582B000AF0023FB711DE041
:10433000FB79503BDBB21A460021782000F0C0F92F
:1043400000220021782000F0BBF910220021782003
:1043500000F0B6F9FB79DB01084A1A4480234021BA
:10436000782000F053F9FB790133FB71FB79072BBF
:10437000DED900BF0837BD4680BD00BF84020020E3
:1043800080B582B000AF0346FB71FB79002B01D1F1
:10439000002301E04FF480734FF480621946034814
:1043A00006F0D4F800BF0837BD4680BD8402002067
:1043B00080B483B000AF0346FB800B46BB8013463E
:1043C000FB70FB887F2B48D8BB883F2B45D8254BFB
:1043D0001B79002B06D0FB78002B0CBF0123002398
:1043E000DBB2FB70FB78012B1AD1FA88BB88DB08A3
:1043F00098B20346DB0113441B4AD35C5AB2BB8814
:1044000003F00703012101FA03F35BB2134359B22E
:10441000FA880346DB011344C9B2134AD1541DE0A4
:10442000FA88BB88DB0898B20346DB0113440E4AC6
:10443000D35C5AB2BB8803F00703012101FA03F3EE
:104440005BB2DB435BB2134059B2FA880346DB012F
:104450001344C9B2044AD15400E000BF0C37BD4632
:1044600080BC7047840600208402002080B483B0A2
:1044700000AF03460A46FB801346BB80054AFB8813
:104480001380044ABB88538000BF0C37BD4680BCF4
:10449000704700BF8406002080B586B000AF034699
:1044A0003960FB711346BB713A4B1B881A463B6857
:1044B0001B7813447F2B07DC364B5B881A463B681E
:1044C0005B7813443F2B01DD00235EE000237B611A
:1044D0004BE03B685A68FB79203B3968497801FB1F
:1044E00003F319467B690B445B0013441B88FB6094
:1044F00000233B6130E0FA683B6902FA03F303F4FE
:104500000043002B10D0234B1A883B699BB2134405
:1045100098B2204B5A887B699BB213449BB2BA79FC
:104520001946FFF745FF14E01A4B1A883B699BB206
:10453000134498B2174B5A887B699BB2134499B2C3
:10454000BB79002B0CBF01230023DBB21A46FFF717
:104550002FFF3B6901333B613B681B781A463B697F
:104560009342C8D37B6901337B613B685B781A4611
:104570007B699342ADD3074B1A883B681B789BB28B
:1045800013449AB2034B1A80FB7918461837BD467C
:1045900080BD00BF8406002080B584B000AFF86005
:1045A000B9601346FB7112E0FB681B78FA79B968B1
:1045B0001846FFF771FF03461A46FB681B789A42BC
:1045C00002D0FB681B7808E0FB680133FB60FB68E6
:1045D0001B78002BE8D1FB681B7818461037BD46C6
:1045E00080BD000080B483B000AF074B7B6002E069
:1045F0007B68013B7B607B68002BF9D100BF0C37E7
:10460000BD4680BC704700BF90D00300B0B588B0F5
:1046100002AF3A601A460346FB710B46BB71134664
:10462000BB806B461D46BB88581C431E3B6103463E
:1046300019464FF000024FF000034FF00004D40081
:1046400044EA5174CB00034619464FF000024FF084
:1046500000034FF00004D40044EA5174CB00034639
:104660000733DB08DB00ADEB030D02AB0033FB606F
:10467000FB68BA791A700123FB750AE0FB7D013BE8
:104680003A681A44FB7D1178FA68D154FB7D0133F6
:10469000FB75FB7D9BB2BA889A42EFD2FB7999B247
:1046A000FA68B8880A2300930346044804F0DCF84B
:1046B000AD4600BF1837BD46B0BD00BF340800206E
:1046C00080B586B002AF0346FB710B46BB71134643
:1046D0007B71BB793B737B797B73FB7999B207F173
:1046E0000C020A2300930223034804F0BDF800BF24
:1046F0001037BD4680BD00BF3408002080B485B0AF
:1047000000AF154B9B69144A43F001039361124BB0
:104710009B6903F00103BB60BB680F4BDB690E4A6A
:1047200043F08053D3610C4BDB6903F080537B6013
:104730007B680A4B5B68FB60FB6823F0E063FB600F
:10474000FB6843F00073FB60044AFB68536000BFE2
:104750001437BD4680BC7047001002400000014085
:1047600080B400AF00BFBD4680BC704780B400AFCE
:10477000FEE780B400AFFEE780B400AFFEE780B490
:1047800000AFFEE780B400AF00BFBD4680BC7047FD
:1047900080B400AF00BFBD4680BC704780B400AF9E
:1047A00000BFBD4680BC704780B500AF02F028F85E
:1047B00000BF80BD80B500AF024803F031FC00BFF0
:1047C00080BD00BFC807002080B500AF024803F0DD
:1047D00038F800BF80BD00BF0C08002080B500AFD6
:1047E000024803F02EF800BF80BD00BF0C08002077
:1047F000B0B500AFB84805F01CFAB84B1B680133E0
:10480000B64A1360B64B1B680133B54A1360B54B0B
:104810001B68B54A1268B54931F812209B1AB14A93
:104820001360B34B1B68B04A1268B24931F81220CA
:104830009B1AAF4A1360AC4B1B68AF4A1188AB4A56
:1048400022F81310A84B1B68AB4A5188A94A22F8DA
:104850001310A54B1B68A54A32F813301A46A14B1A
:104860001B6813449F4A13609F4B1B68A14A32F890
:1048700013301A469E4B1B6813449D4A1360994B94
:104880001B689E4A82FB03125211DB17D31A18468B
:10489000FCF724FA02469A4B1A60954B1B68974A1C
:1048A00082FB03125211DB17D31A1846FCF716FAD3
:1048B0000246944B1A60944B1B68944A1360934BC6
:1048C0001B684FF000011846FCF7FAFB0346002B6B
:1048D00002D08E4B8E4A1A60894B1B681846FBF734
:1048E000A3FD75A3D3E90023FBF7F6FD03460C46B1
:1048F0001846214672A3D3E90023FBF737FC034691
:104900000C4625461C46834B1B681846FBF78CFD5E
:1049100002460B4620462946FBF726FC03460C467A
:1049200018462146FCF7D0F802467B4B1A60744BC0
:104930001B681846FBF778FD5FA3D3E90023FBF75C
:10494000CBFD03460C46184621465DA3D3E9002360
:10495000FBF70CFC03460C4618462146FCF7B4F85E
:1049600002466E4B1A605E4B1B68092B40F31A819E
:104970005B4B00221A60604B9B881A4642F2107310
:1049800003FB02F25C4B9B88C3F573630C3392FB11
:10499000F3F31846FCF7A2F90246614B1A60604B2C
:1049A0001B681846FBF740FD03460C461846214697
:1049B00007F010FE44A3D3E90023FBF78DFD034667
:1049C0000C461846214642A3D3E90023FBF7CEFB51
:1049D00003460C4618462146FCF776F80246514B32
:1049E0001A60454BDB881A4642F2107303FB02F251
:1049F000414BDB88C3F573630C3392FBF3F318462A
:104A0000FCF76CF90246484B1A60474B1B68184686
:104A1000FBF70AFD03460C461846214607F0DAFD6F
:104A200029A3D3E90023FBF757FD03460C4618469C
:104A3000214627A3D3E90023FBF798FB03460C4646
:104A400018462146FCF740F80246384B1A602A4BBC
:104A50001B891A4642F2107303FB02F2264B1B8994
:104A6000C3F573630C3392FBF3F31846FCF736F986
:104A700002462F4B1A602E4B1B681846FBF7D4FCDE
:104A800003460C461846214607F0A4FD0EA3D3E9C1
:104A90000023FBF721FD03460C46184621460CA3D4
:104AA000D3E90023FBF762FB03460C461846214678
:104AB000FCF70AF802463DE0752C45CE1376A4BFFC
:104AC000363A4271E4565340CDCCCCCCCC0C38C0F5
:104AD00085EB51B81ECD6E40EC140020900B0020E9
:104AE000A41000209810002068100020400C002026
:104AF00038100020B8100020EC080020D34D6210C0
:104B00004010002058100020700B0020481000209A
:104B1000000080BFB01000205C100020B410002006
:104B2000541000207010002094100020A4140020C5
:104B3000AC100020AE4B1A60AE4B5B891A4642F2B5
:104B4000107303FB02F2AB4B5B89C3F573630C3349
:104B500092FBF3F31846FCF7C1F80246A64B1A6025
:104B6000A54B1B681846FBF75FFC03460C4618462E
:104B7000214607F02FFD98A3D3E90023FBF7ACFCF7
:104B800003460C461846214695A3D3E90023FBF7BC
:104B9000EDFA03460C4618462146FBF795FF024600
:104BA000964B1A60964B1B78012B40F0A780954BD3
:104BB0001B78022B01D100F09BF9924B1B78012B43
:104BC00001D100F0C1FF904B1B78012B08D08F4B17
:104BD0001B688F491846FCF791FA0346002B09D051
:104BE0008C4B1B78012B05D18A4B00221A70864B07
:104BF00000221A70884B1B78012B09D1874B1B7838
:104C0000012B05D1844B00221A70844B00221A70AC
:104C1000834B1B78012B26D1824B1B688249184697
:104C2000FCF74EFA0346002B1DD0804B1B687E49D3
:104C30001846FCF745FA0346002B14D06C4B1B6852
:104C400079491846FCF73CFA0346002B0BD06B4B16
:104C50001B6875491846FCF733FA0346002B02D04F
:104C60006F4B00221A70724B1B78012B26D16D4BB3
:104C70001B6870491846FCF741FA0346002B1AD10D
:104C80006A4B1B686B491846FCF738FA0346002B41
:104C900011D1574B1B6867491846FCF72FFA03469A
:104CA000002B08D1554B1B6862491846FCF726FAC1
:104CB0000346002B02D05E4B00221A705E4B1B781D
:104CC000012B0BD15D4B1B685A491846FCF716FAAD
:104CD0000346002B02D0584B00221A70584B1B7809
:104CE000012B0BD1554B1B6856491846FCF7E8F9C8
:104CF0000346002B02D0524B00221A70524B1B6805
:104D00000133514A1360504B1A68504B83FB021316
:104D10005911D317CB1A4FF4FA7101FB03F3D31ACD
:104D2000494A1360374B1B78012B0CD0354B1B784D
:104D3000022B08D0334B1B78032B04D0314B1B784C
:104D4000002B40F0B280424B1B8801339AB2404B9B
:104D50001A80404B1A68404B1B6819461046FBF7F7
:104D600009FF03461A463B4B1A60394B1B88B3F5C3
:104D70007A7FC0F09A80374B1B6883F00043374935
:104D80001846FCF7B3F803461846FBF74DFB16A38D
:104D9000D3E90023FBF7A0FB03460C4625461C463F
:104DA0002F4B1B681846FBF73FFB02460B4620467D
:104DB0002946FBF7BBFC03460C46184621464FF03C
:104DC0000002284BFBF788FB03460C461846214699
:104DD0004AE000BFAFF30080CDCCCCCCCC0C38C0C7
:104DE00085EB51B81ECD6E40DFBC9A785634323F09
:104DF0004C100020EC080020601000209C100020C7
:104E00008002002066090020A81000204810002021
:104E1000000058426510002074100020501000203F
:104E2000441000207010002000002042A414002034
:104E3000641000200000A04190100020980B00207A
:104E40003D0C002000008C4268100020D34D621001
:104E500046100020A81400205C10002000007A44B6
:104E6000140000200000594011A3D3E90023FBF7F0
:104E70007BF903460C4618462146FBF725FE024601
:104E80000D4B1A600D4B1A680B4B1B6819461046E8
:104E9000FBF770FE03461A46084B1A60084B0022C7
:104EA0001A80084B4FF000021A6000BFB0BD00BF6F
:104EB000F168E388B5F8043F28100020980B002023
:104EC00046100020A814002080B500AF064804F06A
:104ED000B0FE064B1B78012B01D1FCF717FBFCF74A
:104EE000EBFE00BF80BD00BFAC14002060090020B5
:104EF000B0B500AF7E4B1B681846FBF795FA044629
:104F00000D467C4B1B681846FBF78EFA74A3D3E959
:104F10000023FBF70BFC02460B4620462946FBF715
:104F20006BFD0346002B0ED0734B0C221A70FCF75E
:104F300055FA724B01221A7000220421704803F0C6
:104F40003AFB00F0EEBD6B4B1A686E4B1B681946BE
:104F50001046FCF7B5F80346002B00F0E7806A4BDB
:104F60001B78002B40F0E280634B01221A70674BE4
:104F70001C68604B1A68634B1B6819461046FBF7A8
:104F8000B5FF034619464FF07E50FBF7F1FD03468F
:104F900019462046FBF7AAFF03461A465C4B1A60E7
:104FA0005C4B1B681846FBF73FFA4FA3D3E900237D
:104FB000FBF7DCF803460C4618462146FBF784FD58
:104FC0000246544B1A60534B1A68514B1B681946E2
:104FD0001046FCF793F80346002B11D04A4B1B7880
:104FE000002B0DD1FCF7FAF9494B1B68494A1360B5
:104FF000454B01221A7000220421414803F0DBFADC
:10500000414B1B78002B40F08985414B1A68414B7E
:105010001B6819461046FBF7ABFD03463E49184690
:10502000FCF76CF80346002B18D03C4B1A683C4B3D
:1050300083FB02139911D317CB1A4FF47A7101FB3A
:1050400003F3D31A002B40F0698504212C4803F0A8
:10505000CAFA324B00221A6000F060BD2C4B1A686D
:105060002C4B1B6819461046FBF782FD03462D4961
:105070001846FCF743F80346002B17D0274B1A6855
:10508000294B83FB02135911D317CB1A642101FB5F
:1050900003F3D31A002B40F041850421184803F094
:1050A000A2FA1E4B00221A6000F038BD184B1A6895
:1050B000184B1B6819461046FBF75AFD03464FF084
:1050C0007E511846FCF71AF80346002B01D100F078
:1050D00025BD012204210A4803F06DFA00F01EBD2F
:1050E000CDCCCCCCCCCCEC3FFCA9F1D24D62503F26
:1050F0005C100020481000206C1000203E0C0020A6
:1051000000100140740000206510002054000020B1
:10511000341000207810002000007041900B002017
:10512000D34D6210000020411F85EB51764B1A6869
:10513000764B1B6819461046FBF71AFD03464FF0E5
:1051400000011846FBF7DAFF0346002B00F0F88059
:105150006F4B1B78002B40F0F3806E4B02221A70CD
:105160006D4B1B681846FBF75FF904460D46664B0E
:105170001B681846FBF758F95FA3D3E90023FBF738
:10518000D5FA02460B46104619464FF00002634B13
:10519000FAF7EAFF02460B4620462946FBF7C6FA15
:1051A00003460C4618462146FBF78EFC02465C4B34
:1051B0001A605C4B1B681846FBF736F950A3D3E91D
:1051C0000023FAF7D3FF03460C4618462146FBF7A7
:1051D0007BFC0246534B1A60524B1A68504B1B68BB
:1051E00019461046FBF78AFF0346002B11D0484BA7
:1051F0001B78002B0DD1FCF7F1F8494B1B68494A8D
:105200001360434B01221A7000220421464803F028
:10521000D2F93F4B1B78002B40F08284404B1A6838
:10522000404B1B6819461046FBF7A2FC03463F495A
:105230001846FBF763FF0346002B18D03C4B1A6857
:105240003C4B83FB02139911D317CB1A4FF47A719D
:1052500001FB03F3D31A002B40F06284042132488F
:1052600003F0C1F9324B00221A6000F059BC2C4BFC
:105270001A682C4B1B6819461046FBF779FC03464D
:105280002D491846FBF73AFF0346002B17D0284B51
:105290001A682A4B83FB02135911D317CB1A6421C6
:1052A00001FB03F3D31A002B40F03A8404211E487B
:1052B00003F099F91E4B00221A6000F031BC184B24
:1052C0001A68184B1B6819461046FBF751FC034639
:1052D0004FF07E511846FBF711FF0346002B01D11A
:1052E00000F01EBC012204210F4803F064F900F015
:1052F00017BC00BFAFF30080CDCCCCCCCCCC2540CC
:10530000FCA9F1D24D62503F5C1000205C000020EF
:10531000741000206C100020580000200000F03FA6
:1053200030100020A010002000100140000070414B
:10533000900B0020D34D6210000020411F85EB51DF
:105340008C4B1B6819468C48FBF712FC03468B49B3
:105350001846FBF7B5FE0346002B2AD1884B1B6885
:1053600019468848FBF704FC034684491846FBF7B6
:10537000A7FE0346002B1CD1834B1B6819467E48B1
:10538000FBF7F6FB03467D491846FBF799FE0346FB
:10539000002B0ED17D4B1B6819467A48FBF7E8FBC2
:1053A000034676491846FBF78BFE0346002B00F0B8
:1053B000FD80774B1B78002B40F0F880754B032263
:1053C0001A70754B1B686D491846FBF7D1FB0346F5
:1053D0001A46684B1B6819461046FBF771FE0346D8
:1053E000002B28D06C4B1B686C491846FBF7C0FBA0
:1053F00003461A465F4B1B6819461046FBF774FEBE
:105400000346002B17D0664B1A68664B83FB0213CA
:105410009911D317CB1A4FF47A7101FB03F3D31A06
:10542000002B40F0A68004215F4803F0DCF85C4BC1
:1054300000221A609DE0584B1B6858491846FBF73C
:1054400097FB03461A464B4B1B6819461046FBF761
:1054500037FE0346002B28D04F4B1B684FF080418E
:105460001846FBF785FB03461A46424B1B68194654
:105470001046FBF739FE0346002B16D0484B1A683E
:10548000484B83FB02135911D317CB1A4FF4FA710F
:1054900001FB03F3D31A002B6BD10421424803F024
:1054A000A2F83F4B00221A6063E03B4B1B684FF0B1
:1054B00080411846FBF75CFB03461A462D4B1B68E0
:1054C00019461046FBF7FCFD0346002B21D0294B63
:1054D0001A68314B1B6819461046FBF7FBFD034663
:1054E000002B16D02E4B1A682E4B83FB021359113A
:1054F000D317CB1A4FF4FA7101FB03F3D31A002B25
:1055000037D10421284803F06EF8254B00221A6099
:105510002FE0184B1B6818491846FBF7EFFD0346B0
:10552000002B1BD1164B1B6816491846FBF7E6FDEE
:105530000346002B12D1144B1B680F491846FBF78A
:10554000DDFD0346002B09D1104B1B680D491846A1
:10555000FBF7D4FD0346002B00D1E2E2FBF73EFF50
:105560000B4B01221A70002204210F4803F023F88C
:10557000D7E2D6E27010002000004842000020412F
:10558000A41400200000AA424C1000209C1000200F
:10559000441000206C100020640000200000A04097
:1055A000900B0020D34D621000100140944B1A68FC
:1055B000944B1B6819461046FBF7DAFA03469249EA
:1055C0001846FBF787FD0346002B30D18F4B1A6836
:1055D0008C4B1B6819461046FBF7CAFA03468A49EA
:1055E0001846FBF777FD0346002B20D1884B1A683D
:1055F000844B1B6819461046FBF7BAFA03468249EA
:105600001846FBF767FD0346002B10D1814B1A6843
:105610007C4B1B6819461046FBF7AAFA03467A49E9
:105620001846FBF757FD0346002B00F001817A4B2B
:105630001B78002B40F0FC80784B04221A70714BD1
:105640001B6871491846FBF795FA03461A466C4BDE
:105650001B6819461046FBF747FD0346002B28D070
:10566000684B1B686E491846FBF784FA03461A46D6
:10567000634B1B6819461046FBF722FD0346002BBF
:1056800017D0684B1A68684B83FB02139911D31724
:10569000CB1A4FF47A7101FB03F3D31A002B40F0BD
:1056A000AE800421614802F09EFF5E4B00221A602A
:1056B000A5E0544B1B685A491846FBF75BFA0346B2
:1056C0001A464F4B1B6819461046FBF70DFD034663
:1056D000002B28D04B4B1B684FF080411846FBF73E
:1056E00049FA03461A46464B1B6819461046FBF713
:1056F000E7FC0346002B16D04A4B1A684A4B83FB43
:1057000002135911D317CB1A4FF4FA7101FB03F3AB
:10571000D31A002B73D10421444802F064FF414B9B
:1057200000221A606BE0374B1B684FF0804118462F
:10573000FBF720FA03461A46314B1B681946104600
:10574000FBF7DCFC0346002B21D02D4B1A682D4BB8
:105750001B6819461046FBF7C7FC0346002B16D002
:10576000304B1A68304B83FB02135911D317CB1AF5
:105770004FF4FA7101FB03F3D31A002B3FD104213C
:105780002A4802F030FF274B00221A6037E01C4BFA
:105790001A681C4B1B6819461046FBF791FC034620
:1057A000002B21D1194B1A68164B1B68194610465D
:1057B000FBF786FC0346002B16D1154B1A68114BDC
:1057C0001B6819461046FBF77BFC0346002B0BD1E8
:1057D000104B1A680B4B1B6819461046FBF770FC00
:1057E0000346002B00D19CE1FBF7F8FD0A4B012298
:1057F0001A70002204210D4802F0DDFE91E190E1D3
:10580000701000206800002000002041A414002037
:105810004C1000209C100020641000206C10002010
:105820000000A040900B0020D34D621000100140FA
:10583000814B1A68814B1B6819461046FBF798F993
:1058400003467F491846FBF745FC0346002B00F052
:10585000CD807C4B1B78002B40F0C8807A4B1B78A6
:10586000022B40F0C380794B05221A70734B1B68E2
:1058700073491846FBF77EF903461A466E4B1B68C0
:1058800019461046FBF730FC0346002B28D06B4B23
:105890001B686F491846FBF76DF903461A46664BBD
:1058A0001B6819461046FBF70BFC0346002B17D06C
:1058B000684B1A68684B83FB02139911D317CB1AF4
:1058C0004FF47A7101FB03F3D31A002B40F08D8063
:1058D0000421624802F087FE5E4B00221A6084E0D9
:1058E000564B1B685A491846FBF744F903461A46BB
:1058F000514B1B6819461046FBF7F6FB0346002B7D
:1059000028D04E4B1B684FF080411846FBF732F908
:1059100003461A46484B1B6819461046FBF7D0FB56
:105920000346002B16D04B4B1A684B4B83FB0213DC
:105930005911D317CB1A4FF4FA7101FB03F3D31AA1
:10594000002B52D10421454802F04DFE414B00226C
:105950001A604AE0394B1B684FF080411846FBF74C
:1059600009F903461A46344B1B6819461046FBF7E3
:10597000C5FB0346002B21D02F4B1A682F4B1B6809
:1059800019461046FBF7B0FB0346002B16D0314BEF
:105990001A68314B83FB02135911D317CB1A4FF4FA
:1059A000FA7101FB03F3D31A002B1ED104212B48FB
:1059B00002F019FE274B00221A6016E01E4B1A68EF
:1059C0001E4B1B6819461046FBF77AFB0346002B5B
:1059D00000D1A6E0FBF702FD1A4B01221A7000224B
:1059E00004211E4802F0E7FD9BE09AE01C4B1A6878
:1059F0001C4B1B6819461046FBF7BAF803461049C2
:105A00001846FBF75DFB0346002B2FD00F4B0922F6
:105A10001A70144B1A68124B1B6819461046FBF794
:105A20006DFB0346002B00D17BE00F4B01221A7067
:105A3000FBF7D4FC75E000BF980B00206C00002041
:105A40000000204190100020660900206C1000200A
:105A50000000A040900B0020D34D621000100140C8
:105A60007C0000206C0B00203C0C0020304B1B788D
:105A7000002B03D02E4B1A782E4B1A702C4B002281
:105A80001A70002204212C4802F095FD2B4B4FF098
:105A900000021A602A4B1B681846FAF7C5FC22A3BD
:105AA000D3E90023FAF760FB03460C46184621466B
:105AB000FBF70AF80246224B1A60224B1B68184675
:105AC000FAF7B2FC18A3D3E90023FAF74DFB03461B
:105AD0000C4618462146FAF7F7FF0246194B1A60A2
